:020000040000FA
:04C0000043EF60F0BA
:10C008005B82FACF4DF0FBCF4EF0E9CF4FF0EACF8D
:10C0180050F0E1CF51F0E2CF52F0D9CF53F0DACF60
:10C0280054F0F3CF55F0F4CF56F0F6CF57F0F7CFE2
:10C0380058F0F8CF59F0F5CF5AF01EEC85F0FDEC2A
:10C0480099F05AC0F5FF59C0F8FF58C0F7FF57C01C
:10C05800F6FF56C0F4FF55C0F3FF54C0DAFF53C0D3
:10C06800D9FF52C0E2FF51C0E1FF50C0EAFF4FC004
:10C07800E9FF4EC0FBFF4DC0FAFF5B92110027EFAE
:10C0880096F00043686172676572204173796E6348
:10C0980068726F6E6F7573004D505054204368611D
:10C0A800726765722044657461696C730020204F63
:10C0B800757433206F666620204F757434206F6660
:10C0C800660020204F757431206F666620204F75FA
:10C0D8007432206F66660054656D706572617475A0
:10C0E8007265204D6F6E69746F7200436861726784
:10C0F80065722053796E6368726F6E6F7573005541
:10C1080053422043686172676572204F7574707579
:10C118007473002D3E507265737320666F722073BE
:10C1280065636F6E6473002D3E507265737320668D
:10C138006F72206D696E75746573002D3E5072655F
:10C14800737320746F207365742074696D65005073
:10C15800616E656C3A2020202042617474657279A2
:10C168003A0043686172676572204566666963696B
:10C17800656E6379004368617267657220737570D4
:10C18800706C79206F66660043686172676572201B
:10C19800737570706C79206F6E002D3E50726573E8
:10C1A8007320666F7220686F757273002D3E50722F
:10C1B80065737320666F72206D6F6E74680020203F
:10C1C80020496E7075742020204F75747075740046
:10C1D800566F6C7461676520262043757272656EB0
:10C1E8007400555342206368617267696E67206FF7
:10C1F8006666004368617267657220537461727481
:10C208007570004261747465727920746F6F206C68
:10C218006F7700555342206368617267696E6720C3
:10C228006F6E004261747465727920746F6F206C50
:10C238006F77002D3E507265737320746F207361A1
:10C248007665002D3E507265737320666F722064A8
:10C25800617900453A2020202020202020204C3AD7
:10C2680000506F776572204F757470757473005441
:10C27800696D6520616E64204461746500413A20EF
:10C288002D2D2020202020202D2D0045787465722A
:10C298006E616C20323A0045787465726E616C206C
:10C2A800313A0043686172676572206F66660053B1
:10C2B8006574207365636F6E647300536574206DD5
:10C2C800696E75746573004F6E2D626F6172643AA2
:10C2D800200053657420686F75727300536574206D
:10C2E8006D6F6E74680053657420796561720046DD
:10C2F800616E206F66660053657420646179003250
:10C30800C45BC38FC3FEC346616E206F6E00563A8E
:10C31800001BC309024000020100C03209040000EA
:10C328000203000000092111010001221D00070578
:10C3380081034000010705010340000109040100D1
:10C3480002080650000705820240000107050202A4
:10C35800400001340353006F006C006400650072F4
:10C36800006E006500720064002E0063006F006DAF
:10C3780000200020002000200020002000200020B5
:10C38800002000200020002E034D005000500054D3
:10C398000053006F006C00610072002000430068C9
:10C3A800006100720067006500720020005200659D
:10C3B800007600450000800402200000004D6963FB
:10C3C800726F6368704D6173732053746F72616725
:10C3D8006520202020303030310600FF0901A101FE
:10C3E80019012940150026FF00750895408100199C
:10C3F8000129409100C01A03310032003300340093
:10C40800350036003700380039003000390039006F
:10C418001201000200000008D8048EF00001010299
:10C4280000013D2A80A73D2A80A604030904484547
:10C438004C4C4F20574F524C442100536F6C617243
:10C448004368617267720046494C452020202000ED
:10C458004D53444F53352E300054585400000101B9
:10C46800CB6F770EF66EC20EF76E000EF86E21EEE9
:10C4780080F00D0E0900F5CFDEFFE806FBE2EE0EB8
:10C48800F66EC20EF76E000EF86E21EEBAF0080EC8
:10C498000900F5CFDEFFE806FBE2E40EF66EC20EF9
:10C4A800F76E000EF86E21EEA6F0090E0900F5CF22
:10C4B800DEFFE806FBE2FF0EF66EC20EF76E000E18
:10C4C800F86E21EEC3F0070E0900F5CFDEFFE8068F
:10C4D800FBE2DA0EF66EC20EF76E000EF86E21EE73
:10C4E800B0F0090E0900F5CFDEFFE806FBE2C30E47
:10C4F800F66EC20EF76E000EF86E21EE8EF00B0E81
:10C508000900F5CFDEFFE806FBE2B70EF66EC20EB5
:10C51800F76E000EF86E21EE9AF00B0E0900F5CFBB
:10C52800DEFFE806FBE2430EF66EC10EF76E000E64
:10C53800F86E21EE00F0130E0900F5CFDEFFE806D5
:10C54800FBE2B40EF66EC10EF76E000EF86E21EE29
:10C558003CF0110E0900F5CFDEFFE806FBE24B0EBA
:10C56800F66EC20EF76E000EF86E21EE60F00F0E3A
:10C578000900F5CFDEFFE806FBE2A20EF66EC10E5B
:10C58800F76E000EF86E21EE4EF0110E0900F5CF91
:10C59800DEFFE806FBE22F0EF66EC10EF76E000E08
:10C5A800F86E21EE14F0130E0900F5CFDEFFE80651
:10C5B800FBE21B0EF66EC10EF76E000EF86E21EE52
:10C5C80028F0130E0900F5CFDEFFE806FBE23B0E6C
:10C5D800F66EC20EF76E000EF86E21EE70F00F0EBA
:10C5E8000900F5CFDEFFE806FBE209ECAFF0010138
:10C5F800CC6F17ECAFF00101CD6F2CECAFF001015F
:10C60800CE6F25ECAFF00101CF6F1EECAFF001014A
:10C61800D06F10ECAFF00101D16FD5D1000ED26F01
:10C6280013D0D251010D800EF324D96E010EF420DF
:10C63800DA6ED251010D540EF324E16E030EF4208C
:10C64800E26EDFCFE7FFD22BD251010D800EF3242B
:10C65800D96E010EF420DA6EDF50D8A4E2D7000EAE
:10C66800D26F13D0D251010D000EF324D96E010EF2
:10C67800F420DA6ED251010D900EF324E16E030E10
:10C68800F420E26EDFCFE7FFD22BD251010D000E6E
:10C69800F324D96E010EF420DA6EDF50D8B4A9D194
:10C6A800E1D7000ED26F13D0D251010DBA0EF32488
:10C6B800D96E010EF420DA6ED251010D540EF32416
:10C6C800E16E030EF420E26EDFCFE7FFD22BD251EA
:10C6D800010DBA0EF324D96E010EF420DA6EDF5084
:10C6E800D8A4E2D7000ED26F13D0D251010D3C0E60
:10C6F800F324D96E010EF420DA6ED251010D900E9A
:10C70800F324E16E030EF420E26EDFCFE7FFD22BB5
:10C71800D251010D3C0EF324D96E010EF420DA6ECD
:10C72800DF50D8B466D1E1D7000ED26F13D0D25102
:10C73800010DA60EF324D96E010EF420DA6ED25143
:10C74800010D540EF324E16E030EF420E26EDFCFE8
:10C75800E7FFD22BD251010DA60EF324D96E010E9C
:10C76800F420DA6EDF50D8A4E2D7000ED26F13D0CF
:10C77800D251010D600EF324D96E010EF420DA6E49
:10C78800D251010D900EF324E16E030EF420E26EF7
:10C79800DFCFE7FFD22BD251010D600EF324D96E03
:10C7A800010EF420DA6EDF50D8B423D1E1D7000EA1
:10C7B800D26F13D0D251010DC30EF324D96E010EDE
:10C7C800F420DA6ED251010D540EF324E16E030EFB
:10C7D800F420E26EDFCFE7FFD22BD251010DC30E5A
:10C7E800F324D96E010EF420DA6EDF50D8A4E2D714
:10C7F800000ED26F13D0D251010D4E0EF324D96E14
:10C80800010EF420DA6ED251010D900EF324E16E80
:10C81800030EF420E26EDFCFE7FFD22BD251010DD9
:10C828004E0EF324D96E010EF420DA6EDF50D8B420
:10C83800E0D0E1D7000ED26F13D0D251010DB00E67
:10C84800F324D96E010EF420DA6ED251010D540E84
:10C85800F324E16E030EF420E26EDFCFE7FFD22B64
:10C86800D251010DB00EF324D96E010EF420DA6E08
:10C87800DF50D8A4E2D7000ED26F13D0D251010DE9
:10C88800140EF324D96E010EF420DA6ED251010D84
:10C89800900EF324E16E030EF420E26EDFCFE7FF83
:10C8A800D22BD251010D140EF324D96E010EF420AF
:10C8B800DA6EDF50D8B49DD0E1D7000ED26F13D016
:10C8C800D251010D8E0EF324D96E010EF420DA6ECA
:10C8D800D251010D540EF324E16E030EF420E26EE2
:10C8E800DFCFE7FFD22BD251010D8E0EF324D96E84
:10C8F800010EF420DA6EDF50D8A4E2D7000ED26F12
:10C9080013D0D251010D280EF324D96E010EF42054
:10C91800DA6ED251010D900EF324E16E030EF4206D
:10C92800E26EDFCFE7FFD22BD251010D280EF324A0
:10C93800D96E010EF420DA6EDF50D8B45AD0E1D7A0
:10C94800000ED26F13D0D251010D9A0EF324D96E76
:10C95800010EF420DA6ED251010D540EF324E16E6B
:10C96800030EF420E26EDFCFE7FFD22BD251010D88
:10C978009A0EF324D96E010EF420DA6EDF50D8A493
:10C98800E2D7000ED26F13D0D251010D700EF324EE
:10C99800D96E010EF420DA6ED251010D900EF324F7
:10C9A800E16E030EF420E26EDFCFE7FFD22BD25107
:10C9B800010D700EF324D96E010EF420DA6EDF50EB
:10C9C800D8B417D0E1D7CB51100AD8B427D6010A6A
:10C9D800D8B467D6030AD8B4A7D6010AD8B4E7D61C
:10C9E800070AD8B427D7010AD8B467D7030AD8B436
:10C9F800A7D7320E0301686F300E696F0101CC3979
:10CA08000F0B300F03016A6F0101CC510F0B300F70
:10CA180003016B6F2D0E6C6F0101CD390F0B300FB9
:10CA280003016D6F0101CD510F0B300F03016E6FC4
:10CA38002D0E6F6F0101CE390F0B300F0301706F90
:10CA48000101CE510F0B300F0301716F0101CF3976
:10CA58000F0B300F03017C6F0101CF510F0B300F0B
:10CA680003017D6F3A0E7E6F0101D0390F0B300F35
:10CA780003017F6F0101D0510F0B300F0301806F4D
:10CA88003A0E816F0101D1390F0B300F0301826F0C
:10CA98000101D1510F0B300F0301836F120030D207
:10CAA80002010851300B300AD8A412000C0E000104
:10CAB800766FFE0E776F22EE12F0DECF78F0DDCFC4
:10CAC80079F0765178277751792378510201275DDB
:10CAD8002851800A00017A6F7951800A7A59D8B0B2
:10CAE80012008A82010E1C6E000E02011E6F000EDB
:10CAF8001D6F000E336F000E326F000E00017D6F48
:10CB0800030E7D6501D012007D51020D140EF32431
:10CB1800D96E020EF420DA6E000EDE6E000EDD6EA7
:10CB28007D51020D290EF324D96E020EF420DA6E1F
:10CB3800000EDE6E000EDD6E7D2BE2D7020108517D
:10CB4800300B300AD8A41200000E1C6F000E316F93
:10CB5800000E00017D6F030E7D6501D01AD07D5156
:10CB6800020D140EF324D96E020EF420DA6EDF5093
:10CB780002011C2700017D51020D290EF324D96EF4
:10CB8800020EF420DA6EDF500201312700017D2BFE
:10CB9800E2D7010E0101F26F0CEC98F000017B6FF7
:10CBA8007BC072F0000E8AEC96F01200020108A910
:10CBB80012002751E95DEA51800A0001766F0201EF
:10CBC8002851800A00017659D8B006D0E50592ECC4
:10CBD800A1F00101F269120002011EBF13D01E511B
:10CBE80004E1050E1D5DD8A00DD02751125D13512B
:10CBF800800A0001766F02012851800A00017659E7
:10CC0800D8B005D0D4ECABF0000E1C6E120022EEAA
:10CC180027F0DECF76F0DDCF77F00001761F771FA3
:10CC2800764B772B0201125100017627020113512E
:10CC38000001772377BF06D0E80E765D030E77599B
:10CC4800D8B006D0E50592ECA1F00101F269120016
:10CC580002011EBF11D0590E1D5D020E1E59D8A02B
:10CC68000BD00CEC98F0050F00017C6F7CC062F0D3
:10CC7800010E46ECA0F0120002010851300B000131
:10CC8800E16FE13B0F0EE117E151020D0A0EF324AB
:10CC9800D96E020EF420DA6EDECF9EF2DDCF9FF25F
:10CCA8000201000E9FBFFF0EA06FA16F9EC260F031
:10CCB8009FC261F0A0C262F0A1C263F00001E1511D
:10CCC800020D140EF324D96E020EF420DA6EDECFB4
:10CCD80064F0DDCF65F0000E65BFFF0E666F676F0D
:10CCE80082ECA5F060C09EF261C09FF262C0A0F223
:10CCF80063C0A1F2020E0001E127030EE117E15122
:10CD0800020D0A0EF324D96E020EF420DA6EDECF7D
:10CD1800A2F2DDCFA3F20201000EA3BFFF0EA46FA3
:10CD2800A56FA2C260F0A3C261F0A4C262F0A5C25E
:10CD380063F00001E151020D140EF324D96E020EC6
:10CD4800F420DA6EDECF64F0DDCF65F0000E65BF4B
:10CD5800FF0E666F676F82ECA5F060C0A2F261C03B
:10CD6800A3F262C0A4F263C0A5F2020113BF0BD004
:10CD7800520E125D3B0E1359D8A005D00001E529CB
:10CD880092ECA1F012000001E50592ECA1F012006E
:10CD9800020108A912002751E95DEA51800A000141
:10CDA800766F02012851800A00017659D8B006D062
:10CDB800E50592ECA1F00101F269120002011EBF23
:10CDC80006D01E510EE1C80E1D5DD8B00AD0000174
:10CDD800E551FB0F7C6F7CC062F0000E46ECA0F0C2
:10CDE800120002010851300B0001E16FE13B0F0E08
:10CDF800E117E151020D0A0EF324D96E020EF42058
:10CE0800DA6EDECF9EF2DDCF9FF20201000E9FBFE9
:10CE1800FF0EA06FA16F9EC260F09FC261F0A0C21A
:10CE280062F0A1C263F00001E151020D140EF32477
:10CE3800D96E020EF420DA6EDECF64F0DDCF65F035
:10CE4800000E65BFFF0E666F676F82ECA5F060C0CD
:10CE58009EF261C09FF262C0A0F263C0A1F2020E0E
:10CE68000001E127030EE117E151020D0A0EF32438
:10CE7800D96E020EF420DA6EDECFA2F2DDCFA3F275
:10CE88000201000EA3BFFF0EA46FA56FA2C260F03F
:10CE9800A3C261F0A4C262F0A5C263F00001E1512F
:10CEA800020D140EF324D96E020EF420DA6EDECFD2
:10CEB80064F0DDCF65F0000E65BFFF0E666F676F2B
:10CEC80082ECA5F060C0A2F261C0A3F262C0A4F235
:10CED80063C0A5F2020113BF0BD0520E125D3B0EC8
:10CEE8001359D8A005D00001E52992ECA1F0120051
:10CEF8000001E50592ECA1F01200000E1C6E120074
:10CF08001C50000AD8B4CCD5010AD8B417D6030AE5
:10CF1800D8B44CD6010AD8B43BD7EFD7BFD1B9ECB7
:10CF28007FF00009D8A412000001E76912004AEC5A
:10CF380075F00009D8A412000001E7691200E6059F
:10CF4800D8A402D0E769120053C2DBF054C2DAF069
:10CF5800DAC06AF0DBC06BF06C6B6D6B24EC8FF0A1
:10CF68000009D8A41200000E0001616F240E606F42
:10CF780069EC98F0000E0001606F060E616FBD0E3F
:10CF8800626FC30E636F000E656F240E646F8BECC7
:10CF9800A3F0FD0E0001E76F1200D0C260F0D1C20D
:10CFA80061F022EEBEF001D80AD00500FA6EDE501C
:10CFB800FD6EDE50FE6EDE50FF6EFA50120060C04D
:10CFC800A2F061C0A3F062C0A4F063C0A5F0D0C213
:10CFD80060F0D1C261F022EEC1F001D80AD005009C
:10CFE800FA6EDE50FD6EDE50FE6EDE50FF6EFA50B9
:10CFF8001200000160C09EF061C09FF0A06BA16BA1
:10D0080026EE00F0A5C0DFFF26EE01F0A4C0DFFF8A
:10D0180026EE02F0A3C0DFFF26EE03F0A2C0DFFF7A
:10D0280026EE04F0A1C0DFFF26EE05F0A0C0DFFF6A
:10D0380026EE06F09FC0DFFF26EE07F09EC0DFFF5A
:10D04800000EDB6F080EDA6F000E616F080E606F5E
:10D0580069EC98F0FD0E0001E76F1200E605D8A410
:10D0680002D0E7691200000EDB6F120EDA6F000EB5
:10D07800616F120E606F69EC98F0000E0001A66FE8
:10D08800110EA66501D014D0A651010D600EF3242F
:10D09800D96E020EF420DA6EA651010D000EF324AB
:10D0A800E16E060EF420E26EDFCFE7FFA62BE8D78D
:10D0B800FD0EE76F1200030EE8CF00F6000EE8CF72
:10D0C80001F6D0C260F0D1C261F022EECAF001D8F8
:10D0D8000AD00500FA6EDE50FD6EDE50FE6EDE50A0
:10D0E800FF6EFA5012000009D8A405D0000E000106
:10D0F8009C6F000E04D0000E00019C6F800E9B6F89
:10D1080026EE02F09BC0DFFF000EE8CF03F6000E0C
:10D11800DB6F040EDA6F000E616F040E606F69EC4E
:10D1280098F0FD0E0001E76F120002016251F00B4A
:10D138000509626F200E6C6F000E6D6F010E0D01F8
:10D148008C6F000E886F000E896F000E8A6F000EBC
:10D158008B6F0001E7691200000E6A6F000E6B6F9B
:10D16800000E6C6F000E6D6F24EC8FF00009D8A4D0
:10D178001200020162510F0B060AD8A407D00D0154
:10D188008C05D8A403D00001E7691200F8ECA2F0DE
:10D19800000E0D01886F000E896F000E8A6F000E59
:10D1A8008B6F0001E7691200000E0D01886F000EF9
:10D1B800896F000E8A6F000E8B6F0001E7691200FD
:10D1C800DC51DD11D8B406D0DCC0D9FFDDC0DAFFF0
:10D1D800DFBE120002014C514B114A1104E1400E0E
:10D1E800495DD8A00BD0400E00019D6F400E020192
:10D1F800495F000E4A5B4B5B4C5B0AD049C29DF00D
:10D20800000E496F000E4A6F000E4B6F000E4C6FF8
:10D2180000019D51996F9A6B9951DA5D9A51DB59CA
:10D22800D8A005D09D51DA5F000EDB5B1AD0000E46
:10D23800A66F13D0DA51DB11D8B404D0DA07D8A01E
:10D24800DB070AD0A651010D000EF324D96E060E95
:10D25800F420DA6E000EDF6EA62B9D51A65DD8A0D5
:10D26800E9D7010E606F000E616F060E626F9DC0F8
:10D2780063F0020E9CEC8CF060C0DCF061C0DDF065
:10D28800020149514A114B114C11D8A41200000156
:10D29800E76912007F0E7AEC8AF012000001E7516C
:10D2A800000AD8B459D7030AD8B4D8D6110AD8B4C2
:10D2B80046D6080AD8B4FFD6010AD8B475D7050AE5
:10D2C800D8B433D73B0AD8B468D60D0AD8B427D611
:10D2D800020AD8B42CD6050AD8B466D7D20AD8B46C
:10D2E8006FD7030AD7D7C8D160C0D9FF61C0DAFFAA
:10D2F800000EDE6E000EDD6E000120EE02F06051C1
:10D30800D9266151DA220B0EDE6E000EDD6E20EE9C
:10D3180004F06051D9266151DA22040EDF6E20EE46
:10D3280005F06051D9266151DA22000EDE6E000E3A
:10D33800DD6E20EE07F06051D9266151DA220B0E1E
:10D34800DE6E000EDD6E20EE09F06051D9266151C7
:10D35800DA22040EDF6E20EE0AF06051D926615100
:10D36800DA22000EDE6E000EDD6E120060C0D9FFFC
:10D3780061C0DAFF000EDE6E000EDD6E20EE02F0F8
:10D388006051D9266151DA22110EDE6E000EDD6E73
:10D3980020EE04F06051D9266151DA22050EDF6EC5
:10D3A80020EE05F06051D9266151DA22000EDE6EBA
:10D3B800000EDD6E20EE07F06051D9266151DA22A9
:10D3C800110EDE6E000EDD6E20EE09F06051D926DA
:10D3D8006151DA22050EDF6E20EE0AF06051D9267F
:10D3E8006151DA22000EDE6E000EDD6E120060C0A2
:10D3F800D9FF61C0DAFF000EDE6E000EDD6E20EE92
:10D4080002F06051D9266151DA22DB0EDE6E160E6B
:10D41800DD6E20EE04F06051D9266151DA220F0E3C
:10D42800DF6E20EE05F06051D9266151DA22000E38
:10D43800DE6E000EDD6E20EE07F06051D9266151D8
:10D44800DA22DB0EDE6E160EDD6E20EE09F060517C
:10D45800D9266151DA220F0EDF6E20EE0AF06051F4
:10D46800D9266151DA22000EDE6E000EDD6E120042
:10D4780060C0D9FF61C0DAFF000EDE6E000EDD6EFF
:10D4880020EE02F06051D9266151DA22DB0EDE6E01
:10D49800160EDD6E20EE04F06051D9266151DA22B5
:10D4A8000F0EDF6E20EE05F06051D9266151DA22A9
:10D4B800000EDE6E000EDD6E20EE07F06051D926FC
:10D4C8006151DA22DB0EDE6E160EDD6E20EE09F0FB
:10D4D8006051D9266151DA220F0EDF6E20EE0AF074
:10D4E8006051D9266151DA22000EDE6E000EDD6E23
:10D4F800120060C0D9FF61C0DAFF370EDE6ECA0EB7
:10D50800DD6E20EE02F06051D9266151DA22290E33
:10D51800DE6ED30EDD6E20EE04F06051D926615127
:10D52800DA220D0EDF6E20EE05F06051D92661512A
:10D53800DA22370EDE6ECA0EDD6E20EE07F060517D
:10D54800D9266151DA22290EDE6ED30EDD6E20EE69
:10D5580009F06051D9266151DA220D0EDF6E20EEF6
:10D568000AF06051D9266151DA22000EDE6E000EF3
:10D57800DD6E120060C0D9FF61C0DAFF370EDE6EC3
:10D58800CA0EDD6E20EE02F06051D9266151DA2212
:10D59800290EDE6ED30EDD6E20EE04F06051D92622
:10D5A8006151DA220D0EDF6E20EE05F06051D926AA
:10D5B8006151DA22370EDE6ECA0EDD6E20EE07F0FC
:10D5C8006051D9266151DA22290EDE6ED30EDD6E46
:10D5D80020EE09F06051D9266151DA220D0EDF6E76
:10D5E80020EE0AF06051D9266151DA22000EDE6E73
:10D5F800000EDD6E120060C0D9FF61C0DAFF370E81
:10D60800DE6ECA0EDD6E20EE02F06051D926615141
:10D61800DA22290EDE6ED30EDD6E20EE04F06051A4
:10D62800D9266151DA220D0EDF6E20EE05F0605129
:10D63800D9266151DA22370EDE6ECA0EDD6E20EE73
:10D6480007F06051D9266151DA22290EDE6ED30E19
:10D65800DD6E20EE09F06051D9266151DA220D0EF7
:10D66800DF6E20EE0AF06051D9266151DA22000EF1
:10D67800DE6E000EDD6E120000016251000AD8B4A1
:10D6880033D6010AD8B472D6030AD8B4B0D6010A80
:10D69800D8B4EED6070AD8B42CD7010AD8B46AD7BA
:10D6A800030AD8A41200A7D793D102010651800A11
:10D6B8007F0FD8A002D0100E03D006AF02D0600EA4
:10D6C800406F0751000E066F000E076F12000651DB
:10D6D800800A7F0FD8A002D0200E03D006AF02D058
:10D6E800000E406F0751D8B402D0110E406F000EE3
:10D6F800066F000E076F12000651800A7F0FD8A030
:10D7080003D0D5ECACF004D0020106BF2AECADF092
:10D7180002010751D8B405D090ECADF0120E020109
:10D72800406F000E066F000E076F12000651800A48
:10D738007F0FD8A003D0F7ECACF004D0020106BFED
:10D748004CECADF002010751D8B405D090ECADF027
:10D75800130E0201406F000E066F000E076F1200D5
:10D768000651800A7F0FD8A003D08BECACF004D010
:10D77800020106BF9EECACF002010751D8B402D0FA
:10D78800140E406F000E066F000E076F1200065150
:10D79800800A7F0FD8A003D019ECADF004D00201A5
:10D7A80006BF6EECADF002010751D8B402D0150ED9
:10D7B800406F000E066F000E076F12000651800AB8
:10D7C8007F0FD8A003D008ECADF004D0020106BF4B
:10D7D8005DECADF002010751D8B402D0160E406FCF
:10D7E800000E066F000E076F12000651800A7F0FA9
:10D7F800D8A003D0E6ECACF004D0020106BF3BECA5
:10D80800ADF002010751D8B404D0100E406F38ECC7
:10D81800A8F0000E0201066F000E076F12000651F5
:10D82800800A7F0FD8A002D0300E03D006AF02D0F6
:10D83800100E406F0751D8A428BF09D0E10E275D0C
:10D848002E0E2859D8A003D0100E78ECACF0000E9C
:10D858000201066F000E076F12000651800A7F0F43
:10D86800D8A002D0400E03D006AF02D0200E406FE1
:10D878000751D8B402D0310E406F000E066F000E6B
:10D88800076F12000651800A7F0FD8A006D028BF64
:10D898000AD0010EC7ECA7F006D0020106AF03D0EC
:10D8A800010EDAECA5F002010751D8B402D0320E0D
:10D8B800406F000E066F000E076F12000651800AB7
:10D8C8007F0FD8A006D028BF0AD0020EC7ECA7F059
:10D8D80006D0020106AF03D0020EDAECA5F0020171
:10D8E8000751D8B402D0330E406F000E066F000EF9
:10D8F800076F12000651800A7F0FD8A006D028BFF4
:10D908000AD0040EC7ECA7F006D0020106AF03D078
:10D91800040EDAECA5F002010751D8B402D0340E97
:10D92800406F000E066F000E076F12000651800A46
:10D938007F0FD8A006D028BF0AD0080EC7ECA7F0E2
:10D9480006D0020106AF03D0080EDAECA5F00201FA
:10D958000751D8B402D0300E406F000E066F000E8B
:10D96800076F12000651800A7F0FD8A002D0500E10
:10D9780003D006AF02D0300E406F0751000E066F7D
:10D98800000E076F12000651800A7F0FD8A002D040
:10D99800600E03D006AF02D0400E406F0751000E54
:10D9A800066F000E076F12000651800A7F0FD8A07D
:10D9B80002D0000E03D006AF02D0500E406F0751C0
:10D9C800000E066F000E076F1200000E406F120067
:10D9D80002014051000AD8B468D6100AD8B477D6E4
:10D9E800010AD8B489D6030AD8B4A0D6010AD8B493
:10D9F800B7D6070AD8B4CBD6010AD8B4DFD6030AFB
:10DA0800D8B4F3D6360AD8B40AD7100AD8B425D76A
:10DA1800010AD8B437D7030AD8B450D7010AD8B402
:10DA280069D7070AD8B482D7740AD8B49BD7100A22
:10DA3800D8B4A9D7300AD8B4B7D7C7D7D9EC83F0A8
:10DA480078C0D9FF79C0DAFF000164C0DEFF65C085
:10DA5800DEFF66C0DEFF67C0DEFF9AC260F09BC2D1
:10DA680061F09CC262F09DC263F016C064F017C0FA
:10DA780065F0666B676B13EC9DF0000120EE04F017
:10DA88007851D9267951DA2260C0DEFF61C0DDFF06
:10DA980096C260F097C261F098C262F099C263F0D2
:10DAA80016C064F017C065F0666B676B13EC9DF0E9
:10DAB800000120EE06F07851D9267951DA2260C0AB
:10DAC800DEFF61C0DDFF92C260F093C261F094C2D4
:10DAD80062F095C263F016C064F017C065F0666B1B
:10DAE800676B13EC9DF0000120EE08F07851D92601
:10DAF8007951DA2260C0DEFF61C0DDFF8EC260F0BE
:10DB08008FC261F090C262F091C263F016C064F0F7
:10DB180017C065F0666B676B13EC9DF0000120EE93
:10DB28000AF07851D9267951DA2260C0DEFF61C047
:10DB3800DDFF8AC260F08BC261F08CC262F08DC2D8
:10DB480063F016C064F017C065F0666B676B13EC82
:10DB58009DF0000120EE0CF07851D9267951DA2297
:10DB680060C0DEFF61C0DDFF86C260F087C261F081
:10DB780088C262F089C263F016C064F017C065F00D
:10DB8800666B676B13EC9DF0000120EE0EF0785188
:10DB9800D9267951DA2260C0DEFF61C0DDFFF40EBC
:10DBA800020182250001606F010E0201832100013C
:10DBB800616F000E020184210001626F000E0201F4
:10DBC80085210001636FE80E646F030E656F000E18
:10DBD800666F000E676F13EC9DF0000120EE10F0E9
:10DBE8007851D9267951DA2260C0DEFF61C0DDFFA5
:10DBF800F40E02017E250001606F010E02017F21F3
:10DC08000001616F000E020180210001626F000EA9
:10DC1800020181210001636FE80E646F030E656FD6
:10DC2800000E666F000E676F13EC9DF0000120EE8A
:10DC380012F07851D9267951DA2260C0DEFF61C02E
:10DC4800DDFF20EE14F07851D9267951DA227AC214
:10DC580060F07BC261F07CC262F07DC263F016C0E6
:10DC680064F017C065F0666B676B5CEC95F060C09C
:10DC78006EF061C06FF092ECABF0DF6E000120EE49
:10DC880015F07851D9267951DA2276C260F077C238
:10DC980061F078C262F079C263F016C064F017C010
:10DCA80065F0666B676B5CEC95F060C06EF061C008
:10DCB8006FF092ECABF0DF6E000120EE16F07851B9
:10DCC800D9267951DA2272C260F073C261F074C247
:10DCD80062F075C263F016C064F017C065F0666B39
:10DCE800676B5CEC95F060C06EF061C06FF092EC11
:10DCF800ABF0DF6E000120EE17F07851D92679518C
:10DD0800DA22D8900201B13100017B6F0201B031F3
:10DD180000017A6F7A51DF6E20EE18F07851D9261B
:10DD28007951DA22D8900201AF3100017B6F0201EC
:10DD3800AE3100017A6F7A51DF6E20EE19F078511A
:10DD4800D9267951DA22000EDF6E20EE1AF07851CA
:10DD5800D9267951DA22000EDF6E20EE1BF07851B9
:10DD6800D9267951DA22000EDF6E20EE1CF07851A8
:10DD7800D9267951DA22000EDF6E20EE1DF0785197
:10DD8800D9267951DA22000EDF6E20EE1EF0785186
:10DD9800D9267951DA22F0C1DFFF78C060F079C066
:10DDA80061F006ECAAF000017A6F20EE1FF07851BE
:10DDB800D9267951DA227AC0DFFF1200200E2B60B3
:10DDC80001D0120065B212000101E951EA11D8B47C
:10DDD800E4D0E9C1D9FFEAC1DAFFDFBE1200DDD025
:10DDE8000001D851D911D8B406D0D8C0D9FFD9C0AC
:10DDF800DAFFDFBEECD073EC7AF0010E0001606F41
:10DE0800A40E616F030E626F400E636F010E9CECEF
:10DE18008CF0BED00001D851D911D8B406D0D8C0E2
:10DE2800D9FFD9C0DAFFDFBED2D09FECA7F0010E30
:10DE38000001606FA40E616F030E626F400E636F86
:10DE4800010E9CEC8CF0A4D00001D851D911D8B4A3
:10DE580006D0D8C0D9FFD9C0DAFFDFBEB8D077EC7A
:10DE6800A7F0010E0001606FA40E616F030E626FD0
:10DE7800400E636F010E9CEC8CF08AD00001D851E3
:10DE8800D911D8B406D0D8C0D9FFD9C0DAFFDFBEBF
:10DE98009ED099EC9EF0010E0001606FA40E616F98
:10DEA800030E626F400E636F010E9CEC8CF070D015
:10DEB8000001D851D911D8B406D0D8C0D9FFD9C0DB
:10DEC800DAFFDFBE84D029ECA3F0010E0001606FF9
:10DED800A40E616F030E626F400E636F010E9CEC1F
:10DEE8008CF056D08C7273D00001D851D911D8B4A7
:10DEF80006D0D8C0D9FFD9C0DAFFDFBE68D0810EFE
:10DF08000301A46F80A002D0010E01D0000EA56FFE
:10DF1800010E0001606FA40E616F030E626F400E68
:10DF2800636F010E9CEC8CF033D00001D851D911ED
:10DF3800D8B406D0D8C0D9FFD9C0DAFFDFBE47D0E1
:10DF4800370E0301A46F22EE36F0DECF8CF0DDCF62
:10DF58008DF000018D358D338C338D358D338C33B9
:10DF68008D358D338C338CC094F08DC095F094C072
:10DF7800A5F395510301A66F010E0001606FA40E71
:10DF8800616F030E626F400E636F010E9CEC8CF0A4
:10DF980060C0D8F061C0D9F01AD004017851100AD5
:10DFA800D8B41ED7010AD8B435D7030AD8B44CD789
:10DFB800010AD8B463D7070AD8B47AD7230AD8B4E1
:10DFC800B4D7B70AD8B48ED7010AD8B48DD7010E02
:10DFD800000176D09651010D780EF324D96E040E07
:10DFE800F420DA6EDF5082EC91F00001962B85D098
:10DFF80096518C6F8D6B010E8C27000E8D23780E39
:10E008008C25D96E040E8D21DA6EDF50636F965120
:10E01800010D780EF324D96E040EF420DA6EDF5069
:10E028000CEC91F0020E48D096518C6F8D6B010E5E
:10E038008C27000E8D23780E8C25D96E040E8D2129
:10E04800DA6EDF50636F96518E6F8F6B020E8E27DC
:10E05800000E8F23780E8E25D96E040E8F21DA6E6E
:10E06800DF50646F9651906F916B030E9027000EEE
:10E078009123780E9025D96E040E9121DA6EDF5027
:10E08800656F9651926F936B040E9227000E93233F
:10E09800780E9225D96E040E9321DA6EDF50666FE2
:10E0A8009651010D780EF324D96E040EF420DA6E21
:10E0B800DF5032EC88F0050E000196271ED0410E85
:10E0C800966F1BD09651010D780EF324D96E040E6D
:10E0D800F420DA6EDF50F00B8C6F8D6B8D51000AD7
:10E0E800D8A4EDD78C51300AD8B474D7700AD8B4F4
:10E0F8007FD7200AD8B498D7E2D73D0E9665E2D7E5
:10E10800000E606F780E616F040E626F400E636FD1
:10E11800010E9CEC8CF060C0E9F161C0EAF11200DC
:10E128006A0EF66EC10EF76E000EF86E20EE92F0D3
:10E13800120E0900F5CFDEFFE806FBE2570EF66E79
:10E14800C10EF76E000EF86E20EEA5F0120E090053
:10E15800F5CFDEFFE806FBE25B0EF66EC20EF76E49
:10E16800000EF86E20EEB8F00D0E0900F5CFDEFFB8
:10E17800E806FBE222EE27F0DECF60F0DDCF61F0AB
:10E188000001000E61BFFF0E626F636F22EE32F076
:10E19800DECF64F0DDCF65F0000E65BFFF0E666F61
:10E1A800676F82ECA5F060C0CEF061C0CFF062C0AE
:10E1B800D0F063C0D1F022EE12F0DECFCAF0DDCF8E
:10E1C800CBF00001000ECBBFFF0ECC6FCD6FCAC0E5
:10E1D80060F0CBC061F0CCC062F0CDC063F022EE3D
:10E1E8001DF0DECF64F0DDCF65F0000E65BFFF0ED9
:10E1F800666F676F82ECA5F060C0CAF061C0CBF0B3
:10E2080062C0CCF063C0CDF0CAC060F0CBC061F092
:10E21800CCC062F0CDC063F0E80E0001646F030E5D
:10E22800656F000E666F000E676F5CEC95F060C05E
:10E23800CAF061C0CBF062C0CCF063C0CDF022EE72
:10E2480027F0DECFCEF0DDCFCFF00001000ECFBF3C
:10E25800FF0ED06FD16FCEC060F0CFC061F0D0C0DC
:10E2680062F0D1C063F022EE32F0DECF64F0DDCF91
:10E2780065F0000E65BFFF0E666F676F82ECA5F054
:10E2880060C0CEF061C0CFF062C0D0F063C0D1F002
:10E29800CAC064F0CBC065F0CCC066F0CDC067F0F2
:10E2A800CEC060F0CFC061F0D0C062F0D1C063F0E2
:10E2B8005CEC95F060C06EF061C06FF062C070F009
:10E2C80063C071F0010E7CEC84F06EC0C6F06FC0C4
:10E2D800C7F070C0C8F071C0C9F0CEC060F0CFC040
:10E2E80061F0D0C062F0D1C063F0E80E0001646F45
:10E2F800030E656F000E666F000E676F5CEC95F09D
:10E3080060C0CEF061C0CFF062C0D0F063C0D1F081
:10E31800000E0001D26F13D0D251010D920EF324DA
:10E32800D96E000EF420DA6ED251010D540EF3248A
:10E33800E16E030EF420E26EDFCFE7FFD22BD2515D
:10E34800010D920EF324D96E000EF420DA6EDF5020
:10E35800D8A4E2D7000ED26F13D0D251010DA50E6A
:10E36800F324D96E000EF420DA6ED251010D680E36
:10E37800F324E16E030EF420E26EDFCFE7FFD22B29
:10E38800D251010DA50EF324D96E000EF420DA6ED9
:10E39800DF50D8A4E2D7CAC078F0CBC079F0030E1A
:10E3A8007A6F7C0E7B6F030E7C6FC3EC7DF0CEC062
:10E3B80078F0CFC079F0030E00017A6F860E7B6F7C
:10E3C800030E7C6FC3EC7DF0000E0001D26F13D0FA
:10E3D800D251010DB80EF324D96E000EF420DA6E76
:10E3E800D251010D900EF324E16E030EF420E26E7B
:10E3F800DFCFE7FFD22BD251010DB80EF324D96E2F
:10E40800000EF420DA6EDF50D8A4E2D7C6C060F060
:10E41800C7C061F0C8C062F0C9C063F0D6EC92F022
:10E4280060C078F061C079F0010E00017A6F930E38
:10E438007B6F030E7C6FC3EC7DF0CEC090F0CFC035
:10E4480091F00001901F911F904B912BCA5190257C
:10E45800786FCB519121796F030E7A6F9E0E7B6F87
:10E46800030E7C6FC3EC7DF01200A2EC8DF0000E61
:10E47800FBECA4F034EC83F0BFECAAF0B1ECAEF006
:10E4880002010951D8A4FAD70400020128BF06D016
:10E49800E00E275D2E0E2859D8B003D0100EDAEC06
:10E4A800A5F0020128AF11D02729FF0E2859D8B0AE
:10E4B8000CD0010EDAECA5F0020EDAECA5F0040E91
:10E4C800DAECA5F0080EDAECA5F080ECA0F096ECFA
:10E4D80090F0000E8DEC9CF0000160510201342791
:10E4E8000001615102013523010E8DEC9CF0000101
:10E4F8006051020138270001615102013923020EDF
:10E508008DEC9CF00001605102013C270001615133
:10E5180002013D2301D1010E00016A6F000E6B6FED
:10E52800000EE9ECA9F02AD1E2EC6EF027D1ADECAF
:10E53800A6F0020108390F0B030B0001D66FD76B49
:10E54800D890D637D7371F0ED625D96E020ED721C9
:10E55800DA6E65C0DEFF66C0DDFF010E6A6F000E71
:10E568006B6F030EE9ECA9F0F4EC91F007D16EECB7
:10E57800AFF0050AD8A402D102014051D7EC9DF0B2
:10E58800FDD06EECAFF0FAD0ADECA6F00201083980
:10E598000F0B030B0001D66FD76BD890D637D73740
:10E5A8000A0ED625D96E020ED721DA6E65C0DEFFB7
:10E5B80066C0DDFF010E00016A6F000E6B6F010E71
:10E5C800E9ECA9F065EC92F0D9D0E2EC6EF0D6D087
:10E5D800ADECA6F0020108390F0B030B0001D66F52
:10E5E800D76BD890D637D737290ED625D96E020ED5
:10E5F800D721DA6E65C0DEFF66C0DDFF010E6A6FE7
:10E60800000E6B6F020EE9ECA9F0C7EC88F0B6D0EB
:10E61800E2EC6EF0B8EC76F045ECAFF01E0E0001BF
:10E6280060196111D8A4AAD00CECA0F0B3EC93F057
:10E63800A5D0ADECA6F0020108390F0B030B0001C1
:10E64800D66FD76BD890D637D737140ED625D96E54
:10E65800020ED721DA6E65C0DEFF66C0DDFF59EC19
:10E6680089F08CD017ECA4F089D034C26CF035C294
:10E678006DF0040E00016E6FA2EC8FF06CC036F2E4
:10E688006DC037F2000E0201356F000E346F38C2CC
:10E698006CF039C26DF0050E00016E6FA2EC8FF0C0
:10E6A8006CC03AF26DC03BF2000E0201396F000EE9
:10E6B800386F3CC26CF03DC26DF0060E00016E6F03
:10E6C800A2EC8FF06CC03EF26DC03FF2000E02016A
:10E6D8003D6F000E3C6F39ECAFF0020137BF08D038
:10E6E800B90E365D0B0E3759D8A002D08C8208D0EF
:10E6F80037BF05D0C40E365D090E3759D8A08C92A5
:10E708004051D7EC9DF03AD06EECAFF0050AD8A492
:10E7180035D092EC9FF032D0020108510F0B000166
:10E72800D66FD76BD751000AD8A428D0D651000A83
:10E73800D8B4F1D6010AD8B4F7D6020AD8B4F7D6B5
:10E74800070AD8B414D7010AD8B41BD7030AD8B417
:10E758001BD70E0AD8B439D7010AD8B439D7020A58
:10E76800D8B456D7070AD8B464D7010AD8B47AD728
:10E77800030AD8B47AD7010AD8B4C6D7010E020161
:10E78800096F7CD6A00EF66EC00EF76E000EF86EFE
:10E7980021EE0FF0140E0900F5CFDEFFE806FBE2CC
:10E7A800900EF66EC10EF76E000EF86E21EE60F058
:10E7B800110E0900F5CFDEFFE806FBE27D0EF66ECE
:10E7C800C10EF76E000EF86E21EE4DF0120E090024
:10E7D800F5CFDEFFE806FBE20F0EF66EC30EF76E0E
:10E7E800000EF86E21EE08F0060E0900F5CFDEFFE8
:10E7F800E806FBE2F70EF66EC20EF76E000EF86E34
:10E8080021EE00F0070E0900F5CFDEFFE806FBE277
:10E81800AB0EF66EC20EF76E000EF86E21EE82F0A9
:10E828000B0E0900F5CFDEFFE806FBE2FB0EF66EE5
:10E83800C10EF76E000EF86E21EE72F00F0E090091
:10E84800F5CFDEFFE806FBE28B0EF66EC00EF76E24
:10E85800000EF86E21EE24F0140E0900F5CFDEFF4D
:10E86800E806FBE2F30EF66EC00EF76E000EF86EC9
:10E8780021EE39F0130E0900F5CFDEFFE806FBE2C2
:10E88800000E01018E6F13D08E51010D0F0EF3246F
:10E89800D96E010EF420DA6E8E51010D540EF32458
:10E8A800E16E030EF420E26EDFCFE7FF8E2B8E5170
:10E8B800010D0F0EF324D96E010EF420DA6EDF502D
:10E8C800D8A4E2D7000E8E6F14D001018E51010D2D
:10E8D800600EF324D96E010EF420DA6E8E51010D0C
:10E8E800680EF324E16E030EF420E26EDFCFE7FF3B
:10E8F8008E2B01018E51010D600EF324D96E010E8D
:10E90800F420DA6EDF50D8B420D0DFD78E51010D55
:10E918004D0EF324D96E010EF420DA6E8E51010DDE
:10E92800680EF324E16E030EF420E26EDFCFE7FFFA
:10E938008E2B01018E51010D4D0EF324D96E010E5F
:10E94800F420DA6EDF50D8A4E1D7000E8E6F80D0A5
:10E958008E51010D820EF324D96E010EF420DA6E69
:10E968008E51010D7C0EF324E16E030EF420E26E4D
:10E97800DFCFE7FF8E2B01018E51010D820EF324AC
:10E98800D96E010EF420DA6EDF50D8B46FD0E0D71C
:10E998008E51010D720EF324D96E010EF420DA6E39
:10E9A8008E51010D7C0EF324E16E030EF420E26E0D
:10E9B800DFCFE7FF8E2B01018E51010D720EF3247C
:10E9C800D96E010EF420DA6EDF50D8B44FD0E0D7FC
:10E9D8008E51010D240EF324D96E010EF420DA6E47
:10E9E8008E51010D7C0EF324E16E030EF420E26ECD
:10E9F800DFCFE7FF8E2B01018E51010D240EF3248A
:10EA0800D96E010EF420DA6EDF50D8B42FD0E0D7DB
:10EA18008E51010D390EF324D96E010EF420DA6EF1
:10EA28008E51010D7C0EF324E16E030EF420E26E8C
:10EA3800DFCFE7FF8E2B01018E51010D390EF32434
:10EA4800D96E010EF420DA6EDF50D8B40FD0E0D7BB
:10EA580079ECAFF0000AD8B48ED7010AD8B4ABD796
:10EA6800030AD8B4C8D7010AD8B4E5D774ECAFF014
:10EA78000001906F9051786F796B000E7A6F900E4D
:10EA88007B6F030E7C6FC3EC7DF012005AD152C22B
:10EA9800DCF153C2DBF154C2DAF155C2D9F157C2E5
:10EAA800DBF058C2DAF00001DA518F6FDB51906F5A
:10EAB800916B926B090ED8908F37903791379237B8
:10EAC800E82EF9D78FC06AF090C06BF091C06CF057
:10EAD80092C06DF024EC8FF00009D8A443D1D0C2C5
:10EAE80060F0D1C261F022EECAF001D80AD0050068
:10EAF800FA6EDE50FD6EDE50FE6EDE50FF6EFA508E
:10EB080012000009D8B416D0010E0D018C6F020155
:10EB18006251F00B0709626F270E6C6F000E6D6F64
:10EB2800000E0001606F020E17EC8CF0000E1F6ED5
:10EB38001F501200010E0001E86F0001DA51DB11CD
:10EB4800D8B4FCD0030E1F6E000E0101EB6F060E49
:10EB5800EC6F000E0D01886F020E896F000E8A6F30
:10EB6800000E8B6F0D01885189118A118B11D8B451
:10EB78001DD00001DE51DF11D8B406D0DEC0D9FFA8
:10EB8800DFC0DAFFDFBEEED0000E606FEBC161F0D0
:10EB9800ECC162F0400E636F020E9CEC8CF060C01A
:10EBA800DEF061C0DFF0040E1F6E23D0D0C260F02B
:10EBB800D1C261F022EECAF001D80AD00500FA6E7F
:10EBC800DE50FD6EDE50FE6EDE50FF6EFA50120013
:10EBD8000009D8B40CD0010E0D018C6F02016251EE
:10EBE800F00B0209626F270E6C6F000E6D6F020E3C
:10EBF800A6D00001DE51DF11D8B406D0DEC0D9FF9F
:10EC0800DFC0DAFFDFBEAED020EE01F0DE51D9263C
:10EC1800DF51DA22DF508F6F8FC090F0916B926BCB
:10EC2800936B90510201495F0001915102014A5BC7
:10EC38000001925102014B5B0001935102014C5BB0
:10EC4800000120EE01F0DE51D926DF51DA22DF5033
:10EC58008F6F8FC090F0916B926B936B90510D01F9
:10EC6800885F000191510D01895B000192510D01EE
:10EC78008A5B000193510D018B5B400E0101EB276C
:10EC8800000EEC23030E5BD00D018C51D8A440D0AC
:10EC9800D0C284F0D1C285F0D9C186F0DAC187F03C
:10ECA800DBC188F0DCC189F0000E00018A6F060E16
:10ECB8008B6F0101D951DA11DB11DC11D8A402D014
:10ECC800010E01D0000E00018C6F22EECDF001D8AC
:10ECD8000AD00500FA6EDE50FD6EDE50FE6EDE5084
:10ECE800FF6EFA501200E806D8B412D0640E010183
:10ECF800F86102D0F82B36D0010E0D018C6F02019D
:10ED08006251F00B0309626F000E6C6F000E6D6F9D
:10ED1800010E0101D927000EDA23DB23DC230001D1
:10ED2800DA07D8A0DB07010E0AD0020E0D018C6F9E
:10ED3800000E0001606F020E17EC8CF0000E1F6EC3
:10ED480011D01F50000AD8B4A2D6010AD8B4F5D6FB
:10ED5800030AD8B499D7010AD8B404D7070AD8B493
:10ED680048D7E3D71F501200F2ECAEF00001746FE1
:10ED78007451786F796B0101EF510001746F756BF5
:10ED88007851741904E179517519D8B4120078C012
:10ED9800EFF112C274F013C275F0000E75BFFF0ECA
:10EDA800766F776F745102019A270001755102013D
:10EDB8009B230001765102019C2300017751020137
:10EDC8009D231DC274F01EC275F0000E000175BFB0
:10EDD800FF0E766F776F7451020196270001755107
:10EDE800020197230001765102019823000177510F
:10EDF8000201992327C274F028C275F0000E0001A1
:10EE080075BFFF0E766F776F74510201922700016C
:10EE180075510201932300017651020194230001E8
:10EE280077510201952332C274F033C275F0000E97
:10EE3800000175BFFF0E766F776F745102018E2740
:10EE48000001755102018F230001765102019023C0
:10EE5800000177510201912396EC9DF06EC078F085
:10EE68006FC079F0D89000017931756F7831746F7F
:10EE7800745102018A270001755102018B23000E8B
:10EE88008C23000E8D230001785102018227000196
:10EE9800795102018323000E8423000E852355EC4B
:10EEA8009DF06DC078F06EC079F0D890000179318E
:10EEB800756F7831746F745102018627000175519E
:10EEC80002018723000E8823000E89230001785150
:10EED80002017E270001795102017F23000E802361
:10EEE800000E812336C274F037C275F0000E00019F
:10EEF80075BFFF0E766F776F745102017A27000194
:10EF0800755102017B230001765102017C23000127
:10EF1800775102017D233AC274F03BC275F0000EAE
:10EF2800000175BFFF0E766F776F74510201762767
:10EF380000017551020177230001765102017823FF
:10EF480000017751020179233EC274F03FC275F087
:10EF5800000E000175BFFF0E766F776F74510201C6
:10EF680072270001755102017323000176510201D5
:10EF78007423000177510201752379ECAFF0000189
:10EF8800746F7F0E7417D8B403D00201B04BB12B45
:10EF980002010151D8A402D0AE4BAF2B010EF6EC02
:10EFA800ADF00009D8B402D00101F08F020EF6ECE2
:10EFB800ADF00009D8B402D00101F08D040EF6ECD2
:10EFC800ADF00009D8B402D00101F08B080EF6ECC0
:10EFD800ADF00009D8B402D00101F089100EF6ECAA
:10EFE800ADF00009D8B402D00101F087200EF6EC8C
:10EFF800ADF00009D8B402D00101F0850101F08319
:10F00800164A172A12000D013205D8A40ED0305125
:10F018001F0B0009D8A409D00D8E030E3119D8A4EE
:10F0280002D0010E01D0000E286E3251D8A4120071
:10F0380030511F0B020AD8A4120034510F0B0009DB
:10F04800D8B4120034510F0B456E030E4560120000
:10F05800200E2B18D8A412000D8E34BF19D03451AD
:10F068000F0B456E4550020DD30EF324D96E010ED9
:10F07800F420DA6EDECF49F0DDCF4AF034510F0BC1
:10F08800456E4550010DE10EF324D96E010E18D0DE
:10F0980034510F0B456E4550020D100EF324D96EF6
:10F0A800000EF420DA6EDECF49F0DDCF4AF034519D
:10F0B8000F0B456E4550010DE40EF324D96E010E79
:10F0C800F420DA6EDF50486E48B006D0FB0E4914C3
:10F0D800496EFF0E4A1404D0040E4910496E4A5076
:10F0E8004A6E34BF0AD034510F0B456E4550020D9D
:10F0F800D30EF324D96E010E09D034510F0B456E8F
:10F108004550020D100EF324D96E000EF420DA6E6D
:10F1180049C0DEFF4AC0DDFF030E3119D8A42DD047
:10F1280049C0D9FF4AC0DAFFDFAE1AD034BF0AD0CF
:10F1380034510F0B456E4550010DE10EF324D96E85
:10F14800010E0AD00D0134510F0B456E4550010DCB
:10F15800E40EF324D96E010EF420DA6E0101DF8289
:10F1680049C0D9FF4AC0DAFF000EDB8449C0D9FF85
:10F178004AC0DAFF000EDB8E1200040E4918496EF1
:10F188004A504A6E49C0D9FF4AC0DAFFDFAE1BD0E9
:10F1980049C0D9FF4AC0DAFF7F0EDF1649C0D9FF40
:10F1A8004AC0DAFF000EDB8C000E3E6E050E3D6E87
:10F1B80049C03FF04AC040F0000E426E020E416E58
:10F1C800D0EC9CF006D049C0D9FF4AC0DAFF000E47
:10F1D800DB8C040E4918496E4A504A6E48B206D074
:10F1E80049C0D9FF4AC0DAFFDFAE30D00D0134BFC5
:10F1F8000AD034510F0B456E4550010DE10EF32432
:10F20800D96E010E0AD00D0134510F0B456E4550D1
:10F21800010DE40EF324D96E010EF420DA6E01011B
:10F22800DF9249C0D9FF4AC0DAFF3B0EDF16000E55
:10F238003E6E050E3D6E49C03FF04AC040F0000EDC
:10F24800426E020E416ED0EC9CF006D049C0D9FF48
:10F258004AC0DAFF3B0EDF160D0134510F0B456E25
:10F268004550010D260EF324466E0F0EF420476E0E
:10F2780046C0D9FF47C0DAFFFE0EDF161200200E87
:10F288002B18D8A41200A09819D10001DE51DF1163
:10F29800D8B406D0DEC0D9FFDFC0DAFFDFBE1DD18B
:10F2A800000EB16F1E0EB16501D014D0B151010D21
:10F2B800400EF324D96E0D0EF420DA6EB151010D13
:10F2C800410EF324E16E020EF420E26EDFCFE7FF79
:10F2D800B12BE8D720EE01F0DE51D926DF51DA2232
:10F2E8001F0EDE18D8A476D0550E0201411972E11E
:10F2F800530E42196FE1420E43196CE1430E441953
:10F30800D8A468D0010E0101F56F02014E51D8A4AE
:10F3180054D0110E4F6151D04F51D8B44ED04DC278
:10F32800ACF03F0E0001AC17D8A447D0550E0D0124
:10F33800806F530E816F420E826F530E836F45C2EA
:10F3480084FD46C285FD47C286FD48C287FD000E82
:10F35800886F000E896F000E8A6F000E8B6F000E8B
:10F368008C6F0001E769000E0101F96F000E1F6E36
:10F37800000EF86F030E02015019D8B408D062913C
:10F38800629362956297000E6C6F000E6D6F4DAFC1
:10F3980002D0010E01D0020E0001E86F02014951AE
:10F3A8004A114B114C11D8B402D0000E01D0010EF5
:10F3B8000001E66F50C2E7F090D0010E0001606FC7
:10F3C800020E17EC8CF0000E0001606F020E17ECB5
:10F3D8008CF083D0010E0001606F020E17EC8CF0E8
:10F3E800000E0001606F020E17EC8CF0000E010198
:10F3F800F56F73D003EC87F0FF0AD8A46ED011D054
:10F4080003EC87F0FF0AD8A468D00D018C51D8A46A
:10F4180008D0885189118A118B11D8B402D0020EF4
:10F428008C6F030E3CD014C0ADF015C0AEF0AD51DA
:10F43800AE11D8B40AD014C0AFF015C0B0F0AFC048
:10F44800D9FFB0C0DAFFDFBE48D0010E606F800E72
:10F45800616F0D0E626F0D0E636F020E9CEC8CF0E7
:10F4680060C0DCF061C0DDF00001DE51DF11D8B40E
:10F4780006D0DEC0D9FFDFC0DAFFDFBE0FD0000E36
:10F48800606F400E616F0D0E626F400E636F020E6B
:10F498009CEC8CF060C0DEF061C0DFF0000E000173
:10F4A800E86F1BD0000EE86F020E0D018C6F000E86
:10F4B8000001606F020E17EC8CF00FD00001E851CC
:10F4C800000AD8B4E2D6010AD8B494D7030AD8B44B
:10F4D80097D7010AD8B4A7D7E5D7A0881200100E8D
:10F4E8000301A46F12C2A5F3020113510301A66F11
:10F4F80027C2A7F3020128510301A86F1DC2A9F36F
:10F5080002011E510301AA6F32C2ABF3020133514B
:10F518000301AC6F36C2ADF3020137510301AE6F80
:10F528003AC2AFF302013B510301B06F3EC2B1F3DF
:10F5380002013F510301B26F05C2B3F340C2B4F3F5
:10F5480009ECAFF00301B56F17ECAFF00301B66F2C
:10F558002CECAFF00301B76F25ECAFF00301B86FE7
:10F568001EECAFF00301B96F10ECAFF00301BA6FF6
:10F5780079ECAFF00301BB6F74ECAFF00301BC6F23
:10F588003EECACF00301BD6F71ECAFF00301BE6F50
:10F5980034C2BFF3020135510301C06F38C2C1F351
:10F5A800020139510301C26F3CC2C3F302013D514C
:10F5B8000301C46F020108390F0B030B0001616FCF
:10F5C800626BD890613762370A0E6125D96E020ED8
:10F5D8006221DA6EDF500301C56F020108390F0B93
:10F5E800030B0001616F626BD890613762370A0EB6
:10F5F8006125D96E020E6221DA6EDECF63F0DDCFAF
:10F6080064F064C063F0646B63BF646963510301B1
:10F61800C66F020108390F0B030B0001616F626BA3
:10F62800D890613762371F0E6125D96E020E6221AC
:10F63800DA6EDF500301C76F020108390F0B030BA5
:10F648000001616F626BD890613762371F0E6125C8
:10F65800D96E020E6221DA6EDECF63F0DDCF64F080
:10F6680064C063F0646B63BF646963510301C86F6E
:10F67800020108390F0B030B0001616F626BD89010
:10F6880061376237140E6125D96E020E6221DA6E77
:10F69800DF500301C96F020108390F0B030B00018A
:10F6A800616F626BD89061376237140E6125D96E2D
:10F6B800020E6221DA6EDECF63F0DDCF64F064C043
:10F6C80063F0646B63BF646963510301CA6F02012D
:10F6D80008390F0B030B0001616F626BD89061371B
:10F6E8006237290E6125D96E020E6221DA6EDF506B
:10F6F8000301CB6F020108390F0B030B0001616F87
:10F70800626BD89061376237290E6125D96E020E77
:10F718006221DA6EDECF63F0DDCF64F064C063F09F
:10F72800646B63BF646963510301CC6F6EECAFF027
:10F738000301CD6F08C2CEF312000001A96F3F0E7E
:10F748000001A96501D01200A951D9EC9EF0000969
:10F75800D8A41200B00E0001876F000E886FA9515F
:10F76800E9ECA3F0CCC09FF0CDC0A0F0CEC0A1F0D2
:10F77800CFC0A2F0CAC0A5F0CBC0A6F0000E000111
:10F78800AC6F000EAD6F000EAE6F000EAF6F13D0F2
:10F79800A5C087F0A6C088F0EEECA7F087C0A5F05A
:10F7A80088C0A6F0000E0001AC27020EAD23000EA3
:10F7B800AE23000EAF23ACC095F0ADC096F0AEC03E
:10F7C80097F0AFC098F0951F961F971F981F952B1D
:10F7D800000E9623972398239F519525996FA05142
:10F7E80096219A6FA15197219B6FA25198219C6FE6
:10F7F8009C519B11CDE19905020E9A59D8B0C8D7F2
:10F80800ACC095F0ADC096F0951F961F954B962B02
:10F818009F519525A76FA0519621A86F000EAC6F38
:10F82800000EAD6F000EAE6F000EAF6F70D0020EFF
:10F83800A819A711D8A427D0000E886F000E876FCB
:10F8480055EC9FF087C0A3F088C0A4F0A5C088F04D
:10F85800A6C089F0A3C08AF0A4C08BF02DECA9F053
:10F86800A3C088F0A4C089F0FF0E00018B6F8A69DD
:10F878002DECA9F0A3C0A5F0A4C0A6F0000E0001CD
:10F88800A86F000EA76FA5C060F0A6C061F0EAECF3
:10F89800AEF060C09DF061C09EF0A7C095F0A8C012
:10F8A80096F00001951F961F954B962B000E9525F7
:10F8B800AA6F020E9621AB6FAA51915DAB51925976
:10F8C800D8B004D091C0AAF092C0ABF09DC07FF030
:10F8D8009EC080F0A7C081F0A8C082F0AAC083F0C3
:10F8E800ABC084F0AC519325856FAD519421866FE0
:10F8F80027ECA1F00001AA51AC27AB51AD23000EB3
:10F90800AE23000EAF23AA51A727AB51A8239151CC
:10F91800956F9251966F976B986B9551AC5D965118
:10F92800AD599751AE599851AF59D8A080D7915138
:10F93800CC279251CD23000ECE23000ECF23B00E3C
:10F948006D6F000E6E6F21ECAAF0B00E0001886F8B
:10F95800000E896FA951BBECA3F012000001A86F3B
:10F96800690EF66EC20EF76E000EF86E20EE9AF073
:10F978000D0E0900F5CFDEFFE806FBE20B0EF66E72
:10F98800C20EF76E000EF86E20EE8AF00F0E090018
:10F99800F5CFDEFFE806FBE2CA0EF66EC00EF76E84
:10F9A800000EF86E20EE60F0140E0900F5CFDEFFB1
:10F9B800E806FBE2B50EF66EC00EF76E000EF86EA6
:10F9C80020EE75F0140E0900F5CFDEFFE806FBE225
:10F9D800000E0001A96F13D0A951010D9A0EF3244E
:10F9E800D96E000EF420DA6EA951010D540EF324DD
:10F9F800E16E030EF420E26EDFCFE7FFA92BA951D9
:10FA0800010D9A0EF324D96E000EF420DA6EDF5041
:10FA1800D8A4E2D7020128AF27D02729FF0E2859FA
:10FA2800D8B022D0000E0001A96F13D0A951010D42
:10FA38008A0EF324D96E000EF420DA6EA951010D56
:10FA4800680EF324E16E030EF420E26EDFCFE7FFC9
:10FA5800A92BA951010D8A0EF324D96E000EF420AA
:10FA6800DA6EDF50D8A4E2D7000E0001A96F13D0D8
:10FA7800A951010D600EF324D96E000EF420DA6E40
:10FA8800A951010D7C0EF324E16E030EF420E26E01
:10FA9800DFCFE7FFA92BA951010D600EF324D96E22
:10FAA800000EF420DA6EDF50D8A4E2D7000EA96F5A
:10FAB80013D0A951010D750EF324D96E000EF42050
:10FAC800DA6EA951010D900EF324E16E030EF420B5
:10FAD800E26EDFCFE7FFA92BA951010D750EF324C4
:10FAE800D96E000EF420DA6EDF50D8A4E2D70201F6
:10FAF80005A105D06E0E0301846F200E856F0201EB
:10FB080005A305D06E0E03018E6F200E8F6F0201C4
:10FB180005A505D06E0E0301986F200E996F02019E
:10FB280005A71ED06E0E0301A26F200EA36F18D07A
:10FB38002D0E03017C6F3E0E7D6F12002D0E03010A
:10FB4800866F3E0E876F12002D0E0301906F3E0EDA
:10FB5800916F12002D0E03019A6F3E0E9B6F1200DB
:10FB68000001A851310AD8B4E3D7030AD8B4E6D7BC
:10FB7800010AD8B4E9D7070AD8A41200EBD7830E34
:10FB88000001706F000E716F78C072F079C073F069
:10FB9800000E756F0A0E746FC7ECA8F0830E000193
:10FBA800606F000E616F8DECA9F0000160518D6FE0
:10FBB80079AF54D08D5100087A25020F8E6F8E517F
:10FBC800800A7F0FD8A090D07AC08FF08F29D8B440
:10FBD80042D08F518EBF04D0FF0A8E25D8B02AD0CC
:10FBE8008EC07DF07E6B7DBF7E077D1F7E1F7D4BA7
:10FBF8007E2B8F517F6F806B7D517F277E518023B5
:10FC0800010E7F27000E8023830E7F25D96E000EFC
:10FC18008021DA6E8F51816F826B010E8127000E71
:10FC28008223830E8125E16E000E8221E26EDFCFF2
:10FC3800E7FF0FD08F517D6F7E6B010E7D27000E81
:10FC48007E23830E7D25D96E000E7E21DA6E300E5E
:10FC5800DF6E8F07BBD77A51020F45D08D51000850
:10FC68007A257D6F7D298E6F8E51800A7F0FD8A0EF
:10FC78003BD07AC08FF08F29D8B434D08F518EBF43
:10FC880004D0FF0A8E25D8B021D08EC07DF07E6BBF
:10FC98007DBF7E077D1F7E1F7D4B7E2B8F517F6F23
:10FCA800806B7D517F277E518023830E7F25D96EFF
:10FCB800000E8021DA6E8F51010D830EF324E16E60
:10FCC800000EF420E26EDFCFE7FF0AD08F51010D5E
:10FCD800830EF324D96E000EF420DA6E300EDF6E38
:10FCE8008F07C9D77A298D6F7A5100088D257D6FC6
:10FCF8007D057A6F000E8F6F23D08F51010D830E13
:10FD0800F324D96E000EF420DA6E8F51010DF350F2
:10FD18007B25E16EF4507C21E26EDFCFE7FF7A515C
:10FD28008F19D8A40CD08F2B8F51010DF3507B2540
:10FD3800D96EF4507C21DA6E2E0EDF6E1ED08F2B1A
:10FD48008D518F5DD8B019D0D8D78F51010D830E42
:10FD5800F324D96E000EF420DA6E8F517D6F7E6B1E
:10FD6800010E7D27000E7E237D517B25E16E7E519D
:10FD78007C21E26EDFCFE7FF8F2B8D518F5DD8B0EE
:10FD88001200E3D7D80EF66EC10EF76E000EF86EAD
:10FD980020EE90F0110E0900F5CFDEFFE806FBE239
:10FDA800C60EF66EC10EF76E000EF86E20EEA2F0CB
:10FDB800110E0900F5CFDEFFE806FBE2160EF66E1F
:10FDC800C30EF76E000EF86E0900F5CFC2F00900F9
:10FDD800F5CFC3F00A00F5CFC4F0850EF66EC20E5B
:10FDE800F76E000EF86E20EEB4F00D0E0900F5CF98
:10FDF800DEFFE806FBE2000E0001C56F13D0C55117
:10FE0800010D900EF324D96E000EF420DA6EC55160
:10FE1800010D540EF324E16E030EF420E26EDFCFE1
:10FE2800E7FFC52BC551010D900EF324D96E000EC6
:10FE3800F420DA6EDF50D8A4E2D7000EC56F13D0D5
:10FE4800C551010DA20EF324D96E000EF420DA6E0E
:10FE5800C551010D680EF324E16E030EF420E26E25
:10FE6800DFCFE7FFC52BC551010DA20EF324D96ED4
:10FE7800000EF420DA6EDF50D8A4E2D7000EC56F6A
:10FE880013D0C551010DC20EF324D96E000EF42013
:10FE9800DA6EC551010D7C0EF324E16E030EF420D9
:10FEA800E26EDFCFE7FFC52BC551010DC20EF3246B
:10FEB800D96E000EF420DA6EDF50D8A4E2D712C251
:10FEC80078F013C279F0030E7A6F7F0E7B6F030E02
:10FED8007C6FC3EC7DF027C278F028C279F0030E5E
:10FEE80000017A6F870E7B6F030E7C6FC3EC7DF089
:10FEF800000E0001C56F13D0C551010DB40EF324D7
:10FF0800D96E000EF420DA6EC551010D900EF3245F
:10FF1800E16E030EF420E26EDFCFE7FFC52BC5517B
:10FF2800010DB40EF324D96E000EF420DA6EDF5002
:10FF3800D8A4E2D71DC278F01EC279F0030E0001E2
:10FF48007A6F930E7B6F030E7C6FC3EC7DF032C229
:10FF580078F033C279F0030E00017A6F9B0E7B6F45
:10FF6800030E7C6FC3EC7DF01200DDD052C2DCF1D1
:10FF780053C2DBF154C2DAF155C2D9F157C2DBF0F2
:10FF880058C2DAF00001DA51956FDB51966F976B22
:10FF9800986B090ED8909537963797379837E82E8B
:10FFA800F9D795C06AF096C06BF097C06CF098C00E
:10FFB8006DF024EC8FF00009D8A4C7D0010E010120
:10FFC800F96F0001DA51DB11D8B4A9D00001DA07C2
:10FFD800D8A0DB07020E0101F96F0001DC51DD1129
:10FFE800D8B406D0DCC0D9FFDDC0DAFFDFBEADD0A3
:08FFF800D0C28BF0D1C28CF0E5
:020000040001F9
:10000000D9C18DF0DAC18EF0DBC18FF0DCC190F088
:10001000000E916F060E926F22EEC7F001D80AD043
:100020000500FA6EDE50FD6EDE50FE6EDE50FF6E95
:10003000FA501200E806D8B419D0640E0101F86134
:1000400002D0F82B86D0020E0D018C6F0201625196
:10005000F00B0309626F000E6C6F000E6D6F010EE6
:100060000001606F020E17EC8CF05DD0010E0101F3
:10007000D927000EDA23DB23DC23000E0D01886F65
:10008000020E896F000E8A6F000E8B6F000E010149
:10009000EB6F060EEC6F030EF96F0D01885189119D
:1000A0008A118B11D8A402D0010E3ED0040E01019A
:1000B000F96F0001DC51DD11D8B406D0DCC0D9FFE6
:1000C000DDC0DAFFDFBE45D0010E606FEBC161F02D
:1000D000ECC162F0400E636F020E9CEC8CF060C0CD
:1000E000DCF061C0DDF0030E0101F96F400E02018A
:1000F000495F000E4A5B4B5B4C5B400E0D01885F15
:10010000000E895B8A5B8B5B400E0101EB27000EC2
:10011000EC231FD0020E0D018C6F010E0001606FE9
:10012000020E17EC8CF0000E0101F96F12D00101E4
:10013000F951000AD8B41ED7010AD8B446D7030A29
:10014000D8B44FD7010AD8B4A8D7070AD8B4B1D7C2
:10015000E1D70101F9511200DF0EF66EC00EF76E05
:10016000000EF86E20EE90F0130E0900F5CFDEFFC2
:10017000E806FBE2CF0EF66EC20EF76E000EF86ECA
:1001800020EEBCF00A0E0900F5CFDEFFE806FBE228
:100190009F0EF66EC20EF76E000EF86E20EEA4F003
:1001A0000B0E0900F5CFDEFFE806FBE2930EF66EBC
:1001B000C20EF76E000EF86E20EEB0F00B0E0900C6
:1001C000F5CFDEFFE806FBE2000E0001C76F13D09B
:1001D000C751010D900EF324D96E000EF420DA6E93
:1001E000C751010D540EF324E16E030EF420E26EAC
:1001F000DFCFE7FFC72BC751010D900EF324D96E57
:10020000000EF420DA6EDF50D8A4E2D7000EC76FDC
:1002100013D0C751010DBC0EF324D96E000EF4208B
:10022000DA6EC751010D680EF324E16E030EF4205F
:10023000E26EDFCFE7FFC72BC751010DBC0EF324E1
:10024000D96E000EF420DA6EDF50D8A4E2D736C2A1
:1002500078F037C279F0020E7A6F740E7B6F030E5E
:100260007C6FC3EC7DF0000E0001C76F13D0C75147
:10027000010DA40EF324D96E000EF420DA6EC751DE
:10028000010D7C0EF324E16E030EF420E26EDFCF4D
:10029000E7FFC72BC751010DA40EF324D96E000E42
:1002A000F420DA6EDF50D8A4E2D73AC278F03BC22D
:1002B00079F0020E7A6F880E7B6F030E7C6FC3ECB1
:1002C0007DF0000E0001C76F13D0C751010DB00EB5
:1002D000F324D96E000EF420DA6EC751010D900E92
:1002E000F324E16E030EF420E26EDFCFE7FFC72BAD
:1002F000C751010DB00EF324D96E000EF420DA6E52
:10030000DF50D8A4E2D73EC278F03FC279F0020EA7
:100310007A6F9C0E7B6F030E7C6FC3EC7DF0120036
:100320009BC087F09CC088F09DC089F09EC08AF079
:10033000C3EC95F0FF0AD8B402D0FF0E120000EC17
:10034000ACF00001AB6FAB29D8A402D0FE0E1200B6
:100350009FC0A3F0A0C0A4F0A1C0A5F0A2C0A6F0C9
:100360000A0E05D0D890A633A533A433A333E82EC4
:10037000F9D7010EA325AC6F000EA421AD6FACC060
:1003800087F0ADC088F071EC9BF00001AC5187198B
:1003900004E1AD518819D8B402D0FD0E1200000E50
:1003A000886F020E876F55EC9FF087C0AEF088C053
:1003B000AFF0B00E0001606F000E616F9BC062F085
:1003C0009CC063F0000E656F080E646F8BECA3F0A9
:1003D000B80E0001606F000E616F9DC062F09EC09C
:1003E00063F0000E656F030E646F8BECA3F0000EDC
:1003F0000001BB6F000EBC6F000EBD6F5DECA1F085
:1004000064C0BEF065C0BFF02FECA2F064C0C0F0C5
:1004100065C0C1F0C0C0C2F0C1C0C3F0000E000191
:10042000C56F000EC46FBEC0C6F0BFC0C7F0C0C06D
:10043000C8F0C1C0C9F0AEC0CAF0AFC0CBF09FC019
:10044000CCF0A0C0CDF0A1C0CEF0A2C0CFF0B00ED5
:10045000886F000E896FAB51BBECA3F0000E00015A
:10046000AA6F010EA96F2FD0AC51A9190EE1AD51A1
:10047000AA19D8A40AD0AEC088F0AFC089F0FF0E88
:100480008B6F8A692DECA9F01BD0010E0001AE25FF
:10049000876F000EAF21886F55EC9FF087C0A7F0E3
:1004A00088C0A8F0AEC088F0AFC089F0A7C08AF0BD
:1004B000A8C08BF02DECA9F0A7C0AEF0A8C0AFF09B
:1004C0000001A94BAA2BA951AC5DAA51AD59D8B0D6
:1004D000CBD7AB511200070EF66EC10EF76E000EB1
:1004E000F86E20EE60F0130E0900F5CFDEFFE8068F
:1004F000FBE22B0EF66EC20EF76E000EF86E20EECB
:1005000085F00F0E0900F5CFDEFFE806FBE21B0EBB
:10051000F66EC20EF76E000EF86E20EE95F00F0E1E
:100520000900F5CFDEFFE806FBE2EA0EF66EC10E2B
:10053000F76E000EF86E20EE74F0100E0900F5CF85
:10054000DEFFE806FBE2000E0001A56F13D0A55107
:10055000010D600EF324D96E000EF420DA6EA55161
:10056000010D540EF324E16E030EF420E26EDFCF92
:10057000E7FFA52BA551010D600EF324D96E000EE7
:10058000F420DA6EDF50D8A4E2D7020128BF06D0EB
:10059000E00E275D2E0E2859D8B022D0000E0001A3
:1005A000A56F13D0A551010D850EF324D96E000E51
:1005B000F420DA6EA551010D7C0EF324E16E030EDA
:1005C000F420E26EDFCFE7FFA52BA551010D850ECC
:1005D000F324D96E000EF420DA6EDF50D8A4E2D7EF
:1005E000000E0001A56F8CB614D032D0A551010DBC
:1005F000950EF324D96E000EF420DA6EA551010D8C
:10060000900EF324E16E030EF420E26EDFCFE7FFDD
:10061000A52BA551010D950EF324D96E000EF420E3
:10062000DA6EDF50D8B41200E1D7A551010D740E77
:10063000F324D96E000EF420DA6EA551010D900E50
:10064000F324E16E030EF420E26EDFCFE7FFA52B6B
:10065000A551010D740EF324D96E000EF420DA6E4C
:10066000DF50D8B41200E1D7A098000E636E000EE0
:10067000626E000E0F01266F270E0001606F0F0ED5
:10068000616F000E636F000E626F000E656F020EE9
:10069000646FF0ECAAF0160E0F01396F9F0E376FE2
:1006A0007B0E366F000E0001686F0B0E686501D07F
:1006B0000ED06851040D000EF324D96E0D0EF420F7
:1006C000DA6EDE6ADE6ADE6ADD6A682BEED7658C7A
:1006D000000E0F01386F6598659C6296000E0D6ED6
:1006E000000E046E000E066E000E056E62B6F5D7A3
:1006F000010E226E010E216E000E206E000E010111
:10070000FB6F000E276E000E0001686F020E686519
:1007100001D02ED06851020D100EF324D96E000EB8
:10072000F420DA6E000EDE6E000EDD6E6851020DF2
:10073000D30EF324D96E010EF420DA6E000EDE6EB5
:10074000000EDD6E6851010DE40EF324D96E010E2A
:10075000F420DA6E000EDF6E6851010DE10EF32415
:10076000D96E010EF420DA6E000EDF6E682BCED744
:10077000080E106E0D0E116E160E0F01266F0D0E67
:100780000D01036F300E026F080E016F040E006F33
:10079000008F000E2D6E000E0101DD6F000EDE6F6A
:1007A000000EDF6F000EE06F000EFA6F000E2B6E72
:1007B0001200D2ECAEF000016E6FDAECAEF0000188
:1007C0006F6FE2ECAEF00001706FCAECAEF00001AA
:1007D000716FC2ECAEF00001726FF2ECAEF000018E
:1007E000736F6EC068F03F0E681768C069F06A6B7F
:1007F0006B6B6C6B1A0ED89069376A376B376C3736
:10080000E82EF9D769C074F06AC075F06BC076F055
:100810006CC077F06FC068F00F0E681768C069F0A1
:100820006A6B6B6B6C6B160ED89069376A376B37D7
:100830006C37E82EF9D7695174136A5175136B51EF
:1008400076136C51771370C068F01F0E681768C07C
:1008500069F06A6B6B6B6C6B110ED89069376A37F5
:100860006B376C37E82EF9D7695174136A517513D9
:100870006B5176136C51771371C068F01F0E6817B7
:1008800068C069F06A6B6B6B6C6B0C0ED890693743
:100890006A376B376C37E82EF9D7695174136A5190
:1008A00075136B5176136C51771372513F0B686F50
:1008B000696B060ED89068376937E82EFBD7685108
:1008C0006A6F69516B6F6C6B6D6B6A5174136B510E
:1008D00075136C5176136D51771373C068F03F0E2A
:1008E00068176851741374C064F075C065F076C001
:1008F00066F077C067F012000001766F0001765154
:10090000D8A471AF1AD06EC072F06FC073F070C00F
:1009100074F071C075F0721F731F741F751F722BF6
:10092000000E73237423752372C078F073C079F0BE
:1009300074C07AF075C07BF008D06EC078F06FC0DC
:1009400079F070C07AF071C07BF06E516F11701148
:100950007111D8A409D0000E6E6F000E6F6F000EDB
:10096000706F000E716F1200960E776F06D0772BA6
:10097000D8907B337A3379337833000E7815726FE1
:10098000000E7915736F000E7A15746FFE0E7B15CD
:10099000756F7251731174117511D8B40DD0E7D7FA
:1009A000772B010E7827000E79237A237B23D890AA
:1009B0007B337A3379337833000E7815726F000EFB
:1009C0007915736F000E7A15746FFF0E7B15756FB6
:1009D0007251731174117511D8B407D0E1D777072C
:1009E000D890783779377A377B377ABF03D0020EC1
:1009F0007761F5D777A17A9FD890773377C072F077
:100A0000736B746B756B72C075F0746B736B726B18
:100A1000725178137351791374517A1375517B1392
:100A20007651D8A471AF01D07B8F78C06EF079C0B9
:100A30006FF07AC070F07BC071F012002B04D8B454
:100A400065BA07D0000E626E0F0136813689020E3C
:100A50002B6E62A406D00F0136A503D062943CEC45
:100A6000AAF065A202D0A198120062A009D00F01DD
:100A700036A106D0C0EC85F0A088040E2B6E6290E3
:100A800062A804D00F0136B908ECABF062AC1BD001
:100A90000F0136AD0ED0000E3E6E730E3D6E000E91
:100AA0003F6E000E406E000E426E010E416ED0ECA5
:100AB0009CF0629CA0ECADF02450D8A424062450F5
:100AC000D8B4EDEC96F062AA04D00F0136BB0BEC63
:100AD000A9F062A212D00F0136A30FD07F0E3E6E96
:100AE0003D68000E3F6E000E406E000E426E010E1D
:100AF000416ED0EC9CF0000E636E040E2B6002D0B1
:100B0000A19812000F0136A739D0000E4C6E030ECB
:100B10004C6401D033D062A631D064CF2CF02C309D
:100B2000E832E8320F0B266E62962CB407D02650BE
:100B3000010DE10EF324D96E010E06D02650010DF1
:100B4000E40EF324D96E010EF420DA6E0101DF7099
:100B50002650D8A403D048EC9AF00ED0000E3E6E7A
:100B6000720E3D6E2C0E3F6E000E406E000E426EF9
:100B7000000E416ED0EC9CF04C2AC9D7A19812000F
:100B8000A098000E636E000E626E000E0F01266FBD
:100B9000270E2E6E0F0E2F6E000E316E000E306E71
:100BA000000E336E020E326EEAECABF0160E0F0141
:100BB000396F9F0E376F7B0E366F000E366E0B0E41
:100BC000366401D00ED03650040D000EF324D96ED9
:100BD0000D0EF420DA6EDE6ADE6ADE6ADD6A362A1F
:100BE000EED7658C000E0F01386F6598659C629694
:100BF000000E0D6E000E046E000E066E000E056EE9
:100C000062B6F5D7010E226E010E216E000E206E27
:100C1000000E0101FB6F000E276E000E366E020EF5
:100C2000366401D02ED03650020D100EF324D96E4A
:100C3000000EF420DA6E000EDE6E000EDD6E365011
:100C4000020DD30EF324D96E010EF420DA6E000EDD
:100C5000DE6E000EDD6E3650010DE40EF324D96E0B
:100C6000010EF420DA6E000EDF6E3650010DE10E3B
:100C7000F324D96E010EF420DA6E000EDF6E362AF0
:100C8000CED7080E106E0D0E116E160E0F01266FC8
:100C90000D0E0D01036F300E026F080E016F040E72
:100CA000006F008F000E2D6E000E0101DD6F000E33
:100CB000DE6F000EDF6F000EE06F000EFA6F000EA9
:100CC0002B6E1200000E00018B6F000E726F400E33
:100CD000716F8C0E736F000E746F060E756F84EC5F
:100CE000A6F0000E0001606F990E616F8C5182ECCE
:100CF000A8F00001926F92518C19D8B404D092C020
:100D00008CF0010E8B6F8C5128ECAEF0010E0001BF
:100D1000606F120E616F8D5182ECA8F00001926F2E
:100D200092518D19D8B404D092C08DF0010E8B6F02
:100D30008D5140ECAEF0010E0001606F310E616F1D
:100D40008E5182ECA8F00001926F92518E19D8B4A6
:100D500004D092C08EF0010E8B6F8E5164ECAEF019
:100D600090ECADF02CECAFF00001926F92518E1927
:100D7000D8B404D092C08EF0010E8B6F000E606F5D
:100D8000230E616F8F5182ECA8F00001926F925197
:100D90008F19D8B404D092C08FF0010E8B6F8F5191
:100DA00058ECAEF0000E0001606F590E616F90516B
:100DB00082ECA8F00001926F92519019D8B404D03F
:100DC00092C090F0010E8B6F90514CECAEF0000E83
:100DD0000001606F590E616F915182ECA8F0000123
:100DE000926F92519119D8B404D092C091F0010E33
:100DF0008B6F915134ECAEF000018B51D8B41200DE
:100E000038ECA8F01200D0C260F0D1C261F022EE3E
:100E1000C4F001D80AD00500FA6EDE50FD6EDE5037
:100E2000FE6EDE50FF6EFA5012000009D8B40CD0EE
:100E300002014E51010DF60EF324D96E010EF4207D
:100E4000DA6EDE04D8A41DD04EC2A7F0010E000158
:100E5000A86F000EA96FA72B03D0D890A837A93789
:100E6000A72FFBD70001A81DAA6FA91DAB6FAA5120
:100E70000201B2170001AB510201B317C7ECA2F097
:100E800058D04EC2A7F0010E0001A86F000EA96F46
:100E9000A72B03D0D890A837A937A72FFBD70201DB
:100EA000B2510001A8170201B3510001A917A851BE
:100EB000A911D8A43CD0D0C260F0D1C261F001D851
:100EC0000BD00500FA6E0201BB51FD6EBC51FE6EE7
:100ED000BD51FF6EFA501200000160516111D8B48B
:100EE00023D04EC2A7F0010EA86F000EA96FA72B4A
:100EF00003D0D890A837A937A72FFBD70001A85156
:100F00000201B2130001A9510201B3136251F00BA7
:100F10000609626F280E6C6F000E6D6F010E0D01D9
:100F20008C6F92EC67F005D0C7ECA2F002D092EC87
:100F300067F00001E7511200800E0D013019D8A4AE
:100F40001200C00E0D6E82D0180E0A6EC40E0B6E0B
:100F5000000E0F6E120E0E6E12003251D8A442D047
:100F60003251020D190EF324F66EC30EF420F76E03
:100F7000F86A000EF8220900F5CF0AF00A00F5CF52
:100F80000BF0020E0A242E6E000E0B202F6E2EC0C8
:100F9000F6FF2FC0F7FF000EF86E0E0EF76403D0B9
:100FA0000800F55005D0F6CFE9FFF7CFEAFFEF5084
:100FB0000E6E030E0A242E6E000E0B202F6E2EC016
:100FC000F6FF2FC0F7FF000EF86E0E0EF76403D089
:100FD0000800F55005D0F6CFE9FFF7CFEAFFEF5054
:100FE0000F6E1200000E0D6E1200040E0D01326124
:100FF00027D03251020D070EF324F66EC30EF420F3
:10100000F76EF86A000EF8220900F5CF0AF00A0020
:10101000F5CF0BF00AC0F6FF0BC0F7FF000EF86E1D
:101020000E0EF76403D00800F55005D0F6CFE9FFA7
:10103000F7CFEAFFEF502E6E2E500E6E0F6A1200A1
:10104000000E0D6E1200000E0D6E12000D013351D8
:10105000010AD8B479D7030AD8B47FD7010AD8B423
:10106000C4D7F1D764C069F000016A6B69516A6F37
:10107000696B655169133FD063C067F0673B0F0E22
:10108000671767510C0D050EF326000EF422000EB3
:10109000F324D96E030EF420DA6E69C0DEFF6AC055
:1010A000DDFF55D063C067F0673B0F0E67176751D0
:1010B0000C0D070EF326000EF422000EF324D96E59
:1010C000030EF420DA6E69C0DEFF6AC0DDFF63C084
:1010D00067F0673B0F0E671767510C0D090EF3267B
:1010E000000EF422000EF324D96E030EF420DA6E03
:1010F00066C0DFFF2CD063510F0B676F686B6851C0
:10110000000AD8A424D06751000AD8B4B5D7010A80
:10111000D8B4C8D71CD0020E4FECA7F01200030EB3
:101120004FECA7F01200040E4FECA7F01200050ED2
:101130004FECA7F01200060E4FECA7F01200070EBE
:101140004FECA7F01200080E4FECA7F012000001C0
:1011500063390F0B676F686B6851000AD8A41200DF
:101160006751000AD8B4D7D7010AD8B4D8D7030A30
:10117000D8B4D9D7010AD8B4DAD7070AD8B4DBD79C
:10118000010AD8B4DCD7030AD8A41200DCD779EC62
:10119000AFF00009D8B405D079ECAFF0800AD8A43C
:1011A00006D0000E0201336F000E326F12000201F2
:1011B0002B51292500016C6F02012C512A210001BD
:1011C0006D6F02012D5100016C2702012E510001AB
:1011D0006D2302012F5100016C27020130510001E3
:1011E0006D236CC070F06DC071F0000E71BFFF0E0A
:1011F000726F736F2EC36CF02FC36DF0000E6DBF56
:10120000FF0E6E6F6F6F6C5170276D5171236E51B1
:1012100072236F51732329C36CF02AC36DF0000E43
:101220006DBFFF0E6E6F6F6F6C5170276D51712324
:101230006E5172236F51732370C060F071C061F002
:1012400072C062F073C063F023EE2BF0DECF64F067
:10125000DDCF65F0000E65BFFF0E666F676F82EC35
:10126000A5F060C070F061C071F062C072F063C040
:1012700073F02DC36CF0FF0E00016C276C296D6FAD
:1012800005D0733573337233713370336D2FF9D7E3
:10129000010E00017027000E712372237323733532
:1012A000733372337133703370C032F271C033F202
:1012B000120079ECAFF00009D8B405D079ECAFF0AA
:1012C000800AD8A406D0000E02011E6F000E1D6F0A
:1012D000120002011651142500016C6F0201175112
:1012E000152100016D6F0201185100016C270201E8
:1012F000195100016D2302011A5100016C270201EE
:101300001B5100016D236CC070F06DC071F0000EB8
:1013100071BFFF0E726F736F22C36CF023C36DF049
:10132000000E6DBFFF0E6E6F6F6F6C5170276D51A9
:1013300071236E5172236F5173231DC36CF01EC352
:101340006DF0000E6DBFFF0E6E6F6F6F6C517027EA
:101350006D5171236E5172236F51732370C060F011
:1013600071C061F072C062F073C063F023EE1FF0D1
:10137000DECF64F0DDCF65F0000E65BFFF0E666F57
:10138000676F82ECA5F060C070F061C071F062C060
:1013900072F063C073F021C36CF0FF0E00016C2784
:1013A0006C296D6F05D073357333723371337033BD
:1013B0006D2FF9D7010E00017027000E71237223E3
:1013C00073237335733372337133703370C01DF20E
:1013D00071C01EF21200000E0001816F060E8165C1
:1013E00001D012008151796F7A6B793B7A3BF00E14
:1013F0007A1779510F0B7A13F00E7917000E7925B1
:101400007F6F020E7A21806F7FC071F080C072F012
:101410007B0E736F000E746F040E756F84ECA6F074
:10142000770E00017B19D8A421D0550E7C19D8A4C1
:101430001DD0330E7D19D8A419D081517E19D8A49E
:1014400015D0040E7F27000E80237FC071F080C06E
:1014500072F081510C0D000EF324736F030EF42013
:10146000746F0C0E756F84ECA6F041D000018151B1
:101470000C0D000EF324606F030EF420616F81C029
:1014800062F077EC69F01CD0020E4FECA7F02FD081
:10149000030E4FECA7F02BD0040E4FECA7F027D093
:1014A000050E4FECA7F023D0060E4FECA7F01FD08F
:1014B000070E4FECA7F01BD0080E4FECA7F017D08B
:1014C00000018151000AD8B4DFD7010AD8B4E0D7AF
:1014D000030AD8B4E1D7010AD8B4E2D7070AD8B4CE
:1014E000E3D7010AD8B4E4D7030AD8B4E5D700019A
:1014F000812B74D70001686F0001DC51DD11D8B475
:1015000006D0DCC0D9FFDDC0DAFFDFBE1200DE513D
:10151000DF11D8B406D0DEC0D9FFDFC0DAFFDFBEEE
:101520001200E8C069F0E769000E0101F96F000ED2
:101530001F6E49C288FD4AC289FD4BC28AFD4CC25A
:101540008BFD010E0D018C6F030E0001E86F4BD077
:10155000020E0D018C6F1200010E0001606F020E71
:1015600017EC8CF01200020E0D018C6F010E0001C1
:10157000606F020E17EC8CF01200000E0001606F1D
:10158000020E17EC8CF01200020E0D018C6F000E93
:101590000001606F020E17EC8CF01200F8ECA2F064
:1015A00002016251F00B0509626F200E6C6F000E94
:1015B0006D6F020E00016919D8A40ED002014951C5
:1015C0004A114B114C11D8B407D0000E0001606FC6
:1015D000020E17EC8CF01200010E0001606F020E7B
:1015E00017EC8CF0120000016851010AD8B4B0D792
:1015F000030AD8B4B1D7010AD8B4B5D7070AD8B40A
:10160000BCD7010AD8B4C0D77A0AD8A41200C6D76A
:10161000000E2E6E400E2F6E0D0E306E400E316E8F
:10162000020E24EC8EF02EC0DEF02FC0DFF014C0CE
:10163000DCF015C0DDF0000E0001E86FE769000E78
:101640000101F96F000E1F6E000E0001E66F000E23
:101650000201AA6F000EAB6F000EAC6F000EAD6FF3
:10166000000EA66F000EA76F000EA86F000EA96FE8
:10167000010E0101F56F000E0201B36F000EB26F93
:10168000000E4E6F4AD04E51010DF60EF324D96E66
:10169000010EF420DA6E000EDF6ED0C22EF0D1C241
:1016A0002FF022EEC4F001D80AD00500FA6EDE5009
:1016B000FD6EDE50FE6EDE50FF6EFA501200000925
:1016C000D8B427D0D0C22EF0D1C22FF001D80BD081
:1016D0000500FA6E0201BB51FD6EBC51FE6EBD519C
:1016E000FF6EFA5012002E502F10D8B412D04EC2F6
:1016F00039F0010E3A6E000E3B6E392A03D0D890B5
:101700003A363B36392EFBD73A500201B2133B50E2
:10171000B3135AECA3F002014E2B4E51D8A4120081
:10172000B2D720EE01F01A50D9261B50DA22DF5032
:101730002F6E2F50055C000E0658D8A005C02FF064
:101740002F50055E000E065A000E2E6E11D02E5040
:10175000010D380EF324D96E0D0EF420DA6E01C09F
:10176000E1FF02C0E2FFDFCFE7FF014A022A2E2A93
:101770002F502E5CD8A0EBD705500610D8B432D02D
:1017800020EE01F01850D9261950DA22080EDF6E2B
:1017900020EE02F01850D9261950DA22380EDE6EEB
:1017A0000D0EDD6E1AC0D9FF1BC0DAFFDFBC0DD0F5
:1017B00018C0D9FF19C0DAFF480EDF6E18C0D9FF74
:1017C00019C0DAFF000EDB8E120018C0D9FF19C055
:1017D000DAFF080EDF6E18C0D9FF19C0DAFF000E5D
:1017E000DB8E120020EE01F01850D9261950DA22B3
:1017F000080EDF6E20EE02F01850D9261950DA22BA
:10180000300EDE6E0D0EDD6E18C0D9FF19C0DAFF86
:10181000040EDF6E18C0D9FF19C0DAFF000EDB8E90
:10182000049E2350D8A41200EDEC96F012000001A3
:10183000656F00016551D8A42BD020EE01F018503F
:10184000D9261950DA22080EDF6E20EE02F0185069
:10185000D9261950DA22300EDE6E0D0EDD6E18C05C
:10186000D9FF19C0DAFF0C0EDF6E18C0D9FF19C0FE
:10187000DAFF000EDB8E10C0D9FF11C0DAFF040EB4
:10188000DF6E10C0D9FF11C0DAFF000EDB8E120030
:101890006051616F626BD890613762376551636FD9
:1018A000646BD89063376437D8906337643761517D
:1018B000632762516423D89063376437D8906337C5
:1018C0006437000E6325666F0D0E6421676F66C076
:1018D000D9FF67C0DAFF000EDB8466C0D9FF67C09E
:1018E000DAFF000EDB8E6551040DF3CF61F0F4CF0B
:1018F00062F06051020DF3506127F4506223D890DA
:1019000061376237D89061376237040E6127000E65
:101910006223000E6125666F0D0E6221676F66C03F
:10192000D9FF67C0DAFF000EDB8466C0D9FF67C04D
:10193000DAFF000EDB8E12000001686F00016051BB
:10194000D8B407D06851020D100EF324D96E000EE2
:1019500006D06851020DD30EF324D96E010EF42087
:10196000DA6EDECF69F0DDCF6AF069516A11D8A472
:1019700005D0000E606F000E616F120020EE02F0C5
:101980006951D9266A51DA2261C0DEFF62C0DDFFEB
:1019900020EE01F06951D9266A51DA2263C0DFFFD7
:1019A00069C0D9FF6AC0DAFF400EDF1669C0D9FFEF
:1019B0006AC0DAFF000EDB8669C0D9FF6AC0DAFFB1
:1019C000000EDB8E6051D8B418D06851020D100E95
:1019D000F324D96E000EF420DA6EDECF64F0DDCF92
:1019E00065F0040E6419666F6551676F6851020DEA
:1019F000100EF324D96E000E17D06851020DD30ECD
:101A0000F324D96E010EF420DA6EDECF64F0DDCF60
:101A100065F0040E6419666F6551676F6851020DB9
:101A2000D30EF324D96E010EF420DA6E66C0DEFF09
:101A300067C0DDFF69C060F06AC061F01200336EFC
:101A40003350D8A42BD020EE01F01850D9261950CD
:101A5000DA22080EDF6E20EE02F01850D926195057
:101A6000DA22300EDE6E0D0EDD6E18C0D9FF19C001
:101A7000DAFF0C0EDF6E18C0D9FF19C0DAFF000EB6
:101A8000DB8E10C0D9FF11C0DAFF040EDF6E10C06C
:101A9000D9FF11C0DAFF000EDB8E12002E502F6E20
:101AA000306AD8902F3630363350316E326AD89043
:101AB00031363236D890313632362F5031263050CA
:101AC0003222D89031363236D89031363236000E46
