:0490000053EF48F0F2
:109008005F82FACF20F0FBCF21F0E9CF22F0EACF40
:1090180023F0E1CF24F0E2CF25F0D9CF26F0DACF44
:1090280027F0F3CF28F0F4CF29F0F6CF2AF0F7CFC6
:109038002BF0F8CF2CF0F5CF2DF05FC02EF060C0EC
:109048002FF061C030F062C031F019EC6DF03BECEC
:1090580082F031C062F030C061F02FC060F02EC0E5
:109068005FF02DC0F5FF2CC0F8FF2BC0F7FF2AC01A
:10907800F6FF29C0F4FF28C0F3FF27C0DAFF26C097
:10908800D9FF25C0E2FF24C0E1FF23C0EAFF22C0C8
:10909800E9FF21C0FBFF20C0FAFF5F921100B3EF88
:1090A8007DF00043686172676572204173796E6371
:1090B80068726F6E6F7573004D505054204368612D
:1090C800726765722044657461696C730020204F73
:1090D800757433206F666620204F757434206F6670
:1090E800660020204F757431206F666620204F750A
:1090F8007432206F66660054656D706572617475B0
:109108007265204D6F6E69746F7200436861726793
:1091180065722053796E6368726F6E6F7573005550
:1091280053422043686172676572204F7574707589
:109138007473002D3E507265737320666F722073CE
:1091480065636F6E6473002D3E507265737320669D
:109158006F72206D696E75746573002D3E5072656F
:10916800737320746F207365742074696D65005083
:10917800616E656C3A2020202042617474657279B2
:109188003A0043686172676572204566666963697B
:10919800656E6379004368617267657220737570E4
:1091A800706C79206F66660043686172676572202B
:1091B800737570706C79206F6E002D3E50726573F8
:1091C8007320666F7220686F757273002D3E50723F
:1091D80065737320666F72206D6F6E74680020204F
:1091E80020496E7075742020204F75747075740056
:1091F800566F6C7461676520262043757272656EC0
:109208007400555342206368617267696E67206F06
:109218006666004368617267657220537461727490
:109228007570004261747465727920746F6F206C78
:109238006F7700555342206368617267696E6720D3
:109248006F6E004261747465727920746F6F206C60
:109258006F77002D3E507265737320746F207361B1
:109268007665002D3E507265737320666F722064B8
:10927800617900453A2020202020202020204C3AE7
:1092880000506F776572204F757470757473005451
:10929800696D6520616E64204461746500413A20FF
:1092A8002D2D2020202020202D2D0045787465723A
:1092B8006E616C20323A0045787465726E616C207C
:1092C800313A0043686172676572206F66660053C1
:1092D8006574207365636F6E647300536574206DE5
:1092E800696E75746573004F6E2D626F6172643AB2
:1092F800200053657420686F75727300536574207D
:109308006D6F6E74680053657420796561720046EC
:10931800616E206F6666005365742064617900523F
:10932800947B93AF931E9446616E206F6E00563AFD
:10933800003B9309024000020100C032090400000A
:109348000203000000092111010001221D00070588
:1093580081034000010705010340000109040100E1
:1093680002080650000705820240000107050202B4
:10937800400001340353006F006C00640065007204
:10938800006E006500720064002E0063006F006DBF
:1093980000200020002000200020002000200020C5
:1093A800002000200020002E034D005000500054E3
:1093B8000053006F006C00610072002000430068D9
:1093C80000610072006700650072002000520065AD
:1093D800007600450000800402200000004D69630B
:1093E800726F6368704D6173732053746F72616735
:1093F8006520202020303030310600FF0901A1010E
:1094080019012940150026FF0075089540810019AB
:109418000129409100C01A033100320033003400A2
:10942800350036003700380039003000390039007F
:109438001201000200000008D8048EF000010102A9
:1094480000013D2A80A73D2A80A604030904486537
:109458006C6C6F20576F726C642100536F6C617273
:109468004368617267720046494C452020202000FD
:109478004D53444F53352E300054585400000101C9
:10948800CB6F970EF66E920EF76E000EF86E21EE09
:1094980080F00D0E0900F5CFDEFFE806FBE20E0EA8
:1094A800F66E930EF76E000EF86E21EEBAF0080E07
:1094B8000900F5CFDEFFE806FBE2040EF66E930E18
:1094C800F76E000EF86E21EEA6F0090E0900F5CF32
:1094D800DEFFE806FBE21F0EF66E930EF76E000E37
:1094E800F86E21EEC3F0070E0900F5CFDEFFE8069F
:1094F800FBE2FA0EF66E920EF76E000EF86E21EE93
:10950800B0F0090E0900F5CFDEFFE806FBE2E30E36
:10951800F66E920EF76E000EF86E21EE8EF00B0EC0
:109528000900F5CFDEFFE806FBE2D70EF66E920ED5
:10953800F76E000EF86E21EE9AF00B0E0900F5CFCB
:10954800DEFFE806FBE2630EF66E910EF76E000E84
:10955800F86E21EE00F0130E0900F5CFDEFFE806E5
:10956800FBE2D40EF66E910EF76E000EF86E21EE49
:109578003CF0110E0900F5CFDEFFE806FBE26B0EAA
:10958800F66E920EF76E000EF86E21EE60F00F0E7A
:109598000900F5CFDEFFE806FBE2C20EF66E910E7B
:1095A800F76E000EF86E21EE4EF0110E0900F5CFA1
:1095B800DEFFE806FBE24F0EF66E910EF76E000E28
:1095C800F86E21EE14F0130E0900F5CFDEFFE80661
:1095D800FBE23B0EF66E910EF76E000EF86E21EE72
:1095E80028F0130E0900F5CFDEFFE806FBE25B0E5C
:1095F800F66E920EF76E000EF86E21EE70F00F0EFA
:109608000900F5CFDEFFE806FBE23BEC97F001012D
:10961800CC6F49EC97F00101CD6F5EEC97F001013A
:10962800CE6F57EC97F00101CF6F50EC97F0010126
:10963800D06F42EC97F00101D16FD5D1000ED26FF7
:1096480013D0D251010D800EF324D96E010EF420EF
:10965800DA6ED251010D540EF324E16E030EF4209C
:10966800E26EDFCFE7FFD22BD251010D800EF3243B
:10967800D96E010EF420DA6EDF50D8A4E2D7000EBE
:10968800D26F13D0D251010D000EF324D96E010E02
:10969800F420DA6ED251010D900EF324E16E030E20
:1096A800F420E26EDFCFE7FFD22BD251010D000E7E
:1096B800F324D96E010EF420DA6EDF50D8B4A9D1A4
:1096C800E1D7000ED26F13D0D251010DBA0EF32498
:1096D800D96E010EF420DA6ED251010D540EF32426
:1096E800E16E030EF420E26EDFCFE7FFD22BD251FA
:1096F800010DBA0EF324D96E010EF420DA6EDF5094
:10970800D8A4E2D7000ED26F13D0D251010D3C0E6F
:10971800F324D96E010EF420DA6ED251010D900EA9
:10972800F324E16E030EF420E26EDFCFE7FFD22BC5
:10973800D251010D3C0EF324D96E010EF420DA6EDD
:10974800DF50D8B466D1E1D7000ED26F13D0D25112
:10975800010DA60EF324D96E010EF420DA6ED25153
:10976800010D540EF324E16E030EF420E26EDFCFF8
:10977800E7FFD22BD251010DA60EF324D96E010EAC
:10978800F420DA6EDF50D8A4E2D7000ED26F13D0DF
:10979800D251010D600EF324D96E010EF420DA6E59
:1097A800D251010D900EF324E16E030EF420E26E07
:1097B800DFCFE7FFD22BD251010D600EF324D96E13
:1097C800010EF420DA6EDF50D8B423D1E1D7000EB1
:1097D800D26F13D0D251010DC30EF324D96E010EEE
:1097E800F420DA6ED251010D540EF324E16E030E0B
:1097F800F420E26EDFCFE7FFD22BD251010DC30E6A
:10980800F324D96E010EF420DA6EDF50D8A4E2D723
:10981800000ED26F13D0D251010D4E0EF324D96E23
:10982800010EF420DA6ED251010D900EF324E16E90
:10983800030EF420E26EDFCFE7FFD22BD251010DE9
:109848004E0EF324D96E010EF420DA6EDF50D8B430
:10985800E0D0E1D7000ED26F13D0D251010DB00E77
:10986800F324D96E010EF420DA6ED251010D540E94
:10987800F324E16E030EF420E26EDFCFE7FFD22B74
:10988800D251010DB00EF324D96E010EF420DA6E18
:10989800DF50D8A4E2D7000ED26F13D0D251010DF9
:1098A800140EF324D96E010EF420DA6ED251010D94
:1098B800900EF324E16E030EF420E26EDFCFE7FF93
:1098C800D22BD251010D140EF324D96E010EF420BF
:1098D800DA6EDF50D8B49DD0E1D7000ED26F13D026
:1098E800D251010D8E0EF324D96E010EF420DA6EDA
:1098F800D251010D540EF324E16E030EF420E26EF2
:10990800DFCFE7FFD22BD251010D8E0EF324D96E93
:10991800010EF420DA6EDF50D8A4E2D7000ED26F21
:1099280013D0D251010D280EF324D96E010EF42064
:10993800DA6ED251010D900EF324E16E030EF4207D
:10994800E26EDFCFE7FFD22BD251010D280EF324B0
:10995800D96E010EF420DA6EDF50D8B45AD0E1D7B0
:10996800000ED26F13D0D251010D9A0EF324D96E86
:10997800010EF420DA6ED251010D540EF324E16E7B
:10998800030EF420E26EDFCFE7FFD22BD251010D98
:109998009A0EF324D96E010EF420DA6EDF50D8A4A3
:1099A800E2D7000ED26F13D0D251010D700EF324FE
:1099B800D96E010EF420DA6ED251010D900EF32407
:1099C800E16E030EF420E26EDFCFE7FFD22BD25117
:1099D800010D700EF324D96E010EF420DA6EDF50FB
:1099E800D8B417D0E1D7CB51100AD8B427D6010A7A
:1099F800D8B467D6030AD8B4A7D6010AD8B4E7D62C
:109A0800070AD8B427D7010AD8B467D7030AD8B445
:109A1800A7D7320E0301686F300E696F0101CC3988
:109A28000F0B300F03016A6F0101CC510F0B300F80
:109A380003016B6F2D0E6C6F0101CD390F0B300FC9
:109A480003016D6F0101CD510F0B300F03016E6FD4
:109A58002D0E6F6F0101CE390F0B300F0301706FA0
:109A68000101CE510F0B300F0301716F0101CF3986
:109A78000F0B300F03017C6F0101CF510F0B300F1B
:109A880003017D6F3A0E7E6F0101D0390F0B300F45
:109A980003017F6F0101D0510F0B300F0301806F5D
:109AA8003A0E816F0101D1390F0B300F0301826F1C
:109AB8000101D1510F0B300F0301836F12002BD21C
:109AC80002010851300B300AD8A412000C0E000114
:109AD800766FFE0E776F22EE12F0DECF78F0DDCFD4
:109AE80079F0765178277751792378510201275DEB
:109AF8002851800A00017A6F7951800A7A59D8B0C2
:109B080012008A82010EFF6F000E02011E6F000E06
:109B18001D6F000E336F000E326F000E00017D6F57
:109B2800030E7D6501D012007D51020D140EF32441
:109B3800D96E020EF420DA6E000EDE6E000EDD6EB7
:109B48007D51020D290EF324D96E020EF420DA6E2F
:109B5800000EDE6E000EDD6E7D2BE2D7020108518D
:109B6800300B300AD8A41200000E1C6F000E316FA3
:109B7800000E00017D6F030E7D6501D01AD07D5166
:109B8800020D140EF324D96E020EF420DA6EDF50A3
:109B980002011C2700017D51020D290EF324D96E04
:109BA800020EF420DA6EDF500201312700017D2B0E
:109BB800E2D7010E0101EE6F9CEC7FF000017B6F94
:109BC8007BC072F0000E16EC7EF01200020108A9AC
:109BD80012002751ED5DEE51800A0001766F0201F7
:109BE8002851800A00017659D8B006D0FE05C1EC8C
:109BF80089F00101EE69120002011EBF13D01E5147
:109C080004E1050E1D5DD8A00DD02751125D13513A
:109C1800800A0001766F02012851800A00017659F6
:109C2800D8B006D092EC93F0000E0001FF6F12003E
:109C380022EE27F0DECF76F0DDCF77F0761F771FA4
:109C4800764B772B0201125100017627020113513E
:109C58000001772377BF06D0E80E765D030E7759AB
:109C6800D8B006D0FE05C1EC89F00101EE691200FA
:109C780002011EBF11D0590E1D5D020E1E59D8A03B
:109C88000BD09CEC7FF0050F00017C6F7CC062F06C
:109C9800010E3DEC88F0120002010851300B4C6EA9
:109CA8004C3A0F0E4C164C50020D0A0EF324D96E86
:109CB800020EF420DA6EDECF9EF2DDCF9FF2000EA8
:109CC8009FBFFF0EA06FA16F9EC260F09FC261F0A0
:109CD800A0C262F0A1C263F04C50020D140EF3242E
:109CE800D96E020EF420DA6EDECF64F0DDCF65F0B7
:109CF8000001000E65BFFF0E666F676FB3EC8DF055
:109D080060C09EF261C09FF262C0A0F263C0A1F27F
:109D1800020E4C26030E4C164C50020D0A0EF3246C
:109D2800D96E020EF420DA6EDECFA2F2DDCFA3F2F6
:109D38000201000EA3BFFF0EA46FA56FA2C260F0C0
:109D4800A3C261F0A4C262F0A5C263F04C50020D38
:109D5800140EF324D96E020EF420DA6EDECF64F00E
:109D6800DDCF65F00001000E65BFFF0E666F676FFF
:109D7800B3EC8DF060C0A2F261C0A3F262C0A4F29D
:109D880063C0A5F2020113BF0BD0520E125D3B0E49
:109D98001359D8A005D00001FE29C1EC89F01200A2
:109DA8000001FE05C1EC89F01200020108A91200A9
:109DB8002751ED5DEE51800A0001766F02012851AE
:109DC800800A00017659D8B006D0FE05C1EC89F0AA
:109DD8000101EE69120002011EBF06D01E510EE1FC
:109DE800C80E1D5DD8B00AD00001FE51FB0F7C6F74
:109DF8007CC062F0000E3DEC88F0120002010851B0
:109E0800300B4C6E4C3A0F0E4C164C50020D0A0E8D
:109E1800F324D96E020EF420DA6EDECF9EF2DDCF87
:109E28009FF2000E9FBFFF0EA06FA16F9EC260F051
:109E38009FC261F0A0C262F0A1C263F04C50020D53
:109E4800140EF324D96E020EF420DA6EDECF64F01D
:109E5800DDCF65F00001000E65BFFF0E666F676F0E
:109E6800B3EC8DF060C09EF261C09FF262C0A0F2B8
:109E780063C0A1F2020E4C26030E4C164C50020D84
:109E88000A0EF324D96E020EF420DA6EDECFA2F2A7
:109E9800DDCFA3F20201000EA3BFFF0EA46FA56FD2
:109EA800A2C260F0A3C261F0A4C262F0A5C263F0CE
:109EB8004C50020D140EF324D96E020EF420DA6E03
:109EC800DECF64F0DDCF65F00001000E65BFFF0E48
:109ED800666F676FB3EC8DF060C0A2F261C0A3F249
:109EE80062C0A4F263C0A5F2020113BF0BD0520EE8
:109EF800125D3B0E1359D8A005D00001FE29C1EC14
:109F080089F012000001FE05C1EC89F01200000E74
:109F18000001FF6F12000001FF51000AD8B4D0D52C
:109F2800010AD8B41BD6030AD8B450D6010AD8B44B
:109F38003CD7EDD7C8D160C0D9FF61C0DAFF000EA9
:109F4800DE6E000EDD6E000120EE02F06051D926B3
:109F58006151DA220B0EDE6E000EDD6E20EE04F08B
:109F68006051D9266151DA22040EDF6E20EE05F029
:109F78006051D9266151DA22000EDE6E000EDD6EC8
:109F880020EE07F06051D9266151DA220B0EDE6E01
:109F9800000EDD6E20EE09F06051D9266151DA22FB
:109FA800040EDF6E20EE0AF06051D9266151DA22E4
:109FB800000EDE6E000EDD6E120060C0D9FF61C0BB
:109FC800DAFF000EDE6E000EDD6E20EE02F060514C
:109FD800D9266151DA22110EDE6E000EDD6E20EEFA
:109FE80004F06051D9266151DA22050EDF6E20EEA9
:109FF80005F06051D9266151DA22000EDE6E000E9E
:10A00800DD6E20EE07F06051D9266151DA22110E7B
:10A01800DE6E000EDD6E20EE09F06051D92661512A
:10A02800DA22050EDF6E20EE0AF06051D926615162
:10A03800DA22000EDE6E000EDD6E120060C0D9FF5F
:10A0480061C0DAFF000EDE6E000EDD6E20EE02F05B
:10A058006051D9266151DA22DB0EDE6E160EDD6EF6
:10A0680020EE04F06051D9266151DA220F0EDF6E1E
:10A0780020EE05F06051D9266151DA22000EDE6E1D
:10A08800000EDD6E20EE07F06051D9266151DA220C
:10A09800DB0EDE6E160EDD6E20EE09F06051D9265D
:10A0A8006151DA220F0EDF6E20EE0AF06051D926D8
:10A0B8006151DA22000EDE6E000EDD6E120060C005
:10A0C800D9FF61C0DAFF000EDE6E000EDD6E20EEF5
:10A0D80002F06051D9266151DA22DB0EDE6E160ECF
:10A0E800DD6E20EE04F06051D9266151DA220F0EA0
:10A0F800DF6E20EE05F06051D9266151DA22000E9C
:10A10800DE6E000EDD6E20EE07F06051D92661513B
:10A11800DA22DB0EDE6E160EDD6E20EE09F06051DF
:10A12800D9266151DA220F0EDF6E20EE0AF0605157
:10A13800D9266151DA22000EDE6E000EDD6E1200A5
:10A1480060C0D9FF61C0DAFF370EDE6ECA0EDD6E61
:10A1580020EE02F06051D9266151DA22290EDE6E16
:10A16800D30EDD6E20EE04F06051D9266151DA225B
:10A178000D0EDF6E20EE05F06051D9266151DA220E
:10A18800370EDE6ECA0EDD6E20EE07F06051D9265E
:10A198006151DA22290EDE6ED30EDD6E20EE09F053
:10A1A8006051D9266151DA220D0EDF6E20EE0AF0D9
:10A1B8006051D9266151DA22000EDE6E000EDD6E86
:10A1C800120060C0D9FF61C0DAFF370EDE6ECA0E1A
:10A1D800DD6E20EE02F06051D9266151DA22290E97
:10A1E800DE6ED30EDD6E20EE04F06051D92661518B
:10A1F800DA220D0EDF6E20EE05F06051D92661518E
:10A20800DA22370EDE6ECA0EDD6E20EE07F06051E0
:10A21800D9266151DA22290EDE6ED30EDD6E20EECC
:10A2280009F06051D9266151DA220D0EDF6E20EE59
:10A238000AF06051D9266151DA22000EDE6E000E56
:10A24800DD6E120060C0D9FF61C0DAFF370EDE6E26
:10A25800CA0EDD6E20EE02F06051D9266151DA2275
:10A26800290EDE6ED30EDD6E20EE04F06051D92685
:10A278006151DA220D0EDF6E20EE05F06051D9260D
:10A288006151DA22370EDE6ECA0EDD6E20EE07F05F
:10A298006051D9266151DA22290EDE6ED30EDD6EA9
:10A2A80020EE09F06051D9266151DA220D0EDF6ED9
:10A2B80020EE0AF06051D9266151DA22000EDE6ED6
:10A2C800000EDD6E120000016251000AD8B433D6C8
:10A2D800010AD8B472D6030AD8B4B0D6010AD8B4E1
:10A2E800EED6070AD8B42CD7010AD8B46AD7030A1D
:10A2F800D8A41200A7D7B8D1B2EC67F00009D8A447
:10A3080012005368120047EC5DF00009D8A412004F
:10A31800536812005104D8A402D05368120053C2E3
:10A3280044F054C243F043C06AF044C06BF00001EB
:10A338006C6B6D6B83EC77F00009D8A41200000EEB
:10A348000001616F240E606FF9EC7FF0000E0001D0
:10A35800606F060E616FDD0E626F930E636F000E05
:10A36800656F240E646FBBEC8BF0FD0E536E12000C
:10A37800D4C260F0D5C261F022EEC2F001D80AD092
:10A388000500FA6EDE50FD6EDE50FE6EDE50FF6E8A
:10A39800FA50120060C0A2F061C0A3F062C0A4F03D
:10A3A80063C0A5F0D4C260F0D5C261F022EEC5F05A
:10A3B80001D80AD00500FA6EDE50FD6EDE50FE6E42
:10A3C800DE50FF6EFA501200000160C09EF061C0BE
:10A3D8009FF0A06BA16B26EE00F0A5C0DFFF26EE74
:10A3E80001F0A4C0DFFF26EE02F0A3C0DFFF26EED7
:10A3F80003F0A2C0DFFF26EE04F0A1C0DFFF26EEC7
:10A4080005F0A0C0DFFF26EE06F09FC0DFFF26EEB6
:10A4180007F09EC0DFFF000E446E080E436E000E6C
:10A42800616F080E606FF9EC7FF0FD0E536E12003D
:10A438005104D8A402D053681200000E446E120EC4
:10A44800436E000E0001616F120E606FF9EC7FF031
:10A45800000E0001A66F110EA66501D014D0A651FA
:10A46800010D600EF324D96E020EF420DA6EA651A7
:10A47800010D000EF324E16E060EF420E26EDFCF2C
:10A48800E7FFA62BE8D7FD0E536E1200030EE8CFA8
:10A4980000F6000EE8CF01F6D4C260F0D5C261F034
:10A4A80022EECEF001D80AD00500FA6EDE50FD6E1D
:10A4B800DE50FE6EDE50FF6EFA5012000009D8A47E
:10A4C80005D0000E00019C6F000E04D0000E0001A4
:10A4D8009C6F800E9B6F26EE02F09BC0DFFF000E84
:10A4E800E8CF03F6000E446E040E436E000E616F53
:10A4F800040E606FF9EC7FF0FD0E536E120002013E
:10A508006251F00B0509626F200E6C6F000E6D6FC3
:10A51800010E0D018C6F000E886F000E896F000E02
:10A528008A6F000E8B6F53681200000E00016A6F6D
:10A53800000E6B6F000E6C6F000E6D6F83EC77F082
:10A548000009D8A41200020162510F0B060AD8A410
:10A5580006D00D018C05D8A402D053681200F7EC80
:10A568008AF0000E0D01886F000E896F000E8A6F49
:10A57800000E8B6F53681200000E0D01886F000EDD
:10A58800896F000E8A6F000E8B6F5368120045505A
:10A598004610D8B406D045C0D9FF46C0DAFFDFBEA2
:10A5A800120002014C514B114A1104E1400E495D61
:10A5B800D8A00BD0400E00019D6F400E0201495FEC
:10A5C800000E4A5B4B5B4C5B0AD049C29DF0000E03
:10A5D800496F000E4A6F000E4B6F000E4C6F000162
:10A5E8009D51996F9A6B9951435C9A514458D8A0E0
:10A5F80005D09D51435E000E445A1AD0000EA66F36
:10A6080013D043504410D8B404D04306D8A044060D
:10A618000AD0A651010D000EF324D96E060EF420BF
:10A62800DA6E000EDF6EA62B9D51A65DD8A0E9D785
:10A63800010E606F000E616F060E626F9DC063F0C1
:10A64800020E80EC74F060C045F061C046F0020173
:10A6580049514A114B114C11D8A4120053681200E9
:10A668007F0EDCEC71F012005350000AD8B45DD7AD
:10A67800030AD8B4DDD6110AD8B44CD6080AD8B41F
:10A6880005D7010AD8B478D7050AD8B438D73B0A11
:10A69800D8B46ED60D0AD8B42FD6020AD8B433D699
:10A6A800050AD8B469D7D20AD8B471D7030AD8D75B
:10A6B80093D102010651800A7F0FD8A002D0100E54
:10A6C80003D006AF02D0600E406F0751000E066F30
:10A6D800000E076F12000651800A7F0FD8A002D023
:10A6E800200E03D006AF02D0000E406F0751D8B439
:10A6F80002D0110E406F000E066F000E076F120099
:10A708000651800A7F0FD8A003D0F4EC94F004D04F
:10A71800020106BF49EC95F002010751D8B405D0F3
:10A72800C0EC95F0120E0201406F000E066F000E8D
:10A73800076F12000651800A7F0FD8A003D016ECCD
:10A7480095F004D0020106BF6BEC95F002010751A9
:10A75800D8B405D0C0EC95F0130E0201406F000E7E
:10A76800066F000E076F12000651800A7F0FD8A0EF
:10A7780003D0BCEC94F004D0020106BFCFEC94F0F7
:10A7880002010751D8B402D0140E406F000E066FB4
:10A79800000E076F12000651800A7F0FD8A003D061
:10A7A80038EC95F004D0020106BF8DEC95F002015B
:10A7B8000751D8B402D0150E406F000E066F000E78
:10A7C800076F12000651800A7F0FD8A003D027EC2C
:10A7D80095F004D0020106BF7CEC95F00201075108
:10A7E800D8B402D0160E406F000E066F000E076F29
:10A7F80012000651800A7F0FD8A003D005EC95F00F
:10A8080004D0020106BF5AEC95F002010751D8B4F2
:10A8180004D0100E406F66EC90F0000E0201066F37
:10A82800000E076F12000651800A7F0FD8A002D0D1
:10A83800300E03D006AF02D0100E406F0751D8A4D7
:10A8480028BF09D0E10E275D2E0E2859D8A003D0C5
:10A85800100EA9EC94F0000E0201066F000E076FAF
:10A8680012000651800A7F0FD8A002D0400E03D0F4
:10A8780006AF02D0200E406F0751D8B402D0310E77
:10A88800406F000E066F000E076F12000651800A17
:10A898007F0FD8A006D028BF0AD0010EF5EC8FF0A4
:10A8A80006D0020106AF03D0010EDFEC8DF00201E5
:10A8B8000751D8B402D0320E406F000E066F000E5A
:10A8C800076F12000651800A7F0FD8A006D028BF54
:10A8D8000AD0020EF5EC8FF006D0020106AF03D0C5
:10A8E800020EDFEC8DF002010751D8B402D0330E0E
:10A8F800406F000E066F000E076F12000651800AA7
:10A908007F0FD8A006D028BF0AD0040EF5EC8FF030
:10A9180006D0020106AF03D0040EDFEC8DF0020171
:10A928000751D8B402D0340E406F000E066F000EE7
:10A93800076F12000651800A7F0FD8A006D028BFE3
:10A948000AD0080EF5EC8FF006D0020106AF03D04E
:10A95800080EDFEC8DF002010751D8B402D0300E9A
:10A96800406F000E066F000E076F12000651800A36
:10A978007F0FD8A002D0500E03D006AF02D0300E01
:10A98800406F0751000E066F000E076F1200065148
:10A99800800A7F0FD8A002D0600E03D006AF02D085
:10A9A800400E406F0751000E066F000E076F120031
:10A9B8000651800A7F0FD8A002D0000E03D006AF40
:10A9C80002D0500E406F0751000E066F000E076F41
:10A9D8001200000E406F120002014051000AD8B464
:10A9E80068D6100AD8B477D6010AD8B489D6030A2B
:10A9F800D8B4A0D6010AD8B4B7D6070AD8B4CBD6EB
:10AA0800010AD8B4DFD6030AD8B4F3D6360AD8B4C4
:10AA18000AD7100AD8B425D7010AD8B437D7030AF9
:10AA2800D8B450D7010AD8B469D7070AD8B482D79E
:10AA3800740AD8B49BD7100AD8B4A9D7300AD8B4A6
:10AA4800B7D7C7D7D3EC6BF078C0D9FF79C0DAFF96
:10AA5800000164C0DEFF65C0DEFF66C0DEFF67C0C0
:10AA6800DEFF9AC260F09BC261F09CC262F09DC298
:10AA780063F041C064F042C065F0666B676B07EC39
:10AA880085F0000120EE04F07851D9267951DA22B8
:10AA980060C0DEFF61C0DDFF96C260F097C261F062
:10AAA80098C262F099C263F041C064F042C065F098
:10AAB800666B676B07EC85F0000120EE06F07851B5
:10AAC800D9267951DA2260C0DEFF61C0DDFF92C26B
:10AAD80060F093C261F094C262F095C263F041C025
:10AAE80064F042C065F0666B676B07EC85F00001A7
:10AAF80020EE08F07851D9267951DA2260C0DEFFBD
:10AB080061C0DDFF8EC260F08FC261F090C262F05A
:10AB180091C263F041C064F042C065F0666B676B38
:10AB280007EC85F0000120EE0AF07851D92679511A
:10AB3800DA2260C0DEFF61C0DDFF8AC260F08BC22E
:10AB480061F08CC262F08DC263F041C064F042C013
:10AB580065F0666B676B07EC85F0000120EE0CF082
:10AB68007851D9267951DA2260C0DEFF61C0DDFF55
:10AB780086C260F087C261F088C262F089C263F061
:10AB880041C064F042C065F0666B676B07EC85F006
:10AB9800000120EE0EF07851D9267951DA2260C0F2
:10ABA800DEFF61C0DDFFF40E020182250001606F47
:10ABB800010E020183210001616F000E0201842150
:10ABC8000001626F000E020185210001636FE80E2B
:10ABD800646F030E656F000E666F000E676F07ECFB
:10ABE80085F0000120EE10F07851D9267951DA224B
:10ABF80060C0DEFF61C0DDFFF40E02017E250001AA
:10AC0800606F010E02017F210001616F000E0201D9
:10AC180080210001626F000E020181210001636F33
:10AC2800E80E646F030E656F000E666F000E676FA7
:10AC380007EC85F0000120EE12F07851D926795101
:10AC4800DA2260C0DEFF61C0DDFF20EE14F078512B
:10AC5800D9267951DA227AC260F07BC261F07CC2CF
:10AC680062F07DC263F041C064F042C065F0666B7B
:10AC7800676BE8EC7CF060C06EF061C06FF0EDECE3
:10AC880093F0DF6E000120EE15F07851D926795146
:10AC9800DA2276C260F077C261F078C262F079C2D7
:10ACA80063F041C064F042C065F0666B676BE8EC26
:10ACB8007CF060C06EF061C06FF0EDEC93F0DF6E79
:10ACC800000120EE16F07851D9267951DA2272C2A5
:10ACD80060F073C261F074C262F075C263F041C083
:10ACE80064F042C065F0666B676BE8EC7CF060C0AE
:10ACF8006EF061C06FF0EDEC93F0DF6E000120EEB6
:10AD080017F07851D9267951DA22D8900201B13159
:10AD180000017B6F0201B03100017A6F7A51DF6E5A
:10AD280020EE18F07851D9267951DA22D89002010C
:10AD3800AF3100017B6F0201AE3100017A6F7A51A9
:10AD4800DF6E20EE19F07851D9267951DA22000EFB
:10AD5800DF6E20EE1AF07851D9267951DA22000EEA
:10AD6800DF6E20EE1BF07851D9267951DA22000ED9
:10AD7800DF6E20EE1CF07851D9267951DA22000EC8
:10AD8800DF6E20EE1DF07851D9267951DA22000EB7
:10AD9800DF6E20EE1EF07851D9267951DA22ECC107
:10ADA800DFFF78C060F079C061F033EC92F0000109
:10ADB8007A6F20EE1FF07851D9267951DA227AC0BD
:10ADC800DFFF1200200E5C6001D0120065B2120095
:10ADD8000201B451B511D8B4E4D0B4C2D9FFB5C298
:10ADE800DAFFDFBE1200DDD00001F951FA11D8B444
:10ADF80006D0F9C0D9FFFAC0DAFFDFBEECD041ECCB
:10AE080061F0010E0001606FA40E616F030E626FA6
:10AE1800400E636F010E80EC74F0BED00001F95152
:10AE2800FA11D8B406D0F9C0D9FFFAC0DAFFDFBEEC
:10AE3800D2D0CDEC8FF0010E0001606FA40E616FCF
:10AE4800030E626F400E636F010E80EC74F0A4D0A5
:10AE58000001F951FA11D8B406D0F9C0D9FFFAC0E7
:10AE6800DAFFDFBEB8D0A5EC8FF0010E0001606FED
:10AE7800A40E616F030E626F400E636F010E80ECCB
:10AE880074F08AD00001F951FA11D8B406D0F9C08B
:10AE9800D9FFFAC0DAFFDFBE9ED08DEC86F0010E36
:10AEA8000001606FA40E616F030E626F400E636F46
:10AEB800010E80EC74F070D00001F951FA11D8B489
:10AEC80006D0F9C0D9FFFAC0DAFFDFBE84D028EC7B
:10AED8008BF0010E0001606FA40E616F030E626FAC
:10AEE800400E636F010E80EC74F056D08C7273D0F4
:10AEF8000001F951FA11D8B406D0F9C0D9FFFAC047
:10AF0800DAFFDFBE68D0810E0301A46F80A002D0F3
:10AF1800010E01D0000EA56F010E0001606FA40E96
:10AF2800616F030E626F400E636F010E80EC74F068
:10AF380033D00001F951FA11D8B406D0F9C0D9FFBD
:10AF4800FAC0DAFFDFBE47D0370E0301A46F22EE46
:10AF580036F0DECF8CF0DDCF8DF000018D358D33EE
:10AF68008C338D358D338C338D358D338C338CC04C
:10AF780094F08DC095F094C0A5F395510301A66F88
:10AF8800010E0001606FA40E616F030E626F400E28
:10AF9800636F010E80EC74F060C0F9F061C0FAF0E4
:10AFA8001AD004017851100AD8B41ED7010AD8B4AF
:10AFB80035D7030AD8B44CD7010AD8B463D7070ADF
:10AFC800D8B47AD7230AD8B4B4D7B70AD8B48ED7A6
:10AFD800010AD8B48DD7010E000176D09651010D23
:10AFE800780EF324D96E040EF420DA6EDF506AEC82
:10AFF80079F00001962B85D096518C6F8D6B010EE0
:10B008008C27000E8D23780E8C25D96E040E8D2189
:10B01800DA6EDF50636F9651010D780EF324D96E06
:10B02800040EF420DA6EDF50F4EC78F0020E48D00B
:10B0380096518C6F8D6B010E8C27000E8D23780E28
:10B048008C25D96E040E8D21DA6EDF50636F965110
:10B058008E6F8F6B020E8E27000E8F23780E8E2533
:10B06800D96E040E8F21DA6EDF50646F9651906F9F
:10B07800916B030E9027000E9123780E9025D96EC0
:10B08800040E9121DA6EDF50656F9651926F936BC3
:10B09800040E9227000E9323780E9225D96E040E83
:10B0A8009321DA6EDF50666F9651010D780EF32406
:10B0B800D96E040EF420DA6EDF5094EC6FF0050EB2
:10B0C800000196271ED0410E966F1BD09651010D98
:10B0D800780EF324D96E040EF420DA6EDF50F00BEC
:10B0E8008C6F8D6B8D51000AD8A4EDD78C51300A26
:10B0F800D8B474D7700AD8B47FD7200AD8B498D7F0
:10B10800E2D73D0E9665E2D7000E606F780E616F4C
:10B11800040E626F400E636F010E80EC74F060C025
:10B12800B4F261C0B5F212008A0EF66E910EF76E97
:10B13800000EF86E20EE92F0120E0900F5CFDEFF39
:10B14800E806FBE2770EF66E910EF76E000EF86ECB
:10B1580020EEA5F0120E0900F5CFDEFFE806FBE2AF
:10B168007B0EF66E920EF76E000EF86E20EEB8F0BB
:10B178000D0E0900F5CFDEFFE806FBE222EE27F010
:10B18800DECF60F0DDCF61F00001000E61BFFF0E81
:10B19800626F636F22EE32F0DECF64F0DDCF65F0D0
:10B1A800000E65BFFF0E666F676FB3EC8DF060C071
:10B1B800CDF061C0CEF062C0CFF063C0D0F022EE17
:10B1C80012F0DECFC9F0DDCFCAF00001000ECABF11
:10B1D800FF0ECB6FCC6FC9C060F0CAC061F0CBC0A6
:10B1E80062F0CCC063F022EE1DF0DECF64F0DDCF5C
:10B1F80065F0000E65BFFF0E666F676FB3EC8DF0EC
:10B2080060C0C9F061C0CAF062C0CBF063C0CCF0C6
:10B21800C9C060F0CAC061F0CBC062F0CCC063F0B6
:10B22800E80E0001646F030E656F000E666F000E76
:10B23800676FE8EC7CF060C0C9F061C0CAF062C01A
:10B24800CBF063C0CCF022EE27F0DECFCDF0DDCF1F
:10B25800CEF00001000ECEBFFF0ECF6FD06FCDC075
:10B2680060F0CEC061F0CFC062F0D0C063F022EED3
:10B2780032F0DECF64F0DDCF65F0000E65BFFF0E63
:10B28800666F676FB3EC8DF060C0CDF061C0CEF033
:10B2980062C0CFF063C0D0F0C9C064F0CAC065F026
:10B2A800CBC066F0CCC067F0CDC060F0CEC061F016
:10B2B800CFC062F0D0C063F0E8EC7CF060C06EF004
:10B2C80061C06FF062C070F063C071F0C3EC87F0CA
:10B2D8006EC0C6F06FC0C7F070C0C8F0CDC060F0D7
:10B2E800CEC061F0CFC062F0D0C063F0E80E0001BC
:10B2F800646F030E656F000E666F000E676FE8ECF3
:10B308007CF060C0CDF061C0CEF062C0CFF063C009
:10B31800D0F0000E0001D16F13D0D151010D920E63
:10B32800F324D96E000EF420DA6ED151010D540EBB
:10B33800F324E16E030EF420E26EDFCFE7FFD12B9A
:10B34800D151010D920EF324D96E000EF420DA6E5D
:10B35800DF50D8A4E2D7000ED16F13D0D151010D20
:10B36800A50EF324D96E000EF420DA6ED151010D2A
:10B37800680EF324E16E030EF420E26EDFCFE7FFE0
:10B38800D12BD151010DA50EF324D96E000EF42056
:10B39800DA6EDF50D8A4E2D7C9C078F0CAC079F015
:10B3A800030E7A6F7C0E7B6F030E7C6FBCEC65F02E
:10B3B800CDC078F0CEC079F0030E00017A6F860E0A
:10B3C8007B6F030E7C6FBCEC65F0000E0001D16F43
:10B3D80013D0D151010DB80EF324D96E000EF4200C
:10B3E800DA6ED151010D900EF324E16E030EF420B4
:10B3F800E26EDFCFE7FFD12BD151010DB80EF32458
:10B40800D96E000EF420DA6EDF50D8A4E2D7C6C099
:10B4180060F0C7C061F0C8C062F007EC77F060C0A8
:10B4280078F061C079F0010E00017A6F930E7B6F9E
:10B43800030E7C6FBCEC65F0CDC090F0CEC091F0EF
:10B448000001901F911F904B912BC9519025786F47
:10B45800CA519121796F030E7A6F9E0E7B6F030E8E
:10B468007C6FBCEC65F0120003EC75F0000E2CEC60
:10B478008DF02DEC6BF0ECEC92F0E2EC96F0020122
:10B488000951D8A4FAD728BF06D0E00E275D2E0EA2
:10B498002859D8B003D0100EDFEC8DF0020128AF88
:10B4A80011D02729FF0E2859D8B00CD0010EDFEC97
:10B4B8008DF0020EDFEC8DF0040EDFEC8DF0080E3F
:10B4C800DFEC8DF078EC88F085EC75F0000E81ECFF
:10B4D80084F000016051020134270001615102012A
:10B4E8003523010E81EC84F00001605102013827F8
:10B4F8000001615102013923020E81EC84F0000140
:10B50800605102013C270001615102013D2301D134
:10B51800010E00016A6F000E6B6F000E16EC92F0C0
:10B528002AD1E6EC56F027D1B2EC8EF002010839A8
:10B538000F0B030B0001F16FF26BD890F137F23764
:10B548001F0EF125D96E020EF221DA6E65C0DEFFFC
:10B5580066C0DDFF010E6A6F000E6B6F030E16ECFE
:10B5680092F0DCEC79F007D1A0EC97F0050AD8A4AA
:10B5780002D102014051CBEC85F0FDD0A0EC97F050
:10B58800FAD0B2EC8EF0020108390F0B030B000160
:10B59800F16FF26BD890F137F2370A0EF125D96EB8
:10B5A800020EF221DA6E65C0DEFF66C0DDFF010E15
:10B5B80000016A6F000E6B6F010E16EC92F04DECF5
:10B5C8007AF0D9D0E6EC56F0D6D0B2EC8EF0020183
:10B5D80008390F0B030B0001F16FF26BD890F137AC
:10B5E800F237290EF125D96E020EF221DA6E65C006
:10B5F800DEFF66C0DDFF010E6A6F000E6B6F020E84
:10B6080016EC92F029EC70F0B6D0E6EC56F0B2ECFD
:10B618005EF077EC97F01E0E000160196111D8A456
:10B62800AAD01FEC89F00FEC7CF0A5D0B2EC8EF01C
:10B63800020108390F0B030B0001F16FF26BD89070
:10B64800F137F237140EF125D96E020EF221DA6EB7
:10B6580065C0DEFF66C0DDFFBBEC70F08CD076EC19
:10B668008CF089D034C26CF035C26DF0040E000144
:10B678006E6FFFEC77F06CC036F26DC037F2000EDB
:10B688000201356F000E346F38C26CF039C26DF0AC
:10B69800050E00016E6FFFEC77F06CC03AF26DC0DA
:10B6A8003BF2000E0201396F000E386F3CC26CF09D
:10B6B8003DC26DF0060E00016E6FFFEC77F06CC0B6
:10B6C8003EF26DC03FF2000E02013D6F000E3C6F6E
:10B6D8006BEC97F0020137BF08D0B90E365D0B0E40
:10B6E8003759D8A002D08C8208D037BF05D0C40EF5
:10B6F800365D090E3759D8A08C924051CBEC85F0B5
:10B708003AD0A0EC97F0050AD8A435D086EC87F09B
:10B7180032D0020108510F0B0001F16FF26BF251A8
:10B72800000AD8A428D0F151000AD8B4F1D6010AE9
:10B73800D8B4F7D6020AD8B4F7D6070AD8B414D7BB
:10B74800010AD8B41BD7030AD8B41BD70E0AD8B439
:10B7580039D7010AD8B439D7020AD8B456D7070A54
:10B76800D8B464D7010AD8B47AD7030AD8B47AD738
:10B77800010AD8B4C6D7010E0201096F7ED6C00EE1
:10B78800F66E900EF76E000EF86E21EE0FF0140EA6
:10B798000900F5CFDEFFE806FBE2B00EF66E910E6B
:10B7A800F76E000EF86E21EE60F0110E0900F5CF6D
:10B7B800DEFFE806FBE29D0EF66E910EF76E000EB8
:10B7C800F86E21EE4DF0120E0900F5CFDEFFE80607
:10B7D800FBE22F0EF66E930EF76E000EF86E21EE5A
:10B7E80008F0060E0900F5CFDEFFE806FBE2170EAB
:10B7F800F66E930EF76E000EF86E21EE00F0070E4F
:10B808000900F5CFDEFFE806FBE2CB0EF66E920EDE
:10B81800F76E000EF86E21EE82F00B0E0900F5CFE0
:10B82800DEFFE806FBE21B0EF66E920EF76E000EC8
:10B83800F86E21EE72F00F0E0900F5CFDEFFE80674
:10B84800FBE2AB0EF66E900EF76E000EF86E21EE70
:10B8580024F0140E0900F5CFDEFFE806FBE2130E14
:10B86800F66E910EF76E000EF86E21EE39F0130E9B
:10B878000900F5CFDEFFE806FBE2000E01018E6F3E
:10B8880013D08E51010D0F0EF324D96E010EF42042
:10B89800DA6E8E51010D540EF324E16E030EF4207E
:10B8A800E26EDFCFE7FF8E2B8E51010D0F0EF324D2
:10B8B800D96E010EF420DA6EDF50D8A4E2D7000E5C
:10B8C8008E6F14D001018E51010D600EF324D96ED4
:10B8D800010EF420DA6E8E51010D680EF324E16E2C
:10B8E800030EF420E26EDFCFE7FF8E2B01018E51AD
:10B8F800010D600EF324D96E010EF420DA6EDF50CC
:10B90800D8B420D0DFD78E51010D4D0EF324D96E57
:10B91800010EF420DA6E8E51010D680EF324E16EEB
:10B92800030EF420E26EDFCFE7FF8E2B01018E516C
:10B93800010D4D0EF324D96E010EF420DA6EDF509E
:10B94800D8A4E1D7000E8E6F80D08E51010D820EE3
:10B95800F324D96E010EF420DA6E8E51010D7C0E9F
:10B96800F324E16E030EF420E26EDFCFE7FF8E2BA7
:10B9780001018E51010D820EF324D96E010EF420BF
:10B98800DA6EDF50D8B46FD0E0D78E51010D720E49
:10B99800F324D96E010EF420DA6E8E51010D7C0E5F
:10B9A800F324E16E030EF420E26EDFCFE7FF8E2B67
:10B9B80001018E51010D720EF324D96E010EF4208F
:10B9C800DA6EDF50D8B44FD0E0D78E51010D240E77
:10B9D800F324D96E010EF420DA6E8E51010D7C0E1F
:10B9E800F324E16E030EF420E26EDFCFE7FF8E2B27
:10B9F80001018E51010D240EF324D96E010EF4209D
:10BA0800DA6EDF50D8B42FD0E0D78E51010D390E41
:10BA1800F324D96E010EF420DA6E8E51010D7C0EDE
:10BA2800F324E16E030EF420E26EDFCFE7FF8E2BE6
:10BA380001018E51010D390EF324D96E010EF42047
:10BA4800DA6EDF50D8B40FD0E0D7A6EC97F0000A32
:10BA5800D8B48ED7010AD8B4ABD7030AD8B4C8D79C
:10BA6800010AD8B4E5D7A9EC97F00001906F90517E
:10BA7800786F796B000E7A6F900E7B6F030E7C6F78
:10BA8800BCEC65F0120057D152C2DCF153C2DBF1B5
:10BA980054C2DAF155C2D9F157C244F058C243F042
:10BAA800435000018F6F4450906F916B926B090E59
:10BAB800D8908F37903791379237E82EF9D78FC0C3
:10BAC8006AF090C06BF091C06CF092C06DF083EC9E
:10BAD80077F00009D8A440D1D4C260F0D5C261F093
:10BAE80022EECEF001D80AD00500FA6EDE50FD6EC7
:10BAF800DE50FE6EDE50FF6EFA5012000009D8B418
:10BB080016D0010E0D018C6F02016251F00B07096E
:10BB1800626F270E6C6F000E6D6F000E0001606F74
:10BB2800020E77EC73F0000E526E52501200010EA6
:10BB3800546E43504410D8B4FBD0030E526E000E1E
:10BB48000101E76F060EE86F000E0D01886F020E07
:10BB5800896F000E8A6F000E8B6F0D018851891155
:10BB68008A118B11D8B41DD047504810D8B406D0CC
:10BB780047C0D9FF48C0DAFFDFBEEED0000E000193
:10BB8800606FE7C161F0E8C162F0400E636F020EBA
:10BB980080EC74F060C047F061C048F0040E526E4B
:10BBA80023D0D4C260F0D5C261F022EECEF001D825
:10BBB8000AD00500FA6EDE50FD6EDE50FE6EDE50D5
:10BBC800FF6EFA5012000009D8B40CD0010E0D0116
:10BBD8008C6F02016251F00B0209626F270E6C6FC5
:10BBE800000E6D6F020EA5D047504810D8B406D08D
:10BBF80047C0D9FF48C0DAFFDFBEAED020EE01F063
:10BC08004750D9264850DA22DF5000018F6F8FC085
:10BC180090F0916B926B936B90510201495F000118
:10BC2800915102014A5B0001925102014B5B0001F4
:10BC3800935102014C5B20EE01F04750D926485041
:10BC4800DA22DF5000018F6F8FC090F0916B926BFA
:10BC5800936B90510D01885F000191510D01895B33
:10BC6800000192510D018A5B000193510D018B5B1C
:10BC7800400E0101E727000EE823030E5AD00D01FC
:10BC88008C51D8A440D0D4C284F0D5C285F0D9C193
:10BC980086F0DAC187F0DBC188F0DCC189F0000EDC
:10BCA80000018A6F060E8B6F0101D951DA11DB1181
:10BCB800DC11D8A402D0010E01D0000E00018C6F57
:10BCC80022EED1F001D80AD00500FA6EDE50FD6EE2
:10BCD800DE50FE6EDE50FF6EFA501200E806D8B451
:10BCE80012D0640E0101F46102D0F42B35D0010E9C
:10BCF8000D018C6F02016251F00B0309626F000E97
:10BD08006C6F000E6D6F010E0101D927000EDA234A
:10BD1800DB23DC234306D8A04406010E0AD0020E1A
:10BD28000D018C6F000E0001606F020E77EC73F04E
:10BD3800000E526E11D05250000AD8B4A5D6010A8E
:10BD4800D8B4F7D6030AD8B49AD7010AD8B405D715
:10BD5800070AD8B449D7E3D7525012002BEC97F012
:10BD68000001746F7451786F796B0101EB51000118
:10BD7800746F756B7851741904E179517519D8B4D9
:10BD8800120078C0EBF112C274F013C275F0000E05
:10BD980075BFFF0E766F776F745102019A27000105
:10BDA800755102019B230001765102019C23000179
:10BDB800775102019D231DC274F01EC275F0000E5A
:10BDC800000175BFFF0E766F776F745102019627D9
:10BDD8000001755102019723000176510201982351
:10BDE800000177510201992327C274F028C275F027
:10BDF800000E000175BFFF0E766F776F7451020158
:10BE08009227000175510201932300017651020126
:10BE18009423000177510201952332C274F033C292
:10BE280075F0000E000175BFFF0E766F776F7451C5
:10BE380002018E270001755102018F2300017651FE
:10BE48000201902300017751020191238AEC85F0C9
:10BE58006EC078F06FC079F0D89000017931756FB5
:10BE68007831746F745102018A27000175510201FB
:10BE78008B23000E8C23000E8D23000178510201C4
:10BE880082270001795102018323000E8423000ECA
:10BE9800852349EC85F06DC078F06EC079F0D890B4
:10BEA80000017931756F7831746F745102018627FA
:10BEB8000001755102018723000E8823000E892393
:10BEC8000001785102017E270001795102017F2388
:10BED800000E8023000E812336C274F037C275F03D
:10BEE800000E000175BFFF0E766F776F7451020167
:10BEF8007A270001755102017B2300017651020166
:10BF08007C230001775102017D233AC274F03BC2C1
:10BF180075F0000E000175BFFF0E766F776F7451D4
:10BF2800020176270001755102017723000176513D
:10BF38000201782300017751020179233EC274F08F
:10BF48003FC275F0000E000175BFFF0E766F776F68
:10BF58007451020172270001755102017323000117
:10BF68007651020174230001775102017523A6EC72
:10BF780097F00001746F7F0E7417D8B403D00201D4
:10BF8800B04BB12B02010151D8A402D0AE4BAF2B5C
:10BF9800010E26EC96F00009D8B402D00101EC8F0E
:10BFA800020E26EC96F00009D8B402D00101EC8DFF
:10BFB800040E26EC96F00009D8B402D00101EC8BEF
:10BFC800080E26EC96F00009D8B402D00101EC89DD
:10BFD800100E26EC96F00009D8B402D00101EC87C7
:10BFE800200E26EC96F00009D8B402D00101EC85A9
:10BFF8000101EC83414A422A12000D013205D8A4FE
:10C0080010D030511F0B0009D8A40BD00001F68FB7
:10C01800030E0D013119D8A402D0010E01D0000E73
:10C02800596E3251D8A4120030511F0B020AD8A4FD
:10C03800120034510F0B0009D8B4120034510F0B01
:10C04800186E030E18601200200E5C18D8A4120097
:10C058000001F68F0D0134BF19D034510F0B186E43
:10C068001850020DD30EF324D96E010EF420DA6EA7
:10C07800DECF1CF0DDCF1DF034510F0B186E1850B9
:10C08800010DE10EF324D96E010E18D034510F0BB7
:10C09800186E1850020D3B0EF324D96E000EF420D2
:10C0A800DA6EDECF1CF0DDCF1DF034510F0B186EA9
:10C0B8001850010DE40EF324D96E010EF420DA6E47
:10C0C800DF501B6E1BB006D0FB0E1C141C6EFF0E3F
:10C0D8001D1404D0040E1C101C6E1D501D6E34BFA0
:10C0E8000AD034510F0B186E1850020DD30EF324DA
:10C0F800D96E010E09D034510F0B186E1850020D6D
:10C108003B0EF324D96E000EF420DA6E1CC0DEFF5D
:10C118001DC0DDFF030E3119D8A42DD01CC0D9FFD6
:10C128001DC0DAFFDFAE1AD034BF0AD034510F0B6E
:10C13800186E1850010DE10EF324D96E010E0AD0C5
:10C148000D0134510F0B186E1850010DE40EF32435
:10C15800D96E010EF420DA6E0101DF821CC0D9FF0E
:10C168001DC0DAFF000EDB841CC0D9FF1DC0DAFF3A
:10C17800000EDB8E1200040E1C181C6E1D501D6E66
:10C188001CC0D9FF1DC0DAFFDFAE1BD01CC0D9FF11
:10C198001DC0DAFF7F0EDF161CC0D9FF1DC0DAFFF5
:10C1A800000EDB8C000E116E050E106E1CC012F016
:10C1B8001DC013F0000E156E020E146EC4EC84F050
:10C1C80006D01CC0D9FF1DC0DAFF000EDB8C040EA0
:10C1D8001C181C6E1D501D6E1BB206D01CC0D9FF4A
:10C1E8001DC0DAFFDFAE30D00D0134BF0AD03451A4
:10C1F8000F0B186E1850010DE10EF324D96E010EC5
:10C208000AD00D0134510F0B186E1850010DE40EB1
:10C21800F324D96E010EF420DA6E0101DF921CC0FE
:10C22800D9FF1DC0DAFF3B0EDF16000E116E050E9A
:10C23800106E1CC012F01DC013F0000E156E020E19
:10C24800146EC4EC84F006D01CC0D9FF1DC0DAFF00
:10C258003B0EDF160D0134510F0B186E1850010DEF
:10C26800260EF324196E0F0EF4201A6E19C0D9FF8A
:10C278001AC0DAFFFE0EDF161200100E0301A46FBB
:10C2880012C2A5F3020113510301A66F27C2A7F337
:10C29800020128510301A86F1DC2A9F302011E5112
:10C2A8000301AA6F32C2ABF3020133510301AC6F31
:10C2B80036C2ADF3020137510301AE6F3AC2AFF394
:10C2C80002013B510301B06F3EC2B1F302013F517D
:10C2D8000301B26F05C2B3F340C2B4F33BEC97F06D
:10C2E8000301B56F49EC97F00301B66F5EEC97F068
:10C2F8000301B76F57EC97F00301B86F50EC97F054
:10C308000301B96F42EC97F00301BA6FA6EC97F0FE
:10C318000301BB6FA9EC97F00301BC6FA9EC93F084
:10C328000301BD6FA3EC97F00301BE6F34C2BFF3E6
:10C33800020135510301C06F38C2C1F302013951FE
:10C348000301C26F3CC2C3F302013D510301C46F34
:10C35800020108390F0B030B0001616F626BD89063
:10C36800613762370A0E6125D96E020E6221DA6ED4
:10C37800DF500301C56F020108390F0B030B0001E1
:10C38800616F626BD890613762370A0E6125D96E8A
:10C39800020E6221DA6EDECF63F0DDCF64F064C096
:10C3A80063F0646B63BF646963510301C66F020184
:10C3B80008390F0B030B0001616F626BD89061376E
:10C3C80062371F0E6125D96E020E6221DA6EDF50C8
:10C3D8000301C76F020108390F0B030B0001616FDE
:10C3E800626BD890613762371F0E6125D96E020ED5
:10C3F8006221DA6EDECF63F0DDCF64F064C063F0F3
:10C40800646B63BF646963510301C86F0201083933
:10C418000F0B030B0001616F626BD89061376237B5
:10C42800140E6125D96E020E6221DA6EDF50030107
:10C43800C96F020108390F0B030B0001616F626BB2
:10C44800D89061376237140E6125D96E020E6221C9
:10C45800DA6EDECF63F0DDCF64F064C063F0646B46
:10C4680063BF646963510301CA6F020108390F0B86
:10C47800030B0001616F626BD89061376237290E38
:10C488006125D96E020E6221DA6EDF500301CB6F8F
:10C49800020108390F0B030B0001616F626BD89022
:10C4A80061376237290E6125D96E020E6221DA6E74
:10C4B800DECF63F0DDCF64F064C063F0646B63BF0C
:10C4C800646963510301CC6FA0EC97F00301CD6F51
:10C4D80008C2CEF31200200E5C18D8A41200A0984F
:10C4E80015D147504810D8B406D047C0D9FF48C026
:10C4F800DAFFDFBE19D1000E0001B16F1E0EB16563
:10C5080001D014D0B151010D400EF324D96E0D0E97
:10C51800F420DA6EB151010D410EF324E16E020EE2
:10C52800F420E26EDFCFE7FFB12BE8D720EE01F071
:10C538004750D9264850DA221F0EDE18D8A472D0E8
:10C54800550E020141196EE1530E42196BE1420E7C
:10C55800431968E1430E4419D8A464D0010E0101BF
:10C56800F16F02014E51D8A450D0110E4F614DD039
:10C578004F51D8B44AD04DC2ACF03F0E0001AC17B1
:10C58800D8A443D0550E0D01806F530E816F420E13
:10C59800826F530E836F45C284FD46C285FD47C234
:10C5A80086FD48C287FD000E886F000E896F000E59
:10C5B8008A6F000E8B6F000E8C6F5368000E01019E
:10C5C800F56F000E526E000EF46F030E0201501943
:10C5D800D8B408D06291629362956297000E6C6F2E
:10C5E800000E6D6F4DAF02D0010E01D0020E546ED9
:10C5F80049514A114B114C11D8B402D0000E01D048
:10C60800010E516E50C253F08FD0010E0001606FC1
:10C61800020E77EC73F0000E0001606F020E77ECEB
:10C6280073F082D0010E0001606F020E77EC73F098
:10C63800000E0001606F020E77EC73F0000E01012E
:10C64800F16F72D0FCEC6EF0FF0AD8A46DD011D057
:10C65800FCEC6EF0FF0AD8A467D00D018C51D8A469
:10C6680008D0885189118A118B11D8B402D0020ED2
:10C678008C6F030E3DD03FC0ADF040C0AEF000015E
:10C68800AD51AE11D8B40AD03FC0AFF040C0B0F041
:10C69800AFC0D9FFB0C0DAFFDFBE46D0010E606F71
:10C6A800800E616F0D0E626F0D0E636F020E80ECCF
:10C6B80074F060C045F061C046F047504810D8B4E7
:10C6C80006D047C0D9FF48C0DAFFDFBE10D0000E41
:10C6D8000001606F400E616F0D0E626F400E636F58
:10C6E800020E80EC74F060C047F061C048F0000EA4
:10C6F800546E1AD0000E546E020E0D018C6F000E8F
:10C708000001606F020E77EC73F00ED05450000AEF
:10C71800D8B4E7D6010AD8B495D7030AD8B498D7BD
:10C72800010AD8B4A8D7E6D7A08812000001A96FDB
:10C738003F0E0001A96501D01200A951CDEC86F089
:10C748000009D8A41200B00E0001876F000E886F90
:10C75800A95148EC8CF0CCC09FF0CDC0A0F0CEC061
:10C76800A1F0CFC0A2F0CAC0A5F0CBC0A6F0000EC1
:10C778000001AC6F000EAD6F000EAE6F000EAF6F14
:10C7880013D0A5C087F0A6C088F01CEC90F087C035
:10C79800A5F088C0A6F0000E0001AC27020EAD235C
:10C7A800000EAE23000EAF23ACC095F0ADC096F0DE
:10C7B800AEC097F0AFC098F0951F961F971F981FAF
:10C7C800952B000E9623972398239F519525996FB3
:10C7D800A05196219A6FA15197219B6FA251982140
:10C7E8009C6F9C519B11CDE19905020E9A59D8B0C6
:10C7F800C8D7ACC095F0ADC096F0951F961F954B65
:10C80800962B9F519525A76FA0519621A86F000ED2
:10C81800AC6F000EAD6F000EAE6F000EAF6F70D034
:10C82800020EA819A711D8A427D0000E886F000EF1
:10C83800876F49EC87F087C0A3F088C0A4F0A5C033
:10C8480088F0A6C089F0A3C08AF0A4C08BF05AEC87
:10C8580091F0A3C088F0A4C089F0FF0E00018B6F8F
:10C868008A695AEC91F0A3C0A5F0A4C0A6F0000E06
:10C878000001A86F000EA76FA5C060F0A6C061F008
:10C8880023EC97F060C09DF061C09EF0A7C095F0C2
:10C89800A8C096F00001951F961F954B962B000E89
:10C8A8009525AA6F020E9621AB6FAA51915DAB51E7
:10C8B8009259D8B004D091C0AAF092C0ABF09DC0F4
:10C8C8007FF09EC080F0A7C081F0A8C082F0AAC007
:10C8D80083F0ABC084F0AC519325856FAD519421A2
:10C8E800866F56EC89F00001AA51AC27AB51AD23F5
:10C8F800000EAE23000EAF23AA51A727AB51A823E1
:10C908009151956F9251966F976B986B9551AC5D5D
:10C918009651AD599751AE599851AF59D8A080D773
:10C928009151CC279251CD23000ECE23000ECF2358
:10C93800B00E6D6F000E6E6F4EEC92F0B00E0001EF
:10C94800886F000E896FA9511AEC8CF01200000153
:10C95800A86F890EF66E920EF76E000EF86E20EE36
:10C968009AF00D0E0900F5CFDEFFE806FBE22B0E6C
:10C97800F66E920EF76E000EF86E20EE8AF00F0E2D
:10C988000900F5CFDEFFE806FBE2EA0EF66E900E30
:10C99800F76E000EF86E20EE60F0140E0900F5CF69
:10C9A800DEFFE806FBE2D50EF66E900EF76E000E7F
:10C9B800F86E20EE75F0140E0900F5CFDEFFE806DC
:10C9C800FBE2000E0001A96F13D0A951010D9A0EC8
:10C9D800F324D96E000EF420DA6EA951010D540E1D
:10C9E800F324E16E030EF420E26EDFCFE7FFA92BFC
:10C9F800A951010D9A0EF324D96E000EF420DA6EB7
:10CA0800DF50D8A4E2D7020128AF27D02729FF0E8C
:10CA18002859D8B022D0000E0001A96F13D0A9510F
:10CA2800010D8A0EF324D96E000EF420DA6EA95196
:10CA3800010D680EF324E16E030EF420E26EDFCFE1
:10CA4800E7FFA92BA951010D8A0EF324D96E000E18
:10CA5800F420DA6EDF50D8A4E2D7000E0001A96FE7
:10CA680013D0A951010D600EF324D96E000EF420E5
:10CA7800DA6EA951010D7C0EF324E16E030EF42049
:10CA8800E26EDFCFE7FFA92BA951010D600EF32459
:10CA9800D96E000EF420DA6EDF50D8A4E2D7000E6B
:10CAA800A96F13D0A951010D750EF324D96E000E8C
:10CAB800F420DA6EA951010D900EF324E16E030EF5
:10CAC800F420E26EDFCFE7FFA92BA951010D750E07
:10CAD800F324D96E000EF420DA6EDF50D8A4E2D722
:10CAE800020105A105D06E0E0301846F200E856F2B
:10CAF800020105A305D06E0E03018E6F200E8F6F05
:10CB0800020105A505D06E0E0301986F200E996FDE
:10CB1800020105A71ED06E0E0301A26F200EA36F9F
:10CB280018D02D0E03017C6F3E0E7D6F12002D0E66
:10CB38000301866F3E0E876F12002D0E0301906F62
:10CB48003E0E916F12002D0E03019A6F3E0E9B6FE1
:10CB580012000001A851310AD8B4E3D7030AD8B4A7
:10CB6800E6D7010AD8B4E9D7070AD8A41200EBD748
:10CB7800830E0001706F000E716F78C072F079C07B
:10CB880073F0000E756F0A0E746FD3EC90F0830E7D
:10CB98000001606F000E616FBAEC91F00001605106
:10CBA8008D6F79AF54D08D5100087A25020F8E6FA2
:10CBB8008E51800A7F0FD8A090D07AC08FF08F292D
:10CBC800D8B442D08F518EBF04D0FF0A8E25D8B07A
:10CBD8002AD08EC07DF07E6B7DBF7E077D1F7E1FB5
:10CBE8007D4B7E2B8F517F6F806B7D517F277E51D0
:10CBF8008023010E7F27000E8023830E7F25D96EA8
:10CC0800000E8021DA6E8F51816F826B010E8127B1
:10CC1800000E8223830E8125E16E000E8221E26ED2
:10CC2800DFCFE7FF0FD08F517D6F7E6B010E7D2721
:10CC3800000E7E23830E7D25D96E000E7E21DA6ECE
:10CC4800300EDF6E8F07BBD77A51020F45D08D515A
:10CC580000087A257D6F7D298E6F8E51800A7F0F9F
:10CC6800D8A03BD07AC08FF08F29D8B434D08F5158
:10CC78008EBF04D0FF0A8E25D8B021D08EC07DF09B
:10CC88007E6B7DBF7E077D1F7E1F7D4B7E2B8F5168
:10CC98007F6F806B7D517F277E518023830E7F2598
:10CCA800D96E000E8021DA6E8F51010D830EF324A8
:10CCB800E16E000EF420E26EDFCFE7FF0AD08F515D
:10CCC800010D830EF324D96E000EF420DA6E300EB7
:10CCD800DF6E8F07C9D77A298D6F7A5100088D25A5
:10CCE8007D6F7D057A6F000E8F6F23D08F51010DF8
:10CCF800830EF324D96E000EF420DA6E8F51010DE5
:10CD0800F3507B25E16EF4507C21E26EDFCFE7FF24
:10CD18007A518F19D8A40CD08F2B8F51010DF35055
:10CD28007B25D96EF4507C21DA6E2E0EDF6E1ED074
:10CD38008F2B8D518F5DD8B019D0D8D78F51010D59
:10CD4800830EF324D96E000EF420DA6E8F517D6FB6
:10CD58007E6B010E7D27000E7E237D517B25E16EC3
:10CD68007E517C21E26EDFCFE7FF8F2B8D518F5DE7
:10CD7800D8B01200E3D7F80EF66E910EF76E000EDB
:10CD8800F86E20EE90F0110E0900F5CFDEFFE806F0
:10CD9800FBE2E60EF66E910EF76E000EF86E20EED0
:10CDA800A2F0110E0900F5CFDEFFE806FBE2360E11
:10CDB800F66E930EF76E000EF86E0900F5CFC2F00E
:10CDC8000900F5CFC3F00A00F5CFC4F0A50EF66E42
:10CDD800920EF76E000EF86E20EEB4F00D0E0900FC
:10CDE800F5CFDEFFE806FBE2000E0001C56F13D0A9
:10CDF800C551010D900EF324D96E000EF420DA6EA1
:10CE0800C551010D540EF324E16E030EF420E26EB9
:10CE1800DFCFE7FFC52BC551010D900EF324D96E66
:10CE2800000EF420DA6EDF50D8A4E2D7000EC56FEA
:10CE380013D0C551010DA20EF324D96E000EF420B3
:10CE4800DA6EC551010D680EF324E16E030EF4206D
:10CE5800E26EDFCFE7FFC52BC551010DA20EF3240B
:10CE6800D96E000EF420DA6EDF50D8A4E2D7000E97
:10CE7800C56F13D0C551010DC20EF324D96E000E33
:10CE8800F420DA6EC551010D7C0EF324E16E030E19
:10CE9800F420E26EDFCFE7FFC52BC551010DC20EAE
:10CEA800F324D96E000EF420DA6EDF50D8A4E2D74E
:10CEB80012C278F013C279F0030E7A6F7F0E7B6F7F
:10CEC800030E7C6FBCEC65F027C278F028C279F0BD
:10CED800030E00017A6F870E7B6F030E7C6FBCEC2C
:10CEE80065F0000E0001C56F13D0C551010DB40ED9
:10CEF800F324D96E000EF420DA6EC551010D900EA0
:10CF0800F324E16E030EF420E26EDFCFE7FFC52BBA
:10CF1800C551010DB40EF324D96E000EF420DA6E5B
:10CF2800DF50D8A4E2D71DC278F01EC279F0030EF4
:10CF380000017A6F930E7B6F030E7C6FBCEC65F07B
:10CF480032C278F033C279F0030E00017A6F9B0E7B
:10CF58007B6F030E7C6FBCEC65F01200DDD052C213
:10CF6800DCF153C2DBF154C2DAF155C2D9F157C230
:10CF780044F058C243F043500001956F4450966FF7
:10CF8800976B986B090ED8909537963797379837DF
:10CF9800E82EF9D795C06AF096C06BF097C06CF090
:10CFA80098C06DF083EC77F00009D8A4C7D0010EC3
:10CFB8000101F56F43504410D8A402D0000E4AD0A6
:10CFC8004306D8A04406020EF56F45504610D8B463
:10CFD80006D045C0D9FF46C0DAFFDFBEAFD0D4C205
:10CFE8008BF0D5C28CF0D9C18DF0DAC18EF0DBC1DF
:10CFF8008FF0DCC190F0000E0001916F060E926F69
:10D0080022EECBF001D80AD00500FA6EDE50FD6E94
:10D01800DE50FE6EDE50FF6EFA501200E806D8B4FD
:10D028001BD0640E0101F46102D0F42B87D0020EEC
:10D038000D018C6F02016251F00B0309626F000E43
:10D048006C6F000E6D6F010E0001606F020E77ECC1
:10D0580073F05FD0F56F72D0010E0101D927000E71
:10D06800DA23DB23DC23000E0D01886F020E896FA3
:10D07800000E8A6F000E8B6F000E0101E76F060E1F
:10D08800E86F030EF56F0D01885189118A118B1114
:10D09800D8A402D0010E3ED0040E0101F56F455010
:10D0A8004610D8B406D045C0D9FF46C0DAFFDFBE67
:10D0B80045D0010E0001606FE7C161F0E8C162F080
:10D0C800400E636F020E80EC74F060C045F061C0E2
:10D0D80046F0030E0101F56F400E0201495F000E94
:10D0E8004A5B4B5B4C5B400E0D01885F000E895B11
:10D0F8008A5B8B5B400E0101E727000EE8231ED0F8
:10D10800020E0D018C6F010E0001606F020E77ECAC
:10D1180073F0000E01019ED70101F551000AD8B441
:10D128001ED7010AD8B446D7030AD8B44ED7010A85
:10D13800D8B4A9D7070AD8B4B2D7E2D70101F551B4
:10D148001200FF0EF66E900EF76E000EF86E20EECF
:10D1580090F0130E0900F5CFDEFFE806FBE2EF0EB4
:10D16800F66E920EF76E000EF86E20EEBCF00A0E08
:10D178000900F5CFDEFFE806FBE2BF0EF66E920E61
:10D18800F76E000EF86E20EEA4F00B0E0900F5CF36
:10D19800DEFFE806FBE2B30EF66E920EF76E000EA7
:10D1A800F86E20EEB0F00B0E0900F5CFDEFFE806B2
:10D1B800FBE2000E0001C76F13D0C751010D900E9E
:10D1C800F324D96E000EF420DA6EC751010D540E07
:10D1D800F324E16E030EF420E26EDFCFE7FFC72BE6
:10D1E800C751010D900EF324D96E000EF420DA6EAB
:10D1F800DF50D8A4E2D7000EC76F13D0C751010D76
:10D20800BC0EF324D96E000EF420DA6EC751010D5E
:10D21800680EF324E16E030EF420E26EDFCFE7FF21
:10D22800C72BC751010DBC0EF324D96E000EF42094
:10D23800DA6EDF50D8A4E2D736C278F037C279F078
:10D24800020E7A6F740E7B6F030E7C6FBCEC65F078
:10D25800000E0001C76F13D0C751010DA40EF324AF
:10D26800D96E000EF420DA6EC751010D7C0EF3243E
:10D27800E16E030EF420E26EDFCFE7FFC72BC75144
:10D28800010DA40EF324D96E000EF420DA6EDF50DF
:10D29800D8A4E2D73AC278F03BC279F0020E7A6F8E
:10D2A800880E7B6F030E7C6FBCEC65F0000E0001EE
:10D2B800C76F13D0C751010DB00EF324D96E000EFD
:10D2C800F420DA6EC751010D900EF324E16E030EBF
:10D2D800F420E26EDFCFE7FFC72BC751010DB00E78
:10D2E800F324D96E000EF420DA6EDF50D8A4E2D70A
:10D2F8003EC278F03FC279F0020E7A6F9C0E7B6FC7
:10D30800030E7C6FBCEC65F012009BC087F09CC0DC
:10D3180088F09DC089F09EC08AF04FEC7DF0FF0A2E
:10D32800D8B402D0FF0E120045EC94F00001AB6FA8
:10D33800AB29D8A402D0FE0E12009FC0A3F0A0C053
:10D34800A4F0A1C0A5F0A2C0A6F00A0E05D0D890FE
:10D35800A633A533A433A333E82EF9D7010EA325AA
:10D36800AC6F000EA421AD6FACC087F0ADC088F0E3
:10D3780064EC83F00001AC51871904E1AD518819C0
:10D38800D8B402D0FD0E1200000E886F020E876F0F
:10D3980049EC87F087C0AEF088C0AFF0B00E00014E
:10D3A800606F000E616F9BC062F09CC063F0000E5E
:10D3B800656F080E646FBBEC8BF0B80E0001606FF0
:10D3C800000E616F9DC062F09EC063F0000E656F35
:10D3D800030E646FBBEC8BF0000E0001BB6F000EF8
:10D3E800BC6F000EBD6F8CEC89F064C0BEF065C0E8
:10D3F800BFF05EEC8AF064C0C0F065C0C1F0C0C088
:10D40800C2F0C1C0C3F0000E0001C56F000EC46FAA
:10D41800BEC0C6F0BFC0C7F0C0C0C8F0C1C0C9F028
:10D42800AEC0CAF0AFC0CBF09FC0CCF0A0C0CDF06A
:10D43800A1C0CEF0A2C0CFF0B00E886F000E896FE9
:10D44800AB511AEC8CF0000E0001AA6F010EA96F07
:10D458002FD0AC51A9190EE1AD51AA19D8A40AD000
:10D46800AEC088F0AFC089F0FF0E8B6F8A695AECA6
:10D4780091F01BD0010E0001AE25876F000EAF2181
:10D48800886F49EC87F087C0A7F088C0A8F0AEC0C5
:10D4980088F0AFC089F0A7C08AF0A8C08BF05AEC1A
:10D4A80091F0A7C0AEF0A8C0AFF00001A94BAA2B1D
:10D4B800A951AC5DAA51AD59D8B0CBD7AB51120028
:10D4C800270EF66E910EF76E000EF86E20EE60F0E5
:10D4D800130E0900F5CFDEFFE806FBE24B0EF66EF1
:10D4E800920EF76E000EF86E20EE85F00F0E090012
:10D4F800F5CFDEFFE806FBE23B0EF66E920EF76E06
:10D50800000EF86E20EE95F00F0E0900F5CFDEFF45
:10D51800E806FBE20A0EF66E920EF76E000EF86E43
:10D5280020EE74F0100E0900F5CFDEFFE806FBE2EE
:10D53800000E0001A56F13D0A551010D600EF32454
:10D54800D96E000EF420DA6EA551010D540EF324A5
:10D55800E16E030EF420E26EDFCFE7FFA52BA551A5
:10D56800010D600EF324D96E000EF420DA6EDF5040
:10D57800D8A4E2D7020128BF06D0E00E275D2E0E00
:10D588002859D8B022D0000E0001A56F13D0A5519C
:10D59800010D850EF324D96E000EF420DA6EA55124
:10D5A800010D7C0EF324E16E030EF420E26EDFCF52
:10D5B800E7FFA52BA551010D850EF324D96E000EAA
:10D5C800F420DA6EDF50D8A4E2D7000E0001A56F70
:10D5D8008CB614D032D0A551010D950EF324D96E16
:10D5E800000EF420DA6EA551010D900EF324E16EC1
:10D5F800030EF420E26EDFCFE7FFA52BA551010D46
:10D60800950EF324D96E000EF420DA6EDF50D8B4EC
:10D618001200E1D7A551010D740EF324D96E000E46
:10D62800F420DA6EA551010D900EF324E16E030E7D
:10D63800F420E26EDFCFE7FFA52BA551010D740E94
:10D64800F324D96E000EF420DA6EDF50D8B412003D
:10D65800E1D7A098000E636E000E626E000E0F01F7
:10D66800266F270E0001606F0F0E616F000E636F4B
:10D67800000E626F000E656F020E646F1DEC93F072
:10D68800160E0F01396F9F0E376F7B0E366F000E27
:10D698000001686F0B0E686501D00ED06851040D4B
:10D6A800000EF324D96E0D0EF420DA6EDE6ADE6AFF
:10D6B800DE6ADD6A682BEED7658C000E0F01386FC5
:10D6C8006598659C6296000E0001F66F000E356E37
:10D6D800000E376E000E366E62B6F4D7010E0101E9
:10D6E800FA6F010EF96F000EF86F000EF76F000E5B
:10D6F800586E000E0001686F020E686501D02ED0CA
:10D708006851020D3B0EF324D96E000EF420DA6E38
:10D71800000EDE6E000EDD6E6851020DD30EF3248E
:10D72800D96E010EF420DA6E000EDE6E000EDD6E8C
:10D738006851010DE40EF324D96E010EF420DA6E5F
:10D74800000EDF6E6851010DE10EF324D96E010E53
:10D75800F420DA6E000EDF6E682BCED7080E3B6E13
:10D768000D0E3C6E160E0F01266F0D0E0D01036F88
:10D77800300E026F080E016F040E006F008F000E4E
:10D788005E6E000E0101DD6F000EDE6F000EDF6FB2
:10D79800000EE06F000EF66F000E5C6E12000BECD0
:10D7A80097F000016E6F13EC97F000016F6F1BECA0
:10D7B80097F00001706F03EC97F00001716FFBECBC
:10D7C80096F00001726F2BEC97F00001736F6EC03A
:10D7D80068F03F0E681768C069F06A6B6B6B6C6B1A
:10D7E8001A0ED89069376A376B376C37E82EF9D735
:10D7F80069C074F06AC075F06BC076F06CC077F0E1
:10D808006FC068F00F0E681768C069F06A6B6B6BC1
:10D818006C6B160ED89069376A376B376C37E82E01
:10D82800F9D7695174136A5175136B5176136C519A
:10D83800771370C068F01F0E681768C069F06A6BCC
:10D848006B6B6C6B110ED89069376A376B376C3716
:10D85800E82EF9D7695174136A5175136B51761311
:10D868006C51771371C068F01F0E681768C069F0B3
:10D878006A6B6B6B6C6B0C0ED89069376A376B37B9
:10D888006C37E82EF9D7695174136A5175136B51C7
:10D8980076136C51771372513F0B686F696B060EE4
:10D8A800D89068376937E82EFBD768516A6F695195
:10D8B8006B6F6C6B6D6B6A5174136B5175136C5194
:10D8C80076136D51771373C068F03F0E681768516F
:10D8D800741374C064F075C065F076C066F077C0E4
:10D8E80067F01200A098000E636E000E626E000EC4
:10D8F8000F01266F270E016E0F0E026E000E046ECA
:10D90800000E036E000E066E020E056E2FEC94F0EC
:10D91800160E0F01396F9F0E376F7B0E366F000E94
:10D92800096E0B0E096401D00ED00950040D000ECB
:10D93800F324D96E0D0EF420DA6EDE6ADE6ADE6A32
:10D94800DD6A092AEED7658C000E0F01386F6598DD
:10D95800659C6296000E0001F66F000E356E000E93
:10D96800376E000E366E62B6F4D7010E0101FA6FFB
:10D97800010EF96F000EF86F000EF76F000E586E6B
:10D98800000E096E020E096401D02ED00950020D56
:10D998003B0EF324D96E000EF420DA6E000EDE6E14
:10D9A800000EDD6E0950020DD30EF324D96E010E60
:10D9B800F420DA6E000EDE6E000EDD6E0950010DE9
:10D9C800E40EF324D96E010EF420DA6E000EDF6E39
:10D9D8000950010DE10EF324D96E010EF420DA6E20
:10D9E800000EDF6E092ACED7080E3B6E0D0E3C6E78
:10D9F800160E0F01266F0D0E0D01036F300E026F0C
:10DA0800080E016F040E006F008F000E5E6E000E90
:10DA18000101DD6F000EDE6F000EDF6F000EE06F9C
:10DA2800000EF66F000E5C6E12005C04D8B465BA86
:10DA380007D0000E626E0F0136813689020E5C6EC9
:10DA480062A406D00F0136A503D0629469EC92F067
:10DA580065A202D0A198120062A009D00F0136A1D8
:10DA680006D076EC6CF0A088040E5C6E629062A81A
:10DA780004D00F0136B935EC93F062AC1BD00F011E
:10DA880036AD0ED0000E116E730E106E000E126EB3
:10DA9800000E136E000E156E010E146EC4EC84F0A9
:10DAA800629CD0EC95F05650D8A456065650D8B47F
:10DAB80079EC7EF062AA04D00F0136BB17EC91F026
:10DAC80062A212D00F0136A30FD07F0E116E10681C
:10DAD800000E126E000E136E000E156E010E146EFF
:10DAE800C4EC84F0000E636E040E5C6002D0A19852
:10DAF80012000F0136A739D0000E1F6E030E1F64E7
:10DB080001D033D062A631D064CF5DF05D30E83209
:10DB1800E8320F0B576E62965DB407D05750010D6F
:10DB2800E10EF324D96E010E06D05750010DE40E14
:10DB3800F324D96E010EF420DA6E0101DF7057501C
:10DB4800D8A403D0EFEC81F00ED0000E116E720E47
:10DB5800106E5D0E126E000E136E000E156E000E26
:10DB6800146EC4EC84F01F2AC9D7A1981200000EC5
:10DB780000018B6F000E726F400E716F8C0E736F09
:10DB8800000E746F060E756F89EC8EF0000E0001A2
:10DB9800606F990E616F8C51B0EC90F00001926F3C
:10DBA80092518C19D8B404D092C08CF0010E8B6FAE
:10DBB8008C5158EC96F0010E0001606F120E616FE7
:10DBC8008D51B0EC90F00001926F92518D19D8B43C
:10DBD80004D092C08DF0010E8B6F8D5170EC96F0D1
:10DBE800010E0001606F310E616F8E51B0EC90F044
:10DBF8000001926F92518E19D8B404D092C08EF061
:10DC0800010E8B6F8E5194EC96F0C0EC95F05EECA3
:10DC180097F00001926F92518E19D8B404D092C037
:10DC28008EF0010E8B6F000E606F230E616F8F51A7
:10DC3800B0EC90F00001926F92518F19D8B404D0D3
:10DC480092C08FF0010E8B6F8F5188EC96F0000E0A
:10DC58000001606F590E616F9051B0EC90F00001B7
:10DC6800926F92519019D8B404D092C090F0010EDE
:10DC78008B6F90517CEC96F0000E0001606F590E8E
:10DC8800616F9151B0EC90F00001926F925191192F
:10DC9800D8B404D092C091F0010E8B6F915164EC0E
:10DCA80096F000018B51D8B4120066EC90F0120087
:10DCB800800E0D013019D8A41200C00E0001F66FB5
:10DCC8008BD0380E0001F36F940EF46F000EF86FCE
:10DCD800120EF76F12000D013251D8A445D03251FF
:10DCE800020D390EF324F66E930EF420F76EF86ADF
:10DCF800000EF8220900F5CFF3F00A00F5CFF4F092
:10DD0800020E0001F325016E000EF421026E01C01F
:10DD1800F6FF02C0F7FF000EF86E0E0EF76403D090
:10DD28000800F55005D0F6CFE9FFF7CFEAFFEF502E
:10DD38000001F76F030EF325016E000EF421026E49
:10DD480001C0F6FF02C0F7FF000EF86E0E0EF76472
:10DD580003D00800F55005D0F6CFE9FFF7CFEAFF6A
:10DD6800EF500001F86F1200000E0001F66F12006C
:10DD7800040E0D01326128D03251020D270EF32412
:10DD8800F66E930EF420F76EF86A000EF82209007A
:10DD9800F5CFF3F00A00F5CFF4F0F3C0F6FFF4C0C6
:10DDA800F7FF000EF86E0E0EF76403D00800F5506A
:10DDB80005D0F6CFE9FFF7CFEAFFEF50016E01502B
:10DDC8000001F76FF86B1200000E0001F66F1200E9
:10DDD800000E0001F66F12000D013351010AD8B48C
:10DDE80070D7030AD8B477D7010AD8B4C1D7F0D707
:10DDF800D4C260F0D5C261F022EEC8F001D80AD0D2
:10DE08000500FA6EDE50FD6EDE50FE6EDE50FF6ECF
:10DE1800FA5012000009D8B40CD002014E51010D7D
:10DE2800F20EF324D96E010EF420DA6EDE04D8A4C3
:10DE38001DD04EC2A7F0010E0001A86F000EA96FF9
:10DE4800A72B03D0D890A837A937A72FFBD7000155
:10DE5800A81DAA6FA91DAB6FAA510201B617000130
:10DE6800AB510201B717EBEC8BF058D04EC2A7F0BC
:10DE7800010E0001A86F000EA96FA72B03D0D89040
:10DE8800A837A937A72FFBD70201B6510001A81759
:10DE98000201B7510001A917A851A911D8A43CD073
:10DEA800D4C260F0D5C261F001D80BD00500FA6E7B
:10DEB8000201BF51FD6EC051FE6EC151FF6EFA5096
:10DEC8001200000160516111D8B423D04EC2A7F0EE
:10DED800010EA86F000EA96FA72B03D0D890A83702
:10DEE800A937A72FFBD70001A8510201B6130001DB
:10DEF800A9510201B7136251F00B0609626F280E8F
:10DF08006C6F000E6D6F010E0D018C6F7FEC51F080
:10DF180005D0EBEC8BF002D07FEC51F0535012009F
:10DF280064C069F000016A6B69516A6F696B655179
:10DF380069133FD063C067F0673B0F0E67176751DF
:10DF48000C0D050EF326000EF422000EF324D96EF4
:10DF5800030EF420DA6E69C0DEFF6AC0DDFF55D01B
:10DF680063C067F0673B0F0E671767510C0D070E0C
:10DF7800F326000EF422000EF324D96E030EF420CB
:10DF8800DA6E69C0DEFF6AC0DDFF63C067F0673B19
:10DF98000F0E671767510C0D090EF326000EF422B9
:10DFA800000EF324D96E030EF420DA6E66C0DFFF8C
:10DFB8002CD063510F0B676F686B6851000AD8A4A7
:10DFC80024D06751000AD8B4B5D7010AD8B4C8D745
:10DFD8001CD0020E7DEC8FF01200030E7DEC8FF04A
:10DFE8001200040E7DEC8FF01200050E7DEC8FF010
:10DFF8001200060E7DEC8FF01200070E7DEC8FF0FC
:10E008001200080E7DEC8FF01200000163390F0B2F
:10E01800676F686B6851000AD8A412006751000A3C
:10E02800D8B4D7D7010AD8B4D8D7030AD8B4D9D71F
:10E03800010AD8B4DAD7070AD8B4DBD7010AD8B4AA
:10E04800DCD7030AD8A41200DCD7A6EC97F00009A5
:10E05800D8B405D0A6EC97F0800AD8A406D0000E54
:10E068000201336F000E326F120002012B51292575
:10E0780000016C6F02012C512A2100016D6F020111
:10E088002D5100016C2702012E5100016D23020160
:10E098002F5100016C270201305100016D236CC023
:10E0A80070F06DC071F0000E71BFFF0E726F736F6C
:10E0B8002EC36CF02FC36DF0000E6DBFFF0E6E6F98
:10E0C8006F6F6C5170276D5171236E5172236F51B0
:10E0D800732329C36CF02AC36DF0000E6DBFFF0EC9
:10E0E8006E6F6F6F6C5170276D5171236E51722373
:10E0F8006F51732370C060F071C061F072C062F03C
:10E1080073C063F023EE2BF0DECF64F0DDCF65F053
:10E11800000E65BFFF0E666F676FB3EC8DF060C0D1
:10E1280070F061C071F062C072F063C073F02DC30B
:10E138006CF0FF0E00016C276C296D6F05D07335EC
:10E1480073337233713370336D2FF9D7010E0001B9
:10E158007027000E71237223732373357333723360
:10E168007133703370C032F271C033F21200A6EC12
:10E1780097F00009D8B405D0A6EC97F0800AD8A487
:10E1880006D0000E02011E6F000E1D6F1200020164
:10E198001651142500016C6F020117511521000159
:10E1A8006D6F0201185100016C270201195100011D
:10E1B8006D2302011A5100016C2702011B51000155
:10E1C8006D236CC070F06DC071F0000E71BFFF0E52
:10E1D800726F736F22C36CF023C36DF0000E6DBFB6
:10E1E800FF0E6E6F6F6F6C5170276D5171236E51FA
:10E1F80072236F5173231DC36CF01EC36DF0000EA4
:10E208006DBFFF0E6E6F6F6F6C5170276D5171236C
:10E218006E5172236F51732370C060F071C061F04A
:10E2280072C062F073C063F023EE1FF0DECF64F0BB
:10E23800DDCF65F0000E65BFFF0E666F676FB3EC4C
:10E248008DF060C070F061C071F062C072F063C0A0
:10E2580073F021C36CF0FF0E00016C276C296D6F01
:10E2680005D0733573337233713370336D2FF9D72B
:10E27800010E00017027000E71237223732373357A
:10E28800733372337133703370C01DF271C01EF274
:10E298001200000E0001816F060E816501D0120088
:10E2A8008151796F7A6B793B7A3BF00E7A17795105
:10E2B8000F0B7A13F00E7917000E79257F6F020E77
:10E2C8007A21806F7FC071F080C072F07B0E736F0F
:10E2D800000E746F040E756F89EC8EF0770E0001D6
:10E2E8007B19D8A421D0550E7C19D8A41DD0330E83
:10E2F8007D19D8A419D081517E19D8A415D0040E3F
:10E308007F27000E80237FC071F080C072F081519A
:10E318000C0D000EF324736F030EF420746F0C0EB3
:10E32800756F89EC8EF041D0000181510C0D000E03
:10E33800F324606F030EF420616F81C062F09EECDD
:10E348004FF01CD0020E7DEC8FF02FD0030E7DEC29
:10E358008FF02BD0040E7DEC8FF027D0050E7DECCE
:10E368008FF023D0060E7DEC8FF01FD0070E7DECCA
:10E378008FF01BD0080E7DEC8FF017D00001815173
:10E38800000AD8B4DFD7010AD8B4E0D7030AD8B452
:10E39800E1D7010AD8B4E2D7070AD8B4E3D7010A0B
:10E3A800D8B4E4D7030AD8B4E5D70001812B74D7D1
:10E3B8000001686F45504610D8B406D045C0D9FF53
:10E3C80046C0DAFFDFBE120047504810D8B406D066
:10E3D80047C0D9FF48C0DAFFDFBE120054C069F059
:10E3E8005368000E0101F56F000E526E49C288FD98
:10E3F8004AC289FD4BC28AFD4CC28BFD010E0D013C
:10E408008C6F030E546E4BD0020E0D018C6F1200F0
:10E41800010E0001606F020E77EC73F01200020E1D
:10E428000D018C6F010E0001606F020E77EC73F026
:10E438001200000E0001606F020E77EC73F01200FC
:10E44800020E0D018C6F000E0001606F020E77EC5A
:10E4580073F01200F7EC8AF002016251F00B050923
:10E46800626F200E6C6F000E6D6F020E000169194D
:10E47800D8A40ED0020149514A114B114C11D8B4FD
:10E4880007D0000E0001606F020E77EC73F01200E7
:10E49800010E0001606F020E77EC73F012000001AC
:10E4A8006851010AD8B4B0D7030AD8B4B1D7010A61
:10E4B800D8B4B5D7070AD8B4BCD7010AD8B4C0D7DE
:10E4C8007A0AD8A41200C6D720EE01F04950D926FE
:10E4D8004A50DA22DF50026E0250365C000E37587E
:10E4E800D8A036C002F00250365E000E375A000E31
:10E4F800016E11D00150010D380EF324D96E0D0EA6
:10E50800F420DA6E32C0E1FF33C0E2FFDFCFE7FF6D
:10E51800324A332A012A0250015CD8A0EBD7365080
:10E528003710D8B433D0000120EE01F0FB51D926C2
:10E53800FC51DA22080EDF6E20EE02F0FB51D926DC
:10E54800FC51DA22380EDE6E0D0EDD6E49C0D9FFA1
:10E558004AC0DAFFDFBC0DD0FBC0D9FFFCC0DAFF30
:10E56800480EDF6EFBC0D9FFFCC0DAFF000EDB8E61
:10E578001200FBC0D9FFFCC0DAFF080EDF6EFBC03B
:10E58800D9FFFCC0DAFF000EDB8E1200000120EE7E
:10E5980001F0FB51D926FC51DA22080EDF6E20EE7D
:10E5A80002F0FB51D926FC51DA22300EDE6E0D0E38
:10E5B800DD6EFBC0D9FFFCC0DAFF040EDF6EFBC0C6
:10E5C800D9FFFCC0DAFF000EDB8E359E5550D8A46B
:10E5D800120079EC7EF01200000E016E400E026E01
:10E5E8000D0E036E400E046E020E06EC76F001C0AE
:10E5F80047F002C048F03FC045F040C046F0000E6A
:10E60800546E5368000E0101F56F000E526E000E35
:10E61800516E000E0201AA6F000EAB6F000EAC6FB8
:10E62800000EAD6F000EA66F000EA76F000EA86F4C
:10E63800000EA96F010E0101F16F000E0201B76F04
:10E64800000EB66F000E4E6F4AD04E51010DF20EFD
:10E65800F324D96E010EF420DA6E000EDF6ED4C2F8
:10E6680001F0D5C202F022EEC8F001D80AD00500A8
:10E67800FA6EDE50FD6EDE50FE6EDE50FF6EFA5012
:10E6880012000009D8B427D0D4C201F0D5C202F0D4
:10E6980001D80BD00500FA6E0201BF51FD6EC051C2
:10E6A800FE6EC151FF6EFA50120001500210D8B42C
:10E6B80012D04EC20CF0010E0D6E000E0E6E0C2A1A
:10E6C80003D0D8900D360E360C2EFBD70D50020114
:10E6D800B6130E50B71359EC8BF002014E2B4E5166
:10E6E800D8A41200B2D70001656F00016551D8A403
:10E6F8002BD020EE01F0FB51D926FC51DA22080E6E
:10E70800DF6E20EE02F0FB51D926FC51DA22300EE2
:10E71800DE6E0D0EDD6EFBC0D9FFFCC0DAFF0C0EFD
:10E72800DF6EFBC0D9FFFCC0DAFF000EDB8E3BC0FA
:10E73800D9FF3CC0DAFF040EDF6E3BC0D9FF3CC0F6
:10E74800DAFF000EDB8E12006051616F626BD890A9
:10E75800613762376551636F646BD890633764378C
:10E76800D890633764376151632762516423D89026
:10E7780063376437D89063376437000E6325666F54
:10E788000D0E6421676F66C0D9FF67C0DAFF000EFF
:10E79800DB8466C0D9FF67C0DAFF000EDB8E6551E7
:10E7A800040DF3CF61F0F4CF62F06051020DF35025
:10E7B8006127F4506223D89061376237D890613767
:10E7C8006237040E6127000E6223000E6125666F12
:10E7D8000D0E6221676F66C0D9FF67C0DAFF000EB1
:10E7E800DB8466C0D9FF67C0DAFF000EDB8E12003B
:10E7F800066E0650D8A42CD0000120EE01F0FB5183
:10E80800D926FC51DA22080EDF6E20EE02F0FB5109
:10E81800D926FC51DA22300EDE6E0D0EDD6EFBC0FD
:10E82800D9FFFCC0DAFF0C0EDF6EFBC0D9FFFCC0BD
:10E83800DAFF000EDB8E3BC0D9FF3CC0DAFF040EC6
:10E84800DF6E3BC0D9FF3CC0DAFF000EDB8E120042
:10E858000150026E036AD890023603360650046EE1
:10E86800056AD89004360536D89004360536025025
:10E87800042603500522D89004360536D89004366D
:10E888000536000E0424076E0D0E0520086E07C01D
:10E89800D9FF08C0DAFF000EDB8407C0D9FF08C023
:10E8A800DAFF000EDB8E0650040DF3CF02F0F4CF32
:10E8B80003F00150020DF3500226F4500322D890C1
:10E8C80002360336D89002360336040E0226000EAE
:10E8D8000322000E0224076E0D0E0320086E07C0E7
:10E8E800D9FF08C0DAFF000EDB8407C0D9FF08C0D3
:10E8F800DAFF000EDB8E12000001686F0001605124
:10E90800D8B407D06851020D3B0EF324D96E000E1F
:10E9180006D06851020DD30EF324D96E010EF420EF
:10E92800DA6EDECF69F0DDCF6AF069516A11D8A4DA
:10E9380005D0000E606F000E616F120020EE02F02D
:10E948006951D9266A51DA2261C0DEFF62C0DDFF53
:10E9580020EE01F06951D9266A51DA2263C0DFFF3F
:10E9680069C0D9FF6AC0DAFF400EDF1669C0D9FF57
:10E978006AC0DAFF000EDB8669C0D9FF6AC0DAFF19
:10E98800000EDB8E6051D8B418D06851020D3B0ED2
:10E99800F324D96E000EF420DA6EDECF64F0DDCFFA
:10E9A80065F0040E6419666F6551676F6851020D52
:10E9B8003B0EF324D96E000E17D06851020DD30E0A
:10E9C800F324D96E010EF420DA6EDECF64F0DDCFC9
:10E9D80065F0040E6419666F6551676F6851020D22
:10E9E800D30EF324D96E010EF420DA6E66C0DEFF72
:10E9F80067C0DDFF69C060F06AC061F0120022EEF6
:10EA0800DCF011EE68F0080EDBCFE3FFE806FCE26D
:10EA1800E9C27AF1EAC27BF1EBC27CF1ECC27DF18A
:10EA280023EEF6F011EE71F0080EDBCFE3FFE806F7
:10EA3800FCE2E5C27EF1E6C27FF1E7C280F1E8C2FE
:10EA480081F124EE00F011EE00F0670EDBCFE3FF5A
:10EA5800E806FCE29494959095968C968C92959203
:10EA68008A9293928A9493948A969396958C959881
:10EA7800959A959E8C8E92860F0148979380499916
:10EA880092824893928448958B9E949E8D84969406
:10EA98008D8296928D809690898A929A92804881EA
:10EAA800938C938E020E0201006F010E016F000E0F
:10EAB800026F000E036F0469000E406F320E286F5C
:10EAC800C80E276F9E90FC0ECF6E000ECE6ECD80C6
:10EAD800CD869EA0FED7CD9065EC97F0CEEC96F053
