:020000040000FA
:04C0000043EF60F0BA
:10C008005B82FACF4DF0FBCF4EF0E9CF4FF0EACF8D
:10C0180050F0E1CF51F0E2CF52F0D9CF53F0DACF60
:10C0280054F0F3CF55F0F4CF56F0F6CF57F0F7CFE2
:10C0380058F0F8CF59F0F5CF5AF06FEC93F0F0ECD8
:10C04800B1F05AC0F5FF59C0F8FF58C0F7FF57C004
:10C05800F6FF56C0F4FF55C0F3FF54C0DAFF53C0D3
:10C06800D9FF52C0E2FF51C0E1FF50C0EAFF4FC004
:10C07800E9FF4EC0FBFF4DC0FAFF5B921100D8EFFD
:10C08800AAF00043686172676572204173796E6334
:10C0980068726F6E6F7573004D505054204368611D
:10C0A800726765722044657461696C730020204F63
:10C0B800757433206F666620204F757434206F6660
:10C0C800660020204F757431206F666620204F75FA
:10C0D8007432206F66660054656D706572617475A0
:10C0E8007265204D6F6E69746F7200436861726784
:10C0F80065722053796E6368726F6E6F7573005541
:10C1080053422043686172676572204F7574707579
:10C118007473002D3E507265737320666F722073BE
:10C1280065636F6E6473002D3E507265737320668D
:10C138006F72206D696E75746573002D3E5072655F
:10C14800737320746F207365742074696D65005073
:10C15800616E656C3A2020202042617474657279A2
:10C168003A0043686172676572204566666963696B
:10C17800656E6379004368617267657220737570D4
:10C18800706C79206F6666004D50505420536F6C68
:10C198006172204368617267657200436861726703
:10C1A800657220737570706C79206F6E002D3E502B
:10C1B8007265737320666F7220686F757273002DD5
:10C1C8003E507265737320666F72206D6F6E74686F
:10C1D80000202020496E7075742020204F757470DF
:10C1E800757400566F6C74616765202620437572FC
:10C1F80072656E7400555342206368617267696E98
:10C2080067206F66660043686172676572205374C1
:10C218006172747570004261747465727920746F0C
:10C228006F206C6F770055534220636861726769AD
:10C238006E67206F6E004261747465727920746F46
:10C248006F206C6F77002D3E507265737320746F8A
:10C258002073617665002D3E507265737320666F9A
:10C26800722064617900736F6C6465726E657264C4
:10C278002E636F6D00453A202020202020202020AA
:10C288004C3A00506F776572204F757470757473EF
:10C298000054696D6520616E6420446174650041D5
:10C2A8003A202D2D2020202020202D2D0045787487
:10C2B80065726E616C20323A0045787465726E6101
:10C2C8006C20313A0043686172676572206F666658
:10C2D80000536574207365636F6E647300536574EF
:10C2E800206D696E75746573004F6E2D626F617293
:10C2F800643A200053657420686F75727300536543
:10C3080074206D6F6E74680053657420796561726E
:10C318000056657273696F6E200046616E206F6605
:10C32800660053657420646179005EC487C3BBC32B
:10C338002AC446616E206F6E00563A0047C3000952
:10C34800024000020100C03209040000020300009C
:10C3580000092111010001221D0007058103400089
:10C368000107050103400001090401000208065005
:10C37800000705820240000107050202400001345F
:10C388000353006F006C006400650072006E006566
:10C3980000720064002E0063006F006D0020002012
:10C3A8000020002000200020002000200020002085
:10C3B8000020002E034D0050005000540053006F21
:10C3C800006C006100720020004300680061007288
:10C3D8000067006500720020005200650076004585
:10C3E8000000800402200000004D6963726F6368DA
:10C3F800704D6173732053746F72616765202020DC
:10C4080020303030310600FF0901A101190129400F
:10C41800150026FF007508954081001901294091F3
:10C4280000C01A03310032003300340035003600F2
:10C438003700380039003000390039001201000295
:10C4480000000008D8048EF00001010200013D2A16
:10C4580080A73D2A80A60403090468656C6C6F20D8
:10C46800776F726C642100536F6C617243686172FC
:10C4780067720046494C4520202020004D53444F08
:10C4880053352E300054585400000101CB6F990EDB
:10C49800F66EC20EF76E000EF86E21EE80F00D0EED
:10C4A8000900F5CFDEFFE806FBE2100EF66EC30EBC
:10C4B800F76E000EF86E21EEBAF0080E0900F5CFFF
:10C4C800DEFFE806FBE2060EF66EC30EF76E000E00
:10C4D800F86E21EEA6F0090E0900F5CFDEFFE8069A
:10C4E800FBE22A0EF66EC30EF76E000EF86E21EE12
:10C4F800C3F0070E0900F5CFDEFFE806FBE2FC0EED
:10C50800F66EC20EF76E000EF86E21EEB0F0090E50
:10C518000900F5CFDEFFE806FBE2E50EF66EC20E77
:10C52800F76E000EF86E21EE8EF00B0E0900F5CFB7
:10C53800DEFFE806FBE2D90EF66EC20EF76E000EBD
:10C54800F86E21EE9AF00B0E0900F5CFDEFFE80633
:10C55800FBE2430EF66EC10EF76E000EF86E21EE8A
:10C5680000F0130E0900F5CFDEFFE806FBE2C70E68
:10C57800F66EC10EF76E000EF86E21EE3CF0110E4D
:10C588000900F5CFDEFFE806FBE25E0EF66EC20E8E
:10C59800F76E000EF86E21EE60F00F0E0900F5CF71
:10C5A800DEFFE806FBE2B50EF66EC10EF76E000E72
:10C5B800F86E21EE4EF0110E0900F5CFDEFFE80609
:10C5C800FBE22F0EF66EC10EF76E000EF86E21EE2E
:10C5D80014F0130E0900F5CFDEFFE806FBE21B0E90
:10C5E800F66EC10EF76E000EF86E21EE28F0130EEF
:10C5F8000900F5CFDEFFE806FBE24E0EF66EC20E2E
:10C60800F76E000EF86E21EE70F00F0E0900F5CFF0
:10C61800DEFFE806FBE237ECC8F00101CC6F3EEC28
:10C62800C8F00101CD6F45ECC8F00101CE6F30ECC8
:10C63800C8F00101CF6F29ECC8F00101D06F22ECDE
:10C64800C8F00101D16FD5D1000ED26F13D0D251ED
:10C65800010D800EF324D96E010EF420DA6ED2514A
:10C66800010D6C0EF324E16E030EF420E26EDFCFB1
:10C67800E7FFD22BD251010D800EF324D96E010EA3
:10C68800F420DA6EDF50D8A4E2D7000ED26F13D0B0
:10C69800D251010D000EF324D96E010EF420DA6E8A
:10C6A800D251010DA80EF324E16E030EF420E26EC0
:10C6B800DFCFE7FFD22BD251010D000EF324D96E44
:10C6C800010EF420DA6EDF50D8B4A9D1E1D7000EFC
:10C6D800D26F13D0D251010DBA0EF324D96E010EC8
:10C6E800F420DA6ED251010D6C0EF324E16E030EC4
:10C6F800F420E26EDFCFE7FFD22BD251010DBA0E44
:10C70800F324D96E010EF420DA6EDF50D8A4E2D7F4
:10C71800000ED26F13D0D251010D3C0EF324D96E06
:10C72800010EF420DA6ED251010DA80EF324E16E49
:10C73800030EF420E26EDFCFE7FFD22BD251010DBA
:10C748003C0EF324D96E010EF420DA6EDF50D8B413
:10C7580066D1E1D7000ED26F13D0D251010DA60ECB
:10C76800F324D96E010EF420DA6ED251010D6C0E4D
:10C77800F324E16E030EF420E26EDFCFE7FFD22B45
:10C78800D251010DA60EF324D96E010EF420DA6EF3
:10C79800DF50D8A4E2D7000ED26F13D0D251010DCA
:10C7A800600EF324D96E010EF420DA6ED251010D19
:10C7B800A80EF324E16E030EF420E26EDFCFE7FF4C
:10C7C800D22BD251010D600EF324D96E010EF42044
:10C7D800DA6EDF50D8B423D1E1D7000ED26F13D070
:10C7E800D251010DC30EF324D96E010EF420DA6E76
:10C7F800D251010D6C0EF324E16E030EF420E26EAB
:10C80800DFCFE7FFD22BD251010DC30EF324D96E2F
:10C81800010EF420DA6EDF50D8A4E2D7000ED26FF2
:10C8280013D0D251010D4E0EF324D96E010EF4200F
:10C83800DA6ED251010DA80EF324E16E030EF42036
:10C84800E26EDFCFE7FFD22BD251010D4E0EF3245B
:10C85800D96E010EF420DA6EDF50D8B4E0D0E1D7FB
:10C86800000ED26F13D0D251010DB00EF324D96E41
:10C87800010EF420DA6ED251010D6C0EF324E16E34
:10C88800030EF420E26EDFCFE7FFD22BD251010D69
:10C89800B00EF324D96E010EF420DA6EDF50D8A45E
:10C8A800E2D7000ED26F13D0D251010D140EF3242B
:10C8B800D96E010EF420DA6ED251010DA80EF324C0
:10C8C800E16E030EF420E26EDFCFE7FFD22BD251E8
:10C8D800010D140EF324D96E010EF420DA6EDF5028
:10C8E800D8B49DD0E1D7000ED26F13D0D251010D2C
:10C8F8008E0EF324D96E010EF420DA6ED251010D9A
:10C908006C0EF324E16E030EF420E26EDFCFE7FF36
:10C91800D22BD251010D8E0EF324D96E010EF420C4
:10C92800DA6EDF50D8A4E2D7000ED26F13D0D251FE
:10C93800010D280EF324D96E010EF420DA6ED251BF
:10C94800010DA80EF324E16E030EF420E26EDFCF92
:10C95800E7FFD22BD251010D280EF324D96E010E18
:10C96800F420DA6EDF50D8B45AD0E1D7000ED26F77
:10C9780013D0D251010D9A0EF324D96E010EF42072
:10C98800DA6ED251010D6C0EF324E16E030EF42021
:10C99800E26EDFCFE7FFD22BD251010D9A0EF324BE
:10C9A800D96E010EF420DA6EDF50D8A4E2D7000E5B
:10C9B800D26F13D0D251010D700EF324D96E010E2F
:10C9C800F420DA6ED251010DA80EF324E16E030EA5
:10C9D800F420E26EDFCFE7FFD22BD251010D700EAB
:10C9E800F324D96E010EF420DA6EDF50D8B417D0D4
:10C9F800E1D7CB51100AD8B427D6010AD8B467D6E4
:10CA0800030AD8B4A7D6010AD8B4E7D6070AD8B417
:10CA180027D7010AD8B467D7030AD8B4A7D7320EE4
:10CA28000301806F300E816F0101CC390F0B300F7D
:10CA38000301826F0101CC510F0B300F0301836F8B
:10CA48002D0E846F0101CD390F0B300F0301856F57
:10CA58000101CD510F0B300F0301866F2D0E876F2B
:10CA68000101CE390F0B300F0301886F0101CE5140
:10CA78000F0B300F0301896F0101CF390F0B300FF6
:10CA88000301946F0101CF510F0B300F0301956F14
:10CA98003A0E966F0101D0390F0B300F0301976FD3
:10CAA8000101D0510F0B300F0301986F3A0E996FA7
:10CAB8000101D1390F0B300F03019A6F0101D151D8
:10CAC8000F0B300F03019B6F12002AD2020108518D
:10CAD800300B300AD8A412000C0E0001766FFE0E3F
:10CAE800776F22EE12F0DECF78F0DDCF79F0765155
:10CAF80078277751792378510201275D2851800AD8
:10CB080000017A6F7951800A7A59D8B012008A8266
:10CB1800010E1E6E000E02011E6F000E1D6F000E2C
:10CB2800336F000E326F000E00017D6F030E7D65BE
:10CB380001D012007D51020D140EF324D96E020E9D
:10CB4800F420DA6E000EDE6E000EDD6E7D51020DF1
:10CB5800290EF324D96E020EF420DA6E000EDE6E72
:10CB6800000EDD6E7D2BE2D702010851300B300A32
:10CB7800D8A41200000E1C6F000E316F000E0001C9
:10CB88007D6F030E7D6501D01AD07D51020D140E04
:10CB9800F324D96E020EF420DA6EDF5002011C274E
:10CBA80000017D51020D290EF324D96E020EF420E6
:10CBB800DA6EDF500201312700017D2BE2D7010E2A
:10CBC8000201CA6F1EECADF000017B6F7BC072F0F2
:10CBD800000E3BECABF01200020108A9120027512D
:10CBE800F95DFA51800A0001766F02012851800A26
:10CBF80000017659D8B006D0FF05CBECB8F0020199
:10CC0800CA69120002011EBF13D01E5104E1050EAD
:10CC18001D5DD8A00DD02751125D1351800A000167
:10CC2800766F02012851800A00017659D8B005D0E4
:10CC380079ECC4F0000E1E6E120022EE27F0DECF53
:10CC480076F0DDCF77F00001761F771F764B772BD4
:10CC580002011251000176270201135100017723C6
:10CC680077BF06D0E80E765D030E7759D8B006D0A8
:10CC7800FF05CBECB8F00201CA69120002011EBF21
:10CC880011D0590E1D5D020E1E59D8A00BD01EECF6
:10CC9800ADF0050F00017C6F7CC062F0010EB2ECB4
:10CCA800B7F0120002010851300B1A6E1A3A0F0E33
:10CCB8001A161A50020D0A0EF324D96E020EF42029
:10CCC800DA6EDECFA5F2DDCFA6F2000EA6BFFF0E0C
:10CCD800A76FA86FA5C260F0A6C261F0A7C262F0F4
:10CCE800A8C263F01A50020D140EF324D96E020E76
:10CCF800F420DA6EDECF64F0DDCF65F00001000EBF
:10CD080065BFFF0E666F676FEBECBCF060C0A5F205
:10CD180061C0A6F262C0A7F263C0A8F2020E1A268A
:10CD2800030E1A161A50020D0A0EF324D96E020EBB
:10CD3800F420DA6EDECFA9F2DDCFAAF20201000EEE
:10CD4800AABFFF0EAB6FAC6FA9C260F0AAC261F0B8
:10CD5800ABC262F0ACC263F01A50020D140EF32499
:10CD6800D96E020EF420DA6EDECF64F0DDCF65F006
:10CD78000001000E65BFFF0E666F676FEBECBCF03D
:10CD880060C0A9F261C0AAF262C0ABF263C0ACF2A3
:10CD9800020113BF0BD0520E125D3B0E1359D8A0DF
:10CDA80005D00001FF29CBECB8F012000001FF0507
:10CDB800CBECB8F01200020108A912002751F95D66
:10CDC800FA51800A0001766F02012851800A000199
:10CDD8007659D8B006D0FF05CBECB8F00201CA6985
:10CDE800120002011EBF06D01E510EE1C80E1D5DC5
:10CDF800D8B00AD00001FF51FB0F7C6F7CC062F0F5
:10CE0800000EB2ECB7F0120002010851300B1A6E96
:10CE18001A3A0F0E1A161A50020D0A0EF324D96E7A
:10CE2800020EF420DA6EDECFA5F2DDCFA6F2000EF8
:10CE3800A6BFFF0EA76FA86FA5C260F0A6C261F0DB
:10CE4800A7C262F0A8C263F01A50020D140EF324B0
:10CE5800D96E020EF420DA6EDECF64F0DDCF65F015
:10CE68000001000E65BFFF0E666F676FEBECBCF04C
:10CE780060C0A5F261C0A6F262C0A7F263C0A8F2C2
:10CE8800020E1A26030E1A161A50020D0A0EF32461
:10CE9800D96E020EF420DA6EDECFA9F2DDCFAAF247
:10CEA8000201000EAABFFF0EAB6FAC6FA9C260F003
:10CEB800AAC261F0ABC262F0ACC263F01A50020DB4
:10CEC800140EF324D96E020EF420DA6EDECF64F06D
:10CED800DDCF65F00001000E65BFFF0E666F676F5E
:10CEE800EBECBCF060C0A9F261C0AAF262C0ABF280
:10CEF80063C0ACF2020113BF0BD0520E125D3B0EA1
:10CF08001359D8A005D00001FF29CBECB8F01200C6
:10CF18000001FF05CBECB8F01200000E1E6E1200E7
:10CF28001E50000AD8B4D2D5010AD8B41DD6030AB7
:10CF3800D8B452D6010AD8B43ED7EFD761C0D9FFCA
:10CF480062C0DAFF100EDF6E000120EE01F06151C1
:10CF5800D9266251DA2212C2DFFF20EE02F06151B7
:10CF6800D9266251DA2202011351DF6E000120EE48
:10CF780003F06151D9266251DA2227C2DFFF20EE81
:10CF880004F06151D9266251DA2202012851DF6E7C
:10CF9800000120EE05F06151D9266251DA221DC246
:10CFA800DFFF20EE06F06151D9266251DA22020134
:10CFB8001E51DF6E000120EE07F06151D926625143
:10CFC800DA2232C2DFFF20EE08F06151D926625121
:10CFD800DA2202013351DF6E000120EE09F06151BF
:10CFE800D9266251DA2236C2DFFF20EE0AF06151FB
:10CFF800D9266251DA2202013751DF6E000120EE94
:10D008000BF06151D9266251DA223AC2DFFF20EED5
:10D018000CF06151D9266251DA2202013B51DF6ED0
:10D02800000120EE0DF06151D9266251DA223EC28C
:10D03800DFFF20EE0EF06151D9266251DA2202019B
:10D048003F51DF6E000120EE0FF06151D926625189
:10D05800DA2205C2DFFF20EE10F06151D9266251B5
:10D06800DA2240C2DFFF20EE11F06151D926625169
:10D07800DA2237ECC8F0DF6E000120EE12F06151C1
:10D08800D9266251DA223EECC8F0DF6E000120EEAC
:10D0980013F06151D9266251DA2245ECC8F0DF6EEF
:10D0A800000120EE14F06151D9266251DA2230ECE9
:10D0B800C8F0DF6E000120EE15F06151D9266251EB
:10D0C800DA2229ECC8F0DF6E000120EE16F061517B
:10D0D800D9266251DA2222ECC8F0DF6E000120EE78
:10D0E80017F06151D9266251DA228CECC8F0DF6E54
:10D0F800000120EE18F06151D9266251DA2285EC40
:10D10800C8F0DF6E000120EE19F06151D926625196
:10D11800DA22F3ECC3F0DF6E000120EE1AF0615161
:10D12800D9266251DA228AECC8F0DF6E000120EEBF
:10D138001BF06151D9266251DA2234C2DFFF20EE9A
:10D148001CF06151D9266251DA2202013551DF6E95
:10D15800000120EE1DF06151D9266251DA2238C251
:10D16800DFFF20EE1EF06151D9266251DA2202015A
:10D178003951DF6E000120EE1FF06151D92662514E
:10D18800DA223CC2DFFF20EE20F06151D92662513D
:10D19800DA2202013D51DF6E08390F0B030B000143
:10D1A800636F646BD890633764370A0E6325D96E52
:10D1B800020E6421DA6E10EE21F06151E12662510F
:10D1C800E222DFCFE7FF20EE22F06151D92662513B
:10D1D800DA22020108390F0B030B0001636F646B3D
:10D1E800D890633764370A0E6325E16E020E642116
:10D1F800E26EE6CF65F0E5CF66F066C065F0666B77
:10D2080065BF66696551DF6E020108390F0B030BB4
:10D218000001636F646BD890633764371F0E632512
:10D22800D96E020E6421DA6E10EE23F06151E12608
:10D238006251E222DFCFE7FF20EE24F06151D926C8
:10D248006251DA22020108390F0B030B0001636FE8
:10D25800646BD890633764371F0E6325E16E020E46
:10D268006421E26EE6CF65F0E5CF66F066C065F052
:10D27800666B65BF66696551DF6E020108390F0B81
:10D28800030B0001636F646BD89063376437140E27
:10D298006325D96E020E6421DA6E10EE25F0615115
:10D2A800E1266251E222DFCFE7FF20EE26F061514E
:10D2B800D9266251DA22020108390F0B030B00014B
:10D2C800636F646BD89063376437140E6325E16E1F
:10D2D800020E6421E26EE6CF65F0E5CF66F066C027
:10D2E80065F0666B65BF66696551DF6E02010839D6
:10D2F8000F0B030B0001636F646BD89063376437BF
:10D30800290E6325D96E020E6421DA6E10EE27F01D
:10D318006151E1266251E222DFCFE7FF20EE28F0DB
:10D328006151D9266251DA22020108390F0B030B29
:10D338000001636F646BD89063376437290E6325E7
:10D34800E16E020E6421E26EE6CF65F0E5CF66F08D
:10D3580066C065F0666B65BF66696551DF6E20EE75
:10D3680029F06151D9266251DA2282ECC8F0DF6EC9
:10D37800000120EE2AF06151D9266251DA2208C252
:10D38800DFFF1200410E0001FC6F8DD1010120EE7C
:10D3980001F00051D9260151DA22DF5040ECC7F0E4
:10D3A80061D0010120EE01F00051D9260151DA22A5
:10D3B800DF5058ECC7F056D0010120EE01F00051C3
:10D3C800D9260151DA22DF507CECC7F04BD001019D
:10D3D80020EE01F00051D9260151DA22DF5070EC1D
:10D3E800C7F040D0010120EE01F00051D9260151CB
:10D3F800DA22DF5064ECC7F035D0010120EE01F0ED
:10D408000051D9260151DA22DF504CECC7F02AD05E
:10D41800010ECCECC6F026D0000ECCECC6F022D023
:10D42800010E94ECC7F01ED0000E94ECC7F01AD091
:10D43800000E88ECC7F016D0010E88ECC7F012D0A9
:10D44800FF0E74ECC0F00ED0010E74ECC0F00AD0E0
:10D45800010120EE01F00051D9260151DA22DF50F6
:10D4680082ECC5F0020E1CD100C163F001C164F06A
:10D4780002C165F003C166F004C167F005C168F038
:10D488003FEC89F00DD100C1DBF001C1DCF002C135
:10D49800DDF003C1DEF004C1DFF005C1E0F054ECBB
:10D4A80084F0FED000C1AFF001C1B0F002C1B1F00C
:10D4B80003C1B2F004C1B3F005C1B4F09FECA2F00F
:10D4C800EFD000C1DDF001C1DEF002C1DFF003C121
:10D4D800E0F004C1E1F005C1E2F0D8EC90F0E0D052
:10D4E80000C1BEF001C1BFF002C1C0F003C1C1F06C
:10D4F80004C1C2F005C1C3F0E0EC9CF0D1D000C17A
:10D50800F1F001C1F2F002C1F3F003C1F4F004C17B
:10D51800F5F005C1F6F0C5EC8EF0C2D000C1E3F01D
:10D5280001C1E4F002C1E5F003C1E6F004C1E7F08F
:10D5380005C1E8F024EC7AF0B3D000C186F001C14F
:10D5480087F002C188F003C189F004C18AF005C1DF
:10D558008BF02EECAEF0A4D000C1B3F001C1B4F052
:10D5680002C1B5F003C1B6F004C1B7F005C1B8F007
:10D57800A0EC8CF095D000C1B1F001C1B2F002C1AD
:10D58800B3F003C1B4F004C1B5F005C1B6F078EC4E
:10D598008FF086D000C18AF001C18BF002C18CF0F7
:10D5A80003C18DF004C18EF005C18FF02BEC90F013
:10D5B80077D000C1F0F001C1F1F002C1F2F003C16F
:10D5C800F3F004C1F4F005C1F5F05FEC9DF068D00C
:10D5D80000C160F001C161F002C162F003C163F0F3
:10D5E80004C164F005C165F080ECA8F059D000C111
:10D5F80060F001C161F002C162F003C163F004C1CF
:10D6080064F005C165F0E4ECA8F04AD000C160F010
:10D6180001C161F002C162F003C163F004C164F0AA
:10D6280005C165F01CECA8F03BD000C160F001C159
:10D6380061F002C162F003C163F004C164F005C186
:10D6480065F0ACECA9F02CD000C160F001C161F02C
:10D6580002C162F003C163F004C164F005C165F062
:10D6680074ECAAF01DD000C160F001C161F002C1E4
:10D6780062F003C163F004C164F005C165F048ECD1
:10D68800A9F00ED000C160F001C161F002C162F0E2
:10D6980003C163F004C164F005C165F010ECAAF0A1
:10D6A8000001FC6F6BD000C1D9FF01C1DAFFDF5068
:10D6B800400AD8B46BD6010AD8B473D6030AD8B4D2
:10D6C8007BD6010AD8B483D6070AD8B48BD6010A08
:10D6D800D8B493D6030AD8B49BD6010AD8B49CD63A
:10D6E8000F0AD8B49DD6010AD8B49ED6030AD8B476
:10D6F800A3D6010AD8B49CD6070AD8B4A1D6010A81
:10D70800D8B4A2D6030AD8B4A3D61E0AD8B4BBD6B6
:10D71800010AD8B4C7D6030AD8B4D3D6010AD8B4F4
:10D72800DFD6070AD8B4EBD6010AD8B4F7D6030A6D
:10D73800D8B403D7010AD8B40FD70F0AD8B41BD767
:10D74800010AD8B427D7030AD8B433D73A0AD8B4C9
:10D758008BD6100AD8B43CD7010AD8B448D7030AE4
:10D76800D8B454D7010AD8B460D7070AD8B46CD74C
:10D77800010AD8B478D7030AD8B484D7FC51120068
:10D78800C8D160C0D9FF61C0DAFF000EDE6E000E9E
:10D79800DD6E000120EE02F06051D9266151DA22D7
:10D7A8000B0EDE6E000EDD6E20EE04F06051D92601
:10D7B8006151DA22040EDF6E20EE05F06051D926A1
:10D7C8006151DA22000EDE6E000EDD6E20EE07F0EB
:10D7D8006051D9266151DA220B0EDE6E000EDD6E25
:10D7E80020EE09F06051D9266151DA22040EDF6E6D
:10D7F80020EE0AF06051D9266151DA22000EDE6E61
:10D80800000EDD6E120060C0D9FF61C0DAFF000EA5
:10D81800DE6E000EDD6E20EE02F06051D9266151F9
:10D82800DA22110EDE6E000EDD6E20EE04F060517D
:10D83800D9266151DA22050EDF6E20EE05F060511F
:10D84800D9266151DA22000EDE6E000EDD6E20EE62
:10D8580007F06051D9266151DA22110EDE6E000EF2
:10D86800DD6E20EE09F06051D9266151DA22050EED
:10D87800DF6E20EE0AF06051D9266151DA22000EDF
:10D88800DE6E000EDD6E120060C0D9FF61C0DAFFE7
:10D89800000EDE6E000EDD6E20EE02F06051D9261D
:10D8A8006151DA22DB0EDE6E160EDD6E20EE04F01C
:10D8B8006051D9266151DA220F0EDF6E20EE05F095
:10D8C8006051D9266151DA22000EDE6E000EDD6E3F
:10D8D80020EE07F06051D9266151DA22DB0EDE6EA8
:10D8E800160EDD6E20EE09F06051D9266151DA225C
:10D8F8000F0EDF6E20EE0AF06051D9266151DA2250
:10D90800000EDE6E000EDD6E120060C0D9FF61C031
:10D91800DAFF000EDE6E000EDD6E20EE02F06051C2
:10D92800D9266151DA22DB0EDE6E160EDD6E20EE90
:10D9380004F06051D9266151DA220F0EDF6E20EE15
:10D9480005F06051D9266151DA22000EDE6E000E14
:10D95800DD6E20EE07F06051D9266151DA22DB0E28
:10D96800DE6E160EDD6E20EE09F06051D92661518B
:10D97800DA220F0EDF6E20EE0AF06051D9266151CF
:10D98800DA22000EDE6E000EDD6E120060C0D9FFD6
:10D9980061C0DAFF370EDE6ECA0EDD6E20EE02F0D1
:10D9A8006051D9266151DA22290EDE6ED30EDD6E62
:10D9B80020EE04F06051D9266151DA220D0EDF6E97
:10D9C80020EE05F06051D9266151DA22370EDE6E5D
:10D9D800CA0EDD6E20EE07F06051D9266151DA22B9
:10D9E800290EDE6ED30EDD6E20EE09F06051D926C9
:10D9F8006151DA220D0EDF6E20EE0AF06051D92651
:10DA08006151DA22000EDE6E000EDD6E120060C07B
:10DA1800D9FF61C0DAFF370EDE6ECA0EDD6E20EE6A
:10DA280002F06051D9266151DA22290EDE6ED30E3A
:10DA3800DD6E20EE04F06051D9266151DA220D0E18
:10DA4800DF6E20EE05F06051D9266151DA22370EDB
:10DA5800DE6ECA0EDD6E20EE07F06051D9266151E8
:10DA6800DA22290EDE6ED30EDD6E20EE09F060514B
:10DA7800D9266151DA220D0EDF6E20EE0AF06051D0
:10DA8800D9266151DA22000EDE6E000EDD6E12001C
:10DA980060C0D9FF61C0DAFF370EDE6ECA0EDD6ED8
:10DAA80020EE02F06051D9266151DA22290EDE6E8D
:10DAB800D30EDD6E20EE04F06051D9266151DA22D2
:10DAC8000D0EDF6E20EE05F06051D9266151DA2285
:10DAD800370EDE6ECA0EDD6E20EE07F06051D926D5
:10DAE8006151DA22290EDE6ED30EDD6E20EE09F0CA
:10DAF8006051D9266151DA220D0EDF6E20EE0AF050
:10DB08006051D9266151DA22000EDE6E000EDD6EFC
:10DB1800120000016251000AD8B433D6010AD8B401
:10DB280072D6030AD8B4B0D6010AD8B4EED6070A1A
:10DB3800D8B42CD7010AD8B46AD7030AD8A41200DB
:10DB4800A7D7B8D158EC87F00009D8A412002368E9
:10DB58001200FFEC75F00009D8A412002368120027
:10DB68002104D8A402D0236812005AC210F05BC264
:10DB78000FF00FC06AF010C06BF000016C6B6D6B9A
:10DB880056EC9FF00009D8A41200000E0001616F46
:10DB9800240E606FD5ECADF0000E0001606F060E2C
:10DBA800616FE90E626FC30E636F000E656F240E1E
:10DBB800646F97ECBAF0FD0E236E1200E9C260F0B4
:10DBC800EAC261F022EED7F001D80AD00500FA6E59
:10DBD800DE50FD6EDE50FE6EDE50FF6EFA50120013
:10DBE80060C0A2F061C0A3F062C0A4F063C0A5F059
:10DBF800E9C260F0EAC261F022EEDAF001D80AD098
:10DC08000500FA6EDE50FD6EDE50FE6EDE50FF6ED1
:10DC1800FA501200000160C09EF061C09FF0A06B36
:10DC2800A16B26EE00F0A5C0DFFF26EE01F0A4C030
:10DC3800DFFF26EE02F0A3C0DFFF26EE03F0A2C04E
:10DC4800DFFF26EE04F0A1C0DFFF26EE05F0A0C03E
:10DC5800DFFF26EE06F09FC0DFFF26EE07F09EC02E
:10DC6800DFFF000E106E080E0F6E000E616F080EBB
:10DC7800606FD5ECADF0FD0E236E12002104D8A420
:10DC880002D023681200000E106E120E0F6E000EE6
:10DC98000001616F120E606FD5ECADF0000E00014F
:10DCA800A66F110EA66501D014D0A651010D670EFE
:10DCB800F324D96E020EF420DA6EA651010D000E7F
:10DCC800F324E16E060EF420E26EDFCFE7FFA62B09
:10DCD800E8D7FD0E236E1200030EE8CF00F6000E03
:10DCE800E8CF01F6E9C260F0EAC261F022EEE3F0A3
:10DCF80001D80AD00500FA6EDE50FD6EDE50FE6EC9
:10DD0800DE50FF6EFA5012000009D8A405D0000EAC
:10DD180000019C6F000E04D0000E00019C6F800E65
:10DD28009B6F26EE02F09BC0DFFF000EE8CF03F6E4
:10DD3800000E106E040E0F6E000E616F040E606F01
:10DD4800D5ECADF0FD0E236E120002016951F00B07
:10DD58000509696F200E736F000E746F010E0D01B7
:10DD68008C6F000E886F000E896F000E8A6F000E90
:10DD78008B6F23681200000E00016A6F000E6B6F34
:10DD8800000E6C6F000E6D6F56EC9FF00009D8A462
:10DD98001200020169510F0B060AD8A406D00D0122
:10DDA8008C05D8A402D02368120035ECBAF0000E16
:10DDB8000D01886F000E896F000E8A6F000E8B6F41
:10DDC80023681200000E0D01886F000E896F000E87
:10DDD8008A6F000E8B6F2368120011501210D8B48E
:10DDE80006D011C0D9FF12C0DAFFDFBE120002014F
:10DDF80053515211511104E1400E505DD8A00BD07F
:10DE0800400E00019D6F400E0201505F000E515BF5
:10DE1800525B535B0AD050C29DF0000E506F000E4B
:10DE2800516F000E526F000E536F00019D51996F94
:10DE38009A6B99510F5C9A511058D8A005D09D51F2
:10DE48000F5E000E105A1AD0000EA66F13D00F5096
:10DE58001010D8B404D00F06D8A010060AD0A651C6
:10DE6800010D000EF324D96E060EF420DA6E000EB2
:10DE7800DF6EA62B9D51A65DD8A0E9D7010E606F75
:10DE8800000E616F060E626F9DC063F0020ED7EC44
:10DE98009AF060C011F061C012F0020150515111A6
:10DEA80052115311D8A41200236812007F0E31ECCE
:10DEB80098F012002350000AD8B45DD7030AD8B4EA
:10DEC800DDD6110AD8B44CD6080AD8B405D7010A49
:10DED800D8B478D7050AD8B438D73B0AD8B46ED6A0
:10DEE8000D0AD8B42FD6020AD8B433D6050AD8B446
:10DEF80069D7D20AD8B471D7030AD8D793D1020107
:10DF08000651800A7F0FD8A002D0100E03D006AFAA
:10DF180002D0600E406F0751000E066F000E076FAB
:10DF280012000651800A7F0FD8A002D0200E03D01D
:10DF380006AF02D0000E406F0751D8B402D0110EC0
:10DF4800406F000E066F000E076F12000651800A20
:10DF58007F0FD8A003D094ECC5F004D0020106BF0F
:10DF6800E9ECC5F002010751D8B405D071ECC6F050
:10DF7800120E0201406F000E066F000E076F1200AE
:10DF88000651800A7F0FD8A003D0B6ECC5F004D0A4
:10DF9800020106BF0BECC6F002010751D8B405D048
:10DFA80071ECC6F0130E0201406F000E066F000EF2
:10DFB800076F12000651800A7F0FD8A003D05CECCF
:10DFC800C5F004D0020106BF6FECC5F0020107518D
:10DFD800D8B402D0140E406F000E066F000E076F03
:10DFE80012000651800A7F0FD8A003D0D8ECC5F0E4
:10DFF80004D0020106BF2DECC6F002010751D8B4C7
:10E0080002D0150E406F000E066F000E076F12004B
:10E018000651800A7F0FD8A003D0C7ECC5F004D002
:10E02800020106BF1CECC6F002010751D8B402D0A9
:10E03800160E406F000E066F000E076F1200065195
:10E04800800A7F0FD8A003D0A5ECC5F004D0020148
:10E0580006BFFAECC5F002010751D8B404D0100E7F
:10E06800406F4FECC0F0000E0201066F000E076F04
:10E0780012000651800A7F0FD8A002D0300E03D0BC
:10E0880006AF02D0100E406F0751D8A428BF09D0A0
:10E09800E10E275D2E0E2859D8A003D0100E49ECAA
:10E0A800C5F0000E0201066F000E076F1200065140
:10E0B800800A7F0FD8A002D0400E03D006AF02D04E
:10E0C800200E406F0751D8B402D0310E406F000EB9
:10E0D800066F000E076F12000651800A7F0FD8A046
:10E0E80006D028BF0AD0010EDDECBFF006D0020131
:10E0F80006AF03D0010EC5ECBDF002010751D8B43C
:10E1080002D0320E406F000E066F000E076F12002D
:10E118000651800A7F0FD8A006D028BF0AD0020E69
:10E12800DDECBFF006D0020106AF03D0020EC5EC4D
:10E13800BDF002010751D8B402D0330E406F000E73
:10E14800066F000E076F12000651800A7F0FD8A0D5
:10E1580006D028BF0AD0040EDDECBFF006D00201BD
:10E1680006AF03D0040EC5ECBDF002010751D8B4C8
:10E1780002D0340E406F000E066F000E076F1200BB
:10E188000651800A7F0FD8A006D028BF0AD0080EF3
:10E19800DDECBFF006D0020106AF03D0080EC5ECD7
:10E1A800BDF002010751D8B402D0300E406F000E06
:10E1B800066F000E076F12000651800A7F0FD8A065
:10E1C80002D0500E03D006AF02D0300E406F075178
:10E1D800000E066F000E076F12000651800A7F0FAF
:10E1E800D8A002D0600E03D006AF02D0400E406F18
:10E1F8000751000E066F000E076F12000651800AC5
:10E208007F0FD8A002D0000E03D006AF02D0500E68
:10E21800406F0751000E066F000E076F1200000EC8
:10E22800406F120002014051000AD8B468D6100AA3
:10E23800D8B477D6010AD8B489D6030AD8B4A0D6F8
:10E24800010AD8B4B7D6070AD8B4CBD6010AD8B4CD
:10E25800DFD6030AD8B4F3D6360AD8B40AD7100AD8
:10E26800D8B425D7010AD8B437D7030AD8B450D7B9
:10E27800010AD8B469D7070AD8B482D7740AD8B4BF
:10E288009BD7100AD8B4A9D7300AD8B4B7D7C7D7FC
:10E298006A0EF66EC10EF76E000EF86E20EE92F062
:10E2A800120E0900F5CFDEFFE806FBE2570EF66E08
:10E2B800C10EF76E000EF86E20EEA5F0120E0900E2
:10E2C800F5CFDEFFE806FBE27D0EF66EC20EF76EB6
:10E2D800000EF86E20EEB8F00D0E0900F5CFDEFF47
:10E2E800E806FBE222EE27F0DECF60F0DDCF61F03A
:10E2F8000001000E61BFFF0E626F636F22EE32F005
:10E30800DECF64F0DDCF65F0000E65BFFF0E666FEF
:10E31800676FEBECBCF060C0CEF061C0CFF062C0BC
:10E32800D0F063C0D1F022EE12F0DECFCAF0DDCF1C
:10E33800CBF00001000ECBBFFF0ECC6FCD6FCAC073
:10E3480060F0CBC061F0CCC062F0CDC063F022EECB
:10E358001DF0DECF64F0DDCF65F0000E65BFFF0E67
:10E36800666F676FEBECBCF060C0CAF061C0CBF0C1
:10E3780062C0CCF063C0CDF0CAC060F0CBC061F021
:10E38800CCC062F0CDC063F0E80E0001646F030EEC
:10E39800656F000E666F000E676F4EECA7F060C0E9
:10E3A800CAF061C0CBF062C0CCF063C0CDF022EE01
:10E3B80027F0DECFCEF0DDCFCFF00001000ECFBFCB
:10E3C800FF0ED06FD16FCEC060F0CFC061F0D0C06B
:10E3D80062F0D1C063F022EE32F0DECF64F0DDCF20
:10E3E80065F0000E65BFFF0E666F676FEBECBCF063
:10E3F80060C0CEF061C0CFF062C0D0F063C0D1F091
:10E40800CAC064F0CBC065F0CCC066F0CDC067F080
:10E41800CEC060F0CFC061F0D0C062F0D1C063F070
:10E428004EECA7F060C06EF061C06FF062C070F093
:10E4380063C071F0010ECDEC92F06EC0C6F06FC0F3
:10E44800C7F070C0C8F071C0C9F0CEC060F0CFC0CE
:10E4580061F0D0C062F0D1C063F0E80E0001646FD3
:10E46800030E656F000E666F000E676F4EECA7F027
:10E4780060C0CEF061C0CFF062C0D0F063C0D1F010
:10E48800000E0001D26F13D0D251010D920EF32469
:10E49800D96E000EF420DA6ED251010D6C0EF32401
:10E4A800E16E030EF420E26EDFCFE7FFD22BD251EC
:10E4B800010D920EF324D96E000EF420DA6EDF50AF
:10E4C800D8A4E2D7000ED26F13D0D251010DA50EF9
:10E4D800F324D96E000EF420DA6ED251010D800EAD
:10E4E800F324E16E030EF420E26EDFCFE7FFD22BB8
:10E4F800D251010DA50EF324D96E000EF420DA6E68
:10E50800DF50D8A4E2D7CAC078F0CBC079F0030EA8
:10E518007A6F940E7B6F030E7C6F51EC83F0CEC044
:10E5280078F0CFC079F0030E00017A6F9E0E7B6FF2
:10E53800030E7C6F51EC83F0000E0001D26F13D0F4
:10E54800D251010DB80EF324D96E000EF420DA6E04
:10E55800D251010DA80EF324E16E030EF420E26EF1
:10E56800DFCFE7FFD22BD251010DB80EF324D96EBD
:10E57800000EF420DA6EDF50D8A4E2D7C6C060F0EF
:10E58800C7C061F0C8C062F0C9C063F0F4ECA3F082
:10E5980060C078F061C079F0010E00017A6FAB0EAF
:10E5A8007B6F030E7C6F51EC83F0CEC090F0CFC030
:10E5B80091F00001901F911F904B912BCA5190250B
:10E5C800786FCB519121796F030E7A6FB60E7B6FFE
:10E5D800030E7C6F51EC83F01200DDEC9BF0000E13
:10E5E8000BECBCF084EC91F0D4ECC2F0CAECC7F0B0
:10E5F80002010951D8A4FAD70400020128BF06D0A5
:10E60800E00E275D2E0E2859D8B003D0100EC5ECA9
:10E61800BDF0020128AF11D02729FF0E2859D8B024
:10E628000CD0010EC5ECBDF0020EC5ECBDF0040E19
:10E63800C5ECBDF0080EC5ECBDF026ECB8F0DAEC80
:10E648009EF0000EF4ECB3F0000160510201342793
:10E658000001615102013523010EF4ECB3F0000111
:10E668006051020138270001615102013923020E6D
:10E67800F4ECB3F00001605102013C270001615144
:10E6880002013D23FED0010E00016A6F000E6B6F80
:10E69800000EE2ECC1F027D1DAECAEF024D198EC10
:10E6A800BEF0020108390F0B030B0101D36FD46BC5
:10E6B800D890D337D4371F0ED325D96E020ED42164
:10E6C800DA6E000165C0DEFF66C0DDFF010E6A6F0D
:10E6D800000E6B6F030EE2ECC1F012ECA3F003D155
:10E6E80082ECC8F0050AD8A4FED00201405124ECFF
:10E6F800B0F0F9D082ECC8F0050AD8A4F4D082ECC6
:10E70800B6F0F1D098ECBEF0020108390F0B030BFC
:10E718000101D36FD46BD890D337D4370A0ED325E1
:10E72800D96E020ED421DA6E000165C0DEFF66C024
:10E73800DDFF010E00016A6F000E6B6F010EE2EC47
:10E74800C1F083ECA3F0CFD0DAECAEF0CCD098ECEB
:10E75800BEF0020108390F0B030B0101D36FD46B14
:10E76800D890D337D437290ED325D96E020ED421A9
:10E77800DA6E000165C0DEFF66C0DDFF010E6A6F5C
:10E78800000E6B6F020EE2ECC1F07EEC96F0ABD09F
:10E79800DAECAEF0D5EC78F0A6D098ECBEF0020139
:10E7A80008390F0B030B0101D36FD46BD890D33703
:10E7B800D437140ED325D96E020ED421DA6E000197
:10E7C80065C0DEFF66C0DDFF10EC97F08CD0BFECB3
:10E7D800BCF089D034C26CF035C26DF0040E000173
:10E7E8006E6FD2EC9FF06CC036F26DC037F2000E3F
:10E7F8000201356F000E346F38C26CF039C26DF00B
:10E80800050E00016E6FD2EC9FF06CC03AF26DC03D
:10E818003BF2000E0201396F000E386F3CC26CF0FB
:10E828003DC26DF0060E00016E6FD2EC9FF06CC019
:10E838003EF26DC03FF2000E02013D6F000E3C6FCC
:10E8480052ECC8F0020137BF08D0B90E365D0B0E86
:10E858003759D8A002D08C8208D037BF05D0C40E53
:10E86800365D090E3759D8A08C92405124ECB0F08F
:10E878003AD082ECC8F0050AD8A435D082ECB6F0BC
:10E8880032D0020108510F0B0101D36FD46BD45160
:10E89800000AD8A428D0D351000AD8B4F4D6010A63
:10E8A800D8B4FAD6020AD8B4FAD6070AD8B418D710
:10E8B800010AD8B41FD7030AD8B424D70E0AD8B48B
:10E8C80043D7010AD8B443D7020AD8B461D7070A94
:10E8D800D8B463D7010AD8B47AD7030AD8B47AD798
:10E8E800010AD8B4C6D7010E0201096F7FD6A00E5F
:10E8F800F66EC00EF76E000EF86E21EE0FF0140ED5
:10E908000900F5CFDEFFE806FBE2A30EF66EC10EA6
:10E91800F76E000EF86E21EE60F0110E0900F5CFCB
:10E92800DEFFE806FBE27D0EF66EC10EF76E000E06
:10E93800F86E21EE4DF0120E0900F5CFDEFFE80665
:10E94800FBE23A0EF66EC30EF76E000EF86E21EE7D
:10E9580008F0060E0900F5CFDEFFE806FBE2220EFE
:10E96800F66EC30EF76E000EF86E21EE00F0070E7D
:10E978000900F5CFDEFFE806FBE2CD0EF66EC20E0B
:10E98800F76E000EF86E21EE82F00B0E0900F5CF3F
:10E99800DEFFE806FBE20E0EF66EC20EF76E000E04
:10E9A800F86E21EE72F00F0E0900F5CFDEFFE806D3
:10E9B800FBE28B0EF66EC00EF76E000EF86E21EEBF
:10E9C80024F0140E0900F5CFDEFFE806FBE2F30E93
:10E9D800F66EC00EF76E000EF86E21EE39F0130ECB
:10E9E8000900F5CFDEFFE806FBE2000E01018E6F9D
:10E9F80013D08E51010D0F0EF324D96E010EF420A1
:10EA0800DA6E8E51010D6C0EF324E16E030EF420C4
:10EA1800E26EDFCFE7FF8E2B8E51010D0F0EF32430
:10EA2800D96E010EF420DA6EDF50D8A4E2D7000EBA
:10EA38008E6F14D001018E51010D600EF324D96E32
:10EA4800010EF420DA6E8E51010D800EF324E16E72
:10EA5800030EF420E26EDFCFE7FF8E2B01018E510B
:10EA6800010D600EF324D96E010EF420DA6EDF502A
:10EA7800D8B420D0DFD78E51010D4D0EF324D96EB6
:10EA8800010EF420DA6E8E51010D800EF324E16E32
:10EA9800030EF420E26EDFCFE7FF8E2B01018E51CB
:10EAA800010D4D0EF324D96E010EF420DA6EDF50FD
:10EAB800D8A4E1D7000E8E6F80D08E51010D820E42
:10EAC800F324D96E010EF420DA6E8E51010D940EE6
:10EAD800F324E16E030EF420E26EDFCFE7FF8E2B06
:10EAE80001018E51010D820EF324D96E010EF4201E
:10EAF800DA6EDF50D8B46FD0E0D78E51010D720EA8
:10EB0800F324D96E010EF420DA6E8E51010D940EA5
:10EB1800F324E16E030EF420E26EDFCFE7FF8E2BC5
:10EB280001018E51010D720EF324D96E010EF420ED
:10EB3800DA6EDF50D8B44FD0E0D78E51010D240ED5
:10EB4800F324D96E010EF420DA6E8E51010D940E65
:10EB5800F324E16E030EF420E26EDFCFE7FF8E2B85
:10EB680001018E51010D240EF324D96E010EF420FB
:10EB7800DA6EDF50D8B42FD0E0D78E51010D390EA0
:10EB8800F324D96E010EF420DA6E8E51010D940E25
:10EB9800F324E16E030EF420E26EDFCFE7FF8E2B45
:10EBA80001018E51010D390EF324D96E010EF420A6
:10EBB800DA6EDF50D8B40FD0E0D78CECC8F0000A7A
:10EBC800D8B48ED7010AD8B4ABD7030AD8B4C8D7FB
:10EBD800010AD8B4E5D785ECC8F00001906F9051D0
:10EBE800786F796B000E7A6FA80E7B6F030E7C6FBF
:10EBF80051EC83F0120057D159C2E7F15AC2E6F13D
:10EC08005BC2E5F15CC2E4F15EC210F05FC20FF0D6
:10EC18000F5000018F6F1050906F916B926B090E1F
:10EC2800D8908F37903791379237E82EF9D78FC021
:10EC38006AF090C06BF091C06CF092C06DF056EC29
:10EC48009FF00009D8A440D1E9C260F0EAC261F09F
:10EC580022EEE3F001D80AD00500FA6EDE50FD6E10
:10EC6800DE50FE6EDE50FF6EFA5012000009D8B476
:10EC780016D0010E0D018C6F02016951F00B0709C6
:10EC8800696F270E736F000E746F000E0001606FBE
:10EC9800020E52EC9AF0000E226E22501200010E63
:10ECA800246E0F501010D8B4FBD0030E226E000E45
:10ECB8000201C56F060EC66F000E0D01886F020EA9
:10ECC800896F000E8A6F000E8B6F0D0188518911B4
:10ECD8008A118B11D8B41DD013501410D8B406D093
:10ECE80013C0D9FF14C0DAFFDFBEEED0000E00015A
:10ECF800606FC5C261F0C6C262F0400E636F020E5B
:10ED0800D7EC9AF060C013F061C014F0040E226EC4
:10ED180023D0E9C260F0EAC261F022EEE3F001D844
:10ED28000AD00500FA6EDE50FD6EDE50FE6EDE5033
:10ED3800FF6EFA5012000009D8B40CD0010E0D0174
:10ED48008C6F02016951F00B0209696F270E736F0E
:10ED5800000E746F020EA5D013501410D8B406D04C
:10ED680013C0D9FF14C0DAFFDFBEAED020EE01F029
:10ED78001350D9261450DA22DF5000018F6F8FC04C
:10ED880090F0916B926B936B90510201505F000170
:10ED980091510201515B000192510201525B000145
:10EDA80093510201535B20EE01F01350D926145001
:10EDB800DA22DF5000018F6F8FC090F0916B926B59
:10EDC800936B90510D01885F000191510D01895B92
:10EDD800000192510D018A5B000193510D018B5B7B
:10EDE800400E0201C527000EC623030E5AD00D019E
:10EDF8008C51D8A440D0E9C284F0EAC285F0E4C1BD
:10EE080086F0E5C187F0E6C188F0E7C189F0000E19
:10EE180000018A6F060E8B6F0101E451E511E611BE
:10EE2800E711D8A402D0010E01D0000E00018C6FAA
:10EE380022EEE6F001D80AD00500FA6EDE50FD6E2B
:10EE4800DE50FE6EDE50FF6EFA501200E806D8B4AF
:10EE580012D0640E0101F56102D0F52B35D0010EF8
:10EE68000D018C6F02016951F00B0309696F000EE7
:10EE7800736F000E746F010E0101E427000EE52385
:10EE8800E623E7230F06D8A01006010E0AD0020ECB
:10EE98000D018C6F000E0001606F020E52EC9AF0AB
:10EEA800000E226E11D02250000AD8B4A5D6010A4D
:10EEB800D8B4F7D6030AD8B49AD7010AD8B405D774
:10EEC800070AD8B449D7E3D722501200000E000130
:10EED800A76F000EA66F97C0A2F098C0A3F0000E0F
:10EEE8009E6F020E9D6F000EA16F95519611D8A4CA
:10EEF80024D097519811D8B420D09DC08BF09EC0D3
:10EF08008CF0000E8E6F000E8D6FB5ECA7F08BC0E5
:10EF180095F08CC096F095C060F096C061F001EC59
:10EF2800C7F060C09DF061C09EF000019551961138
:10EF3800D8A403D095699669120095C0AAF096C026
:10EF4800ABF003D1AAC060F0ABC061F001ECC7F030
:10EF580060C0A4F061C0A5F0AAC060F0ABC061F0C9
:10EF68000EECC7F060C0A8F061C0A9F00001A6517E
:10EF7800A41904E1A751A519D8B437D0A151D8B420
:10EF88000AD0A6C07FF0A7C080F0000E816F080EDF
:10EF9800826F54ECBBF09DC08BF09EC08CF0A4C077
:10EFA8008DF0A5C08EF0B5ECA7F08BC09FF08CC09B
:10EFB800A0F09FC060F0A0C061F001ECC7F060C095
:10EFC8009DF061C09EF0A4C087F0A5C088F0000E37
:10EFD8000001896F080E8A6F86ECC2F0A4C0A6F003
:10EFE800A5C0A7F0000E0001A16FA35104E1020E15
:10EFF800A25DD8A05ED0A8C060F0A9C061F0000EE4
:10F00800626F080E636F99ECC0F060C0AAF061C02F
:10F01800ABF00001AB5104E1020EAA5DD8A006D006
:10F02800DA0EAA5D1F0EAB59D8A06BD0020EA82528
:10F03800606F000EA921616F000E626F080E636F8A
:10F04800F6ECBAF060C09BF061C09CF000019B290F
:10F0580003E19C29D8B413D0FE0EA625AA6FFF0E93
:10F06800A721AB6FAA51AB6FAA6BD8909C319A6F4E
:10F078009B31996F9951AA139A51AB130BD09F5199
:10F08800A011D8A403D09569966912009FC0AAF070
:10F09800A0C0ABF0A8C060F0A9C061F0000E626F1C
:10F0A800080E636FAAC064F0ABC065F037ECC2F01D
:10F0B80025D0A205A311D8A428D0A8C060F0A9C063
:10F0C80061F0000E626F080E636F99ECC0F060C0CB
:10F0D800AAF061C0ABF00001AA2903E1AB29D8B4BA
:10F0E80010D0A8C060F0A9C061F0000E626F080ED1
:10F0F800636FFF0E656F646937ECC2F0010E0001A3
:10F10800A16FA207D8A0A30720D0A8C060F0A9C00B
:10F1180061F0000E626F080E636F99ECC0F060C07A
:10F12800AAF061C0ABF0A8C060F0A9C061F0000E01
:10F138000001626F080E636F000E656F000E646F4A
:10F1480037ECC2F0010E0001A16FA251A311D8A49F
:10F15800F9D6AB5104E1020EAA5DD8A006D0DA0EAA
:10F16800AA5D1F0EAB59D8A0EDD6A151D8B40AD0CC
:10F17800A6C07FF0A7C080F0000E816F080E826FD6
:10F1880054ECBBF0000197519811D8B405D095C044
:10F1980095F096C096F01200000E966F000E956FCF
:10F1A8001200DBECC7F00001746F7451786F796B53
:10F1B8000101EE510001746F756B7851741904E107
:10F1C80079517519D8B4120078C0EEF112C274F0F2
:10F1D80013C275F0000E75BFFF0E766F776F74510E
:10F1E8000201A127000175510201A22300017651F5
:10F1F8000201A323000177510201A4231DC274F068
:10F208001EC275F0000E000175BFFF0E766F776F96
:10F21800745102019D270001755102019E230001CE
:10F22800765102019F23000177510201A02327C2D2
:10F2380074F028C275F0000E000175BFFF0E766FDE
:10F24800776F7451020199270001755102019A23C1
:10F258000001765102019B230001775102019C2392
:10F2680032C274F033C275F0000E000175BFFF0E94
:10F27800766F776F7451020195270001755102016D
:10F28800962300017651020197230001775102016C
:10F29800982382ECB5F06EC078F06FC079F0D89002
:10F2A80000017931756F7831746F745102019127BB
:10F2B8000001755102019223000E9323000E94233E
:10F2C80000017851020189270001795102018A233E
:10F2D800000E8B23000E8C2341ECB5F06DC078F046
:10F2E8006EC079F0D89000017931756F7831746FFC
:10F2F800745102018D270001755102018E23000E01
:10F308008F23000E90230001785102018527000108
:10F31800795102018623000E8723000E882336C206
:10F3280074F037C275F0000E000175BFFF0E766FDE
:10F33800776F745102018127000175510201822300
:10F3480000017651020183230001775102018423D1
:10F358003AC274F03BC275F0000E000175BFFF0E93
:10F36800766F776F745102017D2700017551020194
:10F378007E230001765102017F23000177510201AB
:10F3880080233EC274F03FC275F0000E000175BFC5
:10F39800FF0E766F776F745102017927000175515E
:10F3A80002017A230001765102017B230001775183
:10F3B80002017C238CECC8F00001746F7F0E741777
:10F3C800D8B403D00201B94BBA2B02010151D8A419
:10F3D80002D0B74BB82B010EF4ECC6F00009D8B434
:10F3E80002D00101EF8F020EF4ECC6F00009D8B488
:10F3F80002D00101EF8D040EF4ECC6F00009D8B478
:10F4080002D00101EF8B080EF4ECC6F00009D8B465
:10F4180002D00101EF89100EF4ECC6F00009D8B44F
:10F4280002D00101EF87200EF4ECC6F00009D8B431
:10F4380002D00101EF850101EF830D4A0E2A120067
:10F44800E3C0D9FFE4C0DAFF550EDE18D8A415D002
:10F45800000120EE07F0E351D926E451DA220F0E1D
:10F46800DE18D8A40AD020EE08F0E351D926E451DA
:10F47800DA229B0EDE18D8B402D0410E1200000129
:10F4880020EE01F0E351D926E451DA22DF50EB6F88
:10F4980020EE06F0E351D926E451DA22DF50E96F75
:10F4A800E951EC6FED6B20EE02F0E351D926E451FF
:10F4B800DA22DF50E96FE951EE6FEF6BF06BF16B19
:10F4C800F0C0F1F0EFC0F0F0EEC0EFF0EE6B20EE20
:10F4D80003F0E351D926E451DA22DF50E96FE9510C
:10F4E800EE13F0C0F1F0EFC0F0F0EEC0EFF0EE6B0D
:10F4F80020EE04F0E351D926E451DA22DF50E96F17
:10F50800E951EE13F0C0F1F0EFC0F0F0EEC0EFF00B
:10F51800EE6B20EE05F0E351D926E451DA22DF50F4
:10F52800E96FE951EE13EEC0A1F0EFC0A2F0F0C010
:10F53800A3F0F1C0A4F0ECC0A5F0EDC0A6F0090E50
:10F54800E325A76F000EE421A86FEB5102EC7FF0D2
:10F558000001EA6FE7C0D9FFE8C0DAFFDF50D8B48E
:10F56800A9D0E7C0D9FFE8C0DAFF380EDF60A2D023
:10F57800E7C0D9FFE8C0DAFFDFCFE9F0010EDF26E8
:10F58800E951010DF350E525D96EF450E621DA6E04
:10F59800550EDF6EE7C0D9FFE8C0DAFFDFCFE9F02C
:10F5A800010EDF26E951010DF350E525D96EF4501F
:10F5B800E621DA6EEBC0DFFFE7C0D9FFE8C0DAFF6B
:10F5C800DFCFE9F0010EDF26E951010DF350E52503
:10F5D800D96EF450E621DA6EF151DF6EE7C0D9FF3B
:10F5E800E8C0DAFFDFCFE9F0010EDF26E951010DAF
:10F5F800F350E525D96EF450E621DA6EF0C0DFFF4E
:10F60800E7C0D9FFE8C0DAFFDFCFE9F0010EDF2657
:10F61800E951010DF350E525D96EF450E621DA6E73
:10F62800EF51DF6EE7C0D9FFE8C0DAFFDFCFE9F0BE
:10F63800010EDF26E951010DF350E525D96EF4508E
:10F64800E621DA6EEEC0DFFFE7C0D9FFE8C0DAFFD7
:10F65800DFCFE9F0010EDF26E951010DF350E52572
:10F66800D96EF450E621DA6EED51DF6EE7C0D9FFAE
:10F67800E8C0DAFFDFCFE9F0010EDF26E951010D1E
:10F68800F350E525D96EF450E621DA6EECC0DFFFC1
:10F69800E7C0D9FFE8C0DAFFDFCFE9F0010EDF26C7
:10F6A800E951010DF350E525D96EF450E621DA6EE3
:10F6B800EAC0DFFFEC51090F12000D013205D8A492
:10F6C8000ED030511F0B0009D8A409D0048E030EA8
:10F6D8003119D8A402D0010E01D0000E286E325183
:10F6E800D8A4120030511F0B020AD8A412003451BA
:10F6F8000F0B0009D8B4120034510F0B456E030EDE
:10F7080045601200200E2B18D8A41200048E34BFB6
:10F7180019D034510F0B456E4550020DDE0EF324FF
:10F72800D96E010EF420DA6EDECF49F0DDCF4AF053
:10F7380034510F0B456E4550010DE80EF324D96E78
:10F74800010E18D034510F0B456E4550020D070EAF
:10F75800F324D96E000EF420DA6EDECF49F0DDCF47
:10F768004AF034510F0B456E4550010DEB0EF32452
:10F77800D96E010EF420DA6EDF50486E48B006D01C
:10F78800FB0E4914496EFF0E4A1404D0040E4910AA
:10F79800496E4A504A6E34BF0AD034510F0B456E39
:10F7A8004550020DDE0EF324D96E010E09D03451F6
:10F7B8000F0B456E4550020D070EF324D96E000E4F
:10F7C800F420DA6E49C0DEFF4AC0DDFF030E3119AE
:10F7D800D8A42DD049C0D9FF4AC0DAFFDFAE1AD06D
:10F7E80034BF0AD034510F0B456E4550010DE80E59
:10F7F800F324D96E010E0AD00D0134510F0B456E5A
:10F808004550010DEB0EF324D96E010EF420DA6E8B
:10F818000101DF8249C0D9FF4AC0DAFF000EDB844C
:10F8280049C0D9FF4AC0DAFF000EDB8E1200040E71
:10F838004918496E4A504A6E49C0D9FF4AC0DAFF92
:10F84800DFAE1BD049C0D9FF4AC0DAFF7F0EDF16F2
:10F8580049C0D9FF4AC0DAFF000EDB8C000E3E6EAD
:10F86800050E3D6E49C03FF04AC040F0000E426EA2
:10F87800020E416E7AECB4F006D049C0D9FF4AC0F6
:10F88800DAFF000EDB8C040E4918496E4A504A6EA6
:10F8980048B206D049C0D9FF4AC0DAFFDFAE30D03F
:10F8A8000D0134BF0AD034510F0B456E4550010D80
:10F8B800E80EF324D96E010E0AD00D0134510F0B56
:10F8C800456E4550010DEB0EF324D96E010EF42060
:10F8D800DA6E0101DF9249C0D9FF4AC0DAFF3B0E58
:10F8E800DF16000E3E6E050E3D6E49C03FF04AC061
:10F8F80040F0000E426E020E416E7AECB4F006D073
:10F9080049C0D9FF4AC0DAFF3B0EDF160D0134515A
:10F918000F0B456E4550010D260EF324466E0F0E53
:10F92800F420476E46C0D9FF47C0DAFFFE0EDF1647
:10F93800120098D0EB0E12003C0E1200900E12002E
:10F94800840EF66EC40EF76E000EF86E0800F550C1
:10F958001200850EF66EC40EF76E000EF86E0800E3
:10F96800F5501200860EF66EC40EF76E000EF86E95
:10F978000800F5501200870EF66EC40EF76E000EE2
:10F98800F86E0800F5501200880EF66EC40EF76E79
:10F99800000EF86E0800F5501200890EF66EC40EBF
:10F9A800F76E000EF86E0800F55012008A0EF66E1B
:10F9B800C40EF76E000EF86E0800F55012008B0E9C
:10F9C800F66EC40EF76E000EF86E0800F5501200C1
:10F9D800000E1200020E1200010E1200010E12009B
:10F9E800000E1200010E1200400E1200000E12004E
:10F9F800FF0E12001F0E1200F80E1200200E120049
:10FA0800000E12003F0E1200000E1200100E12001F
:10FA1800000E1200000E1200000E1200000E12005E
:10FA2800000E1200010E1200000E1200220E12002B
:10FA3800000E1200000E1200460E1200410E1200B7
:10FA4800540E1200310E1200360E1200200E120053
:10FA5800200E1200200E1200550E1200AA0E1200DF
:10FA6800000E120060C062F061C063F000016351D3
:10FA7800000AD8B404D0010AD8B48DD0F1D76251A5
:10FA8800000AD8B457D7010AD8B456D7030AD8B44D
:10FA980055D7010AD8B454D7070AD8B45AD7010A97
:10FAA800D8B460D7030AD8B466D7010AD8B46CD7DB
:10FAB8000F0AD8B472D7010AD8B478D7030AD8B4D1
:10FAC8007ED7010AD8B484D7070AD8B483D7010AE5
:10FAD800D8B482D7030AD8B481D7010AD8B480D75A
:10FAE8001F0AD8B47FD7010AD8B47ED7030AD8B47E
:10FAF8007DD7010AD8B47CD7070AD8B47BD7010AC6
:10FB0800D8B47AD7030AD8B479D7010AD8B478D741
:10FB18000F0AD8B477D7010AD8B476D7030AD8B46D
:10FB280075D7010AD8B474D7070AD8B473D7010AAD
:10FB3800D8B472D7030AD8B471D7010AD8B470D729
:10FB4800370AD8B46FD7010AD8B46ED7050AD8B423
:10FB58006DD7010AD8B46CD7030AD8B46BD7010A99
:10FB6800D8B468D7190AD8B467D7010AD8B466D701
:10FB78000F0AD8B465D7010AD8B464D7030AD8B431
:10FB880063D7010AD8B462D7070AD8B461D7010A83
:10FB9800D8B460D765D76251FE0AD8B45DD7010AD8
:10FBA800D8B45CD75DD7200E2B18D8A41200A09823
:10FBB80015D113501410D8B406D013C0D9FF14C0EF
:10FBC800DAFFDFBE19D1000E0001B16F1E0EB1655C
:10FBD80001D014D0B151010D400EF324D96E0D0E91
:10FBE800F420DA6EB151010D480EF324E16E020ED5
:10FBF800F420E26EDFCFE7FFB12BE8D720EE01F06B
:10FC08001350D9261450DA221F0EDE18D8A472D049
:10FC1800550E020148196EE1530E49196BE1420E67
:10FC28004A1968E1430E4B19D8A464D0010E0101AA
:10FC3800F36F02015551D8A450D0110E56614DD022
:10FC48005651D8B44AD054C2ACF03F0E0001AC179C
:10FC5800D8A443D0550E0D01806F530E816F420E0C
:10FC6800826F530E836F4CC284FD4DC285FD4EC218
:10FC780086FD4FC287FD000E886F000E896F000E4B
:10FC88008A6F000E8B6F000E8C6F2368000E0101C7
:10FC9800F66F000E226E000EF56F030E0201571963
:10FCA800D8B408D06991699369956997000E736F04
:10FCB800000E746F54AF02D0010E01D0020E246EF4
:10FCC8005051511152115311D8B402D0000E01D025
:10FCD800010E216E57C223F08FD0010E0001606F14
:10FCE800020E52EC9AF0000E0001606F020E52EC08
:10FCF8009AF082D0010E0001606F020E52EC9AF069
:10FD0800000E0001606F020E52EC9AF0000E010125
:10FD1800F36F72D050EC95F0FF0AD8A46DD011D0D3
:10FD280050EC95F0FF0AD8A467D00D018C51D8A4E7
:10FD380008D0885189118A118B11D8B402D0020ECB
:10FD48008C6F030E3DD00BC0ADF00CC0AEF00001BF
:10FD5800AD51AE11D8B40AD00BC0AFF00CC0B0F0A2
:10FD6800AFC0D9FFB0C0DAFFDFBE46D0010E606F6A
:10FD7800800E616F0D0E626F0D0E636F020ED7EC71
:10FD88009AF060C011F061C012F013501410D8B48A
:10FD980006D013C0D9FF14C0DAFFDFBE10D0000EA2
:10FDA8000001606F400E616F0D0E626F400E636F51
:10FDB800020ED7EC9AF060C013F061C014F0000E88
:10FDC800246E1AD0000E246E020E0D018C6F000EE8
:10FDD8000001606F020E52EC9AF00ED02450000A17
:10FDE800D8B4E7D6010AD8B495D7030AD8B498D7B7
:10FDF800010AD8B4A8D7E6D7A08812000001B56FC9
:10FE0800C30E00018F6F000E906FB551BFECB6F0B6
:10FE18000001B86FB851D8B402D0B8511200A1513E
:10FE2800DF5DA251E059A351E159A451E259D8B07C
:10FE380002D0F00E1200A551A125A96FA651A2214A
:10FE4800AA6F000EA321AB6F000EA421AC6FA951BD
:10FE5800DF5DAA51E059AB51E159AC51E259D8B034
:10FE68000ED0A1C0A9F0A2C0AAF0A91FAA1FA94B31
:10FE7800AA2BDF51A925A56FE051AA21A66FDDC0E5
:10FE880097F0DEC098F0A1C0A9F0A2C0AAF0A3C064
:10FE9800ABF0A4C0ACF00A0E05D0D890AC33AB33AD
:10FEA800AA33A933E82EF9D7A9C099F0AAC09AF0C5
:10FEB8002EECAFF097C0B9F098C0BAF0000E000170
:10FEC800A115BF6FFE0EA215C06FFF0EA315C16F5F
:10FED800FF0EA415C26FBFC0A9F0C0C0AAF0A91F29
:10FEE800AA1FA94BAA2BA151A925BB6FA251AA21D0
:10FEF800BC6F000EBF6F000EC06F000EC16F000E0A
:10FF0800C26F89D0020EBC19BB11D8A40FD0B9C0DA
:10FF18008FF0BAC090F043ECBDF08FC0B9F090C03C
:10FF2800BAF0000E0001BC6F000EBB6FB9C060F0E4
:10FF3800BAC061F00BECC8F060C0B6F061C0B7F0B1
:10FF4800BBC0A9F0BCC0AAF00001A91FAA1FA94BF9
:10FF5800AA2B000EA925BD6F020EAA21BE6FBD51A6
:10FF6800A96FBE51AA6FAB6BAC6BBFC0ADF0C0C080
:10FF7800AEF0C1C0AFF0C2C0B0F0AD1FAE1FAF1F32
:10FF8800B01FAD2B000EAE23AF23B023A551AD2576
:10FF9800B16FA651AE21B26F000EAF21B36F000E44
:10FFA800B021B46FA951B15DAA51B259AB51B3593F
:10FFB800AC51B459D8B00ED0BFC0A9F0C0C0AAF097
:10FFC800A91FAA1FA94BAA2BA551A925BD6FA651E8
:10FFD800AA21BE6FB6C07FF0B7C080F0BBC081F069
:10FFE800BCC082F0BDC083F0BEC084F0BF51A7255D
:08FFF800856FC051A821866F3E
:020000040001F9
:1000000076ECB7F00001BD51BF27BE51C023000EF2
:10001000C123000EC223BD51BB27BE51BC23A55135
:10002000A96FA651AA6FAB6BAC6BA951BF5DAA516A
:10003000C059AB51C159AC51C259D8A067D7000EB5
:100040001200A1C0AFF0A2C0B0F0A3C0B1F0A4C034
:10005000B2F00A0E06D00001D890B233B133B033FB
:10006000AF33E82EF8D7AFC0C1F0B0C0C2F0ADC01A
:10007000D9FFAEC0DAFFDE50C15DDE50C259D8B044
:1000800002D0FF0E1200ABC0D9FFACC0DAFFDECF4A
:1000900097F0DDCF98F0ADC0D9FFAEC0DAFFDECF6C
:1000A000AFF0DDCFB0F0AF1FB01FAF4BB02BC151E1
:1000B000AF25996FC251B0219A6F2EECAFF0ABC053
:1000C000D9FFACC0DAFF000197C0DEFF98C0DDFFAA
:1000D000ADC0D9FFAEC0DAFFC1C0DEFFC2C0DDFFD8
:1000E000ABC0D9FFACC0DAFFDECFBDF0DDCFBEF0D4
:1000F000C1C0AFF0C2C0B0F0090ED890AF37B03772
:10010000E82EFBD7AFC0C5F0B0C0C6F0C76BC86B58
:10011000C5C0AFF0C6C0B0F0AF1FB01FAF4BB02B23
:10012000A151AF25BF6FA251B021C06F000EC56FA6
:10013000000EC66F000EC76F000EC86F89D0020E8A
:10014000C019BF11D8A40FD0BDC08FF0BEC090F0B1
:1001500043ECBDF08FC0BDF090C0BEF0000E0001BA
:10016000C06F000EBF6FBDC060F0BEC061F00BEC91
:10017000C8F060C0BBF061C0BCF0BFC0AFF0C0C091
:10018000B0F00001AF1FB01FAF4BB02B000EAF257A
:10019000C36F020EB021C46FC351AF6FC451B06FB3
:1001A000B16BB26BC5C0B3F0C6C0B4F0C7C0B5F098
:1001B000C8C0B6F0B31FB41FB51FB61FB32B000ED7
:1001C000B423B523B623A551B325B76FA651B421E7
:1001D000B86FA751B521B96FA851B621BA6FAF5109
:1001E000B75DB051B859B151B959B251BA59D8B037
:1001F0000ED0C5C0AFF0C6C0B0F0AF1FB01FAF4B40
:10020000B02BA551AF25C36FA651B021C46FBBC0A1
:1002100087F0BCC088F0BFC089F0C0C08AF0C3C0FE
:100220008BF0C4C08CF0C551A9258D6FC651AA2191
:100230008E6FEDECC2F00001C351C527C451C62337
:10024000000EC723000EC823C351BF27C451C023CB
:10025000A551C55DA651C659A751C759A851C8593E
:10026000D8A06DD7000E12000001A86F8B0EF66E9D
:10027000C20EF76E000EF86E20EE9AF00D0E090019
:10028000F5CFDEFFE806FBE21E0EF66EC20EF76E3D
:10029000000EF86E20EE8AF00F0E0900F5CFDEFF9B
:1002A000E806FBE2CA0EF66EC00EF76E000EF86EA0
:1002B00020EE60F0140E0900F5CFDEFFE806FBE249
:1002C000B50EF66EC00EF76E000EF86E20EE75F0ED
:1002D000140E0900F5CFDEFFE806FBE2000E000178
:1002E000A96F13D0A951010D9A0EF324D96E000EF7
:1002F000F420DA6EA951010D6C0EF324E16E030EA9
:10030000F420E26EDFCFE7FFA92BA951010D9A0E71
:10031000F324D96E000EF420DA6EDF50D8A4E2D7B1
:10032000020128AF27D02729FF0E2859D8B022D0A4
:10033000000E0001A96F13D0A951010D8A0EF324FC
:10034000D96E000EF420DA6EA951010D800EF3244F
:10035000E16E030EF420E26EDFCFE7FFA92BA95177
:10036000010D8A0EF324D96E000EF420DA6EDF50F0
:10037000D8A4E2D7000E0001A96F13D0A951010D36
:10038000600EF324D96E000EF420DA6EA951010D2F
:10039000940EF324E16E030EF420E26EDFCFE7FF4C
:1003A000A92BA951010D600EF324D96E000EF42083
:1003B000DA6EDF50D8A4E2D7000EA96F13D0A9518E
:1003C000010D750EF324D96E000EF420DA6EA951DA
:1003D000010DA80EF324E16E030EF420E26EDFCFD0
:1003E000E7FFA92BA951010D750EF324D96E000E5C
:1003F000F420DA6EDF50D8A4E2D7020105A105D0BF
:100400006E0E03019C6F200E9D6F020105A305D0A7
:100410006E0E0301A66F200EA76F020105A505D081
:100420006E0E0301B06F200EB16F020105A71ED042
:100430006E0E0301BA6F200EBB6F18D02D0E030194
:10044000946F3E0E956F12002D0E03019E6F3E0EAF
:100450009F6F12002D0E0301A86F3E0EA96F1200B0
:100460002D0E0301B26F3E0EB36F12000001A851B2
:10047000310AD8B4E3D7030AD8B4E6D7010AD8B40E
:10048000E9D7070AD8A41200EBD7000E0001856F48
:10049000000E846F020E855DD8B011D0000E842549
:1004A000D96E080E8521DA6E84C060F085C061F0D7
:1004B00016ECA6F0DF6E0001844B852BEBD7000E07
:1004C000806F000E7F6F000E816F080E826F54ECFC
:1004D000BBF0000E0001856F000E846F020E855D7B
:1004E000D8B011D0000E8425D96E080E8521DA6EA1
:1004F00084C060F085C061F09DEC7CF0DF6E00018F
:10050000844B852BEBD7000E806F010E7F6F000EA2
:10051000816F080E826F54ECBBF0000E0001856FF6
:10052000000E846F020E855DD8B011D0000E8425B8
:10053000D96E080E8521DA6E84C060F085C061F046
:1005400017ECBDF0DF6E0001844B852BEBD7000E5E
:10055000806F020E7F6F000E816F080E826F54EC69
:10056000BBF0000E0001856F000E846F020E855DEA
:10057000D8B00BD0000E8425D96E080E8521DA6E16
:10058000000EDF6E844B852BF1D7000E856F030EB6
:10059000846F855112E1220E845DD8B00ED084C0E4
:1005A0007FF085C080F0000E816F080E826F54ECE2
:1005B000BBF00001844B852BECD7000E856F000E3D
:1005C000846F020E855DD8B011D0000E8425D96EDF
:1005D000080E8521DA6E84C060F085C061F00BECF6
:1005E0008BF0DF6E0001844B852BEBD7000E806F04
:1005F000220E7F6F000E816F080E826F54ECBBF0ED
:10060000000E0001856F000E846F020E855DD8B06C
:100610000BD0000E8425D96E080E8521DA6E000EEF
:10062000DF6E844B852BF1D7000E856F230E846F10
:10063000855112E1260E845DD8B00ED084C07FF0C3
:1006400085C080F0000E816F080E826F54ECBBF005
:100650000001844B852BECD7000E856F000E846F54
:10066000020E855DD8B011D0000E8425D96E080E1B
:100670008521DA6E84C060F085C061F0D0ECC4F0F2
:10068000DF6E0001844B852BEBD7000E806F260EAA
:100690007F6F000E816F080E826F54ECBBF0000E6E
:1006A0001200830E0001706F000E716F78C072F03F
:1006B00079C073F0000E756F0A0E746FE0ECC0F035
:1006C000830E0001606F000E616FA5ECC1F00001A8
:1006D00060518D6F79AF54D08D5100087A25020F8B
:1006E0008E6F8E51800A7F0FD8A090D07AC08FF085
:1006F0008F29D8B442D08F518EBF04D0FF0A8E25E7
:10070000D8B02AD08EC07DF07E6B7DBF7E077D1F66
:100710007E1F7D4B7E2B8F517F6F806B7D517F279E
:100720007E518023010E7F27000E8023830E7F25BC
:10073000D96E000E8021DA6E8F51816F826B010EAF
:100740008127000E8223830E8125E16E000E822117
:10075000E26EDFCFE7FF0FD08F517D6F7E6B010E12
:100760007D27000E7E23830E7D25D96E000E7E210F
:10077000DA6E300EDF6E8F07BBD77A51020F45D08D
:100780008D5100087A257D6F7D298E6F8E51800AEC
:100790007F0FD8A03BD07AC08FF08F29D8B434D047
:1007A0008F518EBF04D0FF0A8E25D8B021D08EC0C5
:1007B0007DF07E6B7DBF7E077D1F7E1F7D4B7E2B78
:1007C0008F517F6F806B7D517F277E518023830EF9
:1007D0007F25D96E000E8021DA6E8F51010D830EB8
:1007E000F324E16E000EF420E26EDFCFE7FF0AD0C3
:1007F0008F51010D830EF324D96E000EF420DA6EB2
:10080000300EDF6E8F07C9D77A298D6F7A510008B5
:100810008D257D6F7D057A6F000E8F6F23D08F51F0
:10082000010D830EF324D96E000EF420DA6E8F5181
:10083000010DF3507B25E16EF4507C21E26EDFCF99
:10084000E7FF7A518F19D8A40CD08F2B8F51010D4F
:10085000F3507B25D96EF4507C21DA6E2E0EDF6EBC
:100860001ED08F2B8D518F5DD8B019D0D8D78F5116
:10087000010D830EF324D96E000EF420DA6E8F5131
:100880007D6F7E6B010E7D27000E7E237D517B25C3
:10089000E16E7E517C21E26EDFCFE7FF8F2B8D5121
:1008A0008F5DD8B01200E3D7DBC0D9FFDCC0DAFF20
:1008B000500EDE18D8A415D0000120EE06F0DB5152
:1008C000D926DC51DA224C0EDE18D8A40AD020EE4C
:1008D00007F0DB51D926DC51DA22EA0EDE18D8B453
:1008E00002D0080E1200000120EE01F0DB51D926E3
:1008F000DC51DA22DF50E36F20EE02F0DB51D92623
:10090000DC51DA22DF50E16FE151E46FE56BE66B19
:10091000E76BE6C0E7F0E5C0E6F0E4C0E5F0E46BC5
:1009200020EE03F0DB51D926DC51DA22DF50E16FF3
:10093000E151E413E6C0E7F0E5C0E6F0E4C0E5F01D
:10094000E46B20EE04F0DB51D926DC51DA22DF50D3
:10095000E16FE151E413E6C0E7F0E5C0E6F0E4C082
:10096000E5F0E46B20EE05F0DB51D926DC51DA220C
:10097000DF50E16FE151E413E4C0ACF0E5C0ADF04D
:10098000E6C0AEF0E7C0AFF0E351DEEC9DF0000151
:10099000E26FDFC0D9FFE0C0DAFFDF50D8B485D006
:1009A000DFC0D9FFE0C0DAFF3A0EDF607ED0DFC0E3
:1009B000D9FFE0C0DAFFDFCFE1F0010EDF26E15121
:1009C000010DF350DD25D96EF450DE21DA6E500EA4
:1009D000DF6EDFC0D9FFE0C0DAFFDFCFE1F0010E4C
:1009E000DF26E151010DF350DD25D96EF450DE21F3
:1009F000DA6EE3C0DFFFDFC0D9FFE0C0DAFFDFCF90
:100A0000E1F0010EDF26E151010DF350DD25D96E35
:100A1000F450DE21DA6EE751DF6EDFC0D9FFE0C0AF
:100A2000DAFFDFCFE1F0010EDF26E151010DF350D7
:100A3000DD25D96EF450DE21DA6EE6C0DFFFDFC0BF
:100A4000D9FFE0C0DAFFDFCFE1F0010EDF26E15190
:100A5000010DF350DD25D96EF450DE21DA6EE5513B
:100A6000DF6EDFC0D9FFE0C0DAFFDFCFE1F0010EBB
:100A7000DF26E151010DF350DD25D96EF450DE2162
:100A8000DA6EE4C0DFFFDFC0D9FFE0C0DAFFDFCFFE
:100A9000E1F0010EDF26E151010DF350DD25D96EA5
:100AA000F450DE21DA6EE2C0DFFF080E120002C150
:100AB000D9FF03C1DAFF820EDF6E010120EE01F0E3
:100AC0000051D9260151DA2210EE03F00251E1263D
:100AD0000351E222DFCFE7FF20EE02F00051D926DA
:100AE0000151DA2210EE04F00251E1260351E22214
:100AF000DFCFE7FF20EE03F00051D9260151DA22C3
:100B000010EE05F00251E1260351E222DFCFE7FFAC
:100B100020EE04F00051D9260151DA2210EE06F041
:100B20000251E1260351E222DFCFE7FF20EE05F07C
:100B30000051D9260151DA2210EE07F00251E126C8
:100B40000351E222DFCFE7FF20EE02F00051D92669
:100B50000151DA22DF50046F0451106F116B126BD8
:100B6000136B12C113F111C112F110C111F1106B0D
:100B700020EE03F00051D9260151DA22DF50046F34
:100B80000451101312C113F111C112F110C111F16E
:100B9000106B20EE04F00051D9260151DA22DF500B
:100BA000046F0451101312C113F111C112F110C1DD
:100BB00011F1106B20EE05F00051D9260151DA2217
:100BC000DF50046F0451101320EE01F00051D926BC
:100BD0000151DA22DF50FCECB6F095C008F196C066
:100BE00009F197C00AF198C00BF110C104F111C1CD
:100BF00005F112C106F113C107F10101041F051F20
:100C0000061F071F042B000E052306230723085188
:100C100004250C6F095105210D6F0A5106210E6F35
:100C20000B5107210F6F0F510E110D1104E1370EFB
:100C30000C5DD8A008D0360E0C6F000E0D6F000EA4
:100C40000E6F000E0F6F20EE08F00251D9260351EF
:100C5000DA220CC1DFFF10C1C9F011C1CAF012C104
:100C6000CBF013C1CCF00CC1CDF00DC1CEF00EC154
:100C7000CFF00FC1D0F00A0E02250001D16F000E97
:100C8000010103210001D26F010120EE01F00051AA
:100C9000D9260151DA22DF503EECA1F00101046FA8
:100CA00020EE09F00251D9260351DA2204C1DFFFF8
:100CB0001200900EF66EC10EF76E000EF86E20EE6A
:100CC0007CF0120E0900F5CFDEFFE806FBE2190EFC
:100CD000F66EC30EF76E000EF86E20EE9EF0080E54
:100CE0000900F5CFDEFFE806FBE2460EF66EC30E06
:100CF000F76E000EF86E0800F5CFA7F06E0EF66ED8
:100D0000C20EF76E000EF86E20EE8FF00E0E090088
:100D1000F5CFDEFFE806FBE2000E0001A86F13D05E
:100D2000A851010D7C0EF324D96E000EF420DA6E6A
:100D3000A851010D6C0EF324E16E030EF420E26E57
:100D4000DFCFE7FFA82BA851010D7C0EF324D96E4D
:100D5000000EF420DA6EDF50D8A4E2D7000EA86FA0
:100D600013D0A851010D9E0EF324D96E000EF4206D
:100D7000DA6EA851010D800EF324E16E030EF4200B
:100D8000E26EDFCFE7FFA82BA851010D9E0EF324E2
:100D9000D96E000EF420DA6EDF50D8A4E2D7000E30
:100DA000796F000E786FA851010D800EF3247A6FD1
:100DB000030EF4207B6F7BECADF00001A827A85157
:100DC000010D800EF324D96E030EF420DA6E2E0E80
:100DD000DF6EA82B000E796F010E786FA851010D00
:100DE000800EF3247A6F030EF4207B6F7BECADF062
:100DF0000001A827A851010D800EF324D96E030E1F
:100E0000F420DA6E2E0EDF6EA82B000E796F000E26
:100E1000786FA851010D800EF3247A6F030EF42031
:100E20007B6F7BECADF00001A827000EA86F13D0FC
:100E3000A851010DA70EF324D96E000EF420DA6E2E
:100E4000A851010D940EF324E16E030EF420E26E1E
:100E5000DFCFE7FFA82BA851010DA70EF324D96E11
:100E6000000EF420DA6EDF50D8A4E2D7000EA86F8F
:100E700013D0A851010D8F0EF324D96E000EF4206B
:100E8000DA6EA851010DA80EF324E16E030EF420D2
:100E9000E26EDFCFE7FFA82BA851010D8F0EF324E0
:100EA000D96E000EF420DA6EDF50D8B41200E1D70C
:100EB000DED059C2E7F15AC2E6F15BC2E5F15CC28D
:100EC000E4F15EC210F05FC20FF00F500001956FA9
:100ED0001050966F976B986B090ED8909537963790
:100EE00097379837E82EF9D795C06AF096C06BF01F
:100EF00097C06CF098C06DF056EC9FF00009D8A434
:100F0000C8D0010E0101F66F0F501010D8A402D006
:100F1000000E4AD00F06D8A01006020EF66F115030
:100F20001210D8B406D011C0D9FF12C0DAFFDFBE4C
:100F3000B0D0E9C28BF0EAC28CF0E4C18DF0E5C11B
:100F40008EF0E6C18FF0E7C190F0000E0001916FC6
:100F5000060E926F22EEE0F001D80AD00500FA6E7C
:100F6000DE50FD6EDE50FE6EDE50FF6EFA50120057
:100F7000E806D8B41BD0640E0101F56102D0F52B50
:100F800088D0020E0D018C6F02016951F00B03092C
:100F9000696F000E736F000E746F010E0001606FB9
:100FA000020E52EC9AF060D0F66F73D0010E010180
:100FB000E427000EE523E623E723000E0D01886FEA
:100FC000020E896F000E8A6F000E8B6F000E0201F9
:100FD000C56F060EC66F030E0101F66F0D01885135
:100FE00089118A118B11D8A402D0010E3ED0040EB3
:100FF0000101F66F11501210D8B406D011C0D9FFFC
:1010000012C0DAFFDFBE45D0010E0001606FC5C21D
:1010100061F0C6C262F0400E636F020ED7EC9AF028
:1010200060C011F061C012F0030E0101F66F400EB6
:101030000201505F000E515B525B535B400E0D018D
:10104000885F000E895B8A5B8B5B400E0201C527BF
:10105000000EC6231ED0020E0D018C6F010E000182
:10106000606F020E52EC9AF0000E01019DD7010153
:10107000F651000AD8B41DD7010AD8B445D7030ADF
:10108000D8B44DD7010AD8B4A9D7070AD8B4B2D773
:10109000E2D70101F6511200EB0EF66EC10EF76EAB
:1010A000000EF86E20EE90F0110E0900F5CFDEFF75
:1010B000E806FBE2D90EF66EC10EF76E000EF86E72
:1010C00020EEA2F0110E0900F5CFDEFFE806FBE2EC
:1010D000410EF66EC30EF76E000EF86E0900F5CFE6
:1010E000C2F00900F5CFC3F00A00F5CFC4F0A70E97
:1010F000F66EC20EF76E000EF86E20EEB4F00D0E16
:101100000900F5CFDEFFE806FBE2000E0001C56F27
:1011100013D0C551010D900EF324D96E000EF420AA
:10112000DA6EC551010D6C0EF324E16E030EF4204E
:10113000E26EDFCFE7FFC52BC551010D900EF32402
:10114000D96E000EF420DA6EDF50D8A4E2D7000E7C
:10115000C56F13D0C551010DA20EF324D96E000E38
:10116000F420DA6EC551010D800EF324E16E030EFA
:10117000F420E26EDFCFE7FFC52BC551010DA20EB3
:10118000F324D96E000EF420DA6EDF50D8A4E2D733
:10119000000EC56F13D0C551010DC20EF324D96ED8
:1011A000000EF420DA6EC551010D940EF324E16EA9
:1011B000030EF420E26EDFCFE7FFC52BC551010D12
:1011C000C20EF324D96E000EF420DA6EDF50D8A4DC
:1011D000E2D712C278F013C279F0030E7A6F970E3D
:1011E0007B6F030E7C6F51EC83F027C278F028C22E
:1011F00079F0030E00017A6F9F0E7B6F030E7C6FF8
:1012000051EC83F0000E0001C56F13D0C551010DE4
:10121000B40EF324D96E000EF420DA6EC551010D20
:10122000A80EF324E16E030EF420E26EDFCFE7FF99
:10123000C52BC551010DB40EF324D96E000EF42058
:10124000DA6EDF50D8A4E2D71DC278F01EC279F062
:10125000030E00017A6FAB0E7B6F030E7C6F51ECB7
:1012600083F032C278F033C279F0030E00017A6F56
:10127000B30E7B6F030E7C6F51EC83F01200000104
:1012800020EE01F06351D9266451DA22DF50696FF4
:1012900069390F0B6E6F20EE01F06351D92664514E
:1012A000DA22DF500F0B6B6F20EE02F06351D9266C
:1012B0006451DA22DF50696F69516C6F6D6B6C514C
:1012C0006D6F6C6B20EE03F06351D9266451DA2206
:1012D000DF50696F69516C1320EE04F06351D92619
:1012E0006451DA22DF506A6F30D06E510C0D050E5A
:1012F000F326000EF422180EF324D96E030EF42008
:10130000DA6E6CC0DEFF6DC0DDFF43D06E510C0D98
:10131000070EF326000EF422180EF324D96E030EE6
:10132000F420DA6E6CC0DEFF6DC0DDFF6E510C0D77
:10133000090EF326000EF422180EF324D96E030EC4
:10134000F420DA6E6AC0DFFF24D06B51000AD8B4F3
:10135000CCD7010AD8B4DAD71CD0020EB5ECBFF056
:101360002FD0030EB5ECBFF02BD0040EB5ECBFF0C0
:1013700027D0050EB5ECBFF023D0060EB5ECBFF0BC
:101380001FD0070EB5ECBFF01BD0080EB5ECBFF0B8
:1013900017D000016E51000AD8B4DFD7010AD8B4C3
:1013A000E0D7030AD8B4E1D7010AD8B4E2D7070AD4
:1013B000D8B4E3D7010AD8B4E4D7030AD8B4E5D740
:1013C00067C0D9FF68C0DAFFDF50D8B43ED067C02D
:1013D000D9FF68C0DAFF3E0EDF6037D067C0D9FFA3
:1013E00068C0DAFFDFCF69F0010EDF260001695126
:1013F000010DF3506525D96EF4506621DA6E600E4A
:10140000DF6E67C0D9FF68C0DAFFDFCF69F0010E79
:10141000DF266951010DF3506525D96EF450662120
:10142000DA6E6EC0DFFF67C0D9FF68C0DAFFDFCFBA
:1014300069F0010EDF266951010DF3506525D96E63
:10144000F4506621DA6E6BC0DFFF050E1200DF0E6E
:10145000F66EC00EF76E000EF86E20EE90F0130ED2
:101460000900F5CFDEFFE806FBE2F10EF66EC20ED4
:10147000F76E000EF86E20EEBCF00A0E0900F5CFF4
:10148000DEFFE806FBE2C10EF66EC20EF76E000E3E
:10149000F86E20EEA4F00B0E0900F5CFDEFFE80693
:1014A000FBE2B50EF66EC20EF76E000EF86E20EE81
:1014B000B0F00B0E0900F5CFDEFFE806FBE2000EF0
:1014C0000001C76F13D0C751010D900EF324D96EE0
:1014D000000EF420DA6EC751010D6C0EF324E16E9C
:1014E000030EF420E26EDFCFE7FFC72BC751010DDB
:1014F000900EF324D96E000EF420DA6EDF50D8A4DB
:10150000E2D7000EC76F13D0C751010DBC0EF324F4
:10151000D96E000EF420DA6EC751010D800EF3244F
:10152000E16E030EF420E26EDFCFE7FFC72BC75159
:10153000010DBC0EF324D96E000EF420DA6EDF50DC
:10154000D8A4E2D736C278F037C279F0020E7A6FAB
:101550008C0E7B6F030E7C6F51EC83F0000E00014C
:10156000C76F13D0C751010DA40EF324D96E000E1E
:10157000F420DA6EC751010D940EF324E16E030ED0
:10158000F420E26EDFCFE7FFC72BC751010DA40E99
:10159000F324D96E000EF420DA6EDF50D8A4E2D71F
:1015A0003AC278F03BC279F0020E7A6FA00E7B6FE0
:1015B000030E7C6F51EC83F0000E0001C76F13D057
:1015C000C751010DB00EF324D96E000EF420DA6E6F
:1015D000C751010DA80EF324E16E030EF420E26E54
:1015E000DFCFE7FFC72BC751010DB00EF324D96E33
:1015F000000EF420DA6EDF50D8A4E2D73EC278F0B5
:101600003FC279F0020E7A6FB40E7B6F030E7C6FCF
:1016100051EC83F01200000161511DE1200E605D6C
:10162000D8B019D0615110E10B0E605DD8B00CD06C
:101630006F0E6025F66EC40E6121F76EF86A000E1B
:10164000F8220800F55012000B0E60196111D8A4A1
:1016500002D0080E1200615103E1400E605DD8B067
:10166000A4D0200E605F000E615B615110E1080E96
:10167000605DD8B00CD07B0E6025F66EC40E612183
:10168000F76EF86A000EF8220800F550120061515A
:1016900046E10B0E605DD8B042D0F80E626FFF0ECF
:1016A000636F60C064F061C065F06251642763518C
:1016B00065238D0E6425F66EC40E6521F76EF86AFB
:1016C000000EF8220800F5501200200E1200060E3F
:1016D0001200280E1200780E1200DE0E1200380ED4
:1016E00012005F0E12004B0E1200000E1200000ED0
:1016F0001200040E1200770E1200DE0E1200380ED9
:101700001200020E1200000E12000C0E1200000E4B
:101710001200000E1200000E1200000E120060C037
:1017200062F061C063F06351000AD8A4F6D7625139
:101730000B0AD8B4CAD7060AD8B4C9D7030AD8B492
:10174000C8D7010AD8B4C7D71F0AD8B4C6D7010A68
:10175000D8B4C5D7030AD8B4C4D7010AD8B4C3D7FC
:10176000070AD8B4C2D7010AD8B4C1D7030AD8B47B
:10177000C0D7010AD8B4BFD70F0AD8B4BED7010A60
:10178000D8B4BDD7030AD8B4BCD7010AD8B4BBD7E4
:10179000070AD8B4BAD7010AD8B4B9D7030AD8B45B
:1017A000B8D7010AD8B4B7D7B8D7000E1200070EC1
:1017B000F66EC10EF76E000EF86E20EE60F0130E9E
:1017C0000900F5CFDEFFE806FBE23E0EF66EC20E24
:1017D000F76E000EF86E20EE85F00F0E0900F5CFC3
:1017E000DEFFE806FBE22E0EF66EC20EF76E000E6E
:1017F000F86E20EE95F00F0E0900F5CFDEFFE8063B
:10180000FBE2FD0EF66EC10EF76E000EF86E20EED6
:1018100074F0100E0900F5CFDEFFE806FBE2000EC3
:101820000001A56F13D0A551010D600EF324D96EF0
:10183000000EF420DA6EA551010D6C0EF324E16E5A
:10184000030EF420E26EDFCFE7FFA52BA551010DBB
:10185000600EF324D96E000EF420DA6EDF50D8A4A7
:10186000E2D7020128BF06D0E00E275D2E0E2859D0
:10187000D8B022D0000E0001A56F13D0A551010DE4
:10188000850EF324D96E000EF420DA6EA551010DF9
:10189000940EF324E16E030EF420E26EDFCFE7FF37
:1018A000A52BA551010D850EF324D96E000EF42051
:1018B000DA6EDF50D8A4E2D7000E0001A56F8CB617
:1018C00014D032D0A551010D950EF324D96E000E1F
:1018D000F420DA6EA551010DA80EF324E16E030E7B
:1018E000F420E26EDFCFE7FFA52BA551010D950E89
:1018F000F324D96E000EF420DA6EDF50D8B4120053
:10190000E1D7A551010D740EF324D96E000EF42019
:10191000DA6EA551010DA80EF324E16E030EF4203A
:10192000E26EDFCFE7FFA52BA551010D740EF32466
:10193000D96E000EF420DA6EDF50D8B41200E1D771
:10194000B3C0D9FFB4C0DAFF570EDE18D8A415D043
:10195000000120EE04F0B351D926B451DA221B0E57
:10196000DE18D8A40AD020EE05F0B351D926B45120
:10197000DA22350EDE18D8B402D0060E12000001AD
:1019800020EE01F0B351D926B451DA22DF50BA6FFC
:1019900020EE02F0B351D926B451DA22DF50B96FEC
:1019A000B951BC6FBD6BBC51BD6FBC6B20EE03F079
:1019B000B351D926B451DA22DF50B96FB951BC13F3
:1019C000BCC0A2F0BDC0A3F020EE01F0B351D926F7
:1019D000B451DA22DF5000ECACF00001BB6FB7C0AD
:1019E000D9FFB8C0DAFFDF50D8B461D0B7C0D9FF93
:1019F000B8C0DAFF3C0EDF605AD0B7C0D9FFB8C01C
:101A0000DAFFDFCFB9F0010EDF26B951010DF35037
:101A1000B525D96EF450B621DA6E570EDF6EB7C019
:101A2000D9FFB8C0DAFFDFCFB9F0010EDF26B95118
:101A3000010DF350B525D96EF450B621DA6EBAC057
:101A4000DFFFB7C0D9FFB8C0DAFFDFCFB9F0010EB2
:101A5000DF26B951010DF350B525D96EF450B621EA
:101A6000DA6EBD51DF6EB7C0D9FFB8C0DAFFDFCF85
:101A7000B9F0010EDF26B951010DF350B525D96E2D
:101A8000F450B621DA6EBCC0DFFFB7C0D9FFB8C0D2
:101A9000DAFFDFCFB9F0010EDF26B951010DF350A7
:101AA000B525D96EF450B621DA6EBBC0DFFF060E45
:101AB0001200000E01010E6F0E0E0B6F010E0C6F67
:101AC00006C1D9FF07C1DAFF7F0EDF6401D0120023
