:0400000043EF00F0DA
:100008005B82FACF4DF0FBCF4EF0E9CF4FF0EACF4D
:1000180050F0E1CF51F0E2CF52F0D9CF53F0DACF20
:1000280054F0F3CF55F0F4CF56F0F6CF57F0F7CFA2
:1000380058F0F8CF59F0F5CF5AF0ABEC25F00BECAF
:100048003BF05AC0F5FF59C0F8FF58C0F7FF57C03A
:10005800F6FF56C0F4FF55C0F3FF54C0DAFF53C093
:10006800D9FF52C0E2FF51C0E1FF50C0EAFF4FC0C4
:10007800E9FF4EC0FBFF4DC0FAFF5B921100F3EFA2
:100088003BF00101CB6F090EF66EFE0EF76E21EE06
:1000980080F00D0E0900F5CFDEFFE806FBE2800ECA
:1000A800F66EFE0EF76E21EEBAF0080E0900F5CFD7
:1000B800DEFFE806FBE2760EF66EFE0EF76E21EE28
:1000C800A6F0090E0900F5CFDEFFE806FBE2910E67
:1000D800F66EFE0EF76E21EEC3F0070E0900F5CF9F
:1000E800DEFFE806FBE26C0EF66EFE0EF76E21EE02
:1000F800B0F0090E0900F5CFDEFFE806FBE2550E69
:10010800F66EFE0EF76E21EE8EF00B0E0900F5CF9F
:10011800DEFFE806FBE2490EF66EFE0EF76E21EEF4
:100128009AF00B0E0900F5CFDEFFE806FBE2D50ECC
:10013800F66EFC0EF76E21EE00F0130E0900F5CFF7
:10014800DEFFE806FBE2460EF66EFD0EF76E21EEC8
:100158003CF0110E0900F5CFDEFFE806FBE2DD0EEC
:10016800F66EFD0EF76E21EE60F00F0E0900F5CF6A
:10017800DEFFE806FBE2340EF66EFD0EF76E21EEAA
:100188004EF0110E0900F5CFDEFFE806FBE2C10EC6
:10019800F66EFC0EF76E21EE14F0130E0900F5CF83
:1001A800DEFFE806FBE2AD0EF66EFC0EF76E21EE02
:1001B80028F0130E0900F5CFDEFFE806FBE2CD0EAE
:1001C800F66EFD0EF76E21EE70F00F0E0900F5CFFA
:1001D800DEFFE806FBE249EC4CF00101CC6F5BEC7A
:1001E8004CF00101CD6F76EC4CF00101CE6F6DEC57
:1001F8004CF00101CF6F64EC4CF00101D06F52EC70
:100208004CF00101D16F1BD2000E0101D26F16D044
:100218000101D251010D800EF324D96E010EF42094
:10022800DA6E0101D251010D780EF324E16E020E4F
:10023800F420E26EDFCFE7FF0101D22B0101D2519A
:10024800010D800EF324D96E010EF420DA6EDF5012
:10025800D8A4DED7000E0101D26F16D00101D25109
:10026800010D000EF324D96E010EF420DA6E01019F
:10027800D251010DB40EF324E16E020EF420E26EA9
:10028800DFCFE7FF0101D22B0101D251010D000E92
:10029800F324D96E010EF420DA6EDF50D8B4E6D11B
:1002A800DDD7000E0101D26F16D00101D251010D28
:1002B800BA0EF324D96E010EF420DA6E0101D25180
:1002C800010D780EF324E16E020EF420E26EDFCF0A
:1002D800E7FF0101D22B0101D251010DBA0EF3241F
:1002E800D96E010EF420DA6EDF50D8A4DED7000EE6
:1002F8000101D26F16D00101D251010D3C0EF32439
:10030800D96E010EF420DA6E0101D251010DB40E3E
:10031800F324E16E020EF420E26EDFCFE7FF010165
:10032800D22B0101D251010D3C0EF324D96E010EDE
:10033800F420DA6EDF50D8B499D1DDD7000E010170
:10034800D26F16D00101D251010DA60EF324D96E39
:10035800010EF420DA6E0101D251010D780EF3245A
:10036800E16E020EF420E26EDFCFE7FF0101D22B2F
:100378000101D251010DA60EF324D96E010EF4200D
:10038800DA6EDF50D8A4DED7000E0101D26F16D086
:100398000101D251010D600EF324D96E010EF42033
:1003A800DA6E0101D251010DB40EF324E16E020E92
:1003B800F420E26EDFCFE7FF0101D22B0101D25119
:1003C800010D600EF324D96E010EF420DA6EDF50B1
:1003D800D8B44CD1DDD7000E0101D26F16D001017F
:1003E800D251010DC30EF324D96E010EF420DA6E3A
:1003F8000101D251010D780EF324E16E020EF420B2
:10040800E26EDFCFE7FF0101D22B0101D251010DCE
:10041800C30EF324D96E010EF420DA6EDF50D8A48F
:10042800DED7000E0101D26F16D00101D251010DA5
:100438004E0EF324D96E010EF420DA6E0101D2516A
:10044800010DB40EF324E16E020EF420E26EDFCF4C
:10045800E7FF0101D22B0101D251010D4E0EF32409
:10046800D96E010EF420DA6EDF50D8B4FFD0DDD794
:10047800000E0101D26F16D00101D251010DB00E4C
:10048800F324D96E010EF420DA6E0101D251010D68
:10049800780EF324E16E020EF420E26EDFCFE7FF60
:1004A8000101D22B0101D251010DB00EF324D96EF6
:1004B800010EF420DA6EDF50D8A4DED7000E010159
:1004C800D26F16D00101D251010D140EF324D96E4A
:1004D800010EF420DA6E0101D251010DB40EF3249D
:1004E800E16E020EF420E26EDFCFE7FF0101D22BAE
:1004F8000101D251010D140EF324D96E010EF4201E
:10050800DA6EDF50D8B4B2D0DDD7000E0101D26F59
:1005180016D00101D251010D8E0EF324D96E010EB1
:10052800F420DA6E0101D251010D780EF324E16E48
:10053800020EF420E26EDFCFE7FF0101D22B0101AA
:10054800D251010D8E0EF324D96E010EF420DA6E0D
:10055800DF50D8A4DED7000E0101D26F16D00101FA
:10056800D251010D280EF324D96E010EF420DA6E53
:100578000101D251010DB40EF324E16E020EF420F4
:10058800E26EDFCFE7FF0101D22B0101D251010D4D
:10059800280EF324D96E010EF420DA6EDF50D8B499
:1005A80065D0DDD7000E0101D26F16D00101D251FE
:1005B800010D9A0EF324D96E010EF420DA6E0101B2
:1005C800D251010D780EF324E16E020EF420E26E92
:1005D800DFCFE7FF0101D22B0101D251010D9A0EA5
:1005E800F324D96E010EF420DA6EDF50D8A4DED7DA
:1005F800000E0101D26F16D00101D251010D700E0B
:10060800F324D96E010EF420DA6E0101D251010DE6
:10061800B40EF324E16E020EF420E26EDFCFE7FFA2
:100628000101D22B0101D251010D700EF324D96EB4
:10063800010EF420DA6EDF50D8B418D0DDD70101EE
:10064800CB51100AD8B4E0D5010AD8B42AD6030A87
:10065800D8B474D6010AD8B4BED6070AD8B408D715
:10066800010AD8B452D7030AD8B49CD7320E020173
:100678008C6F300E02018D6F0101CC390F0B300FDA
:1006880002018E6F0101CC510F0B300F02018F6FE9
:100698002D0E0201906F0101CD390F0B300F0201B1
:1006A800916F0101CD510F0B300F0201926F2D0E8A
:1006B8000201936F0101CE390F0B300F0201946FC5
:1006C8000101CE510F0B300F0201956F0101CF3997
:1006D8000F0B300F0201A06F0101CF510F0B300F2C
:1006E8000201A16F3A0E0201A26F0101D0390F0B6E
:1006F800300F0201A36F0101D0510F0B300F02011F
:10070800A46F3A0E0201A56F0101D1390F0B300F0A
:100718000201A66F0101D1510F0B300F0201A76F23
:1007280012005CD202010851300B300AD8A4120022
:100738000C0E0001766FFE0E0001776F22EE12F0AC
:10074800DECF78F0DDCF79F000017651000178270F
:100758000001775100017923000178510201275DDA
:1007680002012851800A00017A6F00017951800A3C
:1007780000017A59D8B012008A82010E196E000E53
:1007880002011E6F000E1D6F000E0201336F000E76
:10079800326F000E00017D6F030E00017D6501D0F0
:1007A800120000017D51020D140EF324D96E020EC1
:1007B800F420DA6E000EDE6E000EDD6E00017D5153
:1007C800020D290EF324D96E020EF420DA6E000E03
:1007D800DE6E000EDD6E00017D2BDED702010851B2
:1007E800300B300AD8A41200000E02011C6F000E54
:1007F8000201316F000E00017D6F030E00017D655F
:1008080001D01BD000017D51020D140EF324D96EC6
:10081800020EF420DA6EDF5002011C2700017D5120
:10082800020D290EF324D96E020EF420DA6EDF5081
:100838000201312700017D2BE0D7010E0001F16F85
:1008480051EC32F000017B6F7BC072F0000E0AECB5
:1008580034F01200020108A9120002012751010117
:10086800FD5D020128510101FE59D8B007D00001F1
:10087800F20536EC3FF00001F169120002011EBFDB
:1008880018D002011E5105E1050E02011D5DD8A018
:1008980010D0020127510201125D02011351800A92
:1008A8000001766F02012851800A00017659D8B0FC
:1008B80005D0C0EC49F0000E196E120022EE27F0A8
:1008C800DECF76F0DDCF77F00001761F771F764B0D
:1008D800772B020112510001762702011351000102
:1008E8007723000177BF08D0E80E0001765D030E7C
:1008F80000017759D8B007D00001F20536EC3FF077
:100908000001F169120002011EBF13D0590E020145
:100918001D5D020E02011E59D8A00BD051EC32F019
:10092800050F00017C6F7CC062F0010E9FEC40F067
:10093800120002010851300B0001EC6F0001EC3B82
:100948000F0EEC170001EC51020D0A0EF324D96EBC
:10095800020EF420DA6EDECFE5F1DDCFE6F101011B
:10096800000EE6BFFF0EE76FE86FE5C160F0E6C175
:1009780061F0E7C162F0E8C163F00001EC51020DDB
:10098800140EF324D96E020EF420DA6EDECF64F072
:10099800DDCF65F00001000E65BFFF0E666F676F63
:1009A80029EC40F060C0E5F161C0E6F162C0E7F112
:1009B80063C0E8F1020E0001EC27030E0001EC17FA
:1009C8000001EC51020D0A0EF324D96E020EF42038
:1009D800DA6EDECFE9F1DDCFEAF10101000EEABF00
:1009E800FF0EEB6FEC6FE9C160F0EAC161F0EBC19B
:1009F80062F0ECC163F00001EC51020D140EF32417
:100A0800D96E020EF420DA6EDECF64F0DDCF65F029
:100A18000001000E65BFFF0E666F676F29EC40F09E
:100A280060C0E9F161C0EAF162C0EBF163C0ECF1CA
:100A3800020113BF0DD0690E0201125D420E0201C0
:100A48001359D8A005D00001F22936EC3FF0120066
:100A58000001F20536EC3FF01200020108A912006D
:100A6800020127510101FD5D020128510101FE59D2
:100A7800D8B007D00001F20536EC3FF00001F1696B
:100A8800120002011EBF08D002011E5110E1C80E5B
:100A980002011D5DD8B00BD00001F251FB0F00011F
:100AA8007C6F7CC062F0000E9FEC40F012000201E7
:100AB8000851300B0001EC6F0001EC3B0F0EEC17F6
:100AC8000001EC51020D0A0EF324D96E020EF42037
:100AD800DA6EDECFE5F1DDCFE6F10101000EE6BF0B
:100AE800FF0EE76FE86FE5C160F0E6C161F0E7C1AE
:100AF80062F0E8C163F00001EC51020D140EF3241A
:100B0800D96E020EF420DA6EDECF64F0DDCF65F028
:100B18000001000E65BFFF0E666F676F29EC40F09D
:100B280060C0E5F161C0E6F162C0E7F163C0E8F1D9
:100B3800020E0001EC27030E0001EC170001EC5136
:100B4800020D0A0EF324D96E020EF420DA6EDECFFF
:100B5800E9F1DDCFEAF10101000EEABFFF0EEB6F0C
:100B6800EC6FE9C160F0EAC161F0EBC162F0ECC181
:100B780063F00001EC51020D140EF324D96E020E3D
:100B8800F420DA6EDECF64F0DDCF65F00001000EF0
:100B980065BFFF0E666F676F29EC40F060C0E9F132
:100BA80061C0EAF162C0EBF163C0ECF1020113BF6E
:100BB8000DD0690E0201125D420E02011359D8A030
:100BC80005D00001F22936EC3FF012000001F205D1
:100BD80036EC3FF01200000E196E12001950000A90
:100BE800D8B4A0D5010AD8B4F9D5030AD8B432D6F6
:100BF800010AD8B432D7EFD7EDD102010651800AE5
:100C08007F0FD8A002D0100E04D0020106AF03D087
:100C1800600E0201406F02010751000E0201066FCB
:100C2800000E0201076F120002010651800A7F0FB1
:100C3800D8A002D0200E04D0020106AF03D0000EC7
:100C48000201406F02010751D8B403D0110E02010E
:100C5800406F000E0201066F000E0201076F1200BE
:100C680002010651800A7F0FD8A003D0ECEC49F0AE
:100C780004D0020106BF55EC4AF002010751D8B46E
:100C880005D023EC4BF0120E0201406F000E02015A
:100C9800066F000E0201076F120002010651800A5A
:100CA8007F0FD8A003D016EC4AF004D0020106BF8B
:100CB8007FEC4AF002010751D8B405D023EC4BF081
:100CC800130E0201406F000E0201066F000E0201B2
:100CD800076F120002010651800A7F0FD8A003D0C7
:100CE80094EC49F004D0020106BFAAEC49F00201D5
:100CF8000751D8B403D0140E0201406F000E020150
:100D0800066F000E0201076F120002010651800AE9
:100D18007F0FD8A003D040EC4AF004D0020106BFF0
:100D2800A9EC4AF002010751D8B403D0150E02010C
:100D3800406F000E0201066F000E0201076F1200DD
:100D480002010651800A7F0FD8A003D02BEC4AF08D
:100D580004D0020106BF94EC4AF002010751D8B44E
:100D680003D0160E0201406F000E0201066F000E3E
:100D78000201076F120002010651800A7F0FD8A0F6
:100D880003D001EC4AF004D0020106BF6AEC4AF035
:100D980002010751D8B405D0100E0201406FF2ECE1
:100DA80045F0000E0201066F000E0201076F1200E7
:100DB80002010651800A7F0FD8A002D0300E04D05D
:100DC800020106AF03D0100E0201406F0201075165
:100DD800D8B410D0020128BF0DD0E10E0201275D62
:100DE8002E0E02012859D8A005D08CA602D08C96C8
:100DF80001D08C86000E0201066F000E0201076FFB
:100E0800120002010651800A7F0FD8A002D0400EBE
:100E180004D0020106AF03D0200E0201406F020188
:100E28000751D8B403D0310E0201406F000E020101
:100E3800066F000E0201076F120002010651800AB8
:100E48007F0FD8A007D0020128BF0AD0010EFCEC02
:100E580046F006D0020106AF03D0010E1BEC46F0A7
:100E680002010751D8B403D0320E0201406F000EC0
:100E78000201066F000E0201076F120002010651FF
:100E8800800A7F0FD8A007D0020128BF0AD0020E1F
:100E9800FCEC46F006D0020106AF03D0020E1BECB4
:100EA80046F002010751D8B403D0330E0201406F57
:100EB800000E0201066F000E0201076F1200020108
:100EC8000651800A7F0FD8A007D0020128BF0AD098
:100ED800040EFCEC46F006D0020106AF03D0040E67
:100EE8001BEC46F002010751D8B403D0340E0201BE
:100EF800406F000E0201066F000E0201076F12001C
:100F080002010651800A7F0FD8A007D0020128BF2E
:100F18000AD0080EFCEC46F006D0020106AF03D05A
:100F2800080E1BEC46F002010751D8B403D0300E6E
:100F38000201406F000E0201066F000E0201076FEA
:100F4800120002010651800A7F0FD8A002D0500E6D
:100F580004D0020106AF03D0300E0201406F020137
:100F68000751000E0201066F000E0201076F120002
:100F780002010651800A7F0FD8A002D0600E04D06B
:100F8800020106AF03D0400E0201406F0201075173
:100F9800000E0201066F000E0201076F1200020127
:100FA8000651800A7F0FD8A002D0000E04D002019B
:100FB80006AF03D0500E0201406F02010751000E28
:100FC8000201066F000E0201076F1200000E0201F7
:100FD800406F120002014051000AD8B40ED6100A20
:100FE800D8B422D6010AD8B43BD6030AD8B455D609
:100FF800010AD8B46FD6070AD8B487D6010AD8B47C
:101008009FD6030AD8B4B7D6360AD8B4D1D6100AB0
:10101800D8B4F7D6010AD8B410D7030AD8B42ED753
:10102800010AD8B44CD7070AD8B46AD7740AD8B416
:1010380088D7100AD8B49CD7300AD8B4B0D7C6D746
:10104800F5D1B1EC1EF00009D8A412000001FA692C
:101058001200ACEC11F00009D8A412000001FA69E2
:1010680012000001F605D8A403D00001FA691200A5
:1010780053C2E6F054C2E5F0E5C06AF0E6C06BF092
:1010880000016C6B6D6B66EC29F00009D8A41200A6
:10109800000E0001616F240E606F49EC35F0000E00
:1010A8000001606F060E0001616F4F0E0001626F54
:1010B800FF0E0001636F000E0001656F240E646F60
:1010C80050EC42F0FD0E0001FA6F1200DBC260F036
:1010D800DCC261F022EECFF001D80AD00500FA6E2A
:1010E800DE50FD6EDE50FE6EF850FF6EFA501200B4
:1010F80060C0A2F061C0A3F062C0A4F063C0A5F014
:10110800DBC260F0DCC261F022EED1F001D80AD077
:101118000500FA6EDE50FD6EDE50FE6EF850FF6E72
:10112800FA501200000160C09EF0000161C09FF0FB
:101138000001A06BA16B26EE00F0A5C0DFFF26EE34
:1011480001F0A4C0DFFF26EE02F0A3C0DFFF26EE09
:1011580003F0A2C0DFFF26EE04F0A1C0DFFF26EEF9
:1011680005F0A0C0DFFF26EE06F09FC0DFFF26EEE9
:1011780007F09EC0DFFF000E0001E66F080EE56F66
:10118800000E0001616F080E606F49EC35F0FD0E2E
:101198000001FA6F12000001F605D8A403D000017F
:1011A800FA691200000E0001E66F120EE56F000EDC
:1011B8000001616F120E606F49EC35F0000E0001FE
:1011C800A66F110E0001A66501D017D00001A65127
:1011D800010DD30EF324D96E010EF420DA6E00014E
:1011E800A651010D000EF324E16E060EF420E26E06
:1011F800DFCFE7FF0001A62BE4D7FD0E0001FA6F51
:101208001200030EE8CF00F6000EE8CF01F6DBC2AD
:1012180060F0DCC261F022EED7F001D80AD00500F8
:10122800FA6EDE50FD6EDE50FE6EF850FF6EFA501C
:1012380012000009D8A405D0000E00019C6F000E12
:1012480004D0000E00019C6F800E9B6F26EE02F00A
:101258009BC0DFFF000EE8CF03F6000E0001E66F2B
:10126800040EE56F000E0001616F040E606F49EC1B
:1012780035F0FD0E0001FA6F12000101D551F00B97
:101288000509D56F200E0101DF6F000E0101E06F27
:10129800010E04018C6F000E0401886F000E896F27
:1012A800000E8A6F000E8B6F0001FA691200000EA3
:1012B80000016A6F000E6B6F000E6C6F000E6D6F91
:1012C80066EC29F00009D8A412000101D5510F0BD2
:1012D800060AD8A407D004018C05D8A403D00001BD
:1012E800FA6912002EEC3EF0000E0401886F000E21
:1012F800896F000E8A6F000E8B6F0001FA69120069
:10130800000E0401886F000E896F000E8A6F000EB0
:101318008B6F0001FA6912000001E7510001E81122
:10132800D8B407D0E7C0D9FFE8C0DAFF0001DFBEB4
:10133800120002014C5102014B1102014A1105E150
:10134800400E0201495DD8A00BD0400E00019D6FF0
:10135800400E0201495F000E4A5B4B5B4C5B0BD0B1
:1013680049C29DF0000E0201496F000E4A6F000E3F
:101378004B6F000E4C6F00019D510001996F9A6BE5
:10138800000199510001E55D00019A510001E659FB
:10139800D8A007D000019D510001E55F000EE65B73
:1013A80022D0000E0001A66F18D00001E5510001FF
:1013B800E611D8B405D00001E507D8A0E6070BD0A0
:1013C8000001A651010D000EF324D96E060EF4207B
:1013D800DA6E000EDF6E0001A62B00019D510001A0
:1013E800A65DD8A0E2D7010E0001606F000E0001D3
:1013F800616F060E0001626F9DC063F0020ECCECB7
:1014080028F060C0E7F061C0E8F00201495102012C
:101418004A1102014B1102014C11D8A4120000011B
:10142800FA6912007F0EFEEC29F012000001FA5151
:10143800000AD8B43CD7030AD8B4ADD6110AD8B438
:1014480010D6080AD8B4DDD6010AD8B459D7050A87
:10145800D8B413D73B0AD8B439D60D0AD8B4F1D5C5
:10146800020AD8B4F6D5050AD8B44AD7D20AD8B4ED
:1014780053D7030AD7D7F1D160C0D9FF61C0DAFFCB
:10148800000EDE6E000EDD6E000120EE02F06051EF
:10149800D9266151DA220B0EDE6E000EDD6E0001D8
:1014A80020EE04F06051D9266151DA22040EDF6E75
:1014B800000120EE05F06051D9266151DA22000EB4
:1014C800DE6E000EDD6E000120EE07F06051D926B9
:1014D8006151DA220B0EDE6E000EDD6E000120EE89
:1014E80009F06051D9266151DA22040EDF6E00013D
:1014F80020EE0AF06051D9266151DA22000EDE6E24
:10150800000EDD6E120060C0D9FF61C0DAFF000E68
:10151800DE6E000EDD6E000120EE02F06051D9266D
:101528006151DA22110EDE6E000EDD6E000120EE32
:1015380004F06051D9266151DA22050EDF6E0001F0
:1015480020EE05F06051D9266151DA22000EDE6ED8
:10155800000EDD6E000120EE07F06051D9266151C2
:10156800DA22110EDE6E000EDD6E000120EE09F0AB
:101578006051D9266151DA22050EDF6E000120EE96
:101588000AF06051D9266151DA22000EDE6E000E93
:10159800DD6E120060C0D9FF61C0DAFF000EDE6E9A
:1015A800000EDD6E000120EE02F06051D926615177
:1015B800DA22DB0EDE6E160EDD6E000120EE04F080
:1015C8006051D9266151DA220F0EDF6E000120EE3C
:1015D80005F06051D9266151DA22000EDE6E000E48
:1015E800DD6E000120EE07F06051D9266151DA2244
:1015F800DB0EDE6E160EDD6E000120EE09F0605186
:10160800D9266151DA220F0EDF6E000120EE0AF0B2
:101618006051D9266151DA22000EDE6E000EDD6EB1
:10162800120060C0D9FF61C0DAFF000EDE6E000E46
:10163800DD6E000120EE02F06051D9266151DA22F8
:10164800DB0EDE6E160EDD6E000120EE04F060513A
:10165800D9266151DA220F0EDF6E000120EE05F067
:101668006051D9266151DA22000EDE6E000EDD6E61
:10167800000120EE07F06051D9266151DA22DB0E15
:10168800DE6E160EDD6E000120EE09F06051D926DF
:101698006151DA220F0EDF6E000120EE0AF0605170
:1016A800D9266151DA22000EDE6E000EDD6E1200C0
:1016B80060C0D9FF61C0DAFF370EDE6ECA0EDD6E7C
:1016C800000120EE02F06051D9266151DA22290E7C
:1016D800DE6ED30EDD6E000120EE04F06051D926D7
:1016E8006151DA220D0EDF6E000120EE05F0605127
:1016F800D9266151DA22370EDE6ECA0EDD6E000180
:1017080020EE07F06051D9266151DA22290EDE6EEB
:10171800D30EDD6E000120EE09F06051D92661512B
:10172800DA220D0EDF6E000120EE0AF06051D92694
:101738006151DA22000EDE6E000EDD6E120060C00E
:10174800D9FF61C0DAFF370EDE6ECA0EDD6E00010A
:1017580020EE02F06051D9266151DA22290EDE6EA0
:10176800D30EDD6E000120EE04F06051D9266151E0
:10177800DA220D0EDF6E000120EE05F06051D92649
:101788006151DA22370EDE6ECA0EDD6E000120EEE0
:1017980007F06051D9266151DA22290EDE6ED30E88
:1017A800DD6E000120EE09F06051D9266151DA2280
:1017B8000D0EDF6E000120EE0AF06051D92661514E
:1017C800DA22000EDE6E000EDD6E120060C0D9FF58
:1017D80061C0DAFF370EDE6ECA0EDD6E000120EE44
:1017E80002F06051D9266151DA22290EDE6ED30E3D
:1017F800DD6E000120EE04F06051D9266151DA2235
:101808000D0EDF6E000120EE05F06051D926615102
:10181800DA22370EDE6ECA0EDD6E000120EE07F00A
:101828006051D9266151DA22290EDE6ED30EDD6EA3
:10183800000120EE09F06051D9266151DA220D0E1F
:10184800DF6E000120EE0AF06051D9266151DA22DC
:10185800000EDE6E000EDD6E120000016251000AFD
:10186800D8B40AD6010AD8B44ED6030AD8B492D648
:10187800010AD8B4D6D6070AD8B41AD7010AD8B4F8
:101888005ED7030AD8A41200A1D7200E2B6001D07E
:10189800120065B212000101F3510101F411D8B42C
:1018A8000CD1F3C1D9FFF4C1DAFF0101DFBE120088
:1018B80004D10001E3510001E411D8B407D0E3C01A
:1018C800D9FFE4C0DAFF0001DFBE11D180EC17F0C8
:1018D800010E0001606F540E0001616F030E0001DC
:1018E800626F400E0001636F010ECCEC28F0E0D06F
:1018F8000001E3510001E411D8B407D0E3C0D9FFD7
:10190800E4C0DAFF0001DFBEF2D0ABEC43F0010E19
:101918000001606F540E0001616F030E0001626FD9
:10192800400E0001636F010ECCEC28F0C1D000011D
:10193800E3510001E411D8B407D0E3C0D9FFE4C0F3
:10194800DAFF0001DFBED3D07AEC43F0010E0001CC
:10195800606F540E0001616F030E0001626F400E4C
:101968000001636F010ECCEC28F0A2D00001E35116
:101978000001E411D8B407D0E3C0D9FFE4C0DAFF0E
:101988000001DFBEB4D06CEC3AF0010E0001606FCC
:10199800540E0001616F030E0001626F400E0001DA
:1019A800636F010ECCEC28F083D00001E3510001F5
:1019B800E411D8B407D0E3C0D9FFE4C0DAFF0001CE
:1019C800DFBE95D074EC3FF0010E0001606F540E3D
:1019D8000001616F030E0001626F400E0001636F2A
:1019E800010ECCEC28F064D08C7481D00001E35156
:1019F8000001E411D8B407D0E3C0D9FFE4C0DAFF8E
:101A08000001DFBE74D0810E0301546F80A002D0A4
:101A1800010E01D0000E0301556F010E0001606F29
:101A2800540E0001616F030E0001626F400E000149
:101A3800636F010ECCEC28F03BD00001E3510001AC
:101A4800E411D8B407D0E3C0D9FFE4C0DAFF00013D
:101A5800DFBE4DD0370E0301546F22EE36F0DECFD5
:101A68008CF0DDCF8DF000018D358D338C33000186
:101A78008D358D338C3300018D358D338C338CC08F
:101A880094F08DC095F094C055F300019551030171
:101A9800566F010E0001606F540E0001616F030E56
:101AA8000001626F400E0001636F010ECCEC28F05C
:101AB80060C0E3F061C0E4F01AD003019451100A49
:101AC800D8B4F7D6010AD8B413D7030AD8B42FD795
:101AD800010AD8B44BD7070AD8B467D7230AD8B4B1
:101AE800ACD7B70AD8B480D7010AD8B47FD7010ECB
:101AF80097D000019651010D940EF324D96E030E70
:101B0800F420DA6EDF50DFEC31F00001962BAAD01A
:101B18000001965100018C6F8D6B010E00018C271E
:101B2800000E8D23940E00018C25D96E030E000142
:101B38008D21DA6EDF500001636F00019651010DAF
:101B4800940EF324D96E030EF420DA6EDF5069EC9C
:101B580031F0020E61D00001965100018C6F8D6B3F
:101B6800010E00018C27000E8D23940E00018C2598
:101B7800D96E030E00018D21DA6EDF500001636F0C
:101B88000001965100018E6F8F6B020E00018E27A7
:101B9800000E8F23940E00018E25D96E030E0001CE
:101BA8008F21DA6EDF500001646F00019651000149
:101BB800906F916B030E00019027000E9123940EF5
:101BC80000019025D96E030E00019121DA6EDF50D5
:101BD8000001656F000196510001926F936B040E2E
:101BE80000019227000E9323940E00019225D96ECE
:101BF800030E00019321DA6EDF500001666F0001C9
:101C08009651010D940EF324D96E030EF420DA6E6A
:101C1800DF5006EC25F0050E0001962723D0410E73
:101C28000001966F1FD000019651010D940EF32408
:101C3800D96E030EF420DA6EDF50F00B00018C6FC2
:101C48008D6B00018D51000AD8A4E9D700018C5191
:101C5800300AD8B44ED7700AD8B45AD7200AD8B4A4
:101C68007AD7DDD73D0E00019665DDD7000E00015D
:101C7800606F940E0001616F030E0001626F400EE9
:101C88000001636F010ECCEC28F060C0F3F161C075
:101C9800F4F11200FC0EF66EFC0EF76E20EE92F0D8
:101CA800120E0900F5CFDEFFE806FBE2E90EF66E3C
:101CB800FC0EF76E20EEA5F0120E0900F5CFDEFF40
:101CC800E806FBE2ED0EF66EFD0EF76E20EEB8F0BC
:101CD8000D0E0900F5CFDEFFE806FBE222EE27F045
:101CE800DECF60F0DDCF61F00001000E61BFFF0EB6
:101CF800626F636F22EE32F0DECF64F0DDCF65F005
:101D08000001000E65BFFF0E666F676F29EC40F09B
:101D180060C0CDF061C0CEF062C0CFF063C0D0F03B
:101D280022EE12F0DECFC9F0DDCFCAF00001000EBE
:101D3800CABFFF0ECB6FCC6FC9C060F0CAC061F0DC
:101D4800CBC062F0CCC063F022EE1DF0DECF64F0B1
:101D5800DDCF65F00001000E65BFFF0E666F676F8F
:101D680029EC40F060C0C9F061C0CAF062C0CBF095
:101D780063C0CCF0C9C060F0CAC061F0CBC062F0EB
:101D8800CCC063F0E80E0001646F030E656F000EAF
:101D9800666F000E676F42EC2CF060C0C9F061C03E
:101DA800CAF062C0CBF063C0CCF022EE27F0DECFE1
:101DB800CDF0DDCFCEF00001000ECEBFFF0ECF6F0D
:101DC800D06FCDC060F0CEC061F0CFC062F0D0C09F
:101DD80063F022EE32F0DECF64F0DDCF65F0000173
:101DE800000E65BFFF0E666F676F29EC40F060C09C
:101DF800CDF061C0CEF062C0CFF063C0D0F0C9C0F2
:101E080064F0CAC065F0CBC066F0CCC067F0CDC046
:101E180060F0CEC061F0CFC062F0D0C063F042EC99
:101E28002CF060C06EF061C06FF062C070F063C0EB
:101E380071F0BCEC3AF06EC0C6F06FC0C7F070C06D
:101E4800C8F0CDC060F0CEC061F0CFC062F0D0C0A5
:101E580063F0E80E0001646F030E656F000E666F95
:101E6800000E676F42EC2CF060C0CDF061C0CEF080
:101E780062C0CFF063C0D0F0000E0001D16F16D061
:101E88000001D151010D920EF324D96E000EF420F9
:101E9800DA6E0001D151010D780EF324E16E020EC5
:101EA800F420E26EDFCFE7FF0001D12B0001D15112
:101EB800010D920EF324D96E000EF420DA6EDF5075
:101EC800D8A4DED7000E0001D16F16D00001D15181
:101ED800010DA50EF324D96E000EF420DA6E000170
:101EE800D151010D8C0EF324E16E020EF420E26E46
:101EF800DFCFE7FF0001D12B0001D151010DA50E65
:101F0800F324D96E000EF420DA6EDF50D8A4DED7A1
:101F1800C9C078F0CAC079F0030E00017A6FA00E2C
:101F280000017B6F020E00017C6FCBEC14F0CDC07A
:101F380078F0CEC079F0030E00017A6FAA0E000186
:101F48007B6F020E00017C6FCBEC14F0000E0001D9
:101F5800D16F16D00001D151010DB80EF324D96EFE
:101F6800000EF420DA6E0001D151010DB40EF324F5
:101F7800E16E020EF420E26EDFCFE7FF0001D12B05
:101F88000001D151010DB80EF324D96E000EF420D2
:101F9800DA6EDF50D8A4DED7C6C060F0C7C061F0E3
:101FA800C8C062F04EEC26F060C078F061C079F0ED
:101FB800010E00017A6FB70E00017B6F020E00015F
:101FC8007C6FCBEC14F0CDC090F0CEC091F0000146
:101FD800901F911F904B912B0001C9510001902532
:101FE8000001786F0001CA51000191210001796F49
:101FF800030E00017A6FC20E00017B6F020E000112
:102008007C6FCBEC14F0120019EC36F0000EB6EC35
:1020180041F056EC22F0FCEC47F040EC4CF00201A9
:102028000951D8A4FAD7020128BF08D0E00E02014E
:10203800275D2E0E02012859D8B003D0100E1BECD4
:1020480046F0020128AF13D002012729FF0E020132
:102058002859D8B00CD0010E1BEC46F0020E1BEC30
:1020680046F0040E1BEC46F0080E1BEC46F0D9ECCB
:1020780040F0CFEC2CF0000ED3EC3CF000016051A6
:10208800020134270001615102013523010ED3EC0E
:102098003CF0000160510201382700016151020142
:1020A8003923020ED3EC3CF00001605102013C27B9
:1020B8000001615102013D2313D1010E00016A6F35
:1020C800000E00016B6F000E6AEC46F03DD149EC42
:1020D8000CF03AD13AEC44F0020108390F0B030B2B
:1020E8000201F56FF66BD8900201F537F6371F0E2F
:1020F8000201F525D96E020E0201F621DA6E000101
:1021080065C0DEFF000166C0DDFF010E00016A6FD9
:10211800000E00016B6F030E6AEC46F064EC2EF0C3
:1021280013D1CCEC4CF0050AD8A40ED102014051D1
:10213800EAEC3DF009D1CCEC4CF006D13AEC44F095
:10214800020108390F0B030B0201F56FF66BD890EB
:102158000201F537F6370A0E0201F525D96E020E8F
:102168000201F621DA6E000165C0DEFF000166C0DB
:10217800DDFF010E00016A6F000E00016B6F010E9A
:102188006AEC46F0E7EC2EF0DFD049EC0CF0DCD03E
:102198003AEC44F0020108390F0B030B0201F56F0A
:1021A800F66BD8900201F537F637290E0201F525AE
:1021B800D96E020E0201F621DA6E000165C0DEFF5B
:1021C800000166C0DDFF010E00016A6F000E00010C
:1021D8006B6F020E6AEC46F092EC27F0B5D049EC32
:1021E8000CF0B2D03AEC44F0020108390F0B030BA3
:1021F8000201F56FF66BD8900201F537F637140E29
:102208000201F525D96E020E0201F621DA6E0001EF
:1022180065C0DEFF000166C0DDFF2FEC28F094D01A
:10222800DCEC43F091D034C26CF035C26DF0040E92
:1022380000016E6F26EC2BF06CC036F26DC037F2E1
:10224800000E0201356F000E346F38C26CF039C2CF
:102258006DF0050E00016E6F26EC2BF06CC03AF2A3
:102268006DC03BF2000E0201396F000E386F3CC2A0
:102278006CF03DC26DF0060E00016E6F26EC2BF07F
:102288006CC03EF26DC03FF2000E02013D6F000EC1
:102298003C6F9CEC4CF0020137BF0AD0B90E02012A
:1022A800365D0B0E02013759D8A002D08C840BD0B2
:1022B800020137BF07D0C40E0201365D090E0201C4
:1022C8003759D8A08C9402014051EAEC3DF03CD03B
:1022D800CCEC4CF0050AD8A437D061EC3DF034D0F2
:1022E800020108510F0B0201F56FF66B0201F6515E
:1022F800000AD8A429D00201F551000AD8B4DDD6C5
:10230800010AD8B4E4D6020AD8B4E4D6070AD8B485
:1023180008D7010AD8B40FD7030AD8B40FD70E0AC2
:10232800D8B433D7010AD8B433D7020AD8B457D7A8
:10233800070AD8B457D7010AD8B472D7030AD8B451
:1023480072D7010AD8B4C4D7010E0201096F65D645
:102358007DD152C2DCF053C2DBF054C2DAF055C270
:10236800D9F057C2E6F058C2E5F00001E551000186
:102378008F6F0001E6510001906F0001916B000121
:10238800926B090ED89000018F37903791379237AA
:10239800E82EF8D78FC06AF090C06BF091C06CF04F
:1023A80092C06DF066EC29F00009D8A460D1DBC2B8
:1023B80060F0DCC261F022EED7F001D80AD0050047
:1023C800FA6EDE50FD6EDE50FE6EF850FF6EFA506B
:1023D80012000009D8B418D0010E04018C6F010155
:1023E800D551F00B0709D56F270E0101DF6F000EDD
:1023F8000101E06F000E0001606F020EF0EC26F0A4
:10240800000E1C6E1C501200010E0001FB6F000133
:10241800E5510001E611D8B416D1030E1C6E000E6A
:102428000101F96F060E0101FA6F000E0401886FB1
:10243800020E896F000E8A6F000E8B6F040188519F
:102448000401891104018A1104018B11D8B421D027
:102458000001E9510001EA11D8B407D0E9C0D9FF59
:10246800EAC0DAFF0001DFBE02D1000E0001606F92
:10247800F9C161F0FAC162F0400E0001636F020E0B
:10248800CCEC28F060C0E9F061C0EAF0040E1C6EE4
:1024980025D0DBC260F0DCC261F022EED7F001D8B3
:1024A8000AD00500FA6EDE50FD6EDE50FE6EF85062
:1024B800FF6EFA5012000009D8B40ED0010E0401C4
:1024C8008C6F0101D551F00B0209D56F270E010160
:1024D800DF6F000E0101E06F020EB6D00001E95176
:1024E8000001EA11D8B407D0E9C0D9FFEAC0DAFF81
:1024F8000001DFBEBCD0000120EE01F0E951D92671
:10250800EA51DA22DF5000018F6F8FC090F000018E
:10251800916B926B936B000190510201495F00012E
:10252800915102014A5B0001925102014B5B00018B
:10253800935102014C5B000120EE01F0E951D926CC
:10254800EA51DA22DF5000018F6F8FC090F000014E
:10255800916B926B936B000190510401885F0001AD
:1025680091510401895B0001925104018A5B0001C9
:10257800935104018B5B400E0101F927000EFA23E9
:10258800030E62D004018C51D8A447D0DBC284F07A
:10259800DCC285F0D9C086F0DAC087F0DBC088F0ED
:1025A800DCC089F0000E00018A6F060E00018B6FF7
:1025B8000001D9510001DA110001DB110001DC1121
:1025C800D8A402D0010E01D0000E00018C6F22EEBB
:1025D800D9F001D80AD00500FA6EDE50FD6EDE5043
:1025E800FE6EF850FF6EFA501200E806D8B415D007
:1025F800640E0001F96103D00001F92B38D0010EF7
:1026080004018C6F0101D551F00B0309D56F000E41
:102618000101DF6F000E0101E06F010E0001D927F3
:10262800000EDA23DB23DC230001E507D8A0E60748
:10263800010E0AD0020E04018C6F000E0001606FBB
:10264800020EF0EC26F0000E1C6E11D01C50000A91
:10265800D8B47FD6010AD8B4DAD6030AD8B492D748
:10266800010AD8B4EBD6070AD8B438D7E3D71C5038
:102678001200320EF66EFC0EF76E21EE0FF0140EFD
:102688000900F5CFDEFFE806FBE2220EF66EFD0E2E
:10269800F76E21EE60F0110E0900F5CFDEFFE806B7
:1026A800FBE20F0EF66EFD0EF76E21EE4DF0120EE8
:1026B8000900F5CFDEFFE806FBE2A10EF66EFE0E7E
:1026C800F76E21EE08F0060E0900F5CFDEFFE806EA
:1026D800FBE2890EF66EFE0EF76E21EE00F0070E95
:1026E8000900F5CFDEFFE806FBE23D0EF66EFE0EB2
:1026F800F76E21EE82F00B0E0900F5CFDEFFE8063B
:10270800FBE28D0EF66EFD0EF76E21EE72F00F0EE7
:102718000900F5CFDEFFE806FBE21D0EF66EFC0EA3
:10272800F76E21EE24F0140E0900F5CFDEFFE8065F
:10273800FBE2850EF66EFC0EF76E21EE39F0130EF5
:102748000900F5CFDEFFE806FBE2000E01018E6FFF
:1027580016D001018E51010D0F0EF324D96E010E12
:10276800F420DA6E01018E51010D780EF324E16E2A
:10277800020EF420E26EDFCFE7FF01018E2B01018C
:102788008E51010D0F0EF324D96E010EF420DA6E6E
:10279800DF50D8A4DED7000E01018E6F16D00101DC
:1027A8008E51010D600EF324D96E010EF420DA6EFD
:1027B80001018E51010D8C0EF324E16E020EF420FE
:1027C800E26EDFCFE7FF01018E2B01018E51010D73
:1027D800600EF324D96E010EF420DA6EDF50D8B4FF
:1027E80023D0DDD701018E51010D4D0EF324D96E92
:1027F800010EF420DA6E01018E51010D8C0EF324C6
:10280800E16E020EF420E26EDFCFE7FF01018E2BAE
:1028180001018E51010D4D0EF324D96E010EF420E5
:10282800DA6EDF50D8A4DED7000E01018E6F8CD08F
:1028380001018E51010D820EF324D96E010EF42090
:10284800DA6E01018E51010DA00EF324E16E020E25
:10285800F420E26EDFCFE7FF01018E2B01018E51DC
:10286800010D820EF324D96E010EF420DA6EDF50CA
:10287800D8B478D0DDD701018E51010D720EF32442
:10288800D96E010EF420DA6E01018E51010DA00EF1
:10289800F324E16E020EF420E26EDFCFE7FF0101C0
:1028A8008E2B01018E51010D720EF324D96E010E8B
:1028B800F420DA6EDF50D8B455D0DDD701018E513F
:1028C800010D240EF324D96E010EF420DA6E0101F5
:1028D8008E51010DA00EF324E16E020EF420E26E7B
:1028E800DFCFE7FF01018E2B01018E51010D240E70
:1028F800F324D96E010EF420DA6EDF50D8B432D04A
:10290800DDD701018E51010D390EF324D96E010E68
:10291800F420DA6E01018E51010DA00EF324E16E50
:10292800020EF420E26EDFCFE7FF01018E2B0101DA
:102938008E51010D390EF324D96E010EF420DA6E92
:10294800DF50D8B40FD0DDD7D7EC4CF0000AD8B49C
:1029580085D7010AD8B4A5D7030AD8B4C5D7010AC0
:10296800D8B4E5D7D2EC4CF00001906F000190513B
:102978000001786F796B000E00017A6FB40E0001C8
:102988007B6F020E00017C6FCBEC14F01200830EFB
:102998000001706F000E0001716F78C072F079C08D
:1029A80073F0000E0001756F0A0E746FD8EC46F0D4
:1029B800830E0001606F000E0001616F8FEC46F01E
:1029C8000001605100018D6F000179AF72D00001E4
:1029D8008D51000800017A25020F00018E6F000159
:1029E8008E51800A7F0FD8A0C2D07AC08FF0000124
:1029F8008F29D8B45AD000018F5100018EBF04D05E
:102A0800FF0A8E25D8B03AD08EC07DF000017E6BCB
:102A18007DBF7E0700017D1F7E1F7D4B7E2B000141
:102A28008F5100017F6F806B00017D5100017F276E
:102A380000017E5100018023010E00017F27000E56
:102A48008023830E00017F25D96E000E00018021AE
:102A5800DA6E00018F510001816F826B010E000157
:102A68008127000E8223830E00018125E16E000E6E
:102A780000018221E26EDFCFE7FF14D000018F5101
:102A880000017D6F7E6B010E00017D27000E7E2305
:102A9800830E00017D25D96E000E00017E21DA6EBD
:102AA800300EDF6E00018F07A2D700017A51020FA6
:102AB8005CD000018D51000800017A2500017D6F6E
:102AC80000017D2900018E6F00018E51800A7F0F61
:102AD800D8A04DD07AC08FF000018F29D8B443D048
:102AE80000018F5100018EBF04D0FF0A8E25D8B097
:102AF8002CD08EC07DF000017E6B7DBF7E0700016B
:102B08007D1F7E1F7D4B7E2B00018F5100017F6F43
:102B1800806B00017D5100017F2700017E5100017B
:102B28008023830E00017F25D96E000E00018021CD
:102B3800DA6E00018F51010D830EF324E16E000E51
:102B4800F420E26EDFCFE7FF0BD000018F51010DBB
:102B5800830EF324D96E000EF420DA6E300EDF6E89
:102B680000018F07B9D700017A2900018D6F000194
:102B78007A51000800018D2500017D6F00017D0557
:102B880000017A6F000E00018F6F2ED000018F5167
:102B9800010D830EF324D96E000EF420DA6E0001C5
:102BA8008F51010DF35000017B25E16EF4500001B7
:102BB8007C21E26EDFCFE7FF00017A5100018F1917
:102BC800D8A410D000018F2B00018F51010DF350B4
:102BD80000017B25D96EF45000017C21DA6E2E0E9F
:102BE800DF6E2AD000018F2B00018D5100018F5D0F
:102BF800D8B022D0CBD700018F51010D830EF3241A
:102C0800D96E000EF420DA6E00018F5100017D6F3D
:102C18007E6B010E00017D27000E7E2300017D5191
:102C280000017B25E16E00017E5100017C21E26EEE
:102C3800DFCFE7FF00018F2B00018D5100018F5D71
:102C4800D8B01200D8D7200E2B18D8A41200A098FC
:102C580042D10001E9510001EA11D8B407D0E9C016
:102C6800D9FFEAC0DAFF0001DFBE44D1000E00013F
:102C7800B16F1E0E0001B16501D017D00001B1512E
:102C8800010D400EF324D96E040EF420DA6E000113
:102C9800B151010D410EF324E16E020EF420E26EF3
:102CA800DFCFE7FF0001B12BE4D7000120EE01F0F0
:102CB800E951D926EA51DA221F0EDE18D8A484D0A9
:102CC800550E020141190CE1530E020142197CE133
:102CD800420E0201431978E1430E02014419D8A4B7
:102CE80073D0010E0001F56F02014E51D8A45FD0D8
:102CF800110E02014F615BD002014F51D8B457D079
:102D08004DC2ACF03F0E0001AC17D8A450D0550E00
:102D18000401806F530E816F420E826F530E836FD2
:102D280045C284F446C285F447C286F448C287F493
:102D3800000E0401886F000E896F000E8A6F000E66
:102D48008B6F000E04018C6F0001FA69000E1D6E76
:102D5800000E1C6E000E0001F96F030E02015019DF
:102D6800D8B40BD00101D591D593D595D597000E40
:102D78000101DF6F000E0101E06F02014DAF02D0CB
:102D8800010E01D0020E0001FB6F02014951020140
:102D98004A1102014B1102014C11D8B402D0000EA5
:102DA80001D0010E0001F66F50C2FAF0A3D0010E57
:102DB8000001606F020EF0EC26F0000E0001606F5B
:102DC800020EF0EC26F096D0010E0001606F020EA4
:102DD800F0EC26F0000E0001606F020EF0EC26F019
:102DE800000E0001F56F86D00BEC23F0FF0AD8A483
:102DF80081D016D00BEC23F0FF0AD8A47BD00401B5
:102E08008C51D8A40DD00401885104018911040102
:102E18008A1104018B11D8B403D0020E04018C6FFF
:102E2800030E49D013C0ADF014C0AEF00001AD518F
:102E38000001AE11D8B40BD013C0AFF014C0B0F07D
:102E4800AFC0D9FFB0C0DAFF0001DFBE53D0010E1A
:102E58000001606F800E0001616F040E0001626F57
:102E68000D0E0001636F020ECCEC28F060C0E7F095
:102E780061C0E8F00001E9510001EA11D8B407D0B7
:102E8800E9C0D9FFEAC0DAFF0001DFBE13D0000EA7
:102E98000001606F400E0001616F040E0001626F57
:102EA800400E0001636F020ECCEC28F060C0E9F020
:102EB80061C0EAF0000E0001FB6F1CD0000E00019B
:102EC800FB6F020E04018C6F000E0001606F020E92
:102ED800F0EC26F00FD00001FB51000AD8B4B9D6A7
:102EE800010AD8B481D7030AD8B484D7010AD8B460
:102EF80099D7E4D7A0881200100E0301546F12C2AC
:102F080055F3020113510301566F27C257F302010B
:102F180028510301586F1DC259F302011E510301C4
:102F28005A6F32C25BF30201335103015C6F36C240
:102F38005DF30201375103015E6F3AC25FF302018C
:102F48003B510301606F3EC261F302013F5103012F
:102F5800626F05C263F340C264F349EC4CF00301AD
:102F6800656F5BEC4CF00301666F76EC4CF0030187
:102F7800676F6DEC4CF00301686F64EC4CF0030173
:102F8800696F52EC4CF003016A6FD7EC4CF0030107
:102F98006B6FD2EC4CF003016C6F21EC49F003012C
:102FA8006D6FCFEC4CF003016E6F34C26FF302010A
:102FB80035510301706F38C271F3020139510301B1
:102FC800726F3CC273F302013D510301746F020139
:102FD80008390F0B030B0001616F626BD890000179
:102FE800613762370A0E00016125D96E020E0001B1
:102FF8006221DA6EDF500301756F020108390F0B89
:10300800030B0001616F626BD89000016137623772
:103018000A0E00016125D96E020E00016221DA6EE6
:10302800DECF63F0DDCF64F064C063F00001646B51
:1030380063BF6469000163510301766F02010839B7
:103048000F0B030B0001616F626BD89000016137B1
:1030580062371F0E00016125D96E020E0001622140
:10306800DA6EDF500301776F020108390F0B030B8B
:103078000001616F626BD8900001613762371F0EE3
:1030880000016125D96E020E00016221DA6EDECFE1
:1030980063F0DDCF64F064C063F00001646B63BF6C
:1030A8006469000163510301786F020108390F0B4D
:1030B800030B0001616F626BD890000161376237C2
:1030C800140E00016125D96E020E00016221DA6E2C
:1030D800DF500301796F020108390F0B030B000160
:1030E800616F626BD890000161376237140E00017E
:1030F8006125D96E020E00016221DA6EDECF63F01F
:10310800DDCF64F064C063F00001646B63BF646981
:103118000001635103017A6F020108390F0B030B99
:103128000001616F626BD890000161376237290E28
:1031380000016125D96E020E00016221DA6EDF50AE
:1031480003017B6F020108390F0B030B0001616F4C
:10315800626BD890000161376237290E0001612542
:10316800D96E020E00016221DA6EDECF63F0DDCF88
:1031780064F064C063F00001646B63BF64690001BC
:10318800635103017C6FCCEC4CF003017D6F08C2E6
:103198007EF3120004013205D8A410D00401305186
:1031A8001F0B0009D8A40AD00C8E030E0401311994
:1031B800D8A402D0010E01D0000E286E04013251AD
:1031C800D8A41200040130511F0B020AD8A412001F
:1031D800040134510F0B0009D8B412000401345112
:1031E8000F0B456E030E45601200200E2B18D8A455
:1031F80012000C8E040134BF1BD0040134510F0B94
:10320800456E4550020DD30EF324D96E000EF420FE
:10321800DA6EDECF49F0DDCF4AF0040134510F0BEE
:10322800456E4550010DDD0EF324D96E000E1AD0FF
:10323800040134510F0B456E4550020D0F0EF32457
:10324800D96E000EF420DA6EDECF49F0DDCF4AF0F9
:10325800040134510F0B456E4550010DE00EF32467
:10326800D96E000EF420DA6EDF50486E48B006D0F2
:10327800FB0E4914496EFF0E4A1404D0040E49107F
:10328800496E4A504A6E040134BF0BD004013451D0
:103298000F0B456E4550020DD30EF324D96E000E68
:1032A8000AD0040134510F0B456E4550020D0F0E24
:1032B800F324D96E000EF420DA6E49C0DEFF4AC04E
:1032C800DDFF030E04013119D8A42FD049C0D9FF5E
:1032D8004AC0DAFFDFAE1CD0040134BF0BD00401B2
:1032E80034510F0B456E4550010DDD0EF324D96E98
:1032F800000E0AD0040134510F0B456E4550010DE4
:10330800E00EF324D96E000EF420DA6E0001DF829D
:1033180049C0D9FF4AC0DAFF000EDB8449C0D9FF93
:103328004AC0DAFF000EDB8E1200040E4918496EFF
:103338004A504A6E49C0D9FF4AC0DAFFDFAE1BD0F7
:1033480049C0D9FF4AC0DAFF7F0EDF1649C0D9FF4E
:103358004AC0DAFF000EDB8C000E3E6E050E3D6E95
:1033680049C03FF04AC040F0000E426E020E416E66
:1033780071EC3EF006D049C0D9FF4AC0DAFF000E12
:10338800DB8C040E4918496E4A504A6E48B206D082
:1033980049C0D9FF4AC0DAFFDFAE31D0040134BFDB
:1033A8000BD0040134510F0B456E4550010DDD0E55
:1033B800F324D96E000E0AD0040134510F0B456E68
:1033C8004550010DE00EF324D96E000EF420DA6E9C
:1033D8000001DF9249C0D9FF4AC0DAFF3B0EDF1671
:1033E800000E3E6E050E3D6E49C03FF04AC040F0EB
:1033F800000E426E020E416E71EC3EF006D049C0DE
:10340800D9FF4AC0DAFF3B0EDF16040134510F0B17
:10341800456E4550010D260EF324466E0F0EF4201E
:10342800476E46C0D9FF47C0DAFFFE0EDF1612000E
:10343800000E0001856F000E846F020E0001855D8D
:10344800D8B013D0000E00018425D96E080E0001F3
:103458008521DA6E84C060F085C061F0E0EC34F05C
:10346800DF6E0001844B852BE8D7000E0001806FCA
:10347800000E7F6F000E0001816F080E0001826F41
:103488001DEC45F0000E0001856F000E846F020EE2
:103498000001855DD8B013D0000E00018425D96ED7
:1034A800080E00018521DA6E84C060F085C061F0E5
:1034B80059EC1BF0DF6E0001844B852BE8D7000E1A
:1034C8000001806F010E7F6F000E0001816F080EF2
:1034D8000001826F1DEC45F0000E0001856F000EA3
:1034E800846F020E0001855DD8B013D0000E000174
:1034F8008425D96E080E00018521DA6E84C060F03B
:1035080085C061F096EC44F0DF6E0001844B852B9A
:10351800E8D7000E0001806F020E7F6F000E0001D9
:10352800816F080E0001826F1DEC45F0000E00014E
:10353800856F000E846F020E0001855DD8B00ED035
:10354800000E00018425D96E080E00018521DA6E6F
:10355800000EDF6E0001844B852BEDD7000E0001B5
:10356800856F030E846F0001855115E1120E00016D
:10357800845DD8B010D084C07FF085C080F0000E84
:103588000001816F080E0001826F1DEC45F00001FB
:10359800844B852BE8D7000E0001856F000E846FE1
:1035A800020E0001855DD8B013D0000E00018425FD
:1035B800D96E080E00018521DA6E84C060F085C0DE
:1035C80061F0A9EC20F0DF6E0001844B852BE8D771
:1035D800000E0001806F120E7F6F000E0001816FD8
:1035E800080E0001826F1DEC45F0000E0001856F8A
:1035F800000E846F020E0001855DD8B00ED0000E5B
:1036080000018425D96E080E00018521DA6E000EAE
:10361800DF6E0001844B852BEDD7000E0001856F0E
:10362800130E846F0001855115E1160E0001845DAB
:10363800D8B010D084C07FF085C080F0000E0001A3
:10364800816F080E0001826F1DEC45F00001844B6C
:10365800852BE8D7000E0001856F000E846F020EDF
:103668000001855DD8B013D0000E00018425D96E05
:10367800080E00018521DA6E84C060F085C061F013
:10368800E8EC4AF0DF6E0001844B852BE8D7000E8A
:103698000001806F160E7F6F000E0001816F080E0B
:1036A8000001826F1DEC45F012008AD0EB0E12006B
:1036B8003C0E1200900E1200EA0EF66EFF0EF76E28
:1036C8000800F5501200EB0EF66EFF0EF76E0800BC
:1036D800F5501200EC0EF66EFF0EF76E0800F5506E
:1036E8001200ED0EF66EFF0EF76E0800F550120090
:1036F800EE0EF66EFF0EF76E0800F5501200EF0E94
:10370800F66EFF0EF76E0800F5501200F00EF66E1A
:10371800FF0EF76E0800F5501200F10EF66EFF0E60
:10372800F76E0800F5501200000E1200020E12008B
:10373800010E1200010E1200000E1200010E1200FE
:10374800400E1200000E1200FF0E12000F0E1200A3
:10375800F80E1200100E1200000E12003F0E12009A
:10376800000E1200100E1200000E1200000E1200C1
:10377800000E1200000E1200000E1200010E1200C0
:10378800000E1200110E1200000E1200110E12008F
:10379800000E1200460E1200410E1200540E1200C6
:1037A800310E1200360E1200200E1200200E1200EA
:1037B800200E1200550E1200AA0E1200000E120062
:1037C80060C062F061C063F000016351000AD8B4C0
:1037D80004D0010AD8B48ED0F1D700016251000A92
:1037E800D8B464D7010AD8B463D7030AD8B462D767
:1037F800010AD8B461D7070AD8B465D7010AD8B482
:1038080069D7030AD8B46DD7010AD8B471D70F0A9B
:10381800D8B475D7010AD8B479D7030AD8B47DD7F4
:10382800010AD8B481D7070AD8B480D7010AD8B416
:103838007FD7030AD8B47ED7010AD8B47DD71F0A28
:10384800D8B47CD7010AD8B47BD7030AD8B47AD7BE
:10385800010AD8B479D7070AD8B478D7010AD8B4F6
:1038680077D7030AD8B476D7010AD8B475D70F0A20
:10387800D8B474D7010AD8B473D7030AD8B472D7A6
:10388800010AD8B471D7070AD8B470D7010AD8B4D6
:103898006FD7030AD8B46ED7010AD8B46DD7370AE0
:1038A800D8B46CD7010AD8B46BD7050AD8B46AD78C
:1038B800010AD8B469D7030AD8B468D7010AD8B4BA
:1038C80067D7190AD8B466D7010AD8B465D70F0ADA
:1038D800D8B464D7010AD8B463D7030AD8B462D776
:1038E800010AD8B461D7070AD8B460D7010AD8B496
:1038F8005FD764D700016251FE0AD8B45BD7010ACA
:10390800D8B45AD75BD70001A86FFB0EF66EFD0E30
:10391800F76E20EE9AF00D0E0900F5CFDEFFE806EF
:10392800FBE29D0EF66EFD0EF76E20EE8AF00F0E8E
:103938000900F5CFDEFFE806FBE25C0EF66EFC0E32
:10394800F76E20EE60F0140E0900F5CFDEFFE806F2
:10395800FBE2470EF66EFC0EF76E20EE75F0140EC5
:103968000900F5CFDEFFE806FBE2000E0001A96FB3
:1039780016D00001A951010D9A0EF324D96E000E3C
:10398800F420DA6E0001A951010D780EF324E16EDE
:10399800020EF420E26EDFCFE7FF0001A92B000141
:1039A800A951010D9A0EF324D96E000EF420DA6E97
:1039B800DF50D8A4DED7020128AF2DD00201272975
:1039C800FF0E02012859D8B026D0000E0001A96FB9
:1039D80016D00001A951010D8A0EF324D96E000EEC
:1039E800F420DA6E0001A951010D8C0EF324E16E6A
:1039F800020EF420E26EDFCFE7FF0001A92B0001E1
:103A0800A951010D8A0EF324D96E000EF420DA6E46
:103A1800DF50D8A4DED7000E0001A96F16D0000130
:103A2800A951010D600EF324D96E000EF420DA6E50
:103A38000001A951010DA00EF324E16E020EF4203D
:103A4800E26EDFCFE7FF0001A92B0001A951010DAC
:103A5800600EF324D96E000EF420DA6EDF50D8A47D
:103A6800DED7000E0001A96F16D00001A951010D83
:103A7800750EF324D96E000EF420DA6E0001A951F8
:103A8800010DB40EF324E16E020EF420E26EDFCFD6
:103A9800E7FF0001A92B0001A951010D750EF324C0
:103AA800D96E000EF420DA6EDF50D8A4DED70201FA
:103AB80005A106D06E0E0201A86F200E0201A96FA3
:103AC800020105A306D06E0E0201B26F200E02019C
:103AD800B36F020105A506D06E0E0201BC6F200E61
:103AE8000201BD6F020105A723D06E0E0201C66F49
:103AF800200E0201C76F1CD02D0E0201A06F3E0ED2
:103B08000201A16F12002D0E0201AA6F3E0E0201E2
:103B1800AB6F12002D0E0201B46F3E0E0201B56F9D
:103B280012002D0E0201BE6F3E0E0201BF6F120081
:103B38000001A851310AD8B4DFD7030AD8B4E3D7B3
:103B4800010AD8B4E7D7070AD8A41200EAD76A0E40
:103B5800F66EFD0EF76E20EE90F0110E0900F5CF0F
:103B6800DEFFE806FBE2580EF66EFD0EF76E20EE5D
:103B7800A2F0110E0900F5CFDEFFE806FBE2A80E61
:103B8800F66EFE0EF76E0900F5CFC2F00900F5CF0C
:103B9800C3F00A00F5CFC4F0170EF66EFE0EF76EEE
:103BA80020EEB4F00D0E0900F5CFDEFFE806FBE2CB
:103BB800000E0001C56F16D00001C551010D900E11
:103BC800F324D96E000EF420DA6E0001C551010D00
:103BD800780EF324E16E020EF420E26EDFCFE7FFE9
:103BE8000001C52B0001C551010D900EF324D96EBB
:103BF800000EF420DA6EDF50D8A4DED7000E0001E4
:103C0800C56F16D00001C551010DA20EF324D96E5F
:103C1800000EF420DA6E0001C551010D8C0EF3245C
:103C2800E16E020EF420E26EDFCFE7FF0001C52B44
:103C38000001C551010DA20EF324D96E000EF42027
:103C4800DA6EDF50D8A4DED7000E0001C56F16D09B
:103C58000001C551010DC20EF324D96E000EF420E7
:103C6800DA6E0001C551010DA00EF324E16E020EBB
:103C7800F420E26EDFCFE7FF0001C52B0001C5513C
:103C8800010DC20EF324D96E000EF420DA6EDF5057
:103C9800D8A4DED712C278F013C279F0030E00015F
:103CA8007A6FA30E00017B6F020E00017C6FCBECD4
:103CB80014F027C278F028C279F0030E00017A6F59
:103CC800AB0E00017B6F020E00017C6FCBEC14F091
:103CD800000E0001C56F16D00001C551010DB40ECC
:103CE800F324D96E000EF420DA6E0001C551010DDF
:103CF800B40EF324E16E020EF420E26EDFCFE7FF8C
:103D08000001C52B0001C551010DB40EF324D96E75
:103D1800000EF420DA6EDF50D8A4DED71DC278F08A
:103D28001EC279F0030E00017A6FB70E00017B6F97
:103D3800020E00017C6FCBEC14F032C278F033C273
:103D480079F0030E00017A6FBF0E00017B6F020E3F
:103D580000017C6FCBEC14F01200EED052C2DCF004
:103D680053C2DBF054C2DAF055C2D9F057C2E6F0BC
:103D780058C2E5F00001E5510001956F0001E651D8
:103D88000001966F0001976B0001986B090ED8909F
:103D980000019537963797379837E82EF8D795C0AA
:103DA8006AF096C06BF097C06CF098C06DF066EC46
:103DB80029F00009D8A4D1D0010E1D6E0001E551EB
:103DC8000001E611D8B4B5D00001E507D8A0E60790
:103DD800020E1D6E0001E7510001E811D8B407D0AA
:103DE800E7C0D9FFE8C0DAFF0001DFBEB6D0DBC20A
:103DF8008BF0DCC28CF0D9C08DF0DAC08EF0DBC05D
:103E08008FF0DCC090F0000E0001916F060E0001EB
:103E1800926F22EED5F001D80AD00500FA6EDE5076
:103E2800FD6EDE50FE6EF850FF6EFA501200E80686
:103E3800D8B41CD0640E0001F96103D00001F92B3D
:103E48008CD0020E04018C6F0101D551F00B0309CF
:103E5800D56F000E0101DF6F000E0101E06F010E4A
:103E68000001606F020EF0EC26F063D0010E000135
:103E7800D927000EDA23DB23DC23000E0401886F28
:103E8800020E896F000E8A6F000E8B6F000E010103
:103E9800F96F060E0101FA6F030E1D6E04018851B9
:103EA8000401891104018A1104018B11D8A402D0DC
:103EB800010E40D0040E1D6E0001E7510001E8110B
:103EC800D8B407D0E7C0D9FFE8C0DAFF0001DFBEE9
:103ED80044D0010E0001606FF9C161F0FAC162F0CF
:103EE800400E0001636F020ECCEC28F060C0E7F0D2
:103EF80061C0E8F0030E1D6E400E0201495F000E1E
:103F08004A5B4B5B4C5B400E0401885F000E895B8B
:103F18008A5B8B5B400E0101F927000EFA231DD046
:103F2800020E04018C6F010E0001606F020EF0ECAE
:103F380026F0000E1D6E11D01D50000AD8B40ED701
:103F4800010AD8B43BD7030AD8B444D7010AD8B475
:103F5800A5D7070AD8B4B0D7E3D71D501200710E01
:103F6800F66EFC0EF76E20EE90F0130E0900F5CFFA
:103F7800DEFFE806FBE2610EF66EFE0EF76E20EE3F
:103F8800BCF00A0E0900F5CFDEFFE806FBE2310EB1
:103F9800F66EFE0EF76E20EEA4F00B0E0900F5CFBC
:103FA800DEFFE806FBE2250EF66EFE0EF76E20EE4B
:103FB800B0F00B0E0900F5CFDEFFE806FBE2000EBD
:103FC8000001C76F16D00001C751010D900EF324F0
:103FD800D96E000EF420DA6E0001C751010D780E7B
:103FE800F324E16E020EF420E26EDFCFE7FF00015A
:103FF800C72B0001C751010D900EF324D96E000E96
:10400800F420DA6EDF50D8A4DED7000E0001C76FA7
:1040180016D00001C751010DBC0EF324D96E000E55
:10402800F420DA6E0001C751010D8C0EF324E16E05
:10403800020EF420E26EDFCFE7FF0001C72B00017C
:10404800C751010DBC0EF324D96E000EF420DA6EB0
:10405800DF50D8A4DED736C278F037C279F0020E26
:1040680000017A6F980E00017B6F020E00017C6FD1
:10407800CBEC14F0000E0001C76F16D00001C75139
:10408800010DA40EF324D96E000EF420DA6E00019F
:10409800C751010DA00EF324E16E020EF420E26E6A
:1040A800DFCFE7FF0001C72B0001C751010DA40EA8
:1040B800F324D96E000EF420DA6EDF50D8A4DED7D0
:1040C8003AC278F03BC279F0020E00017A6FAC0E6A
:1040D80000017B6F020E00017C6FCBEC14F0000E28
:1040E8000001C76F16D00001C751010DB00EF324AF
:1040F800D96E000EF420DA6E0001C751010DB40E1E
:10410800F324E16E020EF420E26EDFCFE7FF000138
:10411800C72B0001C751010DB00EF324D96E000E54
:10412800F420DA6EDF50D8A4DED73EC278F03FC262
:1041380079F0020E00017A6FC00E00017B6F020E4B
:1041480000017C6FCBEC14F012000001615120E1FA
:10415800200E0001605DD8B01BD0000161510FE155
:104168000B0E0001605DD8B00AD0D50E00016025A5
:10417800F66EFF0E6121F76E0800F55012000B0E67
:104188000001601900016111D8A402D0080E1200C4
:104198000001615104E1400E0001605DD8B0ADD06E
:1041A800200E0001605F000E615B000161510FE1AC
:1041B800080E0001605DD8B00AD0E10E000160254C
:1041C800F66EFF0E6121F76E0800F550120000012F
:1041D80061514BE10B0E0001605DD8B046D0F80E7E
:1041E8000001626FFF0E0001636F60C064F061C080
:1041F80065F000016251000164270001635100016C
:104208006523F30E00016425F66EFF0E6521F76E37
:104218000800F5501200200E1200060E1200280E9B
:104228001200780E1200DE0E1200380E12005F0E19
:1042380012004B0E1200000E1200000E1200040EA7
:104248001200770E1200DE0E1200380E1200020E57
:104258001200000E12000C0E1200000E1200000ECA
:104268001200000E1200000E120060C062F061C061
:1042780063F000016351000AD8A4F5D70001625128
:104288000B0AD8B4C8D7060AD8B4C7D7030AD8B413
:10429800C6D7010AD8B4C5D71F0AD8B4C4D7010AEB
:1042A800D8B4C3D7030AD8B4C2D7010AD8B4C1D77F
:1042B800070AD8B4C0D7010AD8B4BFD7030AD8B4FC
:1042C800BED7010AD8B4BDD70F0AD8B4BCD7010AE3
:1042D800D8B4BBD7030AD8B4BAD7010AD8B4B9D767
:1042E800070AD8B4B8D7010AD8B4B7D7030AD8B4DC
:1042F800B6D7010AD8B4B5D7B6D7000E1200990EB2
:10430800F66EFC0EF76E20EE60F0130E0900F5CF86
:10431800DEFFE806FBE2BD0EF66EFD0EF76E20EE40
:1043280085F00F0E0900F5CFDEFFE806FBE2AD0EC3
:10433800F66EFD0EF76E20EE95F00F0E0900F5CF24
:10434800DEFFE806FBE27C0EF66EFD0EF76E20EE51
:1043580074F0100E0900F5CFDEFFE806FBE2000E50
:104368000001A56F16D00001A551010D600EF324C0
:10437800D96E000EF420DA6E0001A551010D780EF9
:10438800F324E16E020EF420E26EDFCFE7FF0001B6
:10439800A52B0001A551010D600EF324D96E000E66
:1043A800F420DA6EDF50D8A4DED7020128BF08D087
:1043B800E00E0201275D2E0E02012859D8B026D042
:1043C800000E0001A56F16D00001A551010D850E44
:1043D800F324D96E000EF420DA6E0001A551010D08
:1043E800A00EF324E16E020EF420E26EDFCFE7FFA9
:1043F8000001A52B0001A551010D850EF324D96EEE
:10440800000EF420DA6EDF50D8A4DED7000E0001CB
:10441800A56F8CB617D039D00001A551010D950EA6
:10442800F324D96E000EF420DA6E0001A551010DB7
:10443800B40EF324E16E020EF420E26EDFCFE7FF44
:104448000001A52B0001A551010D950EF324D96E8D
:10445800000EF420DA6EDF50D8B41200DDD7000168
:10446800A551010D740EF324D96E000EF420DA6EF6
:104478000001A551010DB40EF324E16E020EF420E3
:10448800E26EDFCFE7FF0001A52B0001A551010D6A
:10449800740EF324D96E000EF420DA6EDF50D8B40F
:1044A8001200DDD7A098000E636E000E626E000E3B
:1044B8000F01266F270E0001606F0F0E0001616F5C
:1044C800000E0001636F000E626F000E0001656F41
:1044D800020E646FD4EC48F0160E0F01396F9F0E70
:1044E8000F01376F7B0E0F01366F000E0001686FEA
:1044F8000B0E0001686501D010D000016851040D51
:10450800000EF324D96E040EF420DA6EDE6ADE6A39
:10451800DE6ADD6A0001682BEBD7658C000E0F019F
:10452800386F6598659C6296000E0C6E000E046EDE
:10453800000E066E000E056E62B6F5D7010E226EED
:10454800010E216E000E206E000E1F6E000E276EEB
:10455800000E0001686F020E0001686501D033D0BB
:1045680000016851020D0F0EF324D96E000EF420DD
:10457800DA6E000EDE6E000EDD6E00016851020D6F
:10458800D30EF324D96E000EF420DA6E000EDE6E20
:10459800000EDD6E00016851010DE00EF324D96EA6
:1045A800000EF420DA6E000EDF6E00016851010D76
:1045B800DD0EF324D96E000EF420DA6E000EDF6EE5
:1045C8000001682BC8D7080E0F6E040E106E160E69
:1045D8000F01266F040E0401036F300E026F080EE0
:1045E8000401016F040E0401006F0401008F000E26
:1045F8002D6E000E0101ED6F000EEE6F000EEF6FD5
:10460800000EF06F000E1E6E000E2B6E1200DBC245
:1046180060F0DCC261F022EED3F001D80AD00500C8
:10462800FA6EDE50FD6EDE50FE6EF850FF6EFA50E8
:1046380012000009D8B40CD002014E51010DF70E3A
:10464800F324D96E000EF420DA6EDE04D8A425D047
:104658004EC2A7F0010E0001A86F000E0001A96F5D
:104668000001A72B04D0D8900001A837A937000172
:10467800A72FF9D70001A81D0001AA6F0001A91DE5
:104688000001AB6F0001AA510101F5170001AB5100
:104698000101F617EAEC41F067D04EC2A7F0010E0F
:1046A8000001A86F000E0001A96F0001A72B04D01C
:1046B800D8900001A837A9370001A72FF9D7010121
:1046C800F5510001A8170101F6510001A9170001D1
:1046D800A8510001A911D8A445D0DBC260F0DCC202
:1046E80061F001D80BD005000201FA6ECD51FD6EC4
:1046F800CE51FE6EF850FF6EFA5012000001605164
:1047080000016111D8B42BD04EC2A7F0010E0001F0
:10471800A86F000E0001A96F0001A72B04D0D89044
:104728000001A837A9370001A72FF9D70001A85120
:104738000101F5130001A9510101F6130101D55139
:10474800F00B0609D56F280E0101DF6F000E01017D
:10475800E06F010E04018C6F24EC08F005D0EAEC40
:1047680041F002D024EC08F00001FA511200A098A0
:10477800000E636E000E626E000E0F01266F270E8C
:104788002E6E0F0E2F6E000E316E000E306E000E64
:10479800336E020E326ED6EC49F0160E0F01396FE9
:1047A8009F0E0F01376F7B0E0F01366F000E366EAE
:1047B8000B0E366401D00ED03650040D000EF324D3
:1047C800D96E040EF420DA6EDE6ADE6ADE6ADD6A0D
:1047D800362AEED7658C000E0F01386F6598659CF8
:1047E8006296000E0C6E000E046E000E066E000E31
:1047F800056E62B6F5D7010E226E010E216E000E0F
:10480800206E000E1F6E000E276E000E366E020E12
:10481800366401D02ED03650020D0F0EF324D96E17
:10482800000EF420DA6E000EDE6E000EDD6E3650DD
:10483800020DD30EF324D96E000EF420DA6E000EAA
:10484800DE6E000EDD6E3650010DE00EF324D96EDB
:10485800000EF420DA6E000EDF6E3650010DDD0E0C
:10486800F324D96E000EF420DA6E000EDF6E362ABD
:10487800CED7080E0F6E040E106E160E0F01266F9F
:10488800040E0401036F300E026F080E0401016F5D
:10489800040E0401006F0401008F000E2D6E000E3F
:1048A8000101ED6F000EEE6F000EEF6F000EF06F5E
:1048B800000E1E6E000E2B6E1200000E0001816F9E
:1048C800060E0001816501D012000001815100012E
:1048D800796F7A6B0001793B7A3BF00E7A17795140
:1048E8000F0B7A13F00E7917000E000179250001DD
:1048F8007F6F010E00017A210001806F7FC071F087
:1049080080C072F07B0E0001736F000E0001746F9F
:10491800040E0001756FE7EC42F0770E00017B1979
:10492800D8A42AD0550E00017C19D8A425D0330E5E
:1049380000017D19D8A420D00001815100017E1901
:10494800D8A41AD0040E00017F27000E80237FC050
:1049580071F080C072F0000181510C0D000EF3243B
:104968000001736F030EF4200001746F0C0E000138
:10497800756FE7EC42F043D0000181510C0D000E39
:10498800F3240001606F030EF4200001616F81C001
:1049980062F03FEC0AF01CD0020E49EC45F02FD033
:1049A800030E49EC45F02BD0040E49EC45F027D016
:1049B800050E49EC45F023D0060E49EC45F01FD012
:1049C800070E49EC45F01BD0080E49EC45F017D00E
:1049D80000018151000AD8B4DFD7010AD8B4E0D762
:1049E800030AD8B4E1D7010AD8B4E2D7070AD8B481
:1049F800E3D7010AD8B4E4D7030AD8B4E5D700014D
:104A0800812B5ED764C069F000016A6B00016951AF
:104A18006A6F696B000165510001691345D063C075
:104A280067F00001673B0F0E6717000167510C0D17
:104A3800050EF326000EF422000EF324D96E030EA1
:104A4800F420DA6E69C0DEFF6AC0DDFF5DD063C0A6
:104A580067F00001673B0F0E6717000167510C0DE7
:104A6800070EF326000EF422000EF324D96E030E6F
:104A7800F420DA6E69C0DEFF6AC0DDFF63C067F04C
:104A88000001673B0F0E6717000167510C0D090EF7
:104A9800F326000EF422000EF324D96E030EF42040
:104AA800DA6E66C0DFFF30D0000163510F0B0001E2
:104AB800676F686B00016851000AD8A425D000010F
:104AC8006751000AD8B4ABD7010AD8B4C0D71CD0F4
:104AD800020E49EC45F01200030E49EC45F01200B5
:104AE800040E49EC45F01200050E49EC45F01200A1
:104AF800060E49EC45F01200070E49EC45F012008D
:104B0800080E49EC45F01200000163390F0B000153
:104B1800676F686B00016851000AD8A41200000191
:104B28006751000AD8B4D4D7010AD8B4D5D7030A34
:104B3800D8B4D6D7010AD8B4D7D7070AD8B4D8D7A3
:104B4800010AD8B4D9D7030AD8A41200D9D72B049C
:104B5800D8B465BA08D0000E626E0F0136810F0115
:104B68003689020E2B6E62A406D00F0136A503D03B
:104B78006294EEEC48F065A202D0A198120062A0FF
:104B880009D00F0136A106D0BBEC23F0A088040E93
:104B98002B6E629062A804D00F0136B951EC49F02F
:104BA80062AC1BD00F0136AD0ED0000E3E6E730EF8
:104BB8003D6E000E3F6E000E406E000E426E010EFE
:104BC800416E71EC3EF0629C58EC4BF02450D8A436
:104BD80024062450D8B47BEC36F062AA04D00F0126
:104BE80036BB1FEC47F062A212D00F0136A30FD0DC
:104BF8007F0E3E6E3D68000E3F6E000E406E000E4A
:104C0800426E010E416E71EC3EF0000E636E040EB2
:104C18002B6002D0A19812000F0136A739D0000EE0
:104C28004C6E030E4C6401D033D062A631D064CFF1
:104C38002CF02C30E832E8320F0B266E62962CB43A
:104C480007D02650010DDD0EF324D96E000E06D0D4
:104C58002650010DE00EF324D96E000EF420DA6E12
:104C68000001DF702650D8A403D03EEC3CF00ED0F3
:104C7800000E3E6E720E3D6E2C0E3F6E000E406EA4
:104C8800000E426E000E416E71EC3EF04C2AC9D700
:104C9800A198120062C064F00001656B666B0001A8
:104CA80061350001643701E3658100016451000149
:104CB8006E6F00016E51D8A40AD0000E0001606F1B
:104CC800000E616F000E626F000E636F1200170E08
:104CD8000001646F60C065F061C066F062C067F093
:104CE800000164290001686F05D00001D89067337E
:104CF800663365330001682FF8D70001655100015C
:104D0800696F0001618FFF0E00016017FF0E00013F
:104D18006117000E000162170001605100016A6FFF
:104D28000001615100016B6F0001625100016C6F5D
:104D380000016D6B8E0E00016E5F00016EAF1AD020
:104D480000016E51800A8F0FD8B00AD0000E000102
:104D5800606F000E616F000E626F000E636F1200CD
:104D68000001D8906D336C336B336A3300016E3FAA
:104D7800F7D71BD0170E00016E6512D0000E000188
:104D8800606F000E616F000E626F000E636F12009D
:104D98000001D8906A376B376C376D3700016E07A2
:104DA80000016E510001D8A4F3D700016951000138
:104DB800D8B409D000016D1F6C1F6B1F6A6D000EFF
:104DC8006B236C236D236AC060F06BC061F06CC00C
:104DD80062F06DC063F012000001656F000165515B
:104DE8000001D8A42BD020EE01F01550D92616507A
:104DF800DA22080EDF6E20EE02F01550D926165082
:104E0800DA22300EDE6E040EDD6E15C0D9FF16C034
:104E1800DAFF0C0EDF6E15C0D9FF16C0DAFF000EE0
:104E2800DB8E0FC0D9FF10C0DAFF040EDF6E0FC093
:104E3800D9FF10C0DAFF000EDB8E120000016051AE
:104E48000001616F626BD890000161376237000121
:104E580065510001636F646B0001D8906337643754
:104E68000001D8906337643700016151000163275E
:104E780000016251000164230001D8906337643750
:104E88000001D89063376437000E000163250001E4
:104E9800666F040E000164210001676F66C0D9FFC8
:104EA80067C0DAFF000EDB8466C0D9FF67C0DAFF8F
:104EB800000EDB8E00016551040DF3CF61F0F4CFD5
:104EC80062F000016051020DF35000016127F450B7
:104ED800000162230001D890613762370001D89041
:104EE80061376237040E00016127000E6223000E4D
:104EF800000161250001666F040E000162210001B6
:104F0800676F66C0D9FF67C0DAFF000EDB8466C032
:104F1800D9FF67C0DAFF000EDB8E120002012B51A9
:104F28000201292500016C6F02012C5102012A217E
:104F380000016D6F02012D5100016C2702012E51F5
:104F480000016D2302012F5100016C27020130512D
:104F580000016D236CC070F06DC071F00001000E8F
:104F680071BFFF0E726F736F2EC36CF02FC36DF09D
:104F7800000E00016DBFFF0E6E6F6F6F00016C5168
:104F88000001702700016D510001712300016E516D
:104F98000001722300016F510001732329C36CF0D3
:104FA8002AC36DF0000E00016DBFFF0E6E6F6F6FAC
:104FB80000016C510001702700016D51000171233F
:104FC80000016E510001722300016F51000173232B
:104FD80070C060F071C061F072C062F073C063F0BD
:104FE80023EE2BF0DECF64F0DDCF65F00001000E7C
:104FF80065BFFF0E666F676F29EC40F060C070F008
:1050080061C071F062C072F063C073F02DC36CF0C0
:10501800FF0E00016C2700016C2900016D6F06D09E
:1050280000017335733372337133703300016D2FA0
:10503800F7D7010E00017027000E71237223732326
:1050480000017335733372337133703370C032F2C9
:1050580071C033F212000201165102011425000139
:105068006C6F020117510201152100016D6F0201D9
:10507800185100016C270201195100016D2302012A
:105088001A5100016C2702011B5100016D236CC0ED
:1050980070F06DC071F00001000E71BFFF0E726FED
:1050A800736F22C36CF023C36DF0000E00016DBF57
:1050B800FF0E6E6F6F6F00016C51000170270001C9
:1050C8006D510001712300016E510001722300012E
:1050D8006F51000173231DC36CF01EC36DF0000EE9
:1050E80000016DBFFF0E6E6F6F6F00016C51000104
:1050F800702700016D510001712300016E510001FC
:10510800722300016F510001732370C060F071C0F9
:1051180061F072C062F073C063F023EE1FF0DECF5F
:1051280064F0DDCF65F00001000E65BFFF0E666F0D
:10513800676F29EC40F060C070F061C071F062C028
:1051480072F063C073F021C36CF0FF0E00016C278E
:1051580000016C2900016D6F06D0000173357333AF
:1051680072337133703300016D2FF7D7010E0001D0
:105178007027000E71237223732300017335733374
:1051880072337133703370C01DF271C01EF2120099
:105198000001686F000160510001D8B408D0000117
:1051A8006851020D0F0EF324D96E000E07D00001CE
:1051B8006851020DD30EF324D96E000EF420DA6E76
:1051C800DECF69F0DDCF6AF00001695100016A1194
:1051D800D8A407D0000E0001606F000E0001616FB7
:1051E8001200000120EE02F06951D9266A51DA2234
:1051F80061C0DEFF62C0DDFF000120EE01F06951F1
:10520800D9266A51DA2263C0DFFF69C0D9FF6AC0B4
:10521800DAFF400EDF1669C0D9FF6AC0DAFF000E58
:10522800DB8669C0D9FF6AC0DAFF000EDB8E000199
:1052380060510001D8B41ED000016851020D0F0E54
:10524800F324D96E000EF420DA6EDECF64F0DDCFE1
:1052580065F0040E000164190001666F00016551D4
:105268000001676F00016851020D0F0EF324D96E1B
:10527800000E1DD000016851020DD30EF324D96E23
:10528800000EF420DA6EDECF64F0DDCF65F0040E98
:10529800000164190001666F000165510001676F24
:1052A80000016851020DD30EF324D96E000EF420CC
:1052B800DA6E66C0DEFF67C0DDFF69C060F06AC0F5
:1052C80061F0120000016A5100016B1100016C11BC
:1052D80000016D11D8A402D0010E01D0000E00010A
:1052E8006F6F0001F605D8A406D000016F05D8A499
:1052F80002D0000E120000016A510201491922E190
:1053080000016B5102014A191DE100016C510201B3
:105318004B1918E100016D5102014C19D8A412D0A3
:105328000001FB05D8A407D02A0E0001FA19D8B449
:1053380009D0000E12002A0E0001FA19D8A402D0D2
:10534800000E12000201495100016A5D02014A5132
:1053580000016B5902014B5100016C5902014C517B
:1053680000016D59D8B002D0010E01D0000E000125
:105378006E6F020E0001FB19D8A41ED02A0E000180
:10538800FA19D8B407D000016F510001D8A402D08F
:10539800050E09D00001F605D8B417D000016F0535
:1053A800D8A404D007D00001706F1DD000016E058D
:1053B800D8A4EED7040EF7D72A0E0001FA19D8B4EC
:1053C80010D00001F605D8A402D0010EECD70001D8
:1053D8006F05D8B404D000016E05D8A402D0020E1F
:1053E800E2D7030EE0D700017051FEEC29F000016E
:1053F800705112000001686F0001E7510001E811C7
:10540800D8B407D0E7C0D9FFE8C0DAFF0001DFBE93
:1054180012000001E9510001EA11D8B407D0E9C02F
:10542800D9FFEAC0DAFF0001DFBE1200FBC069F055
:105438000001FA69000E1D6E000E1C6E49C288F448
:105448004AC289F44BC28AF44CC28BF4010E04019F
:105458008C6F030E0001FB6F50D0020E04018C6F9D
:105468001200010E0001606F020EF0EC26F012002F
:10547800020E04018C6F010E0001606F020EF0EC49
:1054880026F01200000E0001606F020EF0EC26F00C
:105498001200020E04018C6F000E0001606F020EF4
:1054A800F0EC26F012002EEC3EF00101D551F00B85
:1054B8000509D56F200E0101DF6F000E0101E06FB5
:1054C800020E00016919D8A411D002014951020144
:1054D8004A1102014B1102014C11D8B407D0000E39
:1054E8000001606F020EF0EC26F01200010E0001C0
:1054F800606F020EF0EC26F0120000016851010AFC
:10550800D8B4ABD7030AD8B4ACD7010AD8B4B0D74B
:10551800070AD8B4B7D7010AD8B4BBD77A0AD8A42F
:105528001200C1D7800E04013019D8A41200C00E91
:105538000C6E7CD0AA0E096EFF0E0A6E000E0E6E5F
:10554800120E0D6E120004013251D8A43ED004018F
:105558003251020DAB0EF324F66EFE0EF420F76EF8
:105568000900F5CF09F00A00F5CF0AF0020E092468
:105578002E6E000E0A202F6E2EC0F6FF2FC0F7FFEA
:10558800F86A0E0EF76403D00800F55005D0F6CF80
:10559800E9FFF7CFEAFFEF500D6E030E09242E6ED8
:1055A800000E0A202F6E2EC0F6FF2FC0F7FFF86AF4
:1055B8000E0EF76403D00800F55005D0F6CFE9FFCA
:1055C800F7CFEAFFEF500E6E1200000E0C6E1200BD
:1055D800040E0401326124D004013251020D990EE7
:1055E800F324F66EFE0EF420F76E0900F5CF09F0ED
:1055F8000A00F5CF0AF009C0F6FF0AC0F7FFF86AFB
:105608000E0EF76403D00800F55005D0F6CFE9FF79
:10561800F7CFEAFFEF502E6E2E500D6E0E6A120075
:10562800000E0C6E1200000E0C6E120004013351B5
:10563800010AD8B47FD7030AD8B485D7010AD8B4E9
:10564800C7D7F1D76CC075F06DC076F00001776BE5
:10565800786B00016E510C0D050EF326000EF42236
:10566800000EF324D96E030EF420DA6EDECF6FF04D
:10567800DDCF70F06FC071F070C072F0000E0001E5
:1056880072BFFF0E736F746F0001715100017527AF
:105698000001725100017623000173510001772344
:1056A800000174510001782375C060F076C061F084
:1056B80077C062F078C063F000016E510C0D070EE0
:1056C800F326000EF422000EF324D96E030EF42004
:1056D800DA6EDECF64F0DDCF65F00001000E65BF45
:1056E800FF0E666F676F29EC40F060C075F061C00F
:1056F80076F062C077F063C078F000016E510C0D4F
:10570800090EF326000EF422000EF324D96E030EC0
:10571800F420DA6EDF5000016F6FFF0E00016F2773
:1057280000016F290001706F06D0000178357833C9
:105738007733763375330001702FF7D7010E0001E8
:105748007527000E76237723782300017835783380
:1057580077337633753375C06CF076C06DF0120010
:10576800000E2E6E400E2F6E040E306E400E316EFF
:10577800020E70EC30F02EC0E9F02FC0EAF013C032
:10578800E7F014C0E8F0000E0001FB6F0001FA69B1
:10579800000E1D6E000E1C6E000E0001F66F000E4E
:1057A8000201746F000E756F000E766F000E776F32
:1057B800000E0201706F000E716F000E726F000E06
:1057C800736F010E0001F56F000E0101F66F000EF8
:1057D800F56F000E02014E6F4CD002014E51010DC3
:1057E800F70EF324D96E000EF420DA6E000EDF6E89
:1057F800DBC22EF0DCC22FF022EED3F001D80AD0A3
:105808000500FA6EDE50FD6EDE50FE6EF850FF6E3B
:10581800FA5012000009D8B428D0DBC22EF0DCC23E
:105828002FF001D80BD005000201FA6ECD51FD6EA4
:10583800CE51FE6EF850FF6EFA5012002E502F1007
:10584800D8B413D04EC239F0010E3A6E000E3B6E3A
:10585800392A03D0D8903A363B36392EFBD73A50FE
:105868000101F5133B500101F613B4EC3EF00201BF
:105878004E2B02014E51D8A41200AFD7000E0001E2
:10588800696F000167AF0CD00001671F661F651FB5
:10589800646D000E652366236723010E0001696F9E
:1058A800000163AF0CD00001631F621F611F606DB0
:1058B800000E612362236323010E0001691B000EA1
:1058C80000016A6F000E6B6F000E6C6F000E6D6F3B
:1058D80000016451000165110001661100016711A2
:1058E800D8B442D0010E0001686F08D00001D890EA
:1058F80064376537663767370001682B000167AF83
:10590800F5D70001D8906A376B376C376D370001CF
:1059180064510001605D0001655100016159000199
:105928006651000162590001675100016359D8A00E
:1059380012D0000164510001605F0001655100014F
:10594800615B000166510001625B00016751000163
:10595800635B00016A810001D89067336633653361
:1059680064330001682FCDD7000169510001D8B414
:1059780009D000016D1F6C1F6B1F6A6D000E6B2331
:105988006C236D236AC060F06BC061F06CC062F07C
:105998006DC063F0120073D002010751D8B4120031
:1059A8008C80000E0201076F000E0101F26F000EDD
:1059B800F16F010E0001F36F12008B94000E0101CC
:1059C800F26F000EF16F020E0001F36F120068EC27
:1059D80049F0000E0101F26F000EF16F030E000195
:1059E800F36F12000101F14BF22B0101F25105E1B5
:1059F800040E0101F15DD8A012007EEC49F0000E02
:105A08000101F26F000EF16F040E0001F36F120036
:105A180008EC49F0960E86EC48F07FEC4CF0000E4E
:105A28000101F26F000EF16F050E0001F36F120015
:105A380002010651D8A41BD002010751D8A417D0DF
:105A48000101F14BF22B210E0101F15D4E0E010116
:105A5800F259D8A01200C9EC4CF08B84000E010159
:105A6800F26F000EF16F000E0001F36F1200000ECE
:105A78000101F26F000EF16F00EC06F01200000158
:105A8800F351000AD8B488D7010AD8B496D7030AC4
:105A9800D8B49DD7010AD8B4A5D7070AD8B4B8D7BF
:105AA800010AD8A41200C4D7000163510001D8B478
:105AB80008D0000160510001611100016211D8A4F1
:105AC80011D0000E0001606F000E0001616F000E22
:105AD8000001626F12000001632B0001D89062334D
