:0400000043EF00F0DA
:100008005B82FACF4DF0FBCF4EF0E9CF4FF0EACF4D
:1000180050F0E1CF51F0E2CF52F0D9CF53F0DACF20
:1000280054F0F3CF55F0F4CF56F0F6CF57F0F7CFA2
:1000380058F0F8CF59F0F5CF5AF082ECAAF0FEEC60
:10004800BFF05AC0F5FF59C0F8FF58C0F7FF57C0B6
:10005800F6FF56C0F4FF55C0F3FF54C0DAFF53C093
:10006800D9FF52C0E2FF51C0E1FF50C0EAFF4FC0C4
:10007800E9FF4EC0FBFF4DC0FAFF5B92110050EF45
:10008800BAF0000163510001D8B408D000016051F2
:100098000001611100016211D8A411D0000E000105
:1000A800606F000E0001616F000E0001626F1200A8
:1000B8000001632B0001D890623361336033000E76
:1000C800000160150001656F000E00016115000157
:1000D800666FFE0E000162150001676F0001655131
:1000E8000001661100016711D8B411D0E1D70001F1
:1000F800632B010E00016027000E00016123000E32
:10010800000162230001D890623361336033000E2E
:10011800000160150001656F000E00016115000106
:10012800666FFF0E000162150001676F00016551DF
:100138000001661100016711D8B408D0D8D70001B2
:1001480063070001D890603761376237000161BFEB
:1001580004D0020E00016361F2D7000163B102D03E
:100168000001619F0001D8906333000163510001D1
:100178006213000164510001D8B402D00001628FFB
:1001880060C060F061C061F062C062F01200000EF1
:02019800120053
:10FC24000043686172676572204173796E6368721C
:10FC34006F6E6F7573004D50505420436861726746
:10FC440065722044657461696C730020204F75747B
:10FC540033206F666620204F757434206F6666000B
:10FC640020204F757431206F666620204F757432E2
:10FC7400206F66660054656D706572617475726597
:10FC8400204D6F6E69746F720043686172676572AC
:10FC94002053796E6368726F6E6F757300555342AB
:10FCA4002043686172676572204F75747075747350
:10FCB400002D3E507265737320666F722073656306
:10FCC4006F6E6473002D3E507265737320666F729D
:10FCD400206D696E75746573002D3E507265737383
:10FCE40020746F207365742074696D650050616EB3
:10FCF400656C3A20202020426174746572793A0060
:10FD04004368617267657220456666696369656EFA
:10FD14006379004368617267657220737570706CF3
:10FD240079206F6666004368617267657220737537
:10FD340070706C79206F6E002D3E50726573732065
:10FD4400666F7220686F757273002D3E5072657312
:10FD54007320666F72206D6F6E74680020202049D6
:10FD64006E7075742020204F757470757400566F12
:10FD74006C7461676520262043757272656E740029
:10FD8400555342206368617267696E67206F6666C7
:10FD94000043686172676572205374617274757090
:10FDA400004261747465727920746F6F206C6F7790
:10FDB40000555342206368617267696E67206F6EF5
:10FDC400004261747465727920746F6F206C6F7770
:10FDD400002D3E507265737320746F2073617665D5
:10FDE400002D3E507265737320666F7220646179D2
:10FDF40000453A2020202020202020204C3A00508A
:10FE04006F776572204F7574707574730054696DE3
:10FE14006520616E64204461746500413A202D2D93
:10FE24002020202020202D2D0045787465726E61DD
:10FE34006C20323A0045787465726E616C20313AF8
:10FE44000043686172676572206F6666005365746B
:10FE5400207365636F6E647300536574206D696EFF
:10FE640075746573004F6E2D626F6172643A200081
:10FE740053657420686F75727300536574206D6FD9
:10FE84006E74680053657420796561720046616E12
:10FE9400206F6666005365742064617900CCFFF5B9
:10FEA400FE29FF98FF46616E206F6E00563A00B53A
:10FEB400FE09024000020100C032090400000203EE
:10FEC400000000092111010001221D000705810322
:10FED4004000010705010340000109040100020874
:10FEE4000650000705820240000107050202400097
:10FEF40001340353006F006C006400650072006EEF
:10FF0400006500720064002E0063006F006D002025
:10FF140000200020002000200020002000200020DD
:10FF240000200020002E034D0050005000540053C8
:10FF3400006F006C006100720020004300680061E3
:10FF440000720067006500720020005200650076B0
:10FF540000450000800402200000004D6963726FB8
:10FF64006368704D6173732053746F7261676520A9
:10FF7400202020303030310600FF0901A101190191
:10FF84002940150026FF00750895408100190129B4
:10FF9400409100C01A0331003200330034003500B0
:10FFA40036003700380039003000390039001201BA
:10FFB400000200000008D8048EF0000101020001D4
:10FFC4003D2A80A73D2A80A60403090448656C6C79
:10FFD4006F20576F726C642100536F6C61724368B9
:10FFE400617267720046494C4520202020004D5321
:0CFFF400444F53352E3000545854000088
:020000040001F9
:100000000101CB6F110EF66EFE0EF76E000EF86E4C
:1000100021EE80F00D0E0900F5CFDEFFE806FBE2D1
:10002000880EF66EFE0EF76E000EF86E21EEBAF038
:10003000080E0900F5CFDEFFE806FBE27E0EF66E45
:10004000FE0EF76E000EF86E21EEA6F0090E090006
:10005000F5CFDEFFE806FBE2990EF66EFE0EF76EB8
:10006000000EF86E21EEC3F0070E0900F5CFDEFF9B
:10007000E806FBE2740EF66EFE0EF76E000EF86EEA
:1000800021EEB0F0090E0900F5CFDEFFE806FBE235
:100090005D0EF66EFE0EF76E000EF86E21EE8EF01F
:1000A0000B0E0900F5CFDEFFE806FBE2510EF66EFF
:1000B000FE0EF76E000EF86E21EE9AF00B0E0900A0
:1000C000F5CFDEFFE806FBE2DD0EF66EFC0EF76E06
:1000D000000EF86E21EE00F0130E0900F5CFDEFFE2
:1000E000E806FBE24E0EF66EFD0EF76E000EF86EA1
:1000F00021EE3CF0110E0900F5CFDEFFE806FBE231
:10010000E50EF66EFD0EF76E000EF86E21EE60F055
:100110000F0E0900F5CFDEFFE806FBE23C0EF66E9F
:10012000FD0EF76E000EF86E21EE4EF0110E090076
:10013000F5CFDEFFE806FBE2C90EF66EFC0EF76EA9
:10014000000EF86E21EE14F0130E0900F5CFDEFF5D
:10015000E806FBE2B50EF66EFC0EF76E000EF86ECA
:1001600021EE28F0130E0900F5CFDEFFE806FBE2D2
:10017000D50EF66EFD0EF76E000EF86E21EE70F0E5
:100180000F0E0900F5CFDEFFE806FBE219ECD5F013
:100190000101CC6F2DECD5F00101CD6F4BECD5F00A
:1001A0000101CE6F41ECD5F00101CF6F37ECD5F0F6
:1001B0000101D06F23ECD5F00101D16F1BD2000EED
:1001C0000101D26F16D00101D251010D800EF3242E
:1001D000D96E010EF420DA6E0101D251010D540ED8
:1001E000F324E16E030EF420E26EDFCFE7FF01019E
:1001F000D22B0101D251010D800EF324D96E010ED4
:10020000F420DA6EDF50D8A4DED7000E0101D26FE1
:1002100016D00101D251010D000EF324D96E010E4A
:10022000F420DA6E0101D251010D900EF324E16E3B
:10023000030EF420E26EDFCFE7FF0101D22B0101B4
:10024000D251010D000EF324D96E010EF420DA6EA6
:10025000DF50D8B4E6D1DDD7000E0101D26F16D041
:100260000101D251010DBA0EF324D96E010EF42012
:10027000DA6E0101D251010D540EF324E16E030E2A
:10028000F420E26EDFCFE7FF0101D22B0101D25152
:10029000010DBA0EF324D96E010EF420DA6EDF5090
:1002A000D8A4DED7000E0101D26F16D00101D251C1
:1002B000010D3C0EF324D96E010EF420DA6E01011B
:1002C000D251010D900EF324E16E030EF420E26E84
:1002D000DFCFE7FF0101D22B0101D251010D3C0E0E
:1002E000F324D96E010EF420DA6EDF50D8B499D120
:1002F000DDD7000E0101D26F16D00101D251010DE0
:10030000A60EF324D96E010EF420DA6E0101D2514B
:10031000010D540EF324E16E030EF420E26EDFCFE4
:10032000E7FF0101D22B0101D251010DA60EF324EA
:10033000D96E010EF420DA6EDF50D8A4DED7000E9D
:100340000101D26F16D00101D251010D600EF324CC
:10035000D96E010EF420DA6E0101D251010D900E1A
:10036000F324E16E030EF420E26EDFCFE7FF01011C
:10037000D22B0101D251010D600EF324D96E010E72
:10038000F420DA6EDF50D8B44CD1DDD7000E010175
:10039000D26F16D00101D251010DC30EF324D96ED4
:1003A000010EF420DA6E0101D251010D540EF32436
:1003B000E16E030EF420E26EDFCFE7FF0101D22BE6
:1003C0000101D251010DC30EF324D96E010EF420A8
:1003D000DA6EDF50D8A4DED7000E0101D26F16D03E
:1003E0000101D251010D4E0EF324D96E010EF420FD
:1003F000DA6E0101D251010D900EF324E16E030E6D
:10040000F420E26EDFCFE7FF0101D22B0101D251D0
:10041000010D4E0EF324D96E010EF420DA6EDF507A
:10042000D8B4FFD0DDD7000E0101D26F16D0010184
:10043000D251010DB00EF324D96E010EF420DA6E04
:100440000101D251010D540EF324E16E030EF4208C
:10045000E26EDFCFE7FF0101D22B0101D251010D86
:10046000B00EF324D96E010EF420DA6EDF50D8A45A
:10047000DED7000E0101D26F16D00101D251010D5D
:10048000140EF324D96E010EF420DA6E0101D2515C
:10049000010D900EF324E16E030EF420E26EDFCF27
:1004A000E7FF0101D22B0101D251010D140EF324FB
:1004B000D96E010EF420DA6EDF50D8B4B2D0DDD799
:1004C000000E0101D26F16D00101D251010D8E0E26
:1004D000F324D96E010EF420DA6E0101D251010D20
:1004E000540EF324E16E030EF420E26EDFCFE7FF3B
:1004F0000101D22B0101D251010D8E0EF324D96ED0
:10050000010EF420DA6EDF50D8A4DED7000E010110
:10051000D26F16D00101D251010D280EF324D96EED
:10052000010EF420DA6E0101D251010D900EF32478
:10053000E16E030EF420E26EDFCFE7FF0101D22B64
:100540000101D251010D280EF324D96E010EF420C1
:10055000DA6EDF50D8B465D0DDD7000E0101D26F5E
:1005600016D00101D251010D9A0EF324D96E010E5D
:10057000F420DA6E0101D251010D540EF324E16E24
:10058000030EF420E26EDFCFE7FF0101D22B010161
:10059000D251010D9A0EF324D96E010EF420DA6EB9
:1005A000DF50D8A4DED7000E0101D26F16D00101B2
:1005B000D251010D700EF324D96E010EF420DA6EC3
:1005C0000101D251010D900EF324E16E030EF420CF
:1005D000E26EDFCFE7FF0101D22B0101D251010D05
:1005E000700EF324D96E010EF420DA6EDF50D8B409
:1005F00018D0DDD70101CB51100AD8B4E0D5010ADB
:10060000D8B42AD6030AD8B474D6010AD8B4BED650
:10061000070AD8B408D7010AD8B452D7030AD8B405
:100620009CD7320E0301686F300E0301696F010120
:10063000CC390F0B300F03016A6F0101CC510F0B46
:10064000300F03016B6F2D0E03016C6F0101CD396B
:100650000F0B300F03016D6F0101CD510F0B300FE8
:1006600003016E6F2D0E03016F6F0101CE390F0B69
:10067000300F0301706F0101CE510F0B300F0301DA
:10068000716F0101CF390F0B300F03017C6F010136
:10069000CF510F0B300F03017D6F3A0E03017E6FB8
:1006A0000101D0390F0B300F03017F6F0101D051D1
:1006B0000F0B300F0301806F3A0E0301816F0101B0
:1006C000D1390F0B300F0301826F0101D1510F0B94
:1006D000300F0301836F120068D202010851300B02
:1006E000300AD8A412000C0E0001766FFE0E000135
:1006F000776F22EE12F0DECF78F0DDCF79F00001D7
:10070000765100017827000177510001792300011B
:1007100078510201275D02012851800A00017A6F99
:1007200000017951800A00017A59D8B012008A82FA
:10073000010E1C6E000E02011E6F000E1D6F000EDA
:100740000201336F000E326F000E00017D6F030E49
:1007500000017D6501D0120000017D51020D140ED3
:10076000F324D96E020EF420DA6E000EDE6E000E57
:10077000DD6E00017D51020D290EF324D96E020EAB
:10078000F420DA6E000EDE6E000EDD6E00017D2BB1
:10079000DED702010851300B300AD8A41200000E37
:1007A00002011C6F000E0201316F000E00017D6F0F
:1007B000030E00017D6501D01BD000017D51020DAB
:1007C000140EF324D96E020EF420DA6EDF5002010B
:1007D0001C2700017D51020D290EF324D96E020E53
:1007E000F420DA6EDF500201312700017D2BE0D7C3
:1007F000010E0101F26FA7ECB8F000017B6F7BC026
:1008000072F0000E3BECB8F01200020108A91200D1
:10081000020127510201E95D0201EA51800A00014B
:10082000766F02012851800A00017659D8B007D0AE
:100830000001E4050CECC6F00101F26912000201AE
:100840001EBF18D002011E5105E1050E02011D5DFB
:10085000D8A010D0020127510201125D02011351EC
:10086000800A0001766F02012851800A0001765942
:10087000D8B005D06EECD2F0000E1C6E120022EE45
:1008800027F0DECF76F0DDCF77F00001761F771FFF
:10089000764B772B0201125100017627020113518A
:1008A00000017723000177BF08D0E80E0001765DD4
:1008B000030E00017759D8B007D00001E4050CEC15
:1008C000C6F00101F269120002011EBF13D0590ED9
:1008D00002011D5D020E02011E59D8A00BD0A7EC2B
:1008E000B8F0050F00017C6F7CC062F0010EB1EC26
:1008F000C7F0120002010851300B0001E06F000147
:10090000E03B0F0EE0170001E051020D0A0EF32448
:10091000D96E020EF420DA6EDECF9EF2DDCF9FF2AA
:100920000201000E9FBFFF0EA06FA16F9EC260F07C
:100930009FC261F0A0C262F0A1C263F00001E05169
:10094000020D140EF324D96E020EF420DA6EDECFFF
:1009500064F0DDCF65F00001000E65BFFF0E666F2D
:10096000676F3BECC7F060C09EF261C09FF262C04F
:10097000A0F263C0A1F2020E0001E027030E000105
:10098000E0170001E051020D0A0EF324D96E020EA9
:10099000F420DA6EDECFA2F2DDCFA3F20201000E68
:1009A000A3BFFF0EA46FA56FA2C260F0A3C261F047
:1009B000A4C262F0A5C263F00001E051020D140E62
:1009C000F324D96E020EF420DA6EDECF64F0DDCFB0
:1009D00065F00001000E65BFFF0E666F676F3BECB0
:1009E000C7F060C0A2F261C0A3F262C0A4F263C00B
:1009F000A5F2020113BF0DD0690E0201125D420E75
:100A000002011359D8A005D00001E4290CECC6F06E
:100A100012000001E4050CECC6F01200020108A966
:100A20001200020127510201E95D0201EA51800A28
:100A30000001766F02012851800A00017659D8B072
:100A400007D00001E4050CECC6F00101F2691200C8
:100A500002011EBF08D002011E5110E1C80E0201A2
:100A60001D5DD8B00BD00001E451FB0F00017C6F7D
:100A70007CC062F0000EB1ECC7F012000201085118
:100A8000300B0001E06F0001E03B0F0EE0170001AA
:100A9000E051020D0A0EF324D96E020EF420DA6E34
:100AA000DECF9EF2DDCF9FF20201000E9FBFFF0E50
:100AB000A06FA16F9EC260F09FC261F0A0C262F001
:100AC000A1C263F00001E051020D140EF324D96EAF
:100AD000020EF420DA6EDECF64F0DDCF65F00001A7
:100AE000000E65BFFF0E666F676F3BECC7F060C01E
:100AF0009EF261C09FF262C0A0F263C0A1F2020E3A
:100B00000001E027030E0001E0170001E051020D93
:100B10000A0EF324D96E020EF420DA6EDECFA2F2B2
:100B2000DDCFA3F20201000EA3BFFF0EA46FA56FDD
:100B3000A2C260F0A3C261F0A4C262F0A5C263F0D9
:100B40000001E051020D140EF324D96E020EF420C0
:100B5000DA6EDECF64F0DDCF65F00001000E65BF18
:100B6000FF0E666F676F3BECC7F060C0A2F261C01A
:100B7000A3F262C0A4F263C0A5F2020113BF0DD0BC
:100B8000690E0201125D420E02011359D8A005D070
:100B90000001E4290CECC6F012000001E4050CECA5
:100BA000C6F01200000E1C6E12001C50000AD8B4D1
:100BB00094D5010AD8B4EDD5030AD8B426D6010AD3
:100BC000D8B42CD7EFD7EBD102010651800A7F0FA2
:100BD000D8A002D0100E04D0020106AF03D0600EE0
:100BE0000201406F02010751000E0201066F000E64
:100BF0000201076F120002010651800A7F0FD8A080
:100C000002D0200E04D0020106AF03D0000E020174
:100C1000406F02010751D8B403D0110E0201406F9A
:100C2000000E0201066F000E0201076F12000201A2
:100C30000651800A7F0FD8A003D09AECD2F004D0DE
:100C4000020106BF03ECD3F002010751D8B405D06E
:100C5000D1ECD3F0120E0201406F000E0201066FBC
:100C6000000E0201076F120002010651800A7F0F79
:100C7000D8A003D0C4ECD2F004D0020106BF2DEC02
:100C8000D3F002010751D8B405D0D1ECD3F0130E44
:100C90000201406F000E0201066F000E0201076F95
:100CA000120002010651800A7F0FD8A003D042EC47
:100CB000D2F004D0020106BF58ECD2F00201075175
:100CC000D8B403D0140E0201406F000E0201066F6B
:100CD000000E0201076F120002010651800A7F0F09
:100CE000D8A003D0EEECD2F004D0020106BF57EC3E
:100CF000D3F002010751D8B403D0150E0201406FA2
:100D0000000E0201066F000E0201076F12000201C1
:100D10000651800A7F0FD8A003D0D9ECD2F004D0BE
:100D2000020106BF42ECD3F002010751D8B403D050
:100D3000160E0201406F000E0201066F000E020146
:100D4000076F120002010651800A7F0FD8A003D05E
:100D5000AFECD2F004D0020106BF18ECD3F00201D0
:100D60000751D8B405D0100E0201406F33ECCEF01D
:100D7000000E0201066F000E0201076F1200020151
:100D80000651800A7F0FD8A002D0300E04D0020195
:100D900006AF03D0100E0201406F02010751D8B414
:100DA0000ED0020128BF0BD0E10E0201275D2E0EEE
:100DB00002012859D8A003D0100EBEECD3F0000ECB
:100DC0000201066F000E0201076F120002010651B8
:100DD000800A7F0FD8A002D0400E04D0020106AFD7
:100DE00003D0200E0201406F02010751D8B403D096
:100DF000310E0201406F000E0201066F000E02016B
:100E0000076F120002010651800A7F0FD8A007D099
:100E1000020128BF0AD0010E83ECCEF006D00201F9
:100E200006AF03D0010E35ECCDF002010751D8B466
:100E300003D0320E0201406F000E0201066F000E59
:100E40000201076F120002010651800A7F0FD8A02D
:100E500007D0020128BF0AD0020E83ECCEF006D0E4
:100E6000020106AF03D0020E35ECCDF002010751AE
:100E7000D8B403D0330E0201406F000E0201066F9A
:100E8000000E0201076F120002010651800A7F0F57
:100E9000D8A007D0020128BF0AD0040E83ECCEF000
:100EA00006D0020106AF03D0040E35ECCDF00201EE
:100EB0000751D8B403D0340E0201406F000E020176
:100EC000066F000E0201076F120002010651800A30
:100ED0007F0FD8A007D0020128BF0AD0080E83ECEC
:100EE000CEF006D0020106AF03D0080E35ECCDF0EF
:100EF00002010751D8B403D0300E0201406F000E3A
:100F00000201066F000E0201076F12000201065176
:100F1000800A7F0FD8A002D0500E04D0020106AF85
:100F200003D0300E0201406F02010751000E020192
:100F3000066F000E0201076F120002010651800ABF
:100F40007F0FD8A002D0600E04D0020106AF03D0FC
:100F5000400E0201406F02010751000E0201066FB0
:100F6000000E0201076F120002010651800A7F0F76
:100F7000D8A002D0000E04D0020106AF03D0500E5C
:100F80000201406F02010751000E0201066F000EC0
:100F90000201076F1200000E0201406F12000201F1
:100FA0004051000AD8B410D6100AD8B424D6010A89
:100FB000D8B43DD6030AD8B457D6010AD8B471D6EE
:100FC000070AD8B489D6010AD8B4A1D6030AD8B47E
:100FD000B9D6360AD8B4D3D6100AD8B4F7D6010A8F
:100FE000D8B410D7030AD8B42ED7010AD8B44CD736
:100FF000070AD8B46AD7740AD8B488D7100AD8B404
:101000009CD7300AD8B4B0D7C6D7F5D116ECA1F02A
:101010000009D8A412000001E66912002BEC95F03B
:101020000009D8A412000001E66912000001E505DC
:10103000D8A403D00001E669120053C2DAF054C20A
:10104000D9F0D9C06AF0DAC06BF000016C6B6D6B3F
:1010500035ECAEF00009D8A41200000E0001616F5B
:10106000240E606F7EECB9F0000E0001606F060E7A
:101070000001616F570E0001626FFF0E0001636F88
:10108000000E0001656F240E646FD4ECC9F0FD0EF4
:101090000001E66F1200D0C260F0D1C261F022EE12
:1010A000BEF001D80AD00500FA6EDE50FD6EDE50AB
:1010B000FE6EDE50FF6EFA50120060C0A2F061C0FA
:1010C000A3F062C0A4F063C0A5F0D0C260F0D1C2AA
:1010D00061F022EEC1F001D80AD00500FA6EDE50B0
:1010E000FD6EDE50FE6EDE50FF6EFA501200000103
:1010F00060C09EF0000161C09FF00001A06BA16B79
:1011000026EE00F0A5C0DFFF26EE01F0A4C0DFFF51
:1011100026EE02F0A3C0DFFF26EE03F0A2C0DFFF41
:1011200026EE04F0A1C0DFFF26EE05F0A0C0DFFF31
:1011300026EE06F09FC0DFFF26EE07F09EC0DFFF21
:10114000000E0001DA6F080ED96F000E0001616F0A
:10115000080E606F7EECB9F0FD0E0001E66F120024
:101160000001E505D8A403D00001E6691200000ED5
:101170000001DA6F120ED96F000E0001616F120EBE
:10118000606F7EECB9F0000E0001A66F110E000139
:10119000A66501D017D00001A651010D600EF32401
:1011A000D96E020EF420DA6E0001A651010D000E78
:1011B000F324E16E060EF420E26EDFCFE7FF0001BC
:1011C000A62BE4D7FD0E0001E66F1200030EE8CF58
:1011D00000F6000EE8CF01F6D0C260F0D1C261F097
:1011E00022EECAF001D80AD00500FA6EDE50FD6E7C
:1011F000DE50FE6EDE50FF6EFA5012000009D8A4D9
:1012000005D0000E00019C6F000E04D0000E0001FE
:101210009C6F800E9B6F26EE02F09BC0DFFF000EDE
:10122000E8CF03F6000E0001DA6F040ED96F000E4E
:101230000001616F040E606F7EECB9F0FD0E0001DD
:10124000E66F120002016251F00B0509626F200E79
:1012500002016C6F000E02016D6F010E0D018C6FAB
:10126000000E0D01886F000E896F000E8A6F000E50
:101270008B6F0001E6691200000E00016A6F000E1C
:101280006B6F000E6C6F000E6D6F35ECAEF00009E9
:10129000D8A41200020162510F0B060AD8A407D08D
:1012A0000D018C05D8A403D00001E66912003FECC3
:1012B000C4F0000E0D01886F000E896F000E8A6F5A
:1012C000000E8B6F0001E6691200000E0D01886FA1
:1012D000000E896F000E8A6F000E8B6F0001E669A9
:1012E00012000001DB510001DC11D8B407D0DBC0D3
:1012F000D9FFDCC0DAFF0001DFBE120002014C5151
:1013000002014B1102014A1105E1400E0201495D43
:10131000D8A00BD0400E00019D6F400E0201495F26
:10132000000E4A5B4B5B4C5B0BD049C29DF0000E3C
:101330000201496F000E4A6F000E4B6F000E4C6F9A
:1013400000019D510001996F9A6B000199510001B4
:10135000D95D00019A510001DA59D8A007D00001E7
:101360009D510001D95F000EDA5B22D0000E000112
:10137000A66F18D00001D9510001DA11D8B405D0F8
:101380000001D907D8A0DA070BD00001A651010D42
:10139000000EF324D96E060EF420DA6E000EDF6E16
:1013A0000001A62B00019D510001A65DD8A0E2D747
:1013B000010E0001606F000E0001616F060E00015A
:1013C000626F9DC063F0020E69ECACF060C0DBF0B0
:1013D00061C0DCF00201495102014A1102014B11C6
:1013E00002014C11D8A412000001E66912007F0E20
:1013F00003ECADF012000001E651000AD8B43CD76E
:10140000030AD8B4ADD6110AD8B410D6080AD8B495
:10141000DDD6010AD8B459D7050AD8B413D73B0A88
:10142000D8B439D60D0AD8B4F1D5020AD8B4F6D555
:10143000050AD8B44AD7D20AD8B453D7030AD7D7A3
:10144000F1D160C0D9FF61C0DAFF000EDE6E000E80
:10145000DD6E000120EE02F06051D9266151DA22E2
:101460000B0EDE6E000EDD6E000120EE04F060510A
:10147000D9266151DA22040EDF6E000120EE05F05C
:101480006051D9266151DA22000EDE6E000EDD6E4B
:10149000000120EE07F06051D9266151DA220B0ECF
:1014A000DE6E000EDD6E000120EE09F06051D926DF
:1014B0006151DA22040EDF6E000120EE0AF0605165
:1014C000D9266151DA22000EDE6E000EDD6E1200AA
:1014D00060C0D9FF61C0DAFF000EDE6E000EDD6E67
:1014E000000120EE02F06051D9266151DA22110E7E
:1014F000DE6E000EDD6E000120EE04F06051D92694
:101500006151DA22050EDF6E000120EE05F0605118
:10151000D9266151DA22000EDE6E000EDD6E00016A
:1015200020EE07F06051D9266151DA22110EDE6EED
:10153000000EDD6E000120EE09F06051D9266151E8
:10154000DA22050EDF6E000120EE0AF06051D92686
:101550006151DA22000EDE6E000EDD6E120060C0F8
:10156000D9FF61C0DAFF000EDE6E000EDD6E0001F5
:1015700020EE02F06051D9266151DA22DB0EDE6ED8
:10158000160EDD6E000120EE04F06051D926615187
:10159000DA220F0EDF6E000120EE05F06051D92631
:1015A0006151DA22000EDE6E000EDD6E000120EECB
:1015B00007F06051D9266151DA22DB0EDE6E160E7D
:1015C000DD6E000120EE09F06051D9266151DA226A
:1015D0000F0EDF6E000120EE0AF06051D926615136
:1015E000DA22000EDE6E000EDD6E120060C0D9FF42
:1015F00061C0DAFF000EDE6E000EDD6E000120EE2F
:1016000002F06051D9266151DA22DB0EDE6E160E31
:10161000DD6E000120EE04F06051D9266151DA221E
:101620000F0EDF6E000120EE05F06051D9266151EA
:10163000DA22000EDE6E000EDD6E000120EE07F0F5
:101640006051D9266151DA22DB0EDE6E160EDD6E98
:10165000000120EE09F06051D9266151DA220F0E07
:10166000DF6E000120EE0AF06051D9266151DA22C6
:10167000000EDE6E000EDD6E120060C0D9FF61C08C
:10168000DAFF370EDE6ECA0EDD6E000120EE02F0CC
:101690006051D9266151DA22290EDE6ED30EDD6E3D
:1016A000000120EE04F06051D9266151DA220D0EBE
:1016B000DF6E000120EE05F06051D9266151DA227B
:1016C000370EDE6ECA0EDD6E000120EE07F06051AF
:1016D000D9266151DA22290EDE6ED30EDD6E0001AD
:1016E00020EE09F06051D9266151DA220D0EDF6E2D
:1016F000000120EE0AF06051D9266151DA22000E75
:10170000DE6E000EDD6E120060C0D9FF61C0DAFF30
:10171000370EDE6ECA0EDD6E000120EE02F0605163
:10172000D9266151DA22290EDE6ED30EDD6E00015C
:1017300020EE04F06051D9266151DA220D0EDF6EE1
:10174000000120EE05F06051D9266151DA22370EF2
:10175000DE6ECA0EDD6E000120EE07F06051D92664
:101760006151DA22290EDE6ED30EDD6E000120EE0D
:1017700009F06051D9266151DA220D0EDF6E0001A9
:1017800020EE0AF06051D9266151DA22000EDE6E99
:10179000000EDD6E120060C0D9FF61C0DAFF370EA7
:1017A000DE6ECA0EDD6E000120EE02F06051D92619
:1017B0006151DA22290EDE6ED30EDD6E000120EEBD
:1017C00004F06051D9266151DA220D0EDF6E00015E
:1017D00020EE05F06051D9266151DA22370EDE6E17
:1017E000CA0EDD6E000120EE07F06051D92661516E
:1017F000DA22290EDE6ED30EDD6E000120EE09F036
:101800006051D9266151DA220D0EDF6E000120EE03
:101810000AF06051D9266151DA22000EDE6E000E08
:10182000DD6E120000016251000AD8B40AD6010A26
:10183000D8B44ED6030AD8B492D6010AD8B4D6D6B4
:10184000070AD8B41AD7010AD8B45ED7030AD8A4B5
:101850001200A1D7200E2B6001D0120065B2120039
:101860000101E9510101EA11D8B40CD1E9C1D9FF54
:10187000EAC1DAFF0101DFBE120004D10001D75135
:101880000001D811D8B407D0D7C0D9FFD8C0DAFF2B
:101890000001DFBE11D140EC9CF0010E0001606F31
:1018A000A40E0001616F030E0001626F400E000183
:1018B000636F010E69ECACF0E0D00001D75100017C
:1018C000D811D8B407D0D7C0D9FFD8C0DAFF0001EB
:1018D000DFBEF2D096ECCBF0010E0001606FA40EDB
:1018E0000001616F030E0001626F400E0001636F23
:1018F000010E69ECACF0C1D00001D7510001D81144
:10190000D8B407D0D7C0D9FFD8C0DAFF0001DFBEF6
:10191000D3D065ECCBF0010E0001606FA40E000186
:10192000616F030E0001626F400E0001636F010ED4
:1019300069ECACF0A2D00001D7510001D811D8B4A5
:1019400007D0D7C0D9FFD8C0DAFF0001DFBEB4D0BE
:101950005FECBFF0010E0001606FA40E0001616F2B
:10196000030E0001626F400E0001636F010E69EC0F
:10197000ACF083D00001D7510001D811D8B407D002
:10198000D7C0D9FFD8C0DAFF0001DFBE95D04AEC3E
:10199000C6F0010E0001606FA40E0001616F030E1E
:1019A0000001626F400E0001636F010E69ECACF044
:1019B00064D08C7281D00001D7510001D811D8B405
:1019C00007D0D7C0D9FFD8C0DAFF0001DFBE74D07E
:1019D000810E0301A46F80A002D0010E01D0000E81
:1019E0000301A56F010E0001606FA40E0001616F7D
:1019F000030E0001626F400E0001636F010E69EC7F
:101A0000ACF03BD00001D7510001D811D8B407D0B9
:101A1000D7C0D9FFD8C0DAFF0001DFBE4DD0370EE6
:101A20000301A46F22EE36F0DECF8CF0DDCF8DF017
:101A300000018D358D338C3300018D358D338C3322
:101A400000018D358D338C338CC094F08DC095F0B2
:101A500094C0A5F3000195510301A66F010E00018A
:101A6000606FA40E0001616F030E0001626F400EF3
:101A70000001636F010E69ECACF060C0D7F061C08B
:101A8000D8F01AD004017851100AD8B4F7D6010A58
:101A9000D8B413D7030AD8B42FD7010AD8B44BD778
:101AA000070AD8B467D7230AD8B4ACD7B70AD8B4D2
:101AB00080D7010AD8B47FD7010E97D00001965184
:101AC000010D780EF324D96E040EF420DA6EDF5087
:101AD00081ECB6F00001962BAAD0000196510001CE
:101AE0008C6F8D6B010E00018C27000E8D23780EFC
:101AF00000018C25D96E040E00018D21DA6EDF50B5
:101B00000001636F00019651010D780EF324D96E28
:101B1000040EF420DA6EDF500BECB6F0020E61D04A
:101B20000001965100018C6F8D6B010E00018C2716
:101B3000000E8D23780E00018C25D96E040E000155
:101B40008D21DA6EDF500001636F000196510001B4
:101B50008E6F8F6B020E00018E27000E8F23780E82
:101B600000018E25D96E040E00018F21DA6EDF5040
:101B70000001646F000196510001906F916B030E9C
:101B800000019027000E9123780E00019025D96E58
:101B9000040E00019121DA6EDF500001656F000133
:101BA00096510001926F936B040E00019227000E74
:101BB0009323780E00019225D96E040E0001932123
:101BC000DA6EDF500001666F00019651010D780E4C
:101BD000F324D96E040EF420DA6EDF50DDECA9F0A8
:101BE000050E0001962723D0410E0001966F1FD0ED
:101BF00000019651010D780EF324D96E040EF420E5
:101C0000DA6EDF50F00B00018C6F8D6B00018D518F
:101C1000000AD8A4E9D700018C51300AD8B44ED7B5
:101C2000700AD8B45AD7200AD8B47AD7DDD73D0E77
:101C300000019665DDD7000E0001606F780E00018F
:101C4000616F040E0001626F400E0001636F010EB0
:101C500069ECACF060C0E9F161C0EAF1120019EC86
:101C6000A4F078C0D9FF79C0DAFF000164C0DEFFBC
:101C7000000165C0DEFF000166C0DEFF000167C035
:101C8000DEFF9AC260F09BC261F09CC262F09DC20E
:101C900063F016C064F017C065F00001666B676BF7
:101CA000F0ECBCF0000120EE04F07851D926795117
:101CB000DA22000160C0DEFF000161C0DDFF96C2D4
:101CC00060F097C261F098C262F099C263F016C0EA
:101CD00064F017C065F00001666B676BF0ECBCF058
:101CE000000120EE06F07851D9267951DA22000160
:101CF00060C0DEFF000161C0DDFF92C260F093C2F0
:101D000061F094C262F095C263F016C064F017C02F
:101D100065F00001666B676BF0ECBCF0000120EE33
:101D200008F07851D9267951DA22000160C0DEFF2F
:101D3000000161C0DDFF8EC260F08FC261F090C211
:101D400062F091C263F016C064F017C065F0000144
:101D5000666B676BF0ECBCF0000120EE0AF0785186
:101D6000D9267951DA22000160C0DEFF000161C08E
:101D7000DDFF8AC260F08BC261F08CC262F08DC25E
:101D800063F016C064F017C065F00001666B676B06
:101D9000F0ECBCF0000120EE0CF07851D92679511E
:101DA000DA22000160C0DEFF000161C0DDFF86C2F3
:101DB00060F087C261F088C262F089C263F016C029
:101DC00064F017C065F00001666B676BF0ECBCF067
:101DD000000120EE0EF07851D9267951DA22000167
:101DE00060C0DEFF000161C0DDFFF40E020182254C
:101DF0000001606F010E020183210001616F000E7E
:101E0000020184210001626F000E020185210001A0
:101E1000636FE80E0001646F030E656F000E666F5E
:101E2000000E676FF0ECBCF0000120EE10F078516E
:101E3000D9267951DA22000160C0DEFF000161C0BD
:101E4000DDFFF40E02017E250001606F010E02012C
:101E50007F210001616F000E020180210001626F8D
:101E6000000E020181210001636FE80E0001646F22
:101E7000030E656F000E666F000E676FF0ECBCF02E
:101E8000000120EE12F07851D9267951DA220001B2
:101E900060C0DEFF000161C0DDFF000120EE14F034
:101EA0007851D9267951DA227AC260F07BC261F08A
:101EB0007CC262F07DC263F016C064F017C065F0AA
:101EC0000001666B676BEAECAFF060C06EF061C05A
:101ED0006FF0D1ECD1F0DF6E000120EE15F07851FB
:101EE000D9267951DA2276C260F077C261F078C2E1
:101EF00062F079C263F016C064F017C065F00001AB
:101F0000666B676BEAECAFF060C06EF061C06FF0BB
:101F1000D1ECD1F0DF6E000120EE16F07851D92619
:101F20007951DA2272C260F073C261F074C262F059
:101F300075C263F016C064F017C065F00001666BEF
:101F4000676BEAECAFF060C06EF061C06FF0D1EC8F
:101F5000D1F0DF6E000120EE17F07851D9267951CB
:101F6000DA22D8900201B13100017B6F0201B03159
:101F700000017A6F00017A51DF6E000120EE18F047
:101F80007851D9267951DA22D8900201AF31000177
:101F90007B6F0201AE3100017A6F00017A51DF6E72
:101FA000000120EE19F07851D9267951DA22000E7D
:101FB000DF6E000120EE1AF07851D9267951DA222D
:101FC000000EDF6E000120EE1BF07851D92679510A
:101FD000DA22000EDF6E000120EE1CF07851D926C7
:101FE0007951DA22000EDF6E000120EE1DF07851EB
:101FF000D9267951DA22000EDF6E000120EE1EF0A4
:102000007851D9267951DA22F0C1DFFF78C060F02B
:1020100079C061F03CECCFF000017A6F000120EE56
:102020001FF07851D9267951DA227AC0DFFF1200E9
:10203000040EF66EFD0EF76E000EF86E20EE92F0B6
:10204000120E0900F5CFDEFFE806FBE2F10EF66E98
:10205000FC0EF76E000EF86E20EEA5F0120E0900D1
:10206000F5CFDEFFE806FBE2F50EF66EFD0EF76E2D
:10207000000EF86E20EEB8F00D0E0900F5CFDEFF71
:10208000E806FBE222EE27F0DECF60F0DDCF61F064
:102090000001000E61BFFF0E626F636F22EE32F02F
:1020A000DECF64F0DDCF65F00001000E65BFFF0EEE
:1020B000666F676F3BECC7F060C0CDF061C0CEF0DB
:1020C00062C0CFF063C0D0F022EE12F0DECFC9F0D4
:1020D000DDCFCAF00001000ECABFFF0ECB6FCC6F80
:1020E000C9C060F0CAC061F0CBC062F0CCC063F080
:1020F00022EE1DF0DECF64F0DDCF65F00001000EB2
:1021000065BFFF0E666F676F3BECC7F060C0C9F03C
:1021100061C0CAF062C0CBF063C0CCF0C9C060F04F
:10212000CAC061F0CBC062F0CCC063F0E80E000121
:10213000646F030E656F000E666F000E676FEAEC4A
:10214000AFF060C0C9F061C0CAF062C0CBF063C03C
:10215000CCF022EE27F0DECFCDF0DDCFCEF00001C7
:10216000000ECEBFFF0ECF6FD06FCDC060F0CEC0DF
:1021700061F0CFC062F0D0C063F022EE32F0DECF6B
:1021800064F0DDCF65F00001000E65BFFF0E666FE5
:10219000676F3BECC7F060C0CDF061C0CEF062C0AD
:1021A000CFF063C0D0F0C9C064F0CAC065F0CBC046
:1021B00066F0CCC067F0CDC060F0CEC061F0CFC09B
:1021C00062F0D0C063F0EAECAFF060C06EF061C0C6
:1021D0006FF062C070F063C071F0AFECBFF06EC022
:1021E000C6F06FC0C7F070C0C8F0CDC060F0CEC000
:1021F00061F0CFC062F0D0C063F0E80E0001646F00
:10220000030E656F000E666F000E676FEAECAFF0AD
:1022100060C0CDF061C0CEF062C0CFF063C0D0F03E
:10222000000E0001D16F16D00001D151010D920EA8
:10223000F324D96E000EF420DA6E0001D151010DA5
:10224000540EF324E16E030EF420E26EDFCFE7FFBD
:102250000001D12B0001D151010D920EF324D96E52
:10226000000EF420DA6EDF50D8A4DED7000E000195
:10227000D16F16D00001D151010DA50EF324D96EF6
:10228000000EF420DA6E0001D151010D680EF32426
:10229000E16E030EF420E26EDFCFE7FF0001D12BE9
:1022A0000001D151010DA50EF324D96E000EF420CA
:1022B000DA6EDF50D8A4DED7C9C078F0CAC079F092
:1022C000030E00017A6F7C0E00017B6F030E00018C
:1022D0007C6F8AEC99F0CDC078F0CEC079F0030E17
:1022E00000017A6F860E00017B6F030E00017C6F88
:1022F0008AEC99F0000E0001D16F16D00001D15187
:10230000010DB80EF324D96E000EF420DA6E000130
:10231000D151010D900EF324E16E030EF420E26E14
:10232000DFCFE7FF0001D12B0001D151010DB80E25
:10233000F324D96E000EF420DA6EDF50D8A4DED775
:10234000C6C060F0C7C061F0C8C062F025ECABF059
:1023500060C078F061C079F0010E00017A6F930ED1
:1023600000017B6F030E00017C6F8AEC99F0CDC0F9
:1023700090F0CEC091F00001901F911F904B912BD7
:102380000001C951000190250001786F0001CA5178
:10239000000191210001796F030E00017A6F9E0EFA
:1023A00000017B6F030E00017C6F8AEC99F0120034
:1023B00077ECB0F0000EA0ECC9F0CFECA5F07AEC11
:1023C000D0F08BECD5F002010951D8A4FAD7020164
:1023D00028BF08D0E00E0201275D2E0E0201285909
:1023E000D8B003D0100E35ECCDF0020128AF13D0D9
:1023F00002012729FF0E02012859D8B00CD0010E86
:1024000035ECCDF0020E35ECCDF0040E35ECCDF010
:10241000080E35ECCDF023ECC8F003ECB1F0000E63
:10242000A3ECC2F0000160510201342700016151A8
:1024300002013523010EA3ECC2F00001605102013C
:1024400038270001615102013923020EA3ECC2F0CA
:102450000001605102013C270001615102013D234E
:1024600022D1010E00016A6F000E00016B6F000E99
:10247000AAECCEF04CD12AEC8CF049D125ECCCF072
:10248000020108390F0B030B0001D56FD66BD890F2
:102490000001D537D6371F0E0001D525D96E020EA3
:1024A0000001D621DA6E000165C0DEFF000166C0C2
:1024B000DDFF010E00016A6F000E00016B6F030E5D
:1024C000AAECCEF012ECB2F022D1E6ECD5F0050A7F
:1024D000D8A41DD102014051B8ECC3F018D1E6ECEC
:1024E000D5F015D125ECCCF0020108390F0B030B08
:1024F0000001D56FD66BD8900001D537D6370A0EBC
:102500000001D525D96E020E0001D621DA6E000138
:1025100065C0DEFF000166C0DDFF010E00016A6FCD
:10252000000E00016B6F010EAAECCEF095ECB2F03C
:10253000EED02AEC8CF0EBD025ECCCF0020108397F
:102540000F0B030B0001D56FD66BD8900001D53768
:10255000D637290E0001D525D96E020E0001D621ED
:10256000DA6E000165C0DEFF000166C0DDFF010E0E
:1025700000016A6F000E00016B6F020EAAECCEF034
:1025800036ECA7F0C4D02AEC8CF0BCEC96F0BDEC95
:10259000D5F01E0E0001601900016111D8A4B7D05A
:1025A000EAECC2F019ECB5F0B2D025ECCCF00201A7
:1025B00008390F0B030B0001D56FD66BD8900001C3
:1025C000D537D637140E0001D525D96E020E00017D
:1025D000D621DA6E000165C0DEFF000166C0DDFFB6
:1025E000E3ECA7F094D0C7ECCBF091D034C26CF000
:1025F00035C26DF0040E00016E6F5CECAFF06CC084
:1026000036F26DC037F2000E0201356F000E346FE6
:1026100038C26CF039C26DF0050E00016E6F5CECD3
:10262000AFF06CC03AF26DC03BF2000E0201396FA0
:10263000000E386F3CC26CF03DC26DF0060E00011A
:102640006E6F5CECAFF06CC03EF26DC03FF2000EFE
:1026500002013D6F000E3C6FB1ECD5F0020137BFB7
:102660000AD0B90E0201365D0B0E02013759D8A00F
:1026700002D08C820BD0020137BF07D0C40E0201FA
:10268000365D090E02013759D8A08C9202014051E3
:10269000B8ECC3F03CD0E6ECD5F0050AD8A437D0AE
:1026A0002FECC3F034D0020108510F0B0001D56F9D
:1026B000D66B0001D651000AD8A429D00001D5510B
:1026C000000AD8B4CED6010AD8B4D5D6020AD8B4F6
:1026D000D5D6070AD8B4F9D6010AD8B400D7030A68
:1026E000D8B400D70E0AD8B424D7010AD8B424D756
:1026F000020AD8B448D7070AD8B457D7010AD8B4C1
:1027000072D7030AD8B472D7010AD8B4C4D7010E5D
:102710000201096F56D63A0EF66EFC0EF76E000EE9
:10272000F86E21EE0FF0140E0900F5CFDEFFE8067B
:10273000FBE22A0EF66EFD0EF76E000EF86E21EE2D
:1027400060F0110E0900F5CFDEFFE806FBE2170E80
:10275000F66EFD0EF76E000EF86E21EE4DF0120EC5
:102760000900F5CFDEFFE806FBE2A90EF66EFE0ECD
:10277000F76E000EF86E21EE08F0060E0900F5CF98
:10278000DEFFE806FBE2910EF66EFE0EF76E000E1F
:10279000F86E21EE00F0070E0900F5CFDEFFE80627
:1027A000FBE2450EF66EFE0EF76E000EF86E21EEA1
:1027B00082F00B0E0900F5CFDEFFE806FBE2950E76
:1027C000F66EFD0EF76E000EF86E21EE72F00F0E33
:1027D0000900F5CFDEFFE806FBE2250EF66EFC0EE3
:1027E000F76E000EF86E21EE24F0140E0900F5CFFE
:1027F000DEFFE806FBE28D0EF66EFC0EF76E000EB5
:10280000F86E21EE39F0130E0900F5CFDEFFE80671
:10281000FBE2000E01018E6F16D001018E51010DF9
:102820000F0EF324D96E010EF420DA6E01018E51E1
:10283000010D540EF324E16E030EF420E26EDFCF9F
:10284000E7FF01018E2B01018E51010D0F0EF324C4
:10285000D96E010EF420DA6EDF50D8A4DED7000E58
:1028600001018E6F16D001018E51010D600EF3240F
:10287000D96E010EF420DA6E01018E51010D680E41
:10288000F324E16E030EF420E26EDFCFE7FF0101D7
:102890008E2B01018E51010D600EF324D96E010EB5
:1028A000F420DA6EDF50D8B423D0DDD701018E5189
:1028B000010D4D0EF324D96E010EF420DA6E0101E4
:1028C0008E51010D680EF324E16E030EF420E26ECA
:1028D000DFCFE7FF01018E2B01018E51010D4D0E5F
:1028E000F324D96E010EF420DA6EDF50D8A4DED7BF
:1028F000000E01018E6F8CD001018E51010D820EF0
:10290000F324D96E010EF420DA6E01018E51010D0F
:102910007C0EF324E16E030EF420E26EDFCFE7FFBE
:1029200001018E2B01018E51010D820EF324D96E0F
:10293000010EF420DA6EDF50D8B478D0DDD7010173
:102940008E51010D720EF324D96E010EF420DA6E51
:1029500001018E51010D7C0EF324E16E030EF42073
:10296000E26EDFCFE7FF01018E2B01018E51010DD9
:10297000720EF324D96E010EF420DA6EDF50D8B453
:1029800055D0DDD701018E51010D240EF324D96EEF
:10299000010EF420DA6E01018E51010D7C0EF3243C
:1029A000E16E030EF420E26EDFCFE7FF01018E2B14
:1029B00001018E51010D240EF324D96E010EF42075
:1029C000DA6EDF50D8B432D0DDD701018E51010D5F
:1029D000390EF324D96E010EF420DA6E01018E5106
:1029E000010D7C0EF324E16E030EF420E26EDFCFC6
:1029F000E7FF01018E2B01018E51010D390EF324E9
:102A0000D96E010EF420DA6EDF50D8B40FD0DDD7C6
:102A1000EFECD5F0000AD8B485D7010AD8B4A5D711
:102A2000030AD8B4C5D7010AD8B4E5D7ECECD5F081
:102A30000001906F000190510001786F796B000EDA
:102A400000017A6F900E00017B6F030E00017C6F16
:102A50008AEC99F012007DD152C2DCF153C2DBF155
:102A600054C2DAF155C2D9F157C2DAF058C2D9F0DE
:102A70000001D95100018F6F0001DA510001906F00
:102A80000001916B0001926B090ED89000018F3705
:102A9000903791379237E82EF8D78FC06AF090C000
:102AA0006BF091C06CF092C06DF035ECAEF00009A7
:102AB000D8A460D1D0C260F0D1C261F022EECAF0D9
:102AC00001D80AD00500FA6EDE50FD6EDE50FE6EB3
:102AD000DE50FF6EFA5012000009D8B418D0010E73
:102AE0000D018C6F02016251F00B0709626F270E16
:102AF00002016C6F000E02016D6F000E0001606F2D
:102B0000020EC7ECABF0000E1F6E1F501200010E3C
:102B10000001E76F0001D9510001DA11D8B416D1D4
:102B2000030E1F6E000E0101EB6F060E0101EC6F2C
:102B3000000E0D01886F020E896F000E8A6F000E65
:102B40008B6F0D0188510D0189110D018A110D0145
:102B50008B11D8B421D00001DD510001DE11D8B4B1
:102B600007D0DDC0D9FFDEC0DAFF0001DFBE02D131
:102B7000000E0001606FEBC161F0ECC162F0400E2D
:102B80000001636F020E69ECACF060C0DDF061C063
:102B9000DEF0040E1F6E25D0D0C260F0D1C261F00D
:102BA00022EECAF001D80AD00500FA6EDE50FD6EA2
:102BB000DE50FE6EDE50FF6EFA5012000009D8B4EF
:102BC0000ED0010E0D018C6F02016251F00B020953
:102BD000626F270E02016C6F000E02016D6F020E14
:102BE000B6D00001DD510001DE11D8B407D0DDC040
:102BF000D9FFDEC0DAFF0001DFBEBCD0000120EE4D
:102C000001F0DD51D926DE51DA22DF5000018F6F4D
:102C10008FC090F00001916B926B936B000190510B
:102C20000201495F0001915102014A5B000192518A
:102C300002014B5B0001935102014C5B000120EE4D
:102C400001F0DD51D926DE51DA22DF5000018F6F0D
:102C50008FC090F00001916B926B936B00019051CB
:102C60000D01885F000191510D01895B00019251B6
:102C70000D018A5B000193510D018B5B400E010138
:102C8000EB27000EEC23030E62D00D018C51D8A46B
:102C900047D0D0C284F0D1C285F0D9C186F0DAC164
:102CA00087F0DBC188F0DCC189F0000E00018A6F7B
:102CB000060E00018B6F0101D9510101DA110101EA
:102CC000DB110101DC11D8A402D0010E01D0000EED
:102CD00000018C6F22EECDF001D80AD00500FA6E0B
:102CE000DE50FD6EDE50FE6EDE50FF6EFA501200BA
:102CF000E806D8B415D0640E0101F86103D00101D3
:102D0000F82B38D0010E0D018C6F02016251F00BCF
:102D10000309626F000E02016C6F000E02016D6FFD
:102D2000010E0101D927000EDA23DB23DC23000189
:102D3000D907D8A0DA07010E0AD0020E0D018C6F58
:102D4000000E0001606F020EC7ECABF0000E1F6EAC
:102D500011D01F50000AD8B47FD6010AD8B4DAD6F1
:102D6000030AD8B492D7010AD8B4EBD6070AD8B46C
:102D700038D7E3D71F50120082ECD5F00001746FF2
:102D8000000174510001786F796B0101EF5100016E
:102D9000746F756B000178510001741906E1000130
:102DA000795100017519D8B4120078C0EFF112C240
:102DB00074F013C275F0000E000175BFFF0E766F40
:102DC000776F0001745102019A27000175510201C9
:102DD0009B230001765102019C23000177510201DF
:102DE0009D231DC274F01EC275F0000E000175BF58
:102DF000FF0E766F776F0001745102019627000174
:102E000075510201972300017651020198230001B8
:102E100077510201992327C274F028C275F0000E81
:102E2000000175BFFF0E766F776F000174510201CC
:102E3000922700017551020193230001765102018E
:102E40009423000177510201952332C274F033C2FA
:102E500075F0000E000175BFFF0E766F776F0001F1
:102E6000745102018E270001755102018F23000168
:102E700076510201902300017751020191234AEC1F
:102E8000C5F06EC078F06FC079F0D890000179314C
:102E90000001756F000178310001746F00017451F9
:102EA00002018A270001755102018B23000E0201E5
:102EB0008C23000E02018D2300017851020182272C
:102EC0000001795102018323000E02018423000EC8
:102ED0000201852308ECC5F06DC078F06EC079F072
:102EE000D890000179310001756F0001783100013F
:102EF000746F0001745102018627000175510201AF
:102F00008723000E02018823000E0201892300019D
:102F1000785102017E270001795102017F23000EC2
:102F200002018023000E0201812336C274F037C2F1
:102F300075F0000E000175BFFF0E766F776F000110
:102F4000745102017A270001755102017B230001AF
:102F5000765102017C230001775102017D233AC2A0
:102F600074F03BC275F0000E000175BFFF0E766F66
:102F7000776F00017451020176270001755102013B
:102F80007723000176510201782300017751020175
:102F900079233EC274F03FC275F0000E000175BF88
:102FA000FF0E766F776F00017451020172270001E6
:102FB000755102017323000176510201742300014F
:102FC000775102017523EFECD5F00001746F7F0E8D
:102FD00000017417D8B403D00201B04BB12B020129
:102FE0000151D8A403D00201AE4BAF2B010E71ECFE
:102FF000D4F00009D8B402D00101F08F020E71ECB8
:10300000D4F00009D8B402D00101F08D040E71ECA7
:10301000D4F00009D8B402D00101F08B080E71EC95
:10302000D4F00009D8B402D00101F089100E71EC7F
:10303000D4F00009D8B402D00101F087200E71EC61
:10304000D4F00009D8B402D00101F0850101F08369
:10305000164A172A12000001A96F3F0E0001A96548
:1030600001D012000001A95132ECC1F00009D8A42E
:103070001200B00E0001876F000E0001886F000182
:10308000A95100ECC9F0CCC09FF0CDC0A0F0CEC0DB
:10309000A1F0CFC0A2F0CAC0A5F0CBC0A6F0000E30
:1030A0000001AC6F000EAD6F000EAE6F000EAF6F83
:1030B00013D0A5C087F0A6C088F0AFECCCF087C0D5
:1030C000A5F088C0A6F0000E0001AC27020EAD23CB
:1030D000000EAE23000EAF23ACC095F0ADC096F04D
:1030E000AEC097F0AFC098F00001951F961F971FD4
:1030F000981F952B000E96239723982300019F512C
:10310000000195250001996F0001A0510001962151
:1031100000019A6F0001A1510001972100019B6FEE
:103120000001A2510001982100019C6F00019C51F7
:1031300000019B11BEE100019905020E00019A59A0
:10314000D8B0B7D7ACC095F0ADC096F00001951FD0
:10315000961F954B962B00019F510001952500016C
:10316000A76F0001A051000196210001A86F000E79
:103170000001AC6F000EAD6F000EAE6F000EAF6FB2
:103180008AD0020E0001A8190001A711D8A428D0E6
:10319000000E0001886F000E876F12ECC2F087C02E
:1031A000A3F088C0A4F0A5C088F0A6C089F0A3C091
:1031B0008AF0A4C08BF00AECCEF0A3C088F0A4C0C3
:1031C00089F0FF0E00018B6F8A690AECCEF0A3C074
:1031D000A5F0A4C0A6F0000E0001A86F000EA76F16
:1031E000A5C060F0A6C061F0E4ECD4F060C09DF032
:1031F00061C09EF0A7C095F0A8C096F00001951F91
:10320000961F954B962B000E000195250001AA6F85
:10321000020E000196210001AB6F0001AA510001CE
:10322000915D0001AB5100019259D8B004D091C01A
:10323000AAF092C0ABF09DC07FF09EC080F0A7C006
:1032400081F0A8C082F0AAC083F0ABC084F0000176
:10325000AC51000193250001856F0001AD510001C3
:1032600094210001866FEBECC7F00001AA51000128
:10327000AC270001AB510001AD23000E0001AE23CD
:10328000000E0001AF230001AA510001A727000191
:10329000AB510001A823000191510001956F00017D
:1032A00092510001966F0001976B0001986B00012D
:1032B00095510001AC5D000196510001AD5900012E
:1032C00097510001AE59000198510001AF59D8A0A3
:1032D00058D7000191510001CC2700019251000103
:1032E000CD23000E0001CE23000E0001CF23B00E2F
:1032F00000016D6F000E00016E6F00ECD0F0B00E9B
:103300000001886F000E0001896F0001A951CAEC0D
:10331000C8F01200830E0001706F000E0001716F83
:1033200078C072F079C073F0000E0001756F0A0E5C
:10333000746F18ECCFF0830E0001606F000E000177
:10334000616FCFECCEF00001605100018D6F000184
:1033500079AF72D000018D51000800017A25020F6B
:1033600000018E6F00018E51800A7F0FD8A0C2D05D
:103370007AC08FF000018F29D8B45AD000018F5144
:1033800000018EBF04D0FF0A8E25D8B03AD08EC07F
:103390007DF000017E6B7DBF7E0700017D1F7E1FDB
:1033A0007D4B7E2B00018F5100017F6F806B0001F0
:1033B0007D5100017F2700017E5100018023010E15
:1033C00000017F27000E8023830E00017F25D96E28
:1033D000000E00018021DA6E00018F510001816F23
:1033E000826B010E00018127000E8223830E0001F3
:1033F0008125E16E000E00018221E26EDFCFE7FF42
:1034000014D000018F5100017D6F7E6B010E000111
:103410007D27000E7E23830E00017D25D96E000ED0
:1034200000017E21DA6E300EDF6E00018F07A2D719
:1034300000017A51020F5CD000018D51000800019B
:103440007A2500017D6F00017D2900018E6F00014A
:103450008E51800A7F0FD8A04DD07AC08FF0000126
:103460008F29D8B443D000018F5100018EBF04D002
:10347000FF0A8E25D8B02CD08EC07DF000017E6B67
:103480007DBF7E0700017D1F7E1F7D4B7E2B0001CF
:103490008F5100017F6F806B00017D5100017F27FC
:1034A00000017E5100018023830E00017F25D96E2B
:1034B000000E00018021DA6E00018F51010D830E94
:1034C000F324E16E000EF420E26EDFCFE7FF0BD0B5
:1034D00000018F51010D830EF324D96E000EF420EC
:1034E000DA6E300EDF6E00018F07B9D700017A293E
:1034F00000018D6F00017A51000800018D25000147
:103500007D6F00017D0500017A6F000E00018F6F55
:103510002ED000018F51010D830EF324D96E000EC1
:10352000F420DA6E00018F51010DF35000017B256C
:10353000E16EF45000017C21E26EDFCFE7FF000175
:103540007A5100018F19D8A410D000018F2B0001EF
:103550008F51010DF35000017B25D96EF45000010D
:103560007C21DA6E2E0EDF6E2AD000018F2B000137
:103570008D5100018F5DD8B022D0CBD700018F5183
:10358000010D830EF324D96E000EF420DA6E0001D3
:103590008F5100017D6F7E6B010E00017D27000EB3
:1035A0007E2300017D5100017B25E16E00017E51EB
:1035B00000017C21E26EDFCFE7FF00018F2B0001CD
:1035C0008D5100018F5DD8B01200D8D7200E2B1876
:1035D000D8A41200A09843D10001DD510001DE11F2
:1035E000D8B407D0DDC0D9FFDEC0DAFF0001DFBEEE
:1035F00045D1000E0001B16F1E0E0001B16501D072
:1036000017D00001B151010D400EF324D96E0D0EFB
:10361000F420DA6E0001B151010D410EF324E16E88
:10362000020EF420E26EDFCFE7FF0001B12BE4D7FA
:10363000000120EE01F0DD51D926DE51DA221F0E05
:10364000DE18D8A485D0550E020141190CE1530EA5
:10365000020142197DE1420E0201431979E1430E54
:1036600002014419D8A474D0010E0101F56F0201C2
:103670004E51D8A460D0110E02014F615CD00201FE
:103680004F51D8B458D04DC2ACF03F0E0001AC172A
:10369000D8A451D0550E0D01806F530E816F420E8C
:1036A000826F530E836F45C284FD46C285FD47C2BB
:1036B00086FD48C287FD000E0D01886F000E896FE0
:1036C000000E8A6F000E8B6F000E0D018C6F0001D3
:1036D000E669000E0101F96F000E1F6E000E010178
:1036E000F86F030E02015019D8B40BD00201629199
:1036F000629362956297000E02016C6F000E0201E8
:103700006D6F02014DAF02D0010E01D0020E00011B
:10371000E76F0201495102014A1102014B110201F6
:103720004C11D8B402D0000E01D0010E0001E56F9B
:1037300050C2E6F0A3D0010E0001606F020EC7EC8C
:10374000ABF0000E0001606F020EC7ECABF096D03C
:10375000010E0001606F020EC7ECABF0000E00011D
:10376000606F020EC7ECABF0000E0101F56F86D062
:1037700086ECA6F0FF0AD8A481D016D086ECA6F07D
:10378000FF0AD8A47BD00D018C51D8A40DD00D0117
:1037900088510D0189110D018A110D018B11D8B4C9
:1037A00003D0020E0D018C6F030E49D014C0ADF092
:1037B00015C0AEF00001AD510001AE11D8B40BD070
:1037C00014C0AFF015C0B0F0AFC0D9FFB0C0DAFF81
:1037D0000001DFBE53D0010E0001606F800E0001BA
:1037E000616F0D0E0001626F0D0E0001636F020E1E
:1037F00069ECACF060C0DBF061C0DCF00001DD51D1
:103800000001DE11D8B407D0DDC0D9FFDEC0DAFF79
:103810000001DFBE13D0000E0001606F400E0001FA
:10382000616F0D0E0001626F400E0001636F020EAA
:1038300069ECACF060C0DDF061C0DEF0000E0001AC
:10384000E76F1CD0000E0001E76F020E0D018C6FB8
:10385000000E0001606F020EC7ECABF00FD000014C
:10386000E751000AD8B4B8D6010AD8B481D7030A00
:10387000D8B484D7010AD8B499D7E4D7A088120065
:10388000100E0301A46F12C2A5F30201135103012C
:10389000A66F27C2A7F3020128510301A86F1DC21A
:1038A000A9F302011E510301AA6F32C2ABF3020158
:1038B00033510301AC6F36C2ADF30201375103013E
:1038C000AE6F3AC2AFF302013B510301B06F3EC28B
:1038D000B1F302013F510301B26F05C2B3F340C21D
:1038E000B4F319ECD5F00301B56F2DECD5F003015D
:1038F000B66F4BECD5F00301B76F41ECD5F0030187
:10390000B86F37ECD5F00301B96F23ECD5F00301A4
:10391000BA6FEFECD5F00301BB6FECECD5F003010F
:10392000BC6FA0ECD1F00301BD6FE9ECD5F0030151
:10393000BE6F34C2BFF3020135510301C06F38C2FC
:10394000C1F3020139510301C26F3CC2C3F302014A
:103950003D510301C46F020108390F0B030B000135
:10396000616F626BD8900001613762370A0E000107
:103970006125D96E020E00016221DA6EDF5003016B
:10398000C56F020108390F0B030B0001616F626BF9
:10399000D8900001613762370A0E00016125D96EA7
:1039A000020E00016221DA6EDECF63F0DDCF64F03B
:1039B00064C063F00001646B63BF6469000163511C
:1039C0000301C66F020108390F0B030B0001616F81
:1039D000626BD8900001613762371F0E00016125CC
:1039E000D96E020E00016221DA6EDF500301C76F4B
:1039F000020108390F0B030B0001616F626BD89055
:103A00000001613762371F0E00016125D96E020E79
:103A100000016221DA6EDECF63F0DDCF64F064C0B6
:103A200063F00001646B63BF6469000163510301CB
:103A3000C86F020108390F0B030B0001616F626B45
:103A4000D890000161376237140E00016125D96EEC
:103A5000020E00016221DA6EDF500301C96F02011C
:103A600008390F0B030B0001616F626BD8900001E6
:103A700061376237140E00016125D96E020E000114
:103A80006221DA6EDECF63F0DDCF64F064C063F0F4
:103A90000001646B63BF6469000163510301CA6F75
:103AA000020108390F0B030B0001616F626BD890A4
:103AB000000161376237290E00016125D96E020EBF
:103AC00000016221DA6EDF500301CB6F0201083979
:103AD0000F0B030B0001616F626BD890000161371F
:103AE0006237290E00016125D96E020E00016221A4
:103AF000DA6EDECF63F0DDCF64F064C063F0000106
:103B0000646B63BF6469000163510301CC6FE6EC31
:103B1000D5F00301CD6F08C2CEF312000D013205BE
:103B2000D8A410D00D0130511F0B0009D8A40AD021
:103B30000D8E030E0D013119D8A402D0010E01D053
:103B4000000E286E0D013251D8A412000D01305123
:103B50001F0B020AD8A412000D0134510F0B0009EB
:103B6000D8B412000D0134510F0B456E030E4560A1
:103B70001200200E2B18D8A412000D8E0D0134BF98
:103B80001BD00D0134510F0B456E4550020DD30E65
:103B9000F324D96E010EF420DA6EDECF49F0DDCFCA
:103BA0004AF00D0134510F0B456E4550010DE10EE9
:103BB000F324D96E010E1AD00D0134510F0B456E4E
:103BC0004550020D100EF324D96E000EF420DA6E6B
:103BD000DECF49F0DDCF4AF00D0134510F0B456EB9
:103BE0004550010DE40EF324D96E010EF420DA6E77
:103BF000DF50486E48B006D0FB0E4914496EFF0EE8
:103C00004A1404D0040E4910496E4A504A6E0D0100
:103C100034BF0BD00D0134510F0B456E4550020DD2
:103C2000D30EF324D96E010E0AD00D0134510F0BBF
:103C3000456E4550020D100EF324D96E000EF4208F
:103C4000DA6E49C0DEFF4AC0DDFF030E0D013119F7
:103C5000D8A42FD049C0D9FF4AC0DAFFDFAE1CD0AC
:103C60000D0134BF0BD00D0134510F0B456E455083
:103C7000010DE10EF324D96E010E0AD00D0134516D
:103C80000F0B456E4550010DE40EF324D96E010E65
:103C9000F420DA6E0101DF8249C0D9FF4AC0DAFFA1
:103CA000000EDB8449C0D9FF4AC0DAFF000EDB8E6C
:103CB0001200040E4918496E4A504A6E49C0D9FF95
:103CC0004AC0DAFFDFAE1BD049C0D9FF4AC0DAFFD5
:103CD0007F0EDF1649C0D9FF4AC0DAFF000EDB8C29
:103CE000000E3E6E050E3D6E49C03FF04AC040F0EA
:103CF000000E426E020E416E82ECC4F006D049C046
:103D0000D9FF4AC0DAFF000EDB8C040E4918496E59
:103D10004A504A6E48B206D049C0D9FF4AC0DAFFBD
:103D2000DFAE31D00D0134BF0BD00D0134510F0B7C
:103D3000456E4550010DE10EF324D96E010E0AD0F7
:103D40000D0134510F0B456E4550010DE40EF32467
:103D5000D96E010EF420DA6E0101DF9249C0D9FF5D
:103D60004AC0DAFF3B0EDF16000E3E6E050E3D6EBA
:103D700049C03FF04AC040F0000E426E020E416E54
:103D800082ECC4F006D049C0D9FF4AC0DAFF3B0E2E
:103D9000DF160D0134510F0B456E4550010D260EF7
:103DA000F324466E0F0EF420476E46C0D9FF47C07D
:103DB000DAFFFE0EDF1612000001A86F030EF66E8A
:103DC000FE0EF76E000EF86E20EE9AF00D0E090052
:103DD000F5CFDEFFE806FBE2A50EF66EFD0EF76EF0
:103DE000000EF86E20EE8AF00F0E0900F5CFDEFF10
:103DF000E806FBE2640EF66EFC0EF76E000EF86E3F
:103E000020EE60F0140E0900F5CFDEFFE806FBE2BD
:103E10004F0EF66EFC0EF76E000EF86E20EE75F08B
:103E2000140E0900F5CFDEFFE806FBE2000E0001EC
:103E3000A96F16D00001A951010D9A0EF324D96E75
:103E4000000EF420DA6E0001A951010D540EF32486
:103E5000E16E030EF420E26EDFCFE7FF0001A92B35
:103E60000001A951010D9A0EF324D96E000EF42021
:103E7000DA6EDF50D8A4DED7020128AF2DD00201C0
:103E80002729FF0E02012859D8B026D0000E0001C4
:103E9000A96F16D00001A951010D8A0EF324D96E25
:103EA000000EF420DA6E0001A951010D680EF32412
:103EB000E16E030EF420E26EDFCFE7FF0001A92BD5
:103EC0000001A951010D8A0EF324D96E000EF420D1
:103ED000DA6EDF50D8A4DED7000E0001A96F16D02D
:103EE0000001A951010D600EF324D96E000EF420DB
:103EF000DA6E0001A951010D7C0EF324E16E030E70
:103F0000F420E26EDFCFE7FF0001A92B0001A951E9
:103F1000010D600EF324D96E000EF420DA6EDF502E
:103F2000D8A4DED7000E0001A96F16D00001A95158
:103F3000010D750EF324D96E000EF420DA6E000127
:103F4000A951010D900EF324E16E030EF420E26EF0
:103F5000DFCFE7FF0001A92B0001A951010D750E6C
:103F6000F324D96E000EF420DA6EDF50D8A4DED729
:103F7000020105A106D06E0E0301846F200E03011D
:103F8000856F020105A306D06E0E03018E6F200E11
:103F900003018F6F020105A506D06E0E0301986F15
:103FA000200E0301996F020105A723D06E0E0301B5
:103FB000A26F200E0301A36F1CD02D0E03017C6F96
:103FC0003E0E03017D6F12002D0E0301866F3E0E23
:103FD0000301876F12002D0E0301906F3E0E030147
:103FE000916F12002D0E03019A6F3E0E03019B6F1D
:103FF00012000001A851310AD8B4DFD7030AD8B49F
:10400000E3D7010AD8B4E7D7070AD8A41200EAD741
:10401000720EF66EFD0EF76E000EF86E20EE90F04A
:10402000110E0900F5CFDEFFE806FBE2600EF66E2A
:10403000FD0EF76E000EF86E20EEA2F0110E0900D4
:10404000F5CFDEFFE806FBE2B00EF66EFE0EF76E71
:10405000000EF86E0900F5CFC2F00900F5CFC3F0ED
:104060000A00F5CFC4F01F0EF66EFE0EF76E000EBE
:10407000F86E20EEB4F00D0E0900F5CFDEFFE80675
:10408000FBE2000E0001C56F16D00001C551010D05
:10409000900EF324D96E000EF420DA6E0001C551A3
:1040A000010D540EF324E16E030EF420E26EDFCF17
:1040B000E7FF0001C52B0001C551010D900EF3244F
:1040C000D96E000EF420DA6EDF50D8A4DED7000ED1
:1040D0000001C56F16D00001C551010DA20EF324D9
:1040E000D96E000EF420DA6E0001C551010D680E84
:1040F000F324E16E030EF420E26EDFCFE7FF000150
:10410000C52B0001C551010DA20EF324D96E000E7E
:10411000F420DA6EDF50D8A4DED7000E0001C56FA0
:1041200016D00001C551010DC20EF324D96E000E48
:10413000F420DA6E0001C551010D7C0EF324E16E0E
:10414000030EF420E26EDFCFE7FF0001C52B000174
:10415000C551010DC20EF324D96E000EF420DA6EA3
:10416000DF50D8A4DED712C278F013C279F0030E64
:1041700000017A6F7F0E00017B6F030E00017C6FE0
:104180008AEC99F027C278F028C279F0030E00017A
:104190007A6F870E00017B6F030E00017C6F8AEC43
:1041A00099F0000E0001C56F16D00001C551010D38
:1041B000B40EF324D96E000EF420DA6E0001C5515E
:1041C000010D900EF324E16E030EF420E26EDFCFBA
:1041D000E7FF0001C52B0001C551010DB40EF3240A
:1041E000D96E000EF420DA6EDF50D8A4DED71DC2DF
:1041F00078F01EC279F0030E00017A6F930E000171
:104200007B6F030E00017C6F8AEC99F032C278F06C
:1042100033C279F0030E00017A6F9B0E00017B6FB1
:10422000030E00017C6F8AEC99F01200F4D052C2A8
:10423000DCF153C2DBF154C2DAF155C2D9F157C2F5
:10424000DAF058C2D9F00001D9510001956F000190
:10425000DA510001966F0001976B0001986B090E0F
:10426000D89000019537963797379837E82EF8D7CA
:1042700095C06AF096C06BF097C06CF098C06DF076
:1042800035ECAEF00009D8A4D8D0010E0101F96FC9
:104290000001D9510001DA11D8B4B9D00001D90711
:1042A000D8A0DA07020E0101F96F0001DB5100010D
:1042B000DC11D8B407D0DBC0D9FFDCC0DAFF0001C5
:1042C000DFBEBBD0D0C28BF0D1C28CF0D9C18DF093
:1042D000DAC18EF0DBC18FF0DCC190F0000E00017E
:1042E000916F060E0001926F22EEC7F001D80AD03E
:1042F0000500FA6EDE50FD6EDE50FE6EDE50FF6E83
:10430000FA501200E806D8B41CD0640E0101F8611E
:1043100003D00101F82B91D0020E0D018C6F020128
:104320006251F00B0309626F000E02016C6F000E08
:1043300002016D6F010E0001606F020EC7ECABF061
:1043400066D0010E0101D927000EDA23DB23DC231E
:10435000000E0D01886F020E896F000E8A6F000E2D
:104360008B6F000E0101EB6F060E0101EC6F030E67
:104370000101F96F0D0188510D0189110D018A119B
:104380000D018B11D8A402D0010E42D0040E010100
:10439000F96F0001DB510001DC11D8B407D0DBC09C
:1043A000D9FFDCC0DAFF0001DFBE47D0010E0001FB
:1043B000606FEBC161F0ECC162F0400E0001636F11
:1043C000020E69ECACF060C0DBF061C0DCF0030E03
:1043D0000101F96F400E0201495F000E4A5B4B5B21
:1043E0004C5B400E0D01885F000E895B8A5B8B5B26
:1043F000400E0101EB27000EEC231FD0020E0D0131
:104400008C6F010E0001606F020EC7ECABF0000E66
:104410000101F96F12D00101F951000AD8B407D790
:10442000010AD8B435D7030AD8B43FD7010AD8B4A3
:10443000A1D7070AD8B4ADD7E1D70101F9511200CD
:10444000790EF66EFC0EF76E000EF86E20EE90F010
:10445000130E0900F5CFDEFFE806FBE2690EF66EEB
:10446000FE0EF76E000EF86E20EEBCF00A0E09008C
:10447000F5CFDEFFE806FBE2390EF66EFE0EF76EB4
:10448000000EF86E20EEA4F00B0E0900F5CFDEFF53
:10449000E806FBE22D0EF66EFE0EF76E000EF86ECD
:1044A00020EEB0F00B0E0900F5CFDEFFE806FBE2D0
:1044B000000E0001C76F16D00001C751010D900E0C
:1044C000F324D96E000EF420DA6E0001C751010DFD
:1044D000540EF324E16E030EF420E26EDFCFE7FF0B
:1044E0000001C72B0001C751010D900EF324D96EB6
:1044F000000EF420DA6EDF50D8A4DED7000E0001E3
:10450000C76F16D00001C751010DBC0EF324D96E40
:10451000000EF420DA6E0001C751010D680EF3247D
:10452000E16E030EF420E26EDFCFE7FF0001C72B40
:104530000001C751010DBC0EF324D96E000EF4200A
:10454000DA6EDF50D8A4DED736C278F037C279F001
:10455000020E00017A6F740E00017B6F030E0001E2
:104560007C6F8AEC99F0000E0001C76F16D0000135
:10457000C751010DA40EF324D96E000EF420DA6E9B
:104580000001C751010D7C0EF324E16E030EF420EF
:10459000E26EDFCFE7FF0001C72B0001C751010D1D
:1045A000A40EF324D96E000EF420DA6EDF50D8A4E6
:1045B000DED73AC278F03BC279F0020E00017A6F82
:1045C000880E00017B6F030E00017C6F8AEC99F06E
:1045D000000E0001C76F16D00001C751010DB00ECB
:1045E000F324D96E000EF420DA6E0001C751010DDC
:1045F000900EF324E16E030EF420E26EDFCFE7FFAE
:104600000001C72B0001C751010DB00EF324D96E74
:10461000000EF420DA6EDF50D8A4DED73EC278F068
:104620003FC279F0020E00017A6F9C0E00017B6F91
:10463000030E00017C6F8AEC99F012009BC087F09A
:104640009CC088F09DC089F09EC08AF09FECB4F0B9
:10465000FF0AD8B402D0FF0E1200E8ECD1F000013E
:10466000AB6F0001AB29D8A402D0FE0E12009FC090
:10467000A3F0A0C0A4F0A1C0A5F0A2C0A6F00A0EAD
:1046800006D00001D890A633A533A433A333E82E77
:10469000F8D7010E0001A3250001AC6F000E000148
:1046A000A4210001AD6FACC087F0ADC088F0ACECC8
:1046B000BDF00001AC510001871906E10001AD51C8
:1046C00000018819D8B402D0FD0E1200000E0001BE
:1046D000886F020E876F12ECC2F087C0AEF088C000
:1046E000AFF0B00E0001606F000E0001616F9BC063
:1046F00062F09CC063F0000E0001656F080E646FED
:10470000D4ECC9F0B80E0001606F000E0001616FBB
:104710009DC062F09EC063F0000E0001656F030E45
:10472000646FD4ECC9F0000E0001BB6F000E0001F5
:10473000BC6F000E0001BD6FFCECC3F064C0BEF0A6
:1047400065C0BFF08CECC5F064C0C0F065C0C1F0BE
:10475000C0C0C2F0C1C0C3F0000E0001C56F000EA2
:10476000C46FBEC0C6F0BFC0C7F0C0C0C8F0C1C0F3
:10477000C9F0AEC0CAF0AFC0CBF09FC0CCF0A0C0B3
:10478000CDF0A1C0CEF0A2C0CFF0B00E0001886F76
:10479000000E0001896F0001AB51CAECC8F0000E99
:1047A0000001AA6F010EA96F37D00001AC510001C2
:1047B000A91911E10001AD510001AA19D8A40BD02B
:1047C000AEC088F0AFC089F0FF0E00018B6F8A6920
:1047D0000AECCEF01ED0010E0001AE250001876F5D
:1047E000000E0001AF210001886F12ECC2F087C0FB
:1047F000A7F088C0A8F0AEC088F0AFC089F0A7C00D
:104800008AF0A8C08BF00AECCEF0A7C0AEF0A8C02A
:10481000AFF00001A94BAA2B0001A9510001AC5D2A
:104820000001AA510001AD59D8B0BFD70001AB516A
:10483000120067ECD5F000016E6F70ECD5F000014E
:104840006F6F79ECD5F00001706F5EECD5F0000170
:10485000716F55ECD5F00001726F82ECD5F000015C
:10486000736F6EC068F03F0E0001681768C069F092
:1048700000016A6B6B6B6C6B1A0ED8900001693784
:104880006A376B376C37E82EF8D769C074F06AC0A6
:1048900075F06BC076F06CC077F06FC068F00F0EEB
:1048A0000001681768C069F000016A6B6B6B6C6B84
:1048B000160ED890000169376A376B376C37E82ECF
:1048C000F8D7000169510001741300016A51000119
:1048D000751300016B510001761300016C5100014A
:1048E000771370C068F01F0E0001681768C069F088
:1048F00000016A6B6B6B6C6B110ED890000169370D
:104900006A376B376C37E82EF8D700016951000120
:10491000741300016A510001751300016B5100010D
:10492000761300016C510001771371C068F01F0EFF
:104930000001681768C069F000016A6B6B6B6C6BF3
:104940000C0ED890000169376A376B376C37E82E48
:10495000F8D7000169510001741300016A51000188
:10496000751300016B510001761300016C510001B9
:104970007713000172513F0B0001686F696B060EDF
:10498000D890000168376937E82EFAD700016851DE
:1049900000016A6F0001695100016B6F00016C6BCF
:1049A00000016D6B00016A510001741300016B512D
:1049B0000001751300016C510001761300016D5167
:1049C0000001771373C068F03F0E00016817000103
:1049D00068510001741374C064F075C065F076C04E
:1049E00066F077C067F01200A10EF66EFC0EF76E4F
:1049F000000EF86E20EE60F0130E0900F5CFDEFF1A
:104A0000E806FBE2C50EF66EFD0EF76E000EF86EC0
:104A100020EE85F00F0E0900F5CFDEFFE806FBE281
:104A2000B50EF66EFD0EF76E000EF86E20EE95F0E8
:104A30000F0E0900F5CFDEFFE806FBE2840EF66EEE
:104A4000FD0EF76E000EF86E20EE74F0100E0900E9
:104A5000F5CFDEFFE806FBE2000E0001A56F16D0E1
:104A60000001A551010D600EF324D96E000EF42053
:104A7000DA6E0001A551010D540EF324E16E030E10
:104A8000F420E26EDFCFE7FF0001A52B0001A55166
:104A9000010D600EF324D96E000EF420DA6EDF50A3
:104AA000D8A4DED7020128BF08D0E00E0201275D9E
:104AB0002E0E02012859D8B026D0000E0001A56F95
:104AC00016D00001A551010D850EF324D96E000EFC
:104AD000F420DA6E0001A551010D7C0EF324E16E85
:104AE000030EF420E26EDFCFE7FF0001A52B0001EB
:104AF000A551010D850EF324D96E000EF420DA6E57
:104B0000DF50D8A4DED7000E0001A56F8CB617D0F9
:104B100039D00001A551010D950EF324D96E000E78
:104B2000F420DA6E0001A551010D900EF324E16E20
:104B3000030EF420E26EDFCFE7FF0001A52B00019A
:104B4000A551010D950EF324D96E000EF420DA6EF6
:104B5000DF50D8B41200DDD70001A551010D740E4D
:104B6000F324D96E000EF420DA6E0001A551010D78
:104B7000900EF324E16E030EF420E26EDFCFE7FF28
:104B80000001A52B0001A551010D740EF324D96E6F
:104B9000000EF420DA6EDF50D8B41200DDD7A098F2
:104BA000000E636E000E626E000E0F01266F270E60
:104BB0000001606F0F0E0001616F000E0001636F56
:104BC000000E626F000E0001656F020E646F6DECE7
:104BD000D1F0160E0F01396F9F0E0F01376F7B0E4C
:104BE0000F01366F000E0001686F0B0E0001686543
:104BF00001D010D000016851040D000EF324D96ECD
:104C00000D0EF420DA6EDE6ADE6ADE6ADD6A00010D
:104C1000682BEBD7658C000E0F01386F6598659C8B
:104C20006296000E0D6E000E046E000E066E000EF3
:104C3000056E62B6F5D7010E226E010E216E000ED2
:104C4000206E000E0101FB6F000E276E000E0001AA
:104C5000686F020E0001686501D033D00001685111
:104C6000020D100EF324D96E000EF420DA6E000E41
:104C7000DE6E000EDD6E00016851020DD30EF324CE
:104C8000D96E010EF420DA6E000EDE6E000EDD6EBF
:104C900000016851010DE40EF324D96E010EF420D9
:104CA000DA6E000EDF6E00016851010DE10EF32493
:104CB000D96E010EF420DA6E000EDF6E0001682B53
:104CC000C8D7080E106E0D0E116E160E0F01266F4E
:104CD0000D0E0D01036F300E026F080E0D01016FF6
:104CE000040E0D01006F0D01008F000E2D6E000EE1
:104CF0000101DD6F000EDE6F000EDF6F000EE06F52
:104D0000000E0101FA6F000E2B6E1200D0C260F08F
:104D1000D1C261F022EEC4F001D80AD00500FA6ECB
:104D2000DE50FD6EDE50FE6EDE50FF6EFA50120059
:104D30000009D8B40CD002014E51010DF60EF32437
:104D4000D96E010EF420DA6EDE04D8A425D04EC24E
:104D5000A7F0010E0001A86F000E0001A96F00016D
:104D6000A72B04D0D8900001A837A9370001A72F9E
:104D7000F9D70001A81D0001AA6F0001A91D0001BB
:104D8000AB6F0001AA510201B2170001AB51020141
:104D9000B31708ECCAF067D04EC2A7F0010E0001AD
:104DA000A86F000E0001A96F0001A72B04D0D890B6
:104DB0000001A837A9370001A72FF9D70201B25186
:104DC0000001A8170201B3510001A9170001A85161
:104DD0000001A911D8A445D0D0C260F0D1C261F0C1
:104DE00001D80BD00500FA6E0201BB51FD6EBC511B
:104DF000FE6EBD51FF6EFA501200000160510001BD
:104E00006111D8B42BD04EC2A7F0010E0001A86FDB
:104E1000000E0001A96F0001A72B04D0D89000015B
:104E2000A837A9370001A72FF9D70001A85102011F
:104E3000B2130001A9510201B31302016251F00B38
:104E40000609626F280E02016C6F000E02016D6F81
:104E5000010E0D018C6F05EC88F005D008ECCAF04E
:104E600002D005EC88F00001E6511200EFECD5F01D
:104E70000009D8B405D0EFECD5F0800AD8A406D04C
:104E8000000E0201336F000E326F120002012B512F
:104E90000201292500016C6F02012C5102012A2117
:104EA00000016D6F02012D5100016C2702012E518E
:104EB00000016D2302012F5100016C2702013051C6
:104EC00000016D236CC070F06DC071F00001000E28
:104ED00071BFFF0E726F736F2EC36CF02FC36DF036
:104EE000000E00016DBFFF0E6E6F6F6F00016C5101
:104EF0000001702700016D510001712300016E5106
:104F00000001722300016F510001732329C36CF06B
:104F10002AC36DF0000E00016DBFFF0E6E6F6F6F44
:104F200000016C510001702700016D5100017123D7
:104F300000016E510001722300016F5100017323C3
:104F400070C060F071C061F072C062F073C063F055
:104F500023EE2BF0DECF64F0DDCF65F00001000E14
:104F600065BFFF0E666F676F3BECC7F060C070F007
:104F700061C071F062C072F063C073F02DC36CF059
:104F8000FF0E00016C2700016C2900016D6F06D037
:104F900000017335733372337133703300016D2F39
:104FA000F7D7010E00017027000E712372237323BF
:104FB00000017335733372337133703370C032F262
:104FC00071C033F21200EFECD5F00009D8B405D06F
:104FD000EFECD5F0800AD8A406D0000E02011E6FB7
:104FE000000E1D6F1200020116510201142500016E
:104FF0006C6F020117510201152100016D6F020152
:10500000185100016C270201195100016D230201A2
:105010001A5100016C2702011B5100016D236CC065
:1050200070F06DC071F00001000E71BFFF0E726F65
:10503000736F22C36CF023C36DF0000E00016DBFCF
:10504000FF0E6E6F6F6F00016C5100017027000141
:105050006D510001712300016E51000172230001A6
:105060006F51000173231DC36CF01EC36DF0000E61
:1050700000016DBFFF0E6E6F6F6F00016C5100017C
:10508000702700016D510001712300016E51000174
:10509000722300016F510001732370C060F071C072
:1050A00061F072C062F073C063F023EE1FF0DECFD8
:1050B00064F0DDCF65F00001000E65BFFF0E666F86
:1050C000676F3BECC7F060C070F061C071F062C008
:1050D00072F063C073F021C36CF0FF0E00016C2707
:1050E00000016C2900016D6F06D000017335733328
:1050F00072337133703300016D2FF7D7010E000149
:105100007027000E712372237323000173357333EC
:1051100072337133703370C01DF271C01EF2120011
:10512000A098000E636E000E626E000E0F01266FD7
:10513000270E2E6E0F0E2F6E000E316E000E306E8B
:10514000000E336E020E326E84ECD2F0160E0F019A
:10515000396F9F0E0F01376F7B0E0F01366F000EF8
:10516000366E0B0E366401D00ED03650040D000E94
:10517000F324D96E0D0EF420DA6EDE6ADE6ADE6A82
:10518000DD6A362AEED7658C000E0F01386F659800
:10519000659C6296000E0D6E000E046E000E066E8B
:1051A000000E056E62B6F5D7010E226E010E216E5D
:1051B000000E206E000E0101FB6F000E276E000E28
:1051C000366E020E366401D02ED03650020D100E0F
:1051D000F324D96E000EF420DA6E000EDE6E000E9F
:1051E000DD6E3650020DD30EF324D96E010EF4207D
:1051F000DA6E000EDE6E000EDD6E3650010DE40E2E
:10520000F324D96E010EF420DA6E000EDF6E3650F4
:10521000010DE10EF324D96E010EF420DA6E000EBA
:10522000DF6E362ACED7080E106E0D0E116E160EDA
:105230000F01266F0D0E0D01036F300E026F080E69
:105240000D01016F040E0D01006F0D01008F000EA6
:105250002D6E000E0101DD6F000EDE6F000EDF6FA0
:10526000000EE06F000E0101FA6F000E2B6E1200AF
:10527000000E0001816F060E0001816501D0120051
:10528000000181510001796F7A6B0001793B7A3B13
:10529000F00E7A1779510F0B7A13F00E7917000E72
:1052A0000001792500017F6F010E00017A210001C4
:1052B000806F7FC071F080C072F07B0E0001736F51
:1052C000000E0001746F040E0001756FD2ECCAF07D
:1052D000770E00017B19D8A42AD0550E00017C1945
:1052E000D8A425D0330E00017D19D8A420D0000108
:1052F000815100017E19D8A41AD0040E00017F2725
:10530000000E80237FC071F080C072F000018151D7
:105310000C0D000EF3240001736F030EF420000146
:10532000746F0C0E0001756FD2ECCAF043D000010F
:1053300081510C0D000EF3240001606F030EF42068
:105340000001616F81C062F020EC8AF01CD0020E77
:1053500061ECCDF02FD0030E61ECCDF02BD0040E1C
:1053600061ECCDF027D0050E61ECCDF023D0060E18
:1053700061ECCDF01FD0070E61ECCDF01BD0080E14
:1053800061ECCDF017D000018151000AD8B4DFD70D
:10539000010AD8B4E0D7030AD8B4E1D7010AD8B4D7
:1053A000E2D7070AD8B4E3D7010AD8B4E4D7030A8E
:1053B000D8B4E5D70001812B5ED764C069F0000145
:1053C0006A6B000169516A6F696B000165510001E8
:1053D000691345D063C067F00001673B0F0E671784
:1053E000000167510C0D050EF326000EF422000E8D
:1053F000F324D96E030EF420DA6E69C0DEFF6AC0B2
:10540000DDFF5DD063C067F00001673B0F0E6717DB
:10541000000167510C0D070EF326000EF422000E5A
:10542000F324D96E030EF420DA6E69C0DEFF6AC081
:10543000DDFF63C067F00001673B0F0E67170001D7
:1054400067510C0D090EF326000EF422000EF32412
:10545000D96E030EF420DA6E66C0DFFF30D0000193
:1054600063510F0B0001676F686B00016851000A00
:10547000D8A425D000016751000AD8B4ABD7010ADF
:10548000D8B4C0D71CD0020E61ECCDF01200030ED0
:1054900061ECCDF01200040E61ECCDF01200050EAF
:1054A00061ECCDF01200060E61ECCDF01200070E9B
:1054B00061ECCDF01200080E61ECCDF0120000019D
:1054C00063390F0B0001676F686B00016851000AB8
:1054D000D8A4120000016751000AD8B4D4D7010A39
:1054E000D8B4D5D7030AD8B4D6D7010AD8B4D7D7F9
:1054F000070AD8B4D8D7010AD8B4D9D7030AD8A490
:105500001200D9D72B04D8B465BA08D0000E626E49
:105510000F0136810F013689020E2B6E62A406D070
:105520000F0136A503D06294E9ECD0F065A202D059
:10553000A198120062A009D00F0136A106D090EC0C
:10554000A8F0A088040E2B6E629062A804D00F0110
:1055500036B9B9ECD1F062AC1BD00F0136AD0ED02C
