:0400000043EF00F0DA
:100008005B82FACF4DF0FBCF4EF0E9CF4FF0EACF4D
:1000180050F0E1CF51F0E2CF52F0D9CF53F0DACF20
:1000280054F0F3CF55F0F4CF56F0F6CF57F0F7CFA2
:1000380058F0F8CF59F0F5CF5AF0F8EC45F04DEC00
:100048005BF05AC0F5FF59C0F8FF58C0F7FF57C01A
:10005800F6FF56C0F4FF55C0F3FF54C0DAFF53C093
:10006800D9FF52C0E2FF51C0E1FF50C0EAFF4FC0C4
:10007800E9FF4EC0FBFF4DC0FAFF5B92110035EF60
:020088005CF02A
:1020000000000000000000000000000000000000D0
:1020100000000000000000000000000000000000C0
:1020200000000000000000000000000000000000B0
:1020300000000000000000000000000000000000A0
:102040000000000000000000000000000000000090
:102050000000000000000000000000000000000080
:102060000000000000000000000000000000000070
:102070000000000000000000000000000000000060
:102080000000000000000000000000000000000050
:102090000000000000000000000000000000000040
:1020A0000000000000000000000000000000000030
:1020B0000000000000000000000000000000000020
:1020C0000000000000000000000000000000000010
:1020D0000000000000000000000000000000000000
:1020E00000000000000000000000000000000000F0
:1020F00000000000000000000000000000000000E0
:1021000000000000000000000000000000000000CF
:1021100000000000000000000000000000000000BF
:1021200000000000000000000000000000000000AF
:10213000000000000000000000000000000000009F
:10214000000000000000000000000000000000008F
:10215000000000000000000000000000000000007F
:10216000000000000000000000000000000000006F
:10217000000000000000000000000000000000005F
:10218000000000000000000000000000000000004F
:10219000000000000000000000000000000000003F
:1021A000000000000000000000000000000000002F
:1021B0000000000000000000F58B16EA000080011E
:1021C00001000107FFE6010000001100000000000F
:1021D00000000000000000000000000000000000FF
:1021E00000000000000000000000000000000000EF
:1021F000000000000000000000000000000055AAE0
:10220000EB3C904D53444F53352E300002010100FA
:102210000110000000F801003F00FF000100000075
:1022200011000000000029326794C44E4F204E4137
:102230004D452020202046415431322020200000EE
:10224000000000000000000000000000000000008E
:10225000000000000000000000000000000000007E
:10226000000000000000000000000000000000006E
:10227000000000000000000000000000000000005E
:10228000000000000000000000000000000000004E
:10229000000000000000000000000000000000003E
:1022A000000000000000000000000000000000002E
:1022B000000000000000000000000000000000001E
:1022C000000000000000000000000000000000000E
:1022D00000000000000000000000000000000000FE
:1022E00000000000000000000000000000000000EE
:1022F00000000000000000000000000000000000DE
:1023000000000000000000000000000000000000CD
:1023100000000000000000000000000000000000BD
:1023200000000000000000000000000000000000AD
:10233000000000000000000000000000000000009D
:10234000000000000000000000000000000000008D
:10235000000000000000000000000000000000007D
:10236000000000000000000000000000000000006D
:10237000000000000000000000000000000000005D
:10238000000000000000000000000000000000004D
:10239000000000000000000000000000000000003D
:1023A000000000000000000000000000000000002D
:1023B000000000000000000000000000000000001D
:1023C000000000000000000000000000000000000D
:1023D00000000000000000000000000000000000FD
:1023E00000000000000000000000000000000000ED
:1023F000000000000000000000000000000055AADE
:10240000F8FFFFFF0F0000000000000000000000C8
:1024100000000000000000000000000000000000BC
:1024200000000000000000000000000000000000AC
:10243000000000000000000000000000000000009C
:10244000000000000000000000000000000000008C
:10245000000000000000000000000000000000007C
:10246000000000000000000000000000000000006C
:10247000000000000000000000000000000000005C
:10248000000000000000000000000000000000004C
:10249000000000000000000000000000000000003C
:1024A000000000000000000000000000000000002C
:1024B000000000000000000000000000000000001C
:1024C000000000000000000000000000000000000C
:1024D00000000000000000000000000000000000FC
:1024E00000000000000000000000000000000000EC
:1024F00000000000000000000000000000000000DC
:1025000000000000000000000000000000000000CB
:1025100000000000000000000000000000000000BB
:1025200000000000000000000000000000000000AB
:10253000000000000000000000000000000000009B
:10254000000000000000000000000000000000008B
:10255000000000000000000000000000000000007B
:10256000000000000000000000000000000000006B
:10257000000000000000000000000000000000005B
:10258000000000000000000000000000000000004B
:10259000000000000000000000000000000000003B
:1025A000000000000000000000000000000000002B
:1025B000000000000000000000000000000000001B
:1025C000000000000000000000000000000000000B
:1025D00000000000000000000000000000000000FB
:1025E00000000000000000000000000000000000EB
:1025F00000000000000000000000000000000000DB
:10260000536F6C61722043687267720800000000AB
:102610000011001100000000001100000000000087
:1026200046494C4520202020545854200006287844
:10263000DE38DE3800000477DE3802000E000000CD
:10264000000000000000000000000000000000008A
:10265000000000000000000000000000000000007A
:10266000000000000000000000000000000000006A
:10267000000000000000000000000000000000005A
:10268000000000000000000000000000000000004A
:10269000000000000000000000000000000000003A
:1026A000000000000000000000000000000000002A
:1026B000000000000000000000000000000000001A
:1026C000000000000000000000000000000000000A
:1026D00000000000000000000000000000000000FA
:1026E00000000000000000000000000000000000EA
:1026F00000000000000000000000000000000000DA
:1027000000000000000000000000000000000000C9
:1027100000000000000000000000000000000000B9
:1027200000000000000000000000000000000000A9
:102730000000000000000000000000000000000099
:102740000000000000000000000000000000000089
:102750000000000000000000000000000000000079
:102760000000000000000000000000000000000069
:102770000000000000000000000000000000000059
:102780000000000000000000000000000000000049
:102790000000000000000000000000000000000039
:1027A0000000000000000000000000000000000029
:1027B0000000000000000000000000000000000019
:1027C0000000000000000000000000000000000009
:1027D00000000000000000000000000000000000F9
:1027E00000000000000000000000000000000000E9
:1027F00000000000000000000000000000000000D9
:10280000536F6C6465726E6572642E636F6D000049
:1028100000000000000000000000000000000000B8
:1028200000000000000000000000000000000000A8
:102830000000000000000000000000000000000098
:102840000000000000000000000000000000000088
:104400000043686172676572204173796E636872F8
:104410006F6E6F7573004D50505420436861726722
:1044200065722044657461696C730020204F757457
:1044300033206F666620204F757434206F666600E7
:1044400020204F757431206F666620204F757432BE
:10445000206F66660054656D706572617475726573
:10446000204D6F6E69746F72004368617267657288
:104470002053796E6368726F6E6F75730055534287
:104480002043686172676572204F7574707574732C
:10449000002D3E507265737320666F7220736563E2
:1044A0006F6E6473002D3E507265737320666F7279
:1044B000206D696E75746573002D3E50726573735F
:1044C00020746F207365742074696D650050616E8F
:1044D000656C3A20202020426174746572793A003C
:1044E0004368617267657220456666696369656ED7
:1044F0006379004368617267657220737570706CD0
:1045000079206F6666004368617267657220737513
:1045100070706C79206F6E002D3E50726573732041
:10452000666F7220686F757273002D3E50726573EE
:104530007320666F72206D6F6E74680020202049B2
:104540006E7075742020204F757470757400566FEE
:104550006C7461676520262043757272656E740005
:10456000555342206368617267696E67206F6666A3
:10457000004368617267657220537461727475706C
:10458000004261747465727920746F6F206C6F776C
:1045900000555342206368617267696E67206F6ED1
:1045A000004261747465727920746F6F206C6F774C
:1045B000002D3E507265737320746F2073617665B1
:1045C000002D3E507265737320666F7220646179AE
:1045D00000453A2020202020202020204C3A005066
:1045E0006F776572204F7574707574730054696DC0
:1045F0006520616E64204461746500413A202D2D70
:104600002020202020202D2D0045787465726E61B9
:104610006C20323A0045787465726E616C20313AD4
:104620000043686172676572206F66660053657447
:10463000207365636F6E647300536574206D696EDB
:1046400075746573004F6E2D626F6172643A20005D
:1046500053657420686F75727300536574206D6FB5
:104660006E74680053657420796561720046616EEE
:10467000206F6666005365742064617900A847D195
:10468000460547744746616E206F6E00563A0091AA
:104690004609024000020100C03209040000020382
:1046A000000000092111010001221D0007058103FE
:1046B0004000010705010340000109040100020850
:1046C0000650000705820240000107050202400073
:1046D00001340353006F006C006400650072006ECB
:1046E000006500720064002E0063006F006D002002
:1046F00000200020002000200020002000200020BA
:1047000000200020002E034D0050005000540053A4
:10471000006F006C006100720020004300680061BF
:10472000007200670065007200200052006500768C
:1047300000430000800402200000004D6963726F96
:104740006368704D6173732053746F726167652085
:10475000202020303030310600FF0901A10119016D
:104760002940150026FF0075089540810019012990
:10477000409100C01A03310032003300340035008C
:104780003600370038003900300039003900120196
:10479000000200000008D8048EF0000101020001B0
:0D47A0003D2A80A73D2A80A60403090400DD
:1047AE000101CB6FED0EF66E450EF76E21EE80F029
:1047BE000D0E0900F5CFDEFFE806FBE2640EF66E85
:1047CE00460EF76E21EEBAF0080E0900F5CFDEFFA9
:1047DE00E806FBE25A0EF66E460EF76E21EEA6F0D6
:1047EE00090E0900F5CFDEFFE806FBE2750EF66E48
:1047FE00460EF76E21EEC3F0070E0900F5CFDEFF71
:10480E00E806FBE2500EF66E460EF76E21EEB0F0A5
:10481E00090E0900F5CFDEFFE806FBE2390EF66E53
:10482E00460EF76E21EE8EF00B0E0900F5CFDEFF71
:10483E00E806FBE22D0EF66E460EF76E21EE9AF0AE
:10484E000B0E0900F5CFDEFFE806FBE2B90EF66EA1
:10485E00440EF76E21EE00F0130E0900F5CFDEFFC9
:10486E00E806FBE22A0EF66E450EF76E21EE3CF0E0
:10487E00110E0900F5CFDEFFE806FBE2C10EF66E63
:10488E00450EF76E21EE60F00F0E0900F5CFDEFF3C
:10489E00E806FBE2180EF66E450EF76E21EE4EF0B0
:1048AE00110E0900F5CFDEFFE806FBE2A50EF66E4F
:1048BE00440EF76E21EE14F0130E0900F5CFDEFF55
:1048CE00E806FBE2910EF66E440EF76E21EE28F02E
:1048DE00130E0900F5CFDEFFE806FBE2B10EF66E11
:1048EE00450EF76E21EE70F00F0E0900F5CFDEFFCC
:1048FE00E806FBE230EC6CF00101CC6F42EC6CF0A0
:10490E000101CD6F5DEC6CF00101CE6F54EC6CF0DB
:10491E000101CF6F4BEC6CF00101D06F39EC6CF0F4
:10492E000101D16F1BD2000E0101D26F16D0010111
:10493E00D251010D800EF324D96E010EF420DA6EE1
:10494E000101D251010D780EF324E16E020EF42016
:10495E00E26EDFCFE7FF0101D22B0101D251010D33
:10496E00800EF324D96E010EF420DA6EDF50D8A437
:10497E00DED7000E0101D26F16D00101D251010D0A
:10498E00000EF324D96E010EF420DA6E0101D2511D
:10499E00010DB40EF324E16E020EF420E26EDFCFB1
:1049AE00E7FF0101D22B0101D251010D000EF324BC
:1049BE00D96E010EF420DA6EDF50D8B4E6D1DDD711
:1049CE00000E0101D26F16D00101D251010DBA0EA7
:1049DE00F324D96E010EF420DA6E0101D251010DCD
:1049EE00780EF324E16E020EF420E26EDFCFE7FFC5
:1049FE000101D22B0101D251010DBA0EF324D96E51
:104A0E00010EF420DA6EDF50D8A4DED7000E0101BD
:104A1E00D26F16D00101D251010D3C0EF324D96E86
:104A2E00010EF420DA6E0101D251010DB40EF32401
:104A3E00E16E020EF420E26EDFCFE7FF0101D22B12
:104A4E000101D251010D3C0EF324D96E010EF4205A
:104A5E00DA6EDF50D8B499D1DDD7000E0101D26FD6
:104A6E0016D00101D251010DA60EF324D96E010EFE
:104A7E00F420DA6E0101D251010D780EF324E16EAD
:104A8E00020EF420E26EDFCFE7FF0101D22B01010F
:104A9E00D251010DA60EF324D96E010EF420DA6E5A
:104AAE00DF50D8A4DED7000E0101D26F16D001015F
:104ABE00D251010D600EF324D96E010EF420DA6E80
:104ACE000101D251010DB40EF324E16E020EF42059
:104ADE00E26EDFCFE7FF0101D22B0101D251010DB2
:104AEE00600EF324D96E010EF420DA6EDF50D8B4C6
:104AFE004CD1DDD7000E0101D26F16D00101D2517B
:104B0E00010DC30EF324D96E010EF420DA6E0101ED
:104B1E00D251010D780EF324E16E020EF420E26EF6
:104B2E00DFCFE7FF0101D22B0101D251010DC30EE0
:104B3E00F324D96E010EF420DA6EDF50D8A4DED73E
:104B4E00000E0101D26F16D00101D251010D4E0E91
:104B5E00F324D96E010EF420DA6E0101D251010D4B
:104B6E00B40EF324E16E020EF420E26EDFCFE7FF07
:104B7E000101D22B0101D251010D4E0EF324D96E3B
:104B8E00010EF420DA6EDF50D8B4FFD0DDD7000E60
:104B9E000101D26F16D00101D251010DB00EF324D6
:104BAE00D96E010EF420DA6E0101D251010D780E8C
:104BBE00F324E16E020EF420E26EDFCFE7FF010177
:104BCE00D22B0101D251010DB00EF324D96E010E7C
:104BDE00F420DA6EDF50D8A4DED7000E0101D26FBA
:104BEE0016D00101D251010D140EF324D96E010E0F
:104BFE00F420DA6E0101D251010DB40EF324E16EF0
:104C0E00020EF420E26EDFCFE7FF0101D22B01018D
:104C1E00D251010D140EF324D96E010EF420DA6E6A
:104C2E00DF50D8B4B2D0DDD7000E0101D26F16D04E
:104C3E000101D251010D8E0EF324D96E010EF42016
:104C4E00DA6E0101D251010D780EF324E16E020EDF
:104C5E00F420E26EDFCFE7FF0101D22B0101D2512A
:104C6E00010D8E0EF324D96E010EF420DA6EDF5094
:104C7E00D8A4DED7000E0101D26F16D00101D25199
:104C8E00010D280EF324D96E010EF420DA6E010107
:104C9E00D251010DB40EF324E16E020EF420E26E39
:104CAE00DFCFE7FF0101D22B0101D251010D280EFA
:104CBE00F324D96E010EF420DA6EDF50D8B465D02D
:104CCE00DDD7000E0101D26F16D00101D251010DB8
:104CDE009A0EF324D96E010EF420DA6E0101D25130
:104CEE00010D780EF324E16E020EF420E26EDFCF9A
:104CFE00E7FF0101D22B0101D251010D9A0EF324CF
:104D0E00D96E010EF420DA6EDF50D8A4DED7000E75
:104D1E000101D26F16D00101D251010D700EF32494
:104D2E00D96E010EF420DA6E0101D251010DB40ECE
:104D3E00F324E16E020EF420E26EDFCFE7FF0101F5
:104D4E00D22B0101D251010D700EF324D96E010E3A
:104D5E00F420DA6EDF50D8B418D0DDD70101CB5174
:104D6E00100AD8B4E0D5010AD8B42AD6030AD8B4AA
:104D7E0074D6010AD8B4BED6070AD8B408D7010A29
:104D8E00D8B452D7030AD8B49CD7320E02018C6F16
:104D9E00300E02018D6F0101CC390F0B300F020165
:104DAE008E6F0101CC510F0B300F02018F6F2D0E44
:104DBE000201906F0101CD390F0B300F0201916F7F
:104DCE000101CD510F0B300F0201926F2D0E02011A
:104DDE00936F0101CE390F0B300F0201946F010159
:104DEE00CE510F0B300F0201956F0101CF390F0B12
:104DFE00300F0201A06F0101CF510F0B300F0201D6
:104E0E00A16F3A0E0201A26F0101D0390F0B300FC4
:104E1E000201A36F0101D0510F0B300F0201A46FDD
:104E2E003A0E0201A56F0101D1390F0B300F0201AD
:104E3E00A66F0101D1510F0B300F0201A76F1200A7
:104E4E005CD202010851300B300AD8A412000C0EAD
:104E5E000001766FFE0E0001776F22EE12F0DECFAC
:104E6E0078F0DDCF79F0000176510001782700014E
:104E7E00775100017923000178510201275D02016B
:104E8E002851800A00017A6F00017951800A0001D1
:104E9E007A59D8B012008A82010E196E000E0201E4
:104EAE001E6F000E1D6F000E0201336F000E326F6B
:104EBE00000E00017D6F030E00017D6501D0120012
:104ECE0000017D51020D140EF324D96E020EF42052
:104EDE00DA6E000EDE6E000EDD6E00017D51020DEB
:104EEE00290EF324D96E020EF420DA6E000EDE6E59
:104EFE00000EDD6E00017D2BDED702010851300B56
:104F0E00300AD8A41200000E02011C6F000E02011E
:104F1E00316F000E00017D6F030E00017D6501D023
:104F2E001BD000017D51020D140EF324D96E020E1A
:104F3E00F420DA6EDF5002011C2700017D51020DB4
:104F4E00290EF324D96E020EF420DA6EDF50020120
:104F5E00312700017D2BE0D7010E0001F16F9EEC91
:104F6E0052F000017B6F7BC072F0000E57EC54F0D4
:104F7E001200020108A91200020127510101FD5D74
:104F8E00020128510101FE59D8B007D00001F205E7
:104F9E0078EC5FF00001F169120002011EBF18D01B
:104FAE0002011E5105E1050E02011D5DD8A010D0B3
:104FBE00020127510201125D02011351800A000104
:104FCE00766F02012851800A00017659D8B005D0BB
:104FDE00BBEC69F0000E196E120022EE27F0DECF48
:104FEE0076F0DDCF77F00001761F771F764B772BAB
:104FFE00020112510001762702011351000177239D
:10500E00000177BF08D0E80E0001765D030E0001A7
:10501E007759D8B007D00001F20578EC5FF00001A7
:10502E00F169120002011EBF13D0590E02011D5D5F
:10503E00020E02011E59D8A00BD09EEC52F0050FA5
:10504E0000017C6F7CC062F0010EE1EC60F012009A
:10505E0002010851300B0001EC6F0001EC3B0F0E0A
:10506E00EC170001EC51020D0A0EF324D96E020E5C
:10507E00F420DA6EDECFE5F1DDCFE6F10101000EB0
:10508E00E6BFFF0EE76FE86FE5C160F0E6C161F0C5
:10509E00E7C162F0E8C163F00001EC51020D140E9D
:1050AE00F324D96E020EF420DA6EDECF64F0DDCF7B
:1050BE0065F00001000E65BFFF0E666F676F6BEC4B
:1050CE0060F060C0E5F161C0E6F162C0E7F163C077
:1050DE00E8F1020E0001EC27030E0001EC170001AF
:1050EE00EC51020D0A0EF324D96E020EF420DA6E84
:1050FE00DECFE9F1DDCFEAF10101000EEABFFF0ECE
:10510E00EB6FEC6FE9C160F0EAC161F0EBC162F0E8
:10511E00ECC163F00001EC51020D140EF324D96EB4
:10512E00020EF420DA6EDECF64F0DDCF65F0000102
:10513E00000E65BFFF0E666F676F6BEC60F060C0B0
:10514E00E9F161C0EAF162C0EBF163C0ECF102017A
:10515E0013BF0DD0690E0201125D420E02011359EA
:10516E00D8A005D00001F22978EC5FF01200000102
:10517E00F20578EC5FF01200020108A9120002019C
:10518E0027510101FD5D020128510101FE59D8B0E0
:10519E0007D00001F20578EC5FF00001F169120012
:1051AE0002011EBF08D002011E5110E1C80E0201FD
:1051BE001D5DD8B00BD00001F251FB0F00017C6FCA
:1051CE007CC062F0000EE1EC60F0120002010851AA
:1051DE00300B0001EC6F0001EC3B0F0EEC170001E1
:1051EE00EC51020D0A0EF324D96E020EF420DA6E83
:1051FE00DECFE5F1DDCFE6F10101000EE6BFFF0ED9
:10520E00E76FE86FE5C160F0E6C161F0E7C162F0FB
:10521E00E8C163F00001EC51020D140EF324D96EB7
:10522E00020EF420DA6EDECF64F0DDCF65F0000101
:10523E00000E65BFFF0E666F676F6BEC60F060C0AF
:10524E00E5F161C0E6F162C0E7F163C0E8F1020E7C
:10525E000001EC27030E0001EC170001EC51020DCA
:10526E000A0EF324D96E020EF420DA6EDECFE9F1C7
:10527E00DDCFEAF10101000EEABFFF0EEB6FEC6F1E
:10528E00E9C160F0EAC161F0EBC162F0ECC163F01C
:10529E000001EC51020D140EF324D96E020EF4200F
:1052AE00DA6EDECF64F0DDCF65F00001000E65BF73
:1052BE00FF0E666F676F6BEC60F060C0E9F161C066
:1052CE00EAF162C0EBF163C0ECF1020113BF0DD045
:1052DE00690E0201125D420E02011359D8A005D0CB
:1052EE000001F22978EC5FF012000001F20578EC73
:1052FE005FF01200000E196E12001950000AD8B499
:10530E00A0D5010AD8B4F9D5030AD8B432D6010A09
:10531E00D8B432D7EFD7EDD102010651800A7F0FF4
:10532E00D8A002D0100E04D0020106AF03D0600E3A
:10533E000201406F02010751000E0201066F000EBE
:10534E000201076F120002010651800A7F0FD8A0DA
:10535E0002D0200E04D0020106AF03D0000E0201CF
:10536E00406F02010751D8B403D0110E0201406FF5
:10537E00000E0201066F000E0201076F12000201FD
:10538E000651800A7F0FD8A003D0E7EC69F004D055
:10539E00020106BF50EC6AF002010751D8B405D0E5
:1053AE000AEC6BF0120E0201406F000E0201066F46
:1053BE00000E0201076F120002010651800A7F0FD4
:1053CE00D8A003D011EC6AF004D0020106BF7AEC2B
:1053DE006AF002010751D8B405D00AEC6BF0130E37
:1053EE000201406F000E0201066F000E0201076FF0
:1053FE00120002010651800A7F0FD8A003D08FEC55
:10540E0069F004D0020106BFA5EC69F00201075154
:10541E00D8B403D0140E0201406F000E0201066FC5
:10542E00000E0201076F120002010651800A7F0F63
:10543E00D8A003D03BEC6AF004D0020106BFA4EC66
:10544E006AF002010751D8B403D0150E0201406F65
:10545E00000E0201066F000E0201076F120002011C
:10546E000651800A7F0FD8A003D026EC6AF004D034
:10547E00020106BF8FEC6AF002010751D8B403D0C7
:10548E00160E0201406F000E0201066F000E0201A1
:10549E00076F120002010651800A7F0FD8A003D0B9
:1054AE00FCEC69F004D0020106BF65EC6AF0020163
:1054BE000751D8B405D0100E0201406F07EC66F00C
:1054CE00000E0201066F000E0201076F12000201AC
:1054DE000651800A7F0FD8A002D0300E04D00201F0
:1054EE0006AF03D0100E0201406F02010751D8B46F
:1054FE0010D0020128BF0DD0E10E0201275D2E0E45
:10550E0002012859D8A005D08CA602D08C9601D0C5
:10551E008C86000E0201066F000E0201076F12004C
:10552E0002010651800A7F0FD8A002D0400E04D08F
:10553E00020106AF03D0200E0201406F0201075197
:10554E00D8B403D0310E0201406F000E0201066F77
:10555E00000E0201076F120002010651800A7F0F32
:10556E00D8A007D0020128BF0AD0010E11EC67F0B7
:10557E0006D0020106AF03D0010E30EC66F0020138
:10558E000751D8B403D0320E0201406F000E020153
:10559E00066F000E0201076F120002010651800A0B
:1055AE007F0FD8A007D0020128BF0AD0020E11EC3F
:1055BE0067F006D0020106AF03D0020E30EC66F0A3
:1055CE0002010751D8B403D0330E0201406F000E12
:1055DE000201066F000E0201076F12000201065152
:1055EE00800A7F0FD8A007D0020128BF0AD0040E70
:1055FE0011EC67F006D0020106AF03D0040E30ECBA
:10560E0066F002010751D8B403D0340E0201406F88
:10561E00000E0201066F000E0201076F120002015A
:10562E000651800A7F0FD8A007D0020128BF0AD0EA
:10563E00080E11EC67F006D0020106AF03D0080E7B
:10564E0030EC66F002010751D8B403D0300E0201DF
:10565E00406F000E0201066F000E0201076F12006E
:10566E0002010651800A7F0FD8A002D0500E04D03E
:10567E00020106AF03D0300E0201406F0201075146
:10568E00000E0201066F000E0201076F12000201EA
:10569E000651800A7F0FD8A002D0600E04D00201FE
:1056AE0006AF03D0400E0201406F02010751000EFB
:1056BE000201066F000E0201076F12000201065171
:1056CE00800A7F0FD8A002D0000E04D0020106AFD0
:1056DE0003D0500E0201406F02010751000E02016D
:1056EE00066F000E0201076F1200000E0201406FDE
:1056FE00120002014051000AD8B40ED6100AD8B4D6
:10570E0022D6010AD8B43BD6030AD8B455D6010A1C
:10571E00D8B46FD6070AD8B487D6010AD8B49FD6A4
:10572E00030AD8B4B7D6360AD8B4D1D6100AD8B42C
:10573E00F7D6010AD8B410D7030AD8B42ED7010A67
:10574E00D8B44CD7070AD8B46AD7740AD8B488D755
:10575E00100AD8B49CD7300AD8B4B0D7C6D7F5D172
:10576E00D8EC3FF00009D8A412000001FA6912002B
:10577E003EEC35F00009D8A412000001FA691200BF
:10578E000001F605D8A403D00001FA69120053C235
:10579E00E6F054C2E5F0E5C06AF0E6C06BF0000139
:1057AE006C6B6D6BB3EC49F00009D8A41200000EBF
:1057BE000001616F240E606F2DEC55F0000E00019C
:1057CE00606F060E0001616F330E0001626F470EAF
:1057DE000001636F000E0001656F240E646F92EC82
:1057EE0062F0FD0E0001FA6F1200DBC260F0DCC247
:1057FE0061F022EECFF001D80AD00500FA6EDE502D
:10580E00FD6EDE50FE6EF850FF6EFA50120060C054
:10581E00A9F061C0AAF062C0ABF063C0ACF0DBC20D
:10582E0060F0DCC261F022EED1F001D80AD00500A2
:10583E00FA6EDE50FD6EDE50FE6EF850FF6EFA50C0
:10584E001200000160C0A5F0000161C0A6F00001C9
:10585E00A76BA86B26EE00F0ACC0DFFF26EE01F0C2
:10586E00ABC0DFFF26EE02F0AAC0DFFF26EE03F08C
:10587E00A9C0DFFF26EE04F0A8C0DFFF26EE05F07C
:10588E00A7C0DFFF26EE06F0A6C0DFFF26EE07F06C
:10589E00A5C0DFFF000E0001E66F080EE56F000EDB
:1058AE000001616F080E606F2DEC55F0FD0E0001CA
:1058BE00FA6F12000001F605D8A403D00001FA69B0
:1058CE001200000E0001E66F120EE56F000E0001D1
:1058DE00616F120E606F2DEC55F0000E0001AD6F72
:1058EE00110E0001AD6501D017D00001AD51010DB3
:1058FE00D30EF324D96E010EF420DA6E0001AD51F1
:10590E00010D000EF324E16E060EF420E26EDFCFE1
:10591E00E7FF0001AD2BE4D7FD0E0001FA6F120078
:10592E00030EE8CF00F6000EE8CF01F6DBC260F002
:10593E00DCC261F022EED7F001D80AD00500FA6E73
:10594E00DE50FD6EDE50FE6EF850FF6EFA50120005
:10595E000009D8A405D0000E0001A36F000E04D0DC
:10596E00000E0001A36F800EA26F26EE02F0A2C001
:10597E00DFFF000EE8CF03F6000E0001E66F040E07
:10598E00E56F000E0001616F040E606F2DEC55F097
:10599E00FD0E0001FA6F12000101D551F00B050941
:1059AE00D56F200E0101DF6F000E0101E06F010EB9
:1059BE0004018C6F000E0401886F000E896F000EBB
:1059CE008A6F000E8B6F0001FA691200000E000143
:1059DE006A6F000E6B6F000E6C6F000E6D6FB3EC86
:1059EE0049F00009D8A412000101D5510F0B060A87
:1059FE00D8A407D004018C05D8A403D00001FA69FD
:105A0E00120070EC5EF0000E0401886F000E896FBC
:105A1E00000E8A6F000E8B6F0001FA691200000EE5
:105A2E000401886F000E896F000E8A6F000E8B6F57
:105A3E000001FA6912000001E7510001E811D8B423
:105A4E0007D0E7C0D9FFE8C0DAFF0001DFBE1200C1
:105A5E0002014C5102014B1102014A1105E1400EA7
:105A6E000201495DD8A00BD0400E0001A46F400E7C
:105A7E000201495F000E4A5B4B5B4C5B0BD049C287
:105A8E00A4F0000E0201496F000E4A6F000E4B6F1C
:105A9E00000E4C6F0001A4510001A06FA16B00011C
:105AAE00A0510001E55D0001A1510001E659D8A009
:105ABE0007D00001A4510001E55F000EE65B22D085
:105ACE00000E0001AD6F18D00001E5510001E61186
:105ADE00D8B405D00001E507D8A0E6070BD0000129
:105AEE00AD51010D000EF324D96E060EF420DA6EC0
:105AFE00000EDF6E0001AD2B0001A4510001AD5D63
:105B0E00D8A0E2D7010E0001606F000E0001616F98
:105B1E00060E0001626FA4C063F0020E19EC49F08C
:105B2E0060C0E7F061C0E8F00201495102014A117C
:105B3E0002014B1102014C11D8A412000001FA69A6
:105B4E0012007F0E4BEC4AF012000001FA51000ACF
:105B5E00D8B43CD7030AD8B4ADD6110AD8B410D6EF
:105B6E00080AD8B4DDD6010AD8B459D7050AD8B474
:105B7E0013D73B0AD8B439D60D0AD8B4F1D5020AD8
:105B8E00D8B4F6D5050AD8B44AD7D20AD8B453D762
:105B9E00030AD7D7F1D160C0D9FF61C0DAFF000E7A
:105BAE00DE6E000EDD6E000120EE02F06051D92691
:105BBE006151DA220B0EDE6E000EDD6E000120EE5C
:105BCE0004F06051D9266151DA22040EDF6E000115
:105BDE0020EE05F06051D9266151DA22000EDE6EFC
:105BEE00000EDD6E000120EE07F06051D9266151E6
:105BFE00DA220B0EDE6E000EDD6E000120EE09F0D5
:105C0E006051D9266151DA22040EDF6E000120EEBA
:105C1E000AF06051D9266151DA22000EDE6E000EB6
:105C2E00DD6E120060C0D9FF61C0DAFF000EDE6EBD
:105C3E00000EDD6E000120EE02F06051D92661519A
:105C4E00DA22110EDE6E000EDD6E000120EE04F083
:105C5E006051D9266151DA22050EDF6E000120EE69
:105C6E0005F06051D9266151DA22000EDE6E000E6B
:105C7E00DD6E000120EE07F06051D9266151DA2267
:105C8E00110EDE6E000EDD6E000120EE09F0605189
:105C9E00D9266151DA22050EDF6E000120EE0AF0E0
:105CAE006051D9266151DA22000EDE6E000EDD6ED5
:105CBE00120060C0D9FF61C0DAFF000EDE6E000E6A
:105CCE00DD6E000120EE02F06051D9266151DA221C
:105CDE00DB0EDE6E160EDD6E000120EE04F060515E
:105CEE00D9266151DA220F0EDF6E000120EE05F08B
:105CFE006051D9266151DA22000EDE6E000EDD6E85
:105D0E00000120EE07F06051D9266151DA22DB0E38
:105D1E00DE6E160EDD6E000120EE09F06051D92602
:105D2E006151DA220F0EDF6E000120EE0AF0605193
:105D3E00D9266151DA22000EDE6E000EDD6E1200E3
:105D4E0060C0D9FF61C0DAFF000EDE6E000EDD6EA0
:105D5E00000120EE02F06051D9266151DA22DB0EED
:105D6E00DE6E160EDD6E000120EE04F06051D926B7
:105D7E006151DA220F0EDF6E000120EE05F0605148
:105D8E00D9266151DA22000EDE6E000EDD6E0001A4
:105D9E0020EE07F06051D9266151DA22DB0EDE6E5D
:105DAE00160EDD6E000120EE09F06051D92661510C
:105DBE00DA220F0EDF6E000120EE0AF06051D926B6
:105DCE006151DA22000EDE6E000EDD6E120060C032
:105DDE00D9FF61C0DAFF370EDE6ECA0EDD6E00012E
:105DEE0020EE02F06051D9266151DA22290EDE6EC4
:105DFE00D30EDD6E000120EE04F06051D926615104
:105E0E00DA220D0EDF6E000120EE05F06051D9266C
:105E1E006151DA22370EDE6ECA0EDD6E000120EE03
:105E2E0007F06051D9266151DA22290EDE6ED30EAB
:105E3E00DD6E000120EE09F06051D9266151DA22A3
:105E4E000D0EDF6E000120EE0AF06051D926615171
:105E5E00DA22000EDE6E000EDD6E120060C0D9FF7B
:105E6E0061C0DAFF370EDE6ECA0EDD6E000120EE67
:105E7E0002F06051D9266151DA22290EDE6ED30E60
:105E8E00DD6E000120EE04F06051D9266151DA2258
:105E9E000D0EDF6E000120EE05F06051D926615126
:105EAE00DA22370EDE6ECA0EDD6E000120EE07F02E
:105EBE006051D9266151DA22290EDE6ED30EDD6EC7
:105ECE00000120EE09F06051D9266151DA220D0E43
:105EDE00DF6E000120EE0AF06051D9266151DA2200
:105EEE00000EDE6E000EDD6E120060C0D9FF61C0C6
:105EFE00DAFF370EDE6ECA0EDD6E000120EE02F006
:105F0E006051D9266151DA22290EDE6ED30EDD6E76
:105F1E00000120EE04F06051D9266151DA220D0EF7
:105F2E00DF6E000120EE05F06051D9266151DA22B4
:105F3E00370EDE6ECA0EDD6E000120EE07F06051E8
:105F4E00D9266151DA22290EDE6ED30EDD6E0001E6
:105F5E0020EE09F06051D9266151DA220D0EDF6E66
:105F6E00000120EE0AF06051D9266151DA22000EAE
:105F7E00DE6E000EDD6E120000016251000AD8B412
:105F8E000AD6010AD8B44ED6030AD8B492D6010A5C
:105F9E00D8B4D6D6070AD8B41AD7010AD8B45ED761
:105FAE00030AD8A41200A1D7200E2B6001D0120034
:105FBE0065B212000101F3510101F411D8B40CD1F4
:105FCE00F3C1D9FFF4C1DAFF0101DFBE120004D123
:105FDE000001E3510001E411D8B407D0E3C0D9FFAA
:105FEE00E4C0DAFF0001DFBE11D112EC3BF0010E6E
:105FFE000001606F540E0001616F030E0001626FAD
:10600E00400E0001636F010E19EC49F0E0D0000163
:10601E00E3510001E411D8B407D0E3C0D9FFE4C0C6
:10602E00DAFF0001DFBEF2D0EDEC63F0010E0001ED
:10603E00606F540E0001616F030E0001626F400E1F
:10604E000001636F010E19EC49F0C1D00001E3515C
:10605E000001E411D8B407D0E3C0D9FFE4C0DAFFE1
:10606E000001DFBED3D0BCEC63F0010E0001606F07
:10607E00540E0001616F030E0001626F400E0001AD
:10608E00636F010E19EC49F0A2D00001E35100013B
:10609E00E411D8B407D0E3C0D9FFE4C0DAFF0001A1
:1060AE00DFBEB4D0AEEC5AF0010E0001606F540E9C
:1060BE000001616F030E0001626F400E0001636FFD
:1060CE00010E19EC49F083D00001E3510001E411F7
:1060DE00D8B407D0E3C0D9FFE4C0DAFF0001DFBEB9
:1060EE0095D0B6EC5FF0010E0001606F540E00010A
:1060FE00616F030E0001626F400E0001636F010EAF
:10610E0019EC49F064D08C7481D00001E351000188
:10611E00E411D8B407D0E3C0D9FFE4C0DAFF000120
:10612E00DFBE74D0810E0301546F80A002D0010E29
:10613E0001D0000E0301556F010E0001606F540E69
:10614E000001616F030E0001626F400E0001636F6C
:10615E00010E19EC49F03BD00001E3510001E411AE
:10616E00D8B407D0E3C0D9FFE4C0DAFF0001DFBE28
:10617E004DD0370E0301546F22EE36F0DECF8CF089
:10618E00DDCF8DF000018D358D338C3300018D35D3
:10619E008D338C3300018D358D338C338CC094F060
:1061AE008DC095F094C055F3000195510301566FC3
:1061BE00010E0001606F540E0001616F030E0001AD
:1061CE00626F400E0001636F010E19EC49F060C062
:1061DE00E3F061C0E4F01AD003019451100AD8B470
:1061EE00F7D6010AD8B413D7030AD8B42FD7010AA9
:1061FE00D8B44BD7070AD8B467D7230AD8B4ACD7CC
:10620E00B70AD8B480D7010AD8B47FD7010E97D079
:10621E0000019651010D940EF324D96E030EF42055
:10622E00DA6EDF502CEC52F00001962BAAD0000152
:10623E00965100018C6F8D6B010E00018C27000EA4
:10624E008D23940E00018C25D96E030E00018D2135
:10625E00DA6EDF500001636F00019651010D940E4E
:10626E00F324D96E030EF420DA6EDF50B6EC51F043
:10627E00020E61D00001965100018C6F8D6B010EE4
:10628E0000018C27000E8D23940E00018C25D96EF3
:10629E00030E00018D21DA6EDF500001636F0001E5
:1062AE00965100018E6F8F6B020E00018E27000E2D
:1062BE008F23940E00018E25D96E030E00018F21BF
:1062CE00DA6EDF500001646F000196510001906F8D
:1062DE00916B030E00019027000E9123940E000186
:1062EE009025D96E030E00019121DA6EDF50000168
:1062FE00656F000196510001926F936B040E0001C1
:10630E009227000E9323940E00019225D96E030E50
:10631E0000019321DA6EDF500001666F0001965185
:10632E00010D940EF324D96E030EF420DA6EDF50B5
:10633E0053EC45F0050E0001962723D0410E0001C7
:10634E00966F1FD000019651010D940EF324D96E55
:10635E00030EF420DA6EDF50F00B00018C6F8D6BA4
:10636E0000018D51000AD8A4E9D700018C51300AE2
:10637E00D8B44ED7700AD8B45AD7200AD8B47AD720
:10638E00DDD73D0E00019665DDD7000E0001606F72
:10639E00940E0001616F030E0001626F400E00014A
:1063AE00636F010E19EC49F060C0F3F161C0F4F1B6
:1063BE001200E00EF66E440EF76E20EE92F0120E04
:1063CE000900F5CFDEFFE806FBE2CD0EF66E440EB9
:1063DE00F76E20EEA5F0120E0900F5CFDEFFE806EF
:1063EE00FBE2D10EF66E450EF76E20EEB8F00D0EF6
:1063FE000900F5CFDEFFE806FBE222EE27F0DECF46
:10640E0060F0DDCF61F00001000E61BFFF0E626F24
:10641E00636F22EE32F0DECF64F0DDCF65F0000167
:10642E00000E65BFFF0E666F676F6BEC60F060C0AD
:10643E00CDF061C0CEF062C0CFF063C0D0F022EEDE
:10644E0012F0DECFC9F0DDCFCAF00001000ECABFD8
:10645E00FF0ECB6FCC6FC9C060F0CAC061F0CBC06D
:10646E0062F0CCC063F022EE1DF0DECF64F0DDCF23
:10647E0065F00001000E65BFFF0E666F676F6BEC77
:10648E0060F060C0C9F061C0CAF062C0CBF063C0FA
:10649E00CCF0C9C060F0CAC061F0CBC062F0CCC015
:1064AE0063F0E80E0001646F030E656F000E666FF9
:1064BE00000E676F8FEC4CF060C0C9F061C0CAF07F
:1064CE0062C0CBF063C0CCF022EE27F0DECFCDF071
:1064DE00DDCFCEF00001000ECEBFFF0ECF6FD06F1E
:1064EE00CDC060F0CEC061F0CFC062F0D0C063F01E
:1064FE0022EE32F0DECF64F0DDCF65F00001000E4B
:10650E0065BFFF0E666F676F6BEC60F060C0CDF01D
:10651E0061C0CEF062C0CFF063C0D0F0C9C064F0ED
:10652E00CAC065F0CBC066F0CCC067F0CDC060F0DD
:10653E00CEC061F0CFC062F0D0C063F08FEC4CF0F3
:10654E0060C06EF061C06FF062C070F063C071F039
:10655E00FEEC5AF06EC0C6F06FC0C7F070C0C8F047
:10656E00CDC060F0CEC061F0CFC062F0D0C063F09D
:10657E00E80E0001646F030E656F000E666F000E6D
:10658E00676F8FEC4CF060C0CDF061C0CEF062C092
:10659E00CFF063C0D0F0000E0001D16F16D0000115
:1065AE00D151010D920EF324D96E000EF420DA6E45
:1065BE000001D151010D780EF324E16E020EF4208C
:1065CE00E26EDFCFE7FF0001D12B0001D151010DAB
:1065DE00920EF324D96E000EF420DA6EDF50D8A49A
:1065EE00DED7000E0001D16F16D00001D151010D82
:1065FE00A50EF324D96E000EF420DA6E0001D151EF
:10660E00010D8C0EF324E16E020EF420E26EDFCF4C
:10661E00E7FF0001D12B0001D151010DA50EF3248E
:10662E00D96E000EF420DA6EDF50D8A4DED7C9C0C2
:10663E0078F0CAC079F0030E00017A6FA00E000147
:10664E007B6F020E00017C6F5DEC38F0CDC078F0F0
:10665E00CEC079F0030E00017A6FAA0E00017B6F97
:10666E00020E00017C6F5DEC38F0000E0001D16F60
:10667E0016D00001D151010DB80EF324D96E000EC3
:10668E00F420DA6E0001D151010DB40EF324E16E47
:10669E00020EF420E26EDFCFE7FF0001D12B0001E6
:1066AE00D151010DB80EF324D96E000EF420DA6E1E
:1066BE00DF50D8A4DED7C6C060F0C7C061F0C8C036
:1066CE0062F09BEC46F060C078F061C079F0010E8C
:1066DE0000017A6FB70E00017B6F020E00017C6F16
:1066EE005DEC38F0CDC090F0CEC091F00001901F5F
:1066FE00911F904B912B0001C95100019025000173
:10670E00786F0001CA51000191210001796F030ECB
:10671E0000017A6FC20E00017B6F020E00017C6FCA
:10672E005DEC38F012005EEC56F0000EF8EC61F005
:10673E00A3EC42F02FEC68F027EC6CF0020109514B
:10674E00D8A4FAD7020128BF08D0E00E0201275DB7
:10675E002E0E02012859D8B003D0100E30EC66F080
:10676E00020128AF13D002012729FF0E020128597A
:10677E00D8B00CD0010E30EC66F0020E30EC66F0A4
:10678E00040E30EC66F0080E30EC66F01BEC61F097
:10679E001CEC4DF0000E15EC5DF000016051020195
:1067AE0034270001615102013523010E15EC5DF015
:1067BE0000016051020138270001615102013923A5
:1067CE00020E15EC5DF00001605102013C27000144
:1067DE00615102013D2313D1010E00016A6F000EBB
:1067EE0000016B6F000E7FEC66F03DD1DBEC2FF0FD
:1067FE003AD17CEC64F0020108390F0B030B020155
:10680E00F56FF66BD8900201F537F6371F0E0201C1
:10681E00F525D96E020E0201F621DA6E000165C071
:10682E00DEFF000166C0DDFF010E00016A6F000E83
:10683E0000016B6F030E7FEC66F0B1EC4EF013D1DE
:10684E00B3EC6CF0050AD8A40ED1020140512CEC29
:10685E005EF009D1B3EC6CF006D17CEC64F0020171
:10686E0008390F0B030B0201F56FF66BD89002017E
:10687E00F537F6370A0E0201F525D96E020E020122
:10688E00F621DA6E000165C0DEFF000166C0DDFF95
:10689E00010E00016A6F000E00016B6F010E7FEC9E
:1068AE0066F034EC4FF0DFD0DBEC2FF0DCD07CEC7C
:1068BE0064F0020108390F0B030B0201F56FF66B42
:1068CE00D8900201F537F637290E0201F525D96E5B
:1068DE00020E0201F621DA6E000165C0DEFF000134
:1068EE0066C0DDFF010E00016A6F000E00016B6FC6
:1068FE00020E7FEC66F0DFEC47F0B5D0DBEC2FF04C
:10690E00B2D07CEC64F0020108390F0B030B0201CC
:10691E00F56FF66BD8900201F537F637140E0201BB
:10692E00F525D96E020E0201F621DA6E000165C060
:10693E00DEFF000166C0DDFF7CEC48F094D01EEC5B
:10694E0064F091D034C26CF035C26DF0040E0001CB
:10695E006E6F73EC4BF06CC036F26DC037F2000EFA
:10696E000201356F000E346F38C26CF039C26DF013
:10697E00050E00016E6F73EC4BF06CC03AF26DC0F9
:10698E003BF2000E0201396F000E386F3CC26CF004
:10699E003DC26DF0060E00016E6F73EC4BF06CC0D5
:1069AE003EF26DC03FF2000E02013D6F000E3C6FD5
:1069BE0083EC6CF0020137BF0AD0B90E0201365DCE
:1069CE000B0E02013759D8A002D08C840BD00201D5
:1069DE0037BF07D0C40E0201365D090E02013759CA
:1069EE00D8A08C94020140512CEC5EF03CD0B3EC5C
:1069FE006CF0050AD8A437D0A3EC5DF034D00201B8
:106A0E0008510F0B0201F56FF66B0201F651000AE9
:106A1E00D8A429D00201F551000AD8B4DDD6010A56
:106A2E00D8B4E4D6020AD8B4E4D6070AD8B408D744
:106A3E00010AD8B40FD7030AD8B40FD70E0AD8B4A8
:106A4E0033D7010AD8B433D7020AD8B457D7070AB6
:106A5E00D8B457D7010AD8B472D7030AD8B472D7AC
:106A6E00010AD8B4C4D7010E0201096F65D67DD1D3
:106A7E0052C2DCF053C2DBF054C2DAF055C2D9F088
:106A8E0057C2E6F058C2E5F00001E55100019B6FD8
:106A9E000001E65100019C6F00019D6B00019E6B91
:106AAE00090ED89000019B379C379D379E37E82EF4
:106ABE00F8D79BC06AF09CC06BF09DC06CF09EC076
:106ACE006DF0B3EC49F00009D8A460D1DBC260F0E0
:106ADE00DCC261F022EED7F001D80AD00500FA6EC2
:106AEE00DE50FD6EDE50FE6EF850FF6EFA50120054
:106AFE000009D8B418D0010E04018C6F0101D551D4
:106B0E00F00B0709D56F270E0101DF6F000E010193
:106B1E00E06F000E0001606F020E3DEC47F0000EBC
:106B2E001C6E1C501200010E0001FB6F0001E5519E
:106B3E000001E611D8B416D1030E1C6E000E010131
:106B4E00F96F060E0101FA6F000E0401886F020E36
:106B5E00896F000E8A6F000E8B6F0401885104013D
:106B6E00891104018A1104018B11D8B421D00001BE
:106B7E00E9510001EA11D8B407D0E9C0D9FFEAC043
:106B8E00DAFF0001DFBE02D1000E0001606FF9C115
:106B9E0061F0FAC162F0400E0001636F020E19EC53
:106BAE0049F060C0E9F061C0EAF0040E1C6E25D019
:106BBE00DBC260F0DCC261F022EED7F001D80AD061
:106BCE000500FA6EDE50FD6EDE50FE6EF850FF6E62
:106BDE00FA5012000009D8B40ED0010E04018C6FC9
:106BEE000101D551F00B0209D56F270E0101DF6FA0
:106BFE00000E0101E06F020EB6D00001E951000156
:106C0E00EA11D8B407D0E9C0D9FFEAC0DAFF000113
:106C1E00DFBEBCD0000120EE01F0E951D926EA51C9
:106C2E00DA22DF5000019B6F9BC09CF000019D6B30
:106C3E009E6B9F6B00019C510201495F00019D51AB
:106C4E0002014A5B00019E5102014B5B00019F5104
:106C5E0002014C5B000120EE01F0E951D926EA5108
:106C6E00DA22DF5000019B6F9BC09CF000019D6BF0
:106C7E009E6B9F6B00019C510401885F00019D512A
:106C8E000401895B00019E5104018A5B00019F5142
:106C9E0004018B5B400E0101F927000EFA23030E4F
:106CAE0062D004018C51D8A447D0DBC28BF0DCC279
:106CBE008CF0D9C08DF0DAC08EF0DBC08FF0DCC066
:106CCE0090F0000E0001916F060E0001926F000110
:106CDE00D9510001DA110001DB110001DC11D8A439
:106CEE0002D0010E01D0000E0001936F22EED9F0FA
:106CFE0001D80AD00500FA6EDE50FD6EDE50FE6E33
:106D0E00F850FF6EFA501200E806D8B415D0640E93
:106D1E000001F96103D00001F92B38D0010E0401F6
:106D2E008C6F0101D551F00B0309D56F000E0101D7
:106D3E00DF6F000E0101E06F010E0001D927000E7A
:106D4E00DA23DB23DC230001E507D8A0E607010EDA
:106D5E000AD0020E04018C6F000E0001606F020E4D
:106D6E003DEC47F0000E1C6E11D01C50000AD8B43A
:106D7E007FD6010AD8B4DAD6030AD8B492D7010A5C
:106D8E00D8B4EBD6070AD8B438D7E3D71C501200C4
:106D9E00160EF66E440EF76E21EE0FF0140E09006D
:106DAE00F5CFDEFFE806FBE2060EF66E450EF76E39
:106DBE0021EE60F0110E0900F5CFDEFFE806FBE2D2
:106DCE00F30EF66E440EF76E21EE4DF0120E090024
:106DDE00F5CFDEFFE806FBE2850EF66E460EF76E89
:106DEE0021EE08F0060E0900F5CFDEFFE806FBE205
:106DFE006D0EF66E460EF76E21EE00F0070E0900D0
:106E0E00F5CFDEFFE806FBE2210EF66E460EF76EBC
:106E1E0021EE82F00B0E0900F5CFDEFFE806FBE255
:106E2E00710EF66E450EF76E21EE72F00F0E090022
:106E3E00F5CFDEFFE806FBE2010EF66E440EF76EAE
:106E4E0021EE24F0140E0900F5CFDEFFE806FBE27A
:106E5E00690EF66E440EF76E21EE39F0130E090030
:106E6E00F5CFDEFFE806FBE2000E01018E6F16D0B5
:106E7E0001018E51010D0F0EF324D96E010EF42077
:106E8E00DA6E01018E51010D780EF324E16E020EC1
:106E9E00F420E26EDFCFE7FF01018E2B01018E5150
:106EAE00010D0F0EF324D96E010EF420DA6EDF50B1
:106EBE00D8A4DED7000E01018E6F16D001018E51BF
:106ECE00010D600EF324D96E010EF420DA6E01016D
:106EDE008E51010D8C0EF324E16E020EF420E26E43
:106EEE00DFCFE7FF01018E2B01018E51010D600EE8
:106EFE00F324D96E010EF420DA6EDF50D8B423D00D
:106F0E00DDD701018E51010D4D0EF324D96E010E08
:106F1E00F420DA6E01018E51010D8C0EF324E16E18
:106F2E00020EF420E26EDFCFE7FF01018E2B01018E
:106F3E008E51010D4D0EF324D96E010EF420DA6E32
:106F4E00DF50D8A4DED7000E01018E6F8CD0010168
:106F5E008E51010D820EF324D96E010EF420DA6EDD
:106F6E0001018E51010DA00EF324E16E020EF420EC
:106F7E00E26EDFCFE7FF01018E2B01018E51010D75
:106F8E00820EF324D96E010EF420DA6EDF50D8B4DF
:106F9E0078D0DDD701018E51010D720EF324D96E1A
:106FAE00010EF420DA6E01018E51010DA00EF324B4
:106FBE00E16E020EF420E26EDFCFE7FF01018E2BB1
:106FCE0001018E51010D720EF324D96E010EF420C3
:106FDE00DA6EDF50D8B455D0DDD701018E51010DD8
:106FEE00240EF324D96E010EF420DA6E01018E51B7
:106FFE00010DA00EF324E16E020EF420E26EDFCF3F
:10700E00E7FF01018E2B01018E51010D240EF32499
:10701E00D96E010EF420DA6EDF50D8B432D0DDD73F
:10702E0001018E51010D390EF324D96E010EF4209B
:10703E00DA6E01018E51010DA00EF324E16E020EE7
:10704E00F420E26EDFCFE7FF01018E2B01018E519E
:10705E00010D390EF324D96E010EF420DA6EDF50D5
:10706E00D8B40FD0DDD7BEEC6CF0000AD8B485D7FB
:10707E00010AD8B4A5D7030AD8B4C5D7010AD8B423
:10708E00E5D7B9EC6CF00001906F00019051000152
:10709E00786F796B000E00017A6FB40E00017B6F72
:1070AE00020E00017C6F5DEC38F01200830E0001C1
:1070BE00706F000E0001716F78C072F079C073F0BE
:1070CE00000E0001756F0A0E746FEDEC66F0830E04
:1070DE000001606F000E0001616FA4EC66F000010C
:1070EE00605100018D6F000179AF72D000018D519A
:1070FE00000800017A25020F00018E6F00018E51EB
:10710E00800A7F0FD8A0C2D07AC08FF000018F29DD
:10711E00D8B45AD000018F5100018EBF04D0FF0A9F
:10712E008E25D8B03AD08EC07DF000017E6B7DBF2B
:10713E007E0700017D1F7E1F7D4B7E2B00018F5130
:10714E0000017F6F806B00017D5100017F270001E0
:10715E007E5100018023010E00017F27000E802347
:10716E00830E00017F25D96E000E00018021DA6E9C
:10717E0000018F510001816F826B010E000181278A
:10718E00000E8223830E00018125E16E000E0001A8
:10719E008221E26EDFCFE7FF14D000018F51000194
:1071AE007D6F7E6B010E00017D27000E7E23830E08
:1071BE0000017D25D96E000E00017E21DA6E300EA3
:1071CE00DF6E00018F07A2D700017A51020F5CD04B
:1071DE0000018D51000800017A2500017D6F00012C
:1071EE007D2900018E6F00018E51800A7F0FD8A07D
:1071FE004DD07AC08FF000018F29D8B443D0000152
:10720E008F5100018EBF04D0FF0A8E25D8B02CD02E
:10721E008EC07DF000017E6B7DBF7E0700017D1F5D
:10722E007E1F7D4B7E2B00018F5100017F6F806B87
:10723E0000017D5100017F2700017E510001802356
:10724E00830E00017F25D96E000E00018021DA6EBB
:10725E0000018F51010D830EF324E16E000EF42018
:10726E00E26EDFCFE7FF0BD000018F51010D830ED1
:10727E00F324D96E000EF420DA6E300EDF6E0001AC
:10728E008F07B9D700017A2900018D6F00017A515D
:10729E00000800018D2500017D6F00017D050001B4
:1072AE007A6F000E00018F6F2ED000018F51010DED
:1072BE00830EF324D96E000EF420DA6E00018F5186
:1072CE00010DF35000017B25E16EF45000017C218D
:1072DE00E26EDFCFE7FF00017A5100018F19D8A4CB
:1072EE0010D000018F2B00018F51010DF3500001C2
:1072FE007B25D96EF45000017C21DA6E2E0EDF6EE6
:10730E002AD000018F2B00018D5100018F5DD8B066
:10731E0022D0CBD700018F51010D830EF324D96EED
:10732E00000EF420DA6E00018F5100017D6F7E6B2E
:10733E00010E00017D27000E7E2300017D5100010C
:10734E007B25E16E00017E5100017C21E26EDFCFD4
:10735E00E7FF00018F2B00018D5100018F5DD8B02A
:10736E001200D8D7200E2B18D8A41200A09842D104
:10737E000001E9510001EA11D8B407D0E9C0D9FFE4
:10738E00EAC0DAFF0001DFBE44D1000E0001B86F83
:10739E001E0E0001B86501D017D00001B851010DC5
:1073AE00400EF324D96E040EF420DA6E0001B851AB
:1073BE00010D410EF324E16E020EF420E26EDFCFDA
:1073CE00E7FF0001B82BE4D7000120EE01F0E951F0
:1073DE00D926EA51DA221F0EDE18D8A484D0550E13
:1073EE00020141190CE1530E020142197CE1420ED9
:1073FE000201431978E1430E02014419D8A473D057
:10740E00010E0001F56F02014E51D8A45FD0110E8E
:10741E0002014F615BD002014F51D8B457D04DC21B
:10742E00B3F03F0E0001B317D8A450D0550E04018F
:10743E00806F530E816F420E826F530E836F45C263
:10744E0084F446C285F447C286F448C287F4000E1F
:10745E000401886F000E896F000E8A6F000E8B6F0D
:10746E00000E04018C6F0001FA69000E1D6E000EF5
:10747E001C6E000E0001F96F030E02015019D8B4F4
:10748E000BD00101D591D593D595D597000E01015D
:10749E00DF6F000E0101E06F02014DAF02D0010E51
:1074AE0001D0020E0001FB6F0201495102014A1187
:1074BE0002014B1102014C11D8B402D0000E01D0C2
:1074CE00010E0001F66F50C2FAF0A3D0010E0001BA
:1074DE00606F020E3DEC47F0000E0001606F020E71
:1074EE003DEC47F096D0010E0001606F020E3DECB0
:1074FE0047F0000E0001606F020E3DEC47F0000EEB
:10750E000001F56F86D058EC43F0FF0AD8A481D065
:10751E0016D058EC43F0FF0AD8A47BD004018C514E
:10752E00D8A40DD0040188510401891104018A11D7
:10753E0004018B11D8B403D0020E04018C6F030E1C
:10754E0049D013C0B4F014C0B5F00001B45100011D
:10755E00B511D8B40BD013C0B6F014C0B7F0B6C086
:10756E00D9FFB7C0DAFF0001DFBE53D0010E000114
:10757E00606F800E0001616F040E0001626F0D0ED0
:10758E000001636F020E19EC49F060C0E7F061C0B4
:10759E00E8F00001E9510001EA11D8B407D0E9C0C2
:1075AE00D9FFEAC0DAFF0001DFBE13D0000E0001E2
:1075BE00606F400E0001616F040E0001626F400E9D
:1075CE000001636F020E19EC49F060C0E9F061C072
:1075DE00EAF0000E0001FB6F1CD0000E0001FB6FE5
:1075EE00020E04018C6F000E0001606F020E3DEC66
:1075FE0047F00FD00001FB51000AD8B4B9D6010AEA
:10760E00D8B481D7030AD8B484D7010AD8B499D78D
:10761E00E4D7A0881200100E0301546F12C255F366
:10762E00020113510301566F27C257F3020128516D
:10763E000301586F1DC259F302011E5103015A6F07
:10764E0032C25BF30201335103015C6F36C25DF34C
:10765E000201375103015E6F3AC25FF302013B51E3
:10766E000301606F3EC261F302013F510301626F7D
:10767E0005C263F340C264F330EC6CF00301656F36
:10768E0042EC6CF00301666F5DEC6CF00301676F0A
:10769E0054EC6CF00301686F4BEC6CF00301696FF6
:1076AE0039EC6CF003016A6FBEEC6CF003016B6F8A
:1076BE00B9EC6CF003016C6F1CEC69F003016D6F9B
:1076CE00B6EC6CF003016E6F34C26FF302013551EC
:1076DE000301706F38C271F3020139510301726FE9
:1076EE003CC273F302013D510301746F020108396C
:1076FE000F0B030B0001616F626BD89000016137B5
:10770E0062370A0E00016125D96E020E0001622158
:10771E00DA6EDF500301756F020108390F0B030B90
:10772E000001616F626BD8900001613762370A0EFB
:10773E0000016125D96E020E00016221DA6EDECFE4
:10774E0063F0DDCF64F064C063F00001646B63BF6F
:10775E006469000163510301766F020108390F0B52
:10776E00030B0001616F626BD890000161376237C5
:10777E001F0E00016125D96E020E00016221DA6E24
:10778E00DF500301776F020108390F0B030B000165
:10779E00616F626BD8900001613762371F0E000176
:1077AE006125D96E020E00016221DA6EDECF63F022
:1077BE00DDCF64F064C063F00001646B63BF646985
:1077CE00000163510301786F020108390F0B030B9F
:1077DE000001616F626BD890000161376237140E41
:1077EE0000016125D96E020E00016221DA6EDF50B2
:1077FE000301796F020108390F0B030B0001616F52
:10780E00626BD890000161376237140E000161255A
:10781E00D96E020E00016221DA6EDECF63F0DDCF8B
:10782E0064F064C063F00001646B63BF64690001BF
:10783E00635103017A6F020108390F0B030B00012C
:10784E00616F626BD890000161376237290E0001BB
:10785E006125D96E020E00016221DA6EDF5003013E
:10786E007B6F020108390F0B030B0001616F626B16
:10787E00D890000161376237290E00016125D96E5B
:10788E00020E00016221DA6EDECF63F0DDCF64F00E
:10789E0064C063F00001646B63BF646900016351EF
:1078AE0003017C6FB3EC6CF003017D6F08C27EF3B5
:1078BE00120004013205D8A410D0040130511F0B60
:1078CE000009D8A40AD00C8E030E04013119D8A4D5
:1078DE0002D0010E01D0000E286E04013251D8A440
:1078EE001200040130511F0B020AD8A41200040129
:1078FE0034510F0B0009D8B41200040134510F0B90
:10790E00456E030E45601200200E2B18D8A41200EF
:10791E000C8E040134BF1BD0040134510F0B456E85
:10792E004550020DD30EF324D96E000EF420DA6EFC
:10793E00DECF49F0DDCF4AF0040134510F0B456E16
:10794E004550010DDD0EF324D96E000E1AD0040140
:10795E0034510F0B456E4550020D0F0EF324D96EA8
:10796E00000EF420DA6EDECF49F0DDCF4AF00401CE
:10797E0034510F0B456E4550010DE00EF324D96EB8
:10798E00000EF420DA6EDF50486E48B006D0FB0EC3
:10799E004914496EFF0E4A1404D0040E4910496E64
:1079AE004A504A6E040134BF0BD0040134510F0B00
:1079BE00456E4550020DD30EF324D96E000E0AD03B
:1079CE00040134510F0B456E4550020D0F0EF3247A
:1079DE00D96E000EF420DA6E49C0DEFF4AC0DDFF1C
:1079EE00030E04013119D8A42FD049C0D9FF4AC0C3
:1079FE00DAFFDFAE1CD0040134BF0BD004013451CA
:107A0E000F0B456E4550010DDD0EF324D96E000EA1
:107A1E000AD0040134510F0B456E4550010DE00E96
:107A2E00F324D96E000EF420DA6E0001DF8249C015
:107A3E00D9FF4AC0DAFF000EDB8449C0D9FF4AC025
:107A4E00DAFF000EDB8E1200040E4918496E4A5002
:107A5E004A6E49C0D9FF4AC0DAFFDFAE1BD049C01B
:107A6E00D9FF4AC0DAFF7F0EDF1649C0D9FF4AC0E0
:107A7E00DAFF000EDB8C000E3E6E050E3D6E49C029
:107A8E003FF04AC040F0000E426E020E416EB3EC63
:107A9E005EF006D049C0D9FF4AC0DAFF000EDB8C7B
:107AAE00040E4918496E4A504A6E48B206D049C073
:107ABE00D9FF4AC0DAFFDFAE31D0040134BF0BD09C
:107ACE00040134510F0B456E4550010DDD0EF324AC
:107ADE00D96E000E0AD0040134510F0B456E45507D
:107AEE00010DE00EF324D96E000EF420DA6E0001C3
:107AFE00DF9249C0D9FF4AC0DAFF3B0EDF16000EF7
:107B0E003E6E050E3D6E49C03FF04AC040F0000E7D
:107B1E00426E020E416EB3EC5EF006D049C0D9FF44
:107B2E004AC0DAFF3B0EDF16040134510F0B456ECF
:107B3E004550010D260EF324466E0F0EF420476EAF
:107B4E0046C0D9FF47C0DAFFFE0EDF161200000155
:107B5E00A86FDF0EF66E450EF76E20EE9AF00D0E44
:107B6E000900F5CFDEFFE806FBE2810EF66E450E4C
:107B7E00F76E20EE8AF00F0E0900F5CFDEFFE80655
:107B8E00FBE2400EF66E440EF76E20EE60F0140E21
:107B9E000900F5CFDEFFE806FBE22B0EF66E440E73
:107BAE00F76E20EE75F0140E0900F5CFDEFFE80635
:107BBE00FBE2000E0001A96F16D00001A951010DC4
:107BCE009A0EF324D96E000EF420DA6E0001A9513C
:107BDE00010D780EF324E16E020EF420E26EDFCF7B
:107BEE00E7FF0001A92B0001A951010D9A0EF32404
:107BFE00D96E000EF420DA6EDF50D8A4DED7020163
:107C0E0028AF2DD002012729FF0E02012859D8B026
:107C1E0026D0000E0001A96F16D00001A951010D4A
:107C2E008A0EF324D96E000EF420DA6E0001A951EB
:107C3E00010D8C0EF324E16E020EF420E26EDFCF06
:107C4E00E7FF0001A92B0001A951010D8A0EF324B3
:107C5E00D96E000EF420DA6EDF50D8A4DED7000EF7
:107C6E000001A96F16D00001A951010D600EF32479
:107C7E00D96E000EF420DA6E0001A951010DA00E8E
:107C8E00F324E16E020EF420E26EDFCFE7FF000177
:107C9E00A92B0001A951010D600EF324D96E000E1F
:107CAE00F420DA6EDF50D8A4DED7000E0001A96FE3
:107CBE0016D00001A951010D750EF324D96E000ED8
:107CCE00F420DA6E0001A951010DB40EF324E16E19
:107CDE00020EF420E26EDFCFE7FF0001A92B0001B8
:107CEE00A951010D750EF324D96E000EF420DA6E33
:107CFE00DF50D8A4DED7020105A106D06E0E020118
:107D0E00A86F200E0201A96F020105A306D06E0E08
:107D1E000201B26F200E0201B36F020105A506D05B
:107D2E006E0E0201BC6F200E0201BD6F020105A78F
:107D3E0023D06E0E0201C66F200E0201C76F1CD03B
:107D4E002D0E0201A06F3E0E0201A16F12002D0E2C
:107D5E000201AA6F3E0E0201AB6F12002D0E020140
:107D6E00B46F3E0E0201B56F12002D0E0201BE6FF2
:107D7E003E0E0201BF6F12000001A851310AD8B4A5
:107D8E00DFD7030AD8B4E3D7010AD8B4E7D7070A76
:107D9E00D8A41200EAD74E0EF66E450EF76E20EE00
:107DAE0090F0110E0900F5CFDEFFE806FBE23C0E67
:107DBE00F66E450EF76E20EEA2F0110E0900F5CF0D
:107DCE00DEFFE806FBE28C0EF66E460EF76E09003D
:107DDE00F5CFC2F00900F5CFC3F00A00F5CFC4F01D
:107DEE00FB0EF66E450EF76E20EEB4F00D0E09008A
:107DFE00F5CFDEFFE806FBE2000E0001C56F16D0E0
:107E0E000001C551010D900EF324D96E000EF42021
:107E1E00DA6E0001C551010D780EF324E16E020EEB
:107E2E00F420E26EDFCFE7FF0001C52B0001C55144
:107E3E00010D900EF324D96E000EF420DA6EDF5091
:107E4E00D8A4DED7000E0001C56F16D00001C551B3
:107E5E00010DA20EF324D96E000EF420DA6E00018D
:107E6E00C551010D8C0EF324E16E020EF420E26E6C
:107E7E00DFCFE7FF0001C52B0001C551010DA20E9A
:107E8E00F324D96E000EF420DA6EDF50D8A4DED7BC
:107E9E00000E0001C56F16D00001C551010DC20EB6
:107EAE00F324D96E000EF420DA6E0001C551010DD7
:107EBE00A00EF324E16E020EF420E26EDFCFE7FF98
:107ECE000001C52B0001C551010DC20EF324D96E60
:107EDE00000EF420DA6EDF50D8A4DED712C278F08E
:107EEE0013C279F0030E00017A6FA30E00017B6FAF
:107EFE00020E00017C6F5DEC38F027C278F028C2CC
:107F0E0079F0030E00017A6FAB0E00017B6F020E4B
:107F1E0000017C6F5DEC38F0000E0001C56F16D0CD
:107F2E000001C551010DB40EF324D96E000EF420DC
:107F3E00DA6E0001C551010DB40EF324E16E020E8E
:107F4E00F420E26EDFCFE7FF0001C52B0001C55123
:107F5E00010DB40EF324D96E000EF420DA6EDF504C
:107F6E00D8A4DED71DC278F01EC279F0030E000130
:107F7E007A6FB70E00017B6F020E00017C6F5DEC15
:107F8E0038F032C278F033C279F0030E00017A6F06
:107F9E00BF0E00017B6F020E00017C6F5DEC38F0AE
:107FAE001200EED052C2DCF053C2DBF054C2DAF053
:107FBE0055C2D9F057C2E6F058C2E5F00001E551BE
:107FCE000001956F0001E6510001966F0001976B5D
:107FDE000001986B090ED8900001953796379737A8
:107FEE009837E82EF8D795C06AF096C06BF097C018
:107FFE006CF098C06DF0B3EC49F00009D8A4D1D064
:10800E00010E1D6E0001E5510001E611D8B4B5D088
:10801E000001E507D8A0E607020E1D6E0001E7512C
:10802E000001E811D8B407D0E7C0D9FFE8C0DAFFE5
:10803E000001DFBEB6D0DBC28BF0DCC28CF0D9C043
:10804E008DF0DAC08EF0DBC08FF0DCC090F0000E49
:10805E000001916F060E0001926F22EED5F001D84D
:10806E000AD00500FA6EDE50FD6EDE50FE6EF85040
:10807E00FF6EFA501200E806D8B41CD0640E000150
:10808E00F96103D00001F92B8CD0020E04018C6F24
:10809E000101D551F00B0309D56F000E0101DF6F01
:1080AE00000E0101E06F010E0001606F020E3DEC4B
:1080BE0047F063D0010E0001D927000EDA23DB232F
:1080CE00DC23000E0401886F020E896F000E8A6F8A
:1080DE00000E8B6F000E0101F96F060E0101FA6F93
:1080EE00030E1D6E040188510401891104018A11C9
:1080FE0004018B11D8A402D0010E40D0040E1D6EC7
:10810E000001E7510001E811D8B407D0E7C0D9FF4C
:10811E00E8C0DAFF0001DFBE44D0010E0001606F3F
:10812E00F9C161F0FAC162F0400E0001636F020EF8
:10813E0019EC49F060C0E7F061C0E8F0030E1D6E67
:10814E00400E0201495F000E4A5B4B5B4C5B400EDA
:10815E000401885F000E895B8A5B8B5B400E010118
:10816E00F927000EFA231DD0020E04018C6F010EAA
:10817E000001606F020E3DEC47F0000E1D6E11D037
:10818E001D50000AD8B40ED7010AD8B43BD7030A43
:10819E00D8B444D7010AD8B4A5D7070AD8B4B0D7F3
:1081AE00E3D71D501200550EF66E440EF76E20EEFC
:1081BE0090F0130E0900F5CFDEFFE806FBE2450E48
:1081CE00F66E460EF76E20EEBCF00A0E0900F5CFE5
:1081DE00DEFFE806FBE2150EF66E460EF76E20EE9B
:1081EE00A4F00B0E0900F5CFDEFFE806FBE2090E48
:1081FE00F66E460EF76E20EEB0F00B0E0900F5CFC0
:10820E00DEFFE806FBE2000E0001C76F16D000018C
:10821E00C751010D900EF324D96E000EF420DA6EC4
:10822E000001C751010D780EF324E16E020EF42009
:10823E00E26EDFCFE7FF0001C72B0001C751010D32
:10824E00900EF324D96E000EF420DA6EDF50D8A40F
:10825E00DED7000E0001C76F16D00001C751010D09
:10826E00BC0EF324D96E000EF420DA6E0001C75155
:10827E00010D8C0EF324E16E020EF420E26EDFCFC0
:10828E00E7FF0001C72B0001C751010DBC0EF324FF
:10829E00D96E000EF420DA6EDF50D8A4DED736C2C7
:1082AE0078F037C279F0020E00017A6F980E000155
:1082BE007B6F020E00017C6F5DEC38F0000E00014A
:1082CE00C76F16D00001C751010DA40EF324D96E4D
:1082DE00000EF420DA6E0001C751010DA00EF3243A
:1082EE00E16E020EF420E26EDFCFE7FF0001C72B36
:1082FE000001C751010DA40EF324D96E000EF42017
:10830E00DA6EDF50D8A4DED73AC278F03BC279F0ED
:10831E00020E00017A6FAC0E00017B6F020E00019F
:10832E007C6F5DEC38F0000E0001C76F16D00001B7
:10833E00C751010DB00EF324D96E000EF420DA6E83
:10834E000001C751010DB40EF324E16E020EF420AC
:10835E00E26EDFCFE7FF0001C72B0001C751010D11
:10836E00B00EF324D96E000EF420DA6EDF50D8A4CE
:10837E00DED73EC278F03FC279F0020E00017A6F6E
:10838E00C00E00017B6F020E00017C6F5DEC38F0B9
:10839E0012007D0EF66E440EF76E20EE60F0130E98
:1083AE000900F5CFDEFFE806FBE2A10EF66E450EE4
:1083BE00F76E20EE85F00F0E0900F5CFDEFFE80612
:1083CE00FBE2910EF66E450EF76E20EE95F00F0E57
:1083DE000900F5CFDEFFE806FBE2600EF66E450EF5
:1083EE00F76E20EE74F0100E0900F5CFDEFFE806F2
:1083FE00FBE2000E0001A56F16D00001A551010D84
:10840E00600EF324D96E000EF420DA6E0001A55131
:10841E00010D780EF324E16E020EF420E26EDFCF32
:10842E00E7FF0001A52B0001A551010D600EF324FD
:10843E00D96E000EF420DA6EDF50D8A4DED702011A
:10844E0028BF08D0E00E0201275D2E0E020128592A
:10845E00D8B026D0000E0001A56F16D00001A55190
:10846E00010D850EF324D96E000EF420DA6E000194
:10847E00A551010DA00EF324E16E020EF420E26E62
:10848E00DFCFE7FF0001A52B0001A551010D850EE1
:10849E00F324D96E000EF420DA6EDF50D8A4DED7A6
:1084AE00000E0001A56F8CB617D039D00001A55172
:1084BE00010D950EF324D96E000EF420DA6E000134
:1084CE00A551010DB40EF324E16E020EF420E26EFE
:1084DE00DFCFE7FF0001A52B0001A551010D950E81
:1084EE00F324D96E000EF420DA6EDF50D8B41200E9
:1084FE00DDD70001A551010D740EF324D96E000EC7
:10850E00F420DA6E0001A551010DB40EF324E16ED4
:10851E00020EF420E26EDFCFE7FF0001A52B000173
:10852E00A551010D740EF324D96E000EF420DA6EEF
:10853E00DF50D8B41200DDD7A098000E636E000E87
:10854E00626E000E0F01266F270E0001606F0F0E78
:10855E000001616F000E0001636F000E626F000E6E
:10856E000001656F020E646FCFEC68F0160E0F01FE
:10857E00396F9F0E0F01376F7B0E0F01366F000E96
:10858E000001686F0B0E0001686501D010D000016C
:10859E006851040D000EF324D96E040EF420DA6E29
:1085AE00DE6ADE6ADE6ADD6A0001682BEBD7658C57
:1085BE00000E0F01386F6598659C6296000E0C6E6A
:1085CE00000E046E000E066E000E056E62B6F5D736
:1085DE00010E226E010E216E000E206E000E1F6E19
:1085EE00000E276E000E0001686F020E0001686516
:1085FE0001D033D000016851020D0F0EF324D96E55
:10860E00000EF420DA6E000EDE6E000EDD6E00013E
:10861E006851020DD30EF324D96E000EF420DA6EDB
:10862E00000EDE6E000EDD6E00016851010DE00ED3
:10863E00F324D96E000EF420DA6E000EDF6E000108
:10864E006851010DDD0EF324D96E000EF420DA6EA2
:10865E00000EDF6E0001682BC8D7080E0F6E040ED9
:10866E00106E160E0F01266F040E0401036F300EEE
:10867E00026F080E0401016F040E0401006F040165
:10868E00008F000E2D6E000E0101ED6F000EEE6FCD
:10869E00000EEF6F000EF06F000E1E6E000E2B6EB2
:1086AE001200DBC260F0DCC261F022EED3F001D822
:1086BE000AD00500FA6EDE50FD6EDE50FE6EF850EA
:1086CE00FF6EFA5012000009D8B40CD002014E51C0
:1086DE00010DF70EF324D96E000EF420DA6EDE04CF
:1086EE00D8A425D04EC2AEF0010E0001AF6F000E21
:1086FE000001B06F0001AE2B04D0D8900001AF374F
:10870E00B0370001AE2FF9D70001AF1D0001B16FD8
:10871E000001B01D0001B26F0001B1510101F5174A
:10872E000001B2510101F6172CEC62F067D04EC277
:10873E00AEF0010E0001AF6F000E0001B06F000130
:10874E00AE2B04D0D8900001AF37B0370001AE2F5A
:10875E00F9D70101F5510001AF170101F6510001E2
:10876E00B0170001AF510001B011D8A445D0DBC243
:10877E0060F0DCC261F001D80BD005000201FA6E88
:10878E00CD51FD6ECE51FE6EF850FF6EFA501200B6
:10879E000001605100016111D8B42BD04EC2AEF071
:1087AE00010E0001AF6F000E0001B06F0001AE2B85
:1087BE0004D0D8900001AF37B0370001AE2FF9D7F3
:1087CE000001AF510101F5130001B0510101F61383
:1087DE000101D551F00B0609D56F280E0101DF6F8F
:1087EE00000E0101E06F010E04018C6FB6EC2BF050
:1087FE0005D02CEC62F002D0B6EC2BF00001FA5151
:10880E001200A098000E636E000E626E000E0F0135
:10881E00266F270E2E6E0F0E2F6E000E316E000E6F
:10882E00306E000E336E020E326ED1EC69F0160E03
:10883E000F01396F9F0E0F01376F7B0E0F01366FD1
:10884E00000E366E0B0E366401D00ED03650040D6F
:10885E00000EF324D96E040EF420DA6EDE6ADE6AA0
:10886E00DE6ADD6A362AEED7658C000E0F01386F90
:10887E006598659C6296000E0C6E000E046E000EDE
:10888E00066E000E056E62B6F5D7010E226E010E53
:10889E00216E000E206E000E1F6E000E276E000E53
:1088AE00366E020E366401D02ED03650020D0F0EEB
:1088BE00F324D96E000EF420DA6E000EDE6E000E7A
:1088CE00DD6E3650020DD30EF324D96E000EF42059
:1088DE00DA6E000EDE6E000EDD6E3650010DE00E0D
:1088EE00F324D96E000EF420DA6E000EDF6E3650D1
:1088FE00010DDD0EF324D96E000EF420DA6E000E9B
:10890E00DF6E362ACED7080E0F6E040E106E160EC0
:10891E000F01266F040E0401036F300E026F080E56
:10892E000401016F040E0401006F0401008F000E9C
:10893E002D6E000E0101ED6F000EEE6F000EEF6F4B
:10894E00000EF06F000E1E6E000E2B6E1200000E4B
:10895E000001816F060E0001816501D01200000139
:10896E0081510001796F7A6B0001793B7A3BF00EF1
:10897E007A1779510F0B7A13F00E7917000E00014A
:10898E00792500017F6F010E00017A210001806FB1
:10899E007FC071F080C072F07B0E0001736F000E0D
:1089AE000001746F040E0001756F29EC63F0770EF1
:1089BE0000017B19D8A42AD0550E00017C19D8A429
:1089CE0025D0330E00017D19D8A420D0000181518D
:1089DE0000017E19D8A41AD0040E00017F27000EC4
:1089EE0080237FC071F080C072F0000181510C0DA8
:1089FE00000EF3240001736F030EF4200001746F58
:108A0E000C0E0001756F29EC63F043D0000181510B
:108A1E000C0D000EF3240001606F030EF420000114
:108A2E00616F81C062F0D1EC2DF01CD0020E5EECB5
:108A3E0065F02FD0030E5EEC65F02BD0040E5EECCD
:108A4E0065F027D0050E5EEC65F023D0060E5EECC9
:108A5E0065F01FD0070E5EEC65F01BD0080E5EECC5
:108A6E0065F017D000018151000AD8B4DFD7010A92
:108A7E00D8B4E0D7030AD8B4E1D7010AD8B4E2D704
:108A8E00070AD8B4E3D7010AD8B4E4D7030AD8B496
:108A9E00E5D70001812B5ED764C069F000016A6BD7
:108AAE00000169516A6F696B00016551000169131C
:108ABE0045D063C067F00001673B0F0E67170001DA
:108ACE0067510C0D050EF326000EF422000EF32452
:108ADE00D96E030EF420DA6E69C0DEFF6AC0DDFFC8
:108AEE005DD063C067F00001673B0F0E6717000192
:108AFE0067510C0D070EF326000EF422000EF32420
:108B0E00D96E030EF420DA6E69C0DEFF6AC0DDFF97
:108B1E0063C067F00001673B0F0E671700016751D6
:108B2E000C0D090EF326000EF422000EF324D96E5E
:108B3E00030EF420DA6E66C0DFFF30D00001635101
:108B4E000F0B0001676F686B00016851000AD8A413
:108B5E0025D000016751000AD8B4ABD7010AD8B4AA
:108B6E00C0D71CD0020E5EEC65F01200030E5EEC58
:108B7E0065F01200040E5EEC65F01200050E5EEC60
:108B8E0065F01200060E5EEC65F01200070E5EEC4C
:108B9E0065F01200080E5EEC65F0120000016339FC
:108BAE000F0B0001676F686B00016851000AD8A4B3
:108BBE00120000016751000AD8B4D4D7010AD8B404
:108BCE00D5D7030AD8B4D6D7010AD8B4D7D7070A4F
:108BDE00D8B4D8D7010AD8B4D9D7030AD8A412006A
:108BEE00D9D72B04D8B465BA08D0000E626E0F0127
:108BFE0036810F013689020E2B6E62A406D00F014C
:108C0E0036A503D06294E9EC68F065A202D0A19873
:108C1E00120062A009D00F0136A106D008EC44F074
:108C2E00A088040E2B6E629062A804D00F0136B994
:108C3E004CEC69F062AC1BD00F0136AD0ED0000EBD
:108C4E003E6E730E3D6E000E3F6E000E406E000EB9
:108C5E00426E010E416EB3EC5EF0629C3FEC6BF027
:108C6E002450D8A424062450D8B4FDEC55F062AAA2
:108C7E0004D00F0136BB34EC67F062A212D00F01A4
:108C8E0036A30FD07F0E3E6E3D68000E3F6E000E77
:108C9E00406E000E426E010E416EB3EC5EF0000EA1
:108CAE00636E040E2B6002D0A19812000F0136A73E
:108CBE0039D0000E4C6E030E4C6401D033D062A638
:108CCE0031D064CF2CF02C30E832E8320F0B266E08
:108CDE0062962CB407D02650010DDD0EF324D96E0A
:108CEE00000E06D02650010DE00EF324D96E000EB4
:108CFE00F420DA6E0001DF702650D8A403D080EC89
:108D0E005CF00ED0000E3E6E720E3D6E2C0E3F6E5F
:108D1E00000E406E000E426E000E416EB3EC5EF021
:108D2E004C2AC9D7A198120062C064F00001656B8D
:108D3E00666B000161350001643701E36581000156
:108D4E00645100016E6F00016E51D8A40AD0000E5E
:108D5E000001606F000E616F000E626F000E636F98
:108D6E001200170E0001646F60C065F061C066F0FE
:108D7E0062C067F0000164290001686F05D0000130
:108D8E00D8906733663365330001682FF8D700013A
:108D9E0065510001696F0001618FFF0E00016017C0
:108DAE00FF0E00016117000E0001621700016051F5
:108DBE0000016A6F0001615100016B6F0001625189
:108DCE0000016C6F00016D6B8E0E00016E5F000175
:108DDE006EAF1AD000016E51800A8F0FD8B00AD034
:108DEE00000E0001606F000E616F000E626F000ECC
:108DFE00636F12000001D8906D336C336B336A339E
:108E0E0000016E3FF7D71BD0170E00016E6512D012
:108E1E00000E0001606F000E616F000E626F000E9B
:108E2E00636F12000001D8906A376B376C376D375D
:108E3E0000016E0700016E510001D8A4F3D70001A6
:108E4E0069510001D8B409D000016D1F6C1F6B1F52
:108E5E006A6D000E6B236C236D236AC060F06BC0CD
:108E6E0061F06CC062F06DC063F012000001656FBE
:108E7E00000165510001D8A42BD020EE01F0155051
:108E8E00D9261650DA22080EDF6E20EE02F01550AB
:108E9E00D9261650DA22300EDE6E040EDD6E15C0A7
:108EAE00D9FF16C0DAFF0C0EDF6E15C0D9FF16C043
:108EBE00DAFF000EDB8E0FC0D9FF10C0DAFF040EF2
:108ECE00DF6E0FC0D9FF10C0DAFF000EDB8E12006E
:108EDE00000160510001616F626BD8900001613733
:108EEE006237000165510001636F646B0001D89019
:108EFE00633764370001D8906337643700016151DE
:108F0E000001632700016251000164230001D89023
:108F1E00633764370001D89063376437000E000161
:108F2E0063250001666F040E000164210001676F66
:108F3E0066C0D9FF67C0DAFF000EDB8466C0D9FFBA
:108F4E0067C0DAFF000EDB8E00016551040DF3CF12
:108F5E0061F0F4CF62F000016051020DF350000198
:108F6E006127F450000162230001D8906137623707
:108F7E000001D89061376237040E00016127000EA0
:108F8E006223000E000161250001666F040E0001D0
:108F9E0062210001676F66C0D9FF67C0DAFF000E5D
:108FAE00DB8466C0D9FF67C0DAFF000EDB8E1200CD
:108FBE0002012B510201292500016C6F02012C5177
:108FCE0002012A2100016D6F02012D5100016C2753
:108FDE0002012E5100016D2302012F5100016C2759
:108FEE000201305100016D236CC070F06DC071F044
:108FFE000001000E71BFFF0E726F736F2EC36CF007
:10900E002FC36DF0000E00016DBFFF0E6E6F6F6F00
:10901E0000016C510001702700016D510001712398
:10902E0000016E510001722300016F510001732384
:10903E0029C36CF02AC36DF0000E00016DBFFF0E48
:10904E006E6F6F6F00016C510001702700016D5142
:10905E000001712300016E510001722300016F5156
:10906E000001732370C060F071C061F072C062F0D5
:10907E0073C063F023EE2BF0DECF64F0DDCF65F02E
:10908E000001000E65BFFF0E666F676F6BEC60F040
:10909E0060C070F061C071F062C072F063C073F0B6
:1090AE002DC36CF0FF0E00016C2700016C2900012E
:1090BE006D6F06D0000173357333723371337033B5
:1090CE0000016D2FF7D7010E00017027000E7123DE
:1090DE00722373230001733573337233713370331C
:1090EE0070C032F271C033F2120002011651020149
:1090FE00142500016C6F02011751020115210001A8
:10910E006D6F0201185100016C2702011951000107
:10911E006D2302011A5100016C2702011B5100013F
:10912E006D236CC070F06DC071F00001000E71BF48
:10913E00FF0E726F736F22C36CF023C36DF0000EBF
:10914E0000016DBFFF0E6E6F6F6F00016C5100015D
:10915E00702700016D510001712300016E51000155
:10916E00722300016F51000173231DC36CF01EC3E7
:10917E006DF0000E00016DBFFF0E6E6F6F6F000180
:10918E006C510001702700016D5100017123000127
:10919E006E510001722300016F510001732370C0E4
:1091AE0060F071C061F072C062F073C063F023EEC4
:1091BE001FF0DECF64F0DDCF65F00001000E65BF5D
:1091CE00FF0E666F676F6BEC60F060C070F061C091
:1091DE0071F062C072F063C073F021C36CF0FF0EC9
:1091EE0000016C2700016C2900016D6F06D0000193
:1091FE007335733372337133703300016D2FF7D7BC
:10920E00010E00017027000E7123722373230001DB
:10921E007335733372337133703370C01DF271C096
:10922E001EF212000001686F000160510001D8B4F7
:10923E0008D000016851020D0F0EF324D96E000EF6
:10924E0007D000016851020DD30EF324D96E000E23
:10925E00F420DA6EDECF69F0DDCF6AF000016951DD
:10926E0000016A11D8A407D0000E0001606F000E35
:10927E000001616F1200000120EE02F06951D92643
:10928E006A51DA2261C0DEFF62C0DDFF000120EE0E
:10929E0001F06951D9266A51DA2263C0DFFF69C035
:1092AE00D9FF6AC0DAFF400EDF1669C0D9FF6AC067
:1092BE00DAFF000EDB8669C0D9FF6AC0DAFF000E46
:1092CE00DB8E000160510001D8B41ED00001685140
:1092DE00020D0F0EF324D96E000EF420DA6EDECFDF
:1092EE0064F0DDCF65F0040E000164190001666FB5
:1092FE00000165510001676F00016851020D0F0EEC
:10930E00F324D96E000E1DD000016851020DD30E4C
:10931E00F324D96E000EF420DA6EDECF64F0DDCFCA
:10932E0065F0040E000164190001666F00016551BD
:10933E000001676F00016851020DD30EF324D96E40
:10934E00000EF420DA6E66C0DEFF67C0DDFF69C076
:10935E0060F06AC061F0120000016A5100016B11E9
:10936E0000016C1100016D11D8A402D0010E01D0C4
:10937E00000E00016F6F0001F605D8A406D00001A3
:10938E006F05D8A402D0000E120000016A5102012E
:10939E00491922E100016B5102014A191DE1000138
:1093AE006C5102014B1918E100016D5102014C196B
:1093BE00D8A412D00001FB05D8A407D02A0E0001B4
:1093CE00FA19D8B409D0000E12002A0E0001FA19AB
:1093DE00D8A402D0000E12000201495100016A5DAC
:1093EE0002014A5100016B5902014B5100016C59A7
:1093FE0002014C5100016D59D8B002D0010E01D0BE
:10940E00000E00016E6F020E0001FB19D8A41ED0D3
:10941E002A0E0001FA19D8B407D000016F510001CD
:10942E00D8A402D0050E09D00001F605D8B417D085
:10943E0000016F05D8A404D007D00001706F1DD0B5
:10944E0000016E05D8A4EED7040EF7D72A0E000140
:10945E00FA19D8B410D00001F605D8A402D0010E26
:10946E00ECD700016F05D8B404D000016E05D8A466
:10947E0002D0020EE2D7030EE0D7000170514BEC82
:10948E004AF00001705112000001686F0001E751AF
:10949E000001E811D8B407D0E7C0D9FFE8C0DAFF61
:1094AE000001DFBE12000001E9510001EA11D8B43B
:1094BE0007D0E9C0D9FFEAC0DAFF0001DFBE120013
:1094CE00FBC069F00001FA69000E1D6E000E1C6EE5
:1094DE0049C288F44AC289F44BC28AF44CC28BF456
:1094EE00010E04018C6F030E0001FB6F50D0020EB3
:1094FE0004018C6F1200010E0001606F020E3DEC34
:10950E0047F01200020E04018C6F010E0001606F15
:10951E00020E3DEC47F01200000E0001606F020ECD
:10952E003DEC47F01200020E04018C6F000E00019C
:10953E00606F020E3DEC47F0120070EC5EF0010120
:10954E00D551F00B0509D56F200E0101DF6F000E0E
:10955E000101E06F020E00016919D8A411D00201B9
:10956E00495102014A1102014B1102014C11D8B4AA
:10957E0007D0000E0001606F020E3DEC47F01200A6
:10958E00010E0001606F020E3DEC47F0120000016B
:10959E006851010AD8B4ABD7030AD8B4ACD7010AC4
:1095AE00D8B4B0D7070AD8B4B7D7010AD8B4BBD746
:1095BE007A0AD8A41200C1D7800E04013019D8A49B
:1095CE001200C00E0C6E7CD08E0E096E470E0A6E07
:1095DE00000E0E6E120E0D6E120004013251D8A442
:1095EE003ED004013251020D8F0EF324F66E460E5C
