:0400000043EF00F0DA
:100008005D82FACF4FF0FBCF50F0E9CF51F0EACF45
:1000180052F0E1CF53F0E2CF54F0D9CF55F0DACF18
:1000280056F0F3CF57F0F4CF58F0F6CF59F0F7CF9A
:100038005AF0F8CF5BF0F5CF5CF0ACEC49F065EC2A
:100048005DF05CC0F5FF5BC0F8FF5AC0F7FF59C010
:10005800F6FF58C0F4FF57C0F3FF56C0DAFF55C08B
:10006800D9FF54C0E2FF53C0E1FF52C0EAFF51C0BC
:10007800E9FF50C0FBFF4FC0FAFF5D92110021EF6E
:020088005CF02A
:1020000000000000000000000000000000000000D0
:1020100000000000000000000000000000000000C0
:1020200000000000000000000000000000000000B0
:1020300000000000000000000000000000000000A0
:102040000000000000000000000000000000000090
:102050000000000000000000000000000000000080
:102060000000000000000000000000000000000070
:102070000000000000000000000000000000000060
:102080000000000000000000000000000000000050
:102090000000000000000000000000000000000040
:1020A0000000000000000000000000000000000030
:1020B0000000000000000000000000000000000020
:1020C0000000000000000000000000000000000010
:1020D0000000000000000000000000000000000000
:1020E00000000000000000000000000000000000F0
:1020F00000000000000000000000000000000000E0
:1021000000000000000000000000000000000000CF
:1021100000000000000000000000000000000000BF
:1021200000000000000000000000000000000000AF
:10213000000000000000000000000000000000009F
:10214000000000000000000000000000000000008F
:10215000000000000000000000000000000000007F
:10216000000000000000000000000000000000006F
:10217000000000000000000000000000000000005F
:10218000000000000000000000000000000000004F
:10219000000000000000000000000000000000003F
:1021A000000000000000000000000000000000002F
:1021B0000000000000000000F58B16EA000080011E
:1021C00001000107FFE6010000001100000000000F
:1021D00000000000000000000000000000000000FF
:1021E00000000000000000000000000000000000EF
:1021F000000000000000000000000000000055AAE0
:10220000EB3C904D53444F53352E300002010100FA
:102210000110000000F801003F00FF000100000075
:1022200011000000000029326794C44E4F204E4137
:102230004D452020202046415431322020200000EE
:10224000000000000000000000000000000000008E
:10225000000000000000000000000000000000007E
:10226000000000000000000000000000000000006E
:10227000000000000000000000000000000000005E
:10228000000000000000000000000000000000004E
:10229000000000000000000000000000000000003E
:1022A000000000000000000000000000000000002E
:1022B000000000000000000000000000000000001E
:1022C000000000000000000000000000000000000E
:1022D00000000000000000000000000000000000FE
:1022E00000000000000000000000000000000000EE
:1022F00000000000000000000000000000000000DE
:1023000000000000000000000000000000000000CD
:1023100000000000000000000000000000000000BD
:1023200000000000000000000000000000000000AD
:10233000000000000000000000000000000000009D
:10234000000000000000000000000000000000008D
:10235000000000000000000000000000000000007D
:10236000000000000000000000000000000000006D
:10237000000000000000000000000000000000005D
:10238000000000000000000000000000000000004D
:10239000000000000000000000000000000000003D
:1023A000000000000000000000000000000000002D
:1023B000000000000000000000000000000000001D
:1023C000000000000000000000000000000000000D
:1023D00000000000000000000000000000000000FD
:1023E00000000000000000000000000000000000ED
:1023F000000000000000000000000000000055AADE
:10240000F8FFFFFF0F0000000000000000000000C8
:1024100000000000000000000000000000000000BC
:1024200000000000000000000000000000000000AC
:10243000000000000000000000000000000000009C
:10244000000000000000000000000000000000008C
:10245000000000000000000000000000000000007C
:10246000000000000000000000000000000000006C
:10247000000000000000000000000000000000005C
:10248000000000000000000000000000000000004C
:10249000000000000000000000000000000000003C
:1024A000000000000000000000000000000000002C
:1024B000000000000000000000000000000000001C
:1024C000000000000000000000000000000000000C
:1024D00000000000000000000000000000000000FC
:1024E00000000000000000000000000000000000EC
:1024F00000000000000000000000000000000000DC
:1025000000000000000000000000000000000000CB
:1025100000000000000000000000000000000000BB
:1025200000000000000000000000000000000000AB
:10253000000000000000000000000000000000009B
:10254000000000000000000000000000000000008B
:10255000000000000000000000000000000000007B
:10256000000000000000000000000000000000006B
:10257000000000000000000000000000000000005B
:10258000000000000000000000000000000000004B
:10259000000000000000000000000000000000003B
:1025A000000000000000000000000000000000002B
:1025B000000000000000000000000000000000001B
:1025C000000000000000000000000000000000000B
:1025D00000000000000000000000000000000000FB
:1025E00000000000000000000000000000000000EB
:1025F00000000000000000000000000000000000DB
:10260000536F6C61722043687267720800000000AB
:102610000011001100000000001100000000000087
:1026200046494C4520202020545854200006287844
:10263000DE38DE3800000477DE3802000E000000CD
:10264000000000000000000000000000000000008A
:10265000000000000000000000000000000000007A
:10266000000000000000000000000000000000006A
:10267000000000000000000000000000000000005A
:10268000000000000000000000000000000000004A
:10269000000000000000000000000000000000003A
:1026A000000000000000000000000000000000002A
:1026B000000000000000000000000000000000001A
:1026C000000000000000000000000000000000000A
:1026D00000000000000000000000000000000000FA
:1026E00000000000000000000000000000000000EA
:1026F00000000000000000000000000000000000DA
:1027000000000000000000000000000000000000C9
:1027100000000000000000000000000000000000B9
:1027200000000000000000000000000000000000A9
:102730000000000000000000000000000000000099
:102740000000000000000000000000000000000089
:102750000000000000000000000000000000000079
:102760000000000000000000000000000000000069
:102770000000000000000000000000000000000059
:102780000000000000000000000000000000000049
:102790000000000000000000000000000000000039
:1027A0000000000000000000000000000000000029
:1027B0000000000000000000000000000000000019
:1027C0000000000000000000000000000000000009
:1027D00000000000000000000000000000000000F9
:1027E00000000000000000000000000000000000E9
:1027F00000000000000000000000000000000000D9
:10280000536F6C6465726E6572642E636F6D000049
:1028100000000000000000000000000000000000B8
:1028200000000000000000000000000000000000A8
:102830000000000000000000000000000000000098
:102840000000000000000000000000000000000088
:104400000043686172676572204173796E636872F8
:104410006F6E6F7573004D50505420436861726722
:1044200065722044657461696C730020204F757457
:1044300033206F666620204F757434206F666600E7
:1044400020204F757431206F666620204F757432BE
:10445000206F66660054656D706572617475726573
:10446000204D6F6E69746F72004368617267657288
:104470002053796E6368726F6E6F75730055534287
:104480002043686172676572204F7574707574732C
:10449000002D3E507265737320666F7220736563E2
:1044A0006F6E6473002D3E507265737320666F7279
:1044B000206D696E75746573002D3E50726573735F
:1044C00020746F207365742074696D650050616E8F
:1044D000656C3A20202020426174746572793A003C
:1044E0004368617267657220456666696369656ED7
:1044F0006379004368617267657220737570706CD0
:1045000079206F6666004368617267657220737513
:1045100070706C79206F6E002D3E50726573732041
:10452000666F7220686F757273002D3E50726573EE
:104530007320666F72206D6F6E74680020202049B2
:104540006E7075742020204F757470757400566FEE
:104550006C7461676520262043757272656E740005
:10456000555342206368617267696E67206F6666A3
:10457000004368617267657220537461727475706C
:10458000004261747465727920746F6F206C6F776C
:1045900000555342206368617267696E67206F6ED1
:1045A000004261747465727920746F6F206C6F774C
:1045B000002D3E507265737320746F2073617665B1
:1045C000002D3E507265737320666F7220646179AE
:1045D00000453A2020202020202020204C3A005066
:1045E0006F776572204F7574707574730054696DC0
:1045F0006520616E64204461746500413A202D2D70
:104600002020202020202D2D0045787465726E61B9
:104610006C20323A0045787465726E616C20313AD4
:104620000043686172676572206F66660053657447
:10463000207365636F6E647300536574206D696EDB
:1046400075746573004F6E2D626F6172643A20005D
:1046500053657420686F75727300536574206D6FB5
:104660006E74680053657420796561720046616EEE
:10467000206F6666005365742064617900A047D19D
:10468000460547744746616E206F6E00563A0091AA
:104690004609024000020100C03209040000020382
:1046A000000000092111010001221D0007058103FE
:1046B0004000010705010340000109040100020850
:1046C0000650000705820240000107050202400073
:1046D00001340353006F006C006400650072006ECB
:1046E000006500720064002E0063006F006D002002
:1046F00000200020002000200020002000200020BA
:1047000000200020002E034D0050005000540053A4
:10471000006F006C006100720020004300680061BF
:10472000007200670065007200200052006500768C
:1047300000430000800402200000004D6963726F96
:104740006368704D6173732053746F726167652085
:10475000202020303030310600FF0901A10119016D
:104760002940150026FF0075089540810019012990
:10477000409100C01A03310032003300340035008C
:104780003600370038003900300039003900120196
:10479000000200000008D8048EF0000101020001B0
:0547A000040309040000
:1047A6000101CB6FED0EF66E450EF76E000EF86E3C
:1047B60021EE80F00D0E0900F5CFDEFFE806FBE2E4
:1047C600640EF66E460EF76E000EF86E21EEBAF027
:1047D600080E0900F5CFDEFFE806FBE25A0EF66E7C
:1047E600460EF76E000EF86E21EEA6F0090E0900D1
:1047F600F5CFDEFFE806FBE2750EF66E460EF76EA7
:10480600000EF86E21EEC3F0070E0900F5CFDEFFAD
:10481600E806FBE2500EF66E460EF76E000EF86ED8
:1048260021EEB0F0090E0900F5CFDEFFE806FBE247
:10483600390EF66E460EF76E000EF86E21EE8EF00D
:104846000B0E0900F5CFDEFFE806FBE22D0EF66E35
:10485600460EF76E000EF86E21EE9AF00B0E09006A
:10486600F5CFDEFFE806FBE2B90EF66E440EF76EF4
:10487600000EF86E21EE00F0130E0900F5CFDEFFF4
:10488600E806FBE22A0EF66E450EF76E000EF86E8F
:1048960021EE3CF0110E0900F5CFDEFFE806FBE243
:1048A600C10EF66E450EF76E000EF86E21EE60F044
:1048B6000F0E0900F5CFDEFFE806FBE2180EF66ED6
:1048C600450EF76E000EF86E21EE4EF0110E090041
:1048D600F5CFDEFFE806FBE2A50EF66E440EF76E98
:1048E600000EF86E21EE14F0130E0900F5CFDEFF70
:1048F600E806FBE2910EF66E440EF76E000EF86EB9
:1049060021EE28F0130E0900F5CFDEFFE806FBE2E4
:10491600B10EF66E450EF76E000EF86E21EE70F0D3
:104926000F0E0900F5CFDEFFE806FBE2A7EC6BF001
:104936000101CC6FB9EC6BF00101CD6FD4EC6BF0DB
:104946000101CE6FCBEC6BF00101CF6FC2EC6BF0C7
:104956000101D06FB0EC6BF00101D16F1BD2000EDC
:104966000101D26F16D00101D251010D800EF32440
:10497600D96E010EF420DA6E0101D251010D7D0EC1
:10498600F324E16E020EF420E26EDFCFE7FF0101B1
:10499600D22B0101D251010D800EF324D96E010EE6
:1049A600F420DA6EDF50D8A4DED7000E0101D26FF4
:1049B60016D00101D251010D000EF324D96E010E5D
:1049C600F420DA6E0101D251010DB90EF324E16E25
:1049D600020EF420E26EDFCFE7FF0101D22B0101C8
:1049E600D251010D000EF324D96E010EF420DA6EB9
:1049F600DF50D8B4E6D1DDD7000E0101D26F16D054
:104A06000101D251010DBA0EF324D96E010EF42024
:104A1600DA6E0101D251010D7D0EF324E16E020E14
:104A2600F420E26EDFCFE7FF0101D22B0101D25164
:104A3600010DBA0EF324D96E010EF420DA6EDF50A2
:104A4600D8A4DED7000E0101D26F16D00101D251D3
:104A5600010D3C0EF324D96E010EF420DA6E01012D
:104A6600D251010DB90EF324E16E020EF420E26E6E
:104A7600DFCFE7FF0101D22B0101D251010D3C0E20
:104A8600F324D96E010EF420DA6EDF50D8B499D132
:104A9600DDD7000E0101D26F16D00101D251010DF2
:104AA600A60EF324D96E010EF420DA6E0101D2515E
:104AB600010D7D0EF324E16E020EF420E26EDFCFCF
:104AC600E7FF0101D22B0101D251010DA60EF324FD
:104AD600D96E010EF420DA6EDF50D8A4DED7000EB0
:104AE6000101D26F16D00101D251010D600EF324DF
:104AF600D96E010EF420DA6E0101D251010DB90E04
:104B0600F324E16E020EF420E26EDFCFE7FF01012F
:104B1600D22B0101D251010D600EF324D96E010E84
:104B2600F420DA6EDF50D8B44CD1DDD7000E010187
:104B3600D26F16D00101D251010DC30EF324D96EE6
:104B4600010EF420DA6E0101D251010D7D0EF3241F
:104B5600E16E020EF420E26EDFCFE7FF0101D22BF9
:104B66000101D251010DC30EF324D96E010EF420BA
:104B7600DA6EDF50D8A4DED7000E0101D26F16D050
:104B86000101D251010D4E0EF324D96E010EF4200F
:104B9600DA6E0101D251010DB90EF324E16E020E57
:104BA600F420E26EDFCFE7FF0101D22B0101D251E3
:104BB600010D4E0EF324D96E010EF420DA6EDF508D
:104BC600D8B4FFD0DDD7000E0101D26F16D0010197
:104BD600D251010DB00EF324D96E010EF420DA6E17
:104BE6000101D251010D7D0EF324E16E020EF42077
:104BF600E26EDFCFE7FF0101D22B0101D251010D99
:104C0600B00EF324D96E010EF420DA6EDF50D8A46C
:104C1600DED7000E0101D26F16D00101D251010D6F
:104C2600140EF324D96E010EF420DA6E0101D2516E
:104C3600010DB90EF324E16E020EF420E26EDFCF11
:104C4600E7FF0101D22B0101D251010D140EF3240D
:104C5600D96E010EF420DA6EDF50D8B4B2D0DDD7AB
:104C6600000E0101D26F16D00101D251010D8E0E38
:104C7600F324D96E010EF420DA6E0101D251010D32
:104C86007D0EF324E16E020EF420E26EDFCFE7FF25
:104C96000101D22B0101D251010D8E0EF324D96EE2
:104CA600010EF420DA6EDF50D8A4DED7000E010123
:104CB600D26F16D00101D251010D280EF324D96E00
:104CC600010EF420DA6E0101D251010DB90EF32462
:104CD600E16E020EF420E26EDFCFE7FF0101D22B78
:104CE6000101D251010D280EF324D96E010EF420D4
:104CF600DA6EDF50D8B465D0DDD7000E0101D26F71
:104D060016D00101D251010D9A0EF324D96E010E6F
:104D1600F420DA6E0101D251010D7D0EF324E16E0D
:104D2600020EF420E26EDFCFE7FF0101D22B010174
:104D3600D251010D9A0EF324D96E010EF420DA6ECB
:104D4600DF50D8A4DED7000E0101D26F16D00101C4
:104D5600D251010D700EF324D96E010EF420DA6ED5
:104D66000101D251010DB90EF324E16E020EF420B9
:104D7600E26EDFCFE7FF0101D22B0101D251010D17
:104D8600700EF324D96E010EF420DA6EDF50D8B41B
:104D960018D0DDD70101CB51100AD8B4E0D5010AED
:104DA600D8B42AD6030AD8B474D6010AD8B4BED663
:104DB600070AD8B408D7010AD8B452D7030AD8B418
:104DC6009CD7320E0201916F300E0201926F0101E3
:104DD600CC390F0B300F0201936F0101CC510F0B31
:104DE600300F0201946F2D0E0201956F0101CD392E
:104DF6000F0B300F0201966F0101CD510F0B300FD3
:104E06000201976F2D0E0201986F0101CE390F0B2B
:104E1600300F0201996F0101CE510F0B300F0201C5
:104E26009A6F0101CF390F0B300F0201A56F0101F7
:104E3600CF510F0B300F0201A66F3A0E0201A76F7A
:104E46000101D0390F0B300F0201A86F0101D051BB
:104E56000F0B300F0201A96F3A0E0201AA6F010172
:104E6600D1390F0B300F0201AB6F0101D1510F0B7E
:104E7600300F0201AC6F12005CD202010851300BF8
:104E8600300AD8A412000C0E0001766FFE0E000147
:104E9600776F22EE12F0DECF78F0DDCF79F00001E9
:104EA600765100017827000177510001792300012E
:104EB60078510201275D02012851800A00017A6FAC
:104EC60000017951800A00017A59D8B012008A820D
:104ED600010E166E000E02011E6F000E1D6F000EF3
:104EE6000201336F000E326F000E00017D6F030E5C
:104EF60000017D6501D0120000017D51020D140EE6
:104F0600F324D96E020EF420DA6E000EDE6E000E69
:104F1600DD6E00017D51020D290EF324D96E020EBD
:104F2600F420DA6E000EDE6E000EDD6E00017D2BC3
:104F3600DED702010851300B300AD8A41200000E49
:104F460002011C6F000E0201316F000E00017D6F21
:104F5600030E00017D6501D01BD000017D51020DBD
:104F6600140EF324D96E020EF420DA6EDF5002011D
:104F76001C2700017D51020D290EF324D96E020E65
:104F8600F420DA6EDF500201312700017D2BE0D7D5
:104F9600010E0101FB6F75EC55F000017B6F7BC0C4
:104FA60072F0000E35EC57F01200020108A912004B
:104FB600020127510101FD5D020128510101FE593F
:104FC600D8B007D00001F70525EC60F00101FB69B8
:104FD600120002011EBF18D002011E5105E1050E86
:104FE60002011D5DD8A010D0020127510201125DF9
:104FF60002011351800A0001766F02012851800ACE
:1050060000017659D8B005D050EC69F0000E166E46
:10501600120022EE27F0DECF76F0DDCF77F000012A
:10502600761F771F764B772B0201125100017627E8
:105036000201135100017723000177BF08D0E80E63
:105046000001765D030E00017759D8B007D0000144
:10505600F70525EC60F00101FB69120002011EBF95
:1050660013D0590E02011D5D020E02011E59D8A071
:105076000BD075EC55F0050F00017C6F7CC062F01B
:10508600010E53EC61F0120002010851300B0001D1
:10509600F36F0001F33B0F0EF3170001F351020DFE
:1050A6000A0EF324D96E020EF420DA6EDECFE5F195
:1050B600DDCFE6F10101000EE6BFFF0EE76FE86FF8
:1050C600E5C160F0E6C161F0E7C162F0E8C163F0F6
:1050D6000001F351020D140EF324D96E020EF420D2
:1050E600DA6EDECF64F0DDCF65F00001000E65BF3D
:1050F600FF0E666F676FDDEC60F060C0E5F161C0C2
:10510600E6F162C0E7F163C0E8F1020E0001F327A1
:10511600030E0001F3170001F351020D0A0EF324EA
:10512600D96E020EF420DA6EDECFE9F1DDCFEAF1B8
:105136000101000EEABFFF0EEB6FEC6FE9C160F0F4
:10514600EAC161F0EBC162F0ECC163F00001F3511A
:10515600020D140EF324D96E020EF420DA6EDECFA1
:1051660064F0DDCF65F00001000E65BFFF0E666FCF
:10517600676FDDEC60F060C0E9F161C0EAF162C022
:10518600EBF163C0ECF1020113BF0DD0690E020111
:10519600125D420E02011359D8A005D00001F7296D
:1051A60025EC60F012000001F70525EC60F0120016
:1051B600020108A91200020127510101FD5D020149
:1051C60028510101FE59D8B007D00001F70525EC9A
:1051D60060F00101FB69120002011EBF08D0020146
:1051E6001E5110E1C80E02011D5DD8B00BD00001A2
:1051F600F751FB0F00017C6F7CC062F0000E53EC90
:1052060061F0120002010851300B0001F36F00013A
:10521600F33B0F0EF3170001F351020D0A0EF324B0
:10522600D96E020EF420DA6EDECFE5F1DDCFE6F1BF
:105236000101000EE6BFFF0EE76FE86FE5C160F003
:10524600E6C161F0E7C162F0E8C163F00001F35125
:10525600020D140EF324D96E020EF420DA6EDECFA0
:1052660064F0DDCF65F00001000E65BFFF0E666FCE
:10527600676FDDEC60F060C0E5F161C0E6F162C029
:10528600E7F163C0E8F1020E0001F327030E000107
:10529600F3170001F351020D0A0EF324D96E020E24
:1052A600F420DA6EDECFE9F1DDCFEAF10101000E7E
:1052B600EABFFF0EEB6FEC6FE9C160F0EAC161F087
:1052C600EBC162F0ECC163F00001F351020D140E64
:1052D600F324D96E020EF420DA6EDECF64F0DDCF51
:1052E60065F00001000E65BFFF0E666F676FDDECAF
:1052F60060F060C0E9F161C0EAF162C0EBF163C041
:10530600ECF1020113BF0DD0690E0201125D420ECF
:1053160002011359D8A005D00001F72925EC60F049
:1053260012000001F70525EC60F01200000E166E63
:1053360012001650000AD8B4A0D5010AD8B4F9D57F
:10534600030AD8B432D6010AD8B432D7EFD7EDD192
:1053560002010651800A7F0FD8A002D0100E04D099
:10536600020106AF03D0600E0201406F0201075131
:10537600000E0201066F000E0201076F1200020105
:105386000651800A7F0FD8A002D0200E04D0020159
:1053960006AF03D0000E0201406F02010751D8B4D8
:1053A60003D0110E0201406F000E0201066F000EBF
:1053B6000201076F120002010651800A7F0FD8A072
:1053C60003D07CEC69F004D0020106BFE5EC69F07D
:1053D60002010751D8B405D08AEC6AF0120E020118
:1053E600406F000E0201066F000E0201076F1200E9
:1053F60002010651800A7F0FD8A003D0A6EC69F0FF
:1054060004D0020106BF0FEC6AF002010751D8B4BE
:1054160005D08AEC6AF0130E0201406F000E0201FD
:10542600066F000E0201076F120002010651800A84
:105436007F0FD8A003D024EC69F004D0020106BF88
:105446003AEC69F002010751D8B403D0140E0201F8
:10545600406F000E0201066F000E0201076F120078
:1054660002010651800A7F0FD8A003D0D0EC69F064
:1054760004D0020106BF39EC6AF002010751D8B424
:1054860003D0150E0201406F000E0201066F000EDA
:105496000201076F120002010651800A7F0FD8A091
:1054A60003D0BBEC69F004D0020106BF24EC6AF01D
:1054B60002010751D8B403D0160E0201406F000E48
:1054C6000201066F000E0201076F1200020106516B
:1054D600800A7F0FD8A003D091EC69F004D00201B6
:1054E60006BFFAEC69F002010751D8B405D0100ED8
:1054F6000201406FC3EC65F0000E0201066F000E5C
:105506000201076F120002010651800A7F0FD8A020
:1055160002D0300E04D0020106AF03D0100E0201F5
:10552600406F02010751D8B410D0020128BF0DD038
:10553600E10E0201275D2E0E02012859D8A005D0E2
:105546008CA602D08C9601D08C86000E0201066FC6
:10555600000E0201076F120002010651800A7F0F3A
:10556600D8A002D0400E04D0020106AF03D0200E10
:105576000201406F02010751D8B403D0310E020177
:10558600406F000E0201066F000E0201076F120047
:1055960002010651800A7F0FD8A007D0020128BF5A
:1055A6000AD0010EA6EC66F006D0020106AF03D0C3
:1055B600010EECEC65F002010751D8B403D0320EAF
:1055C6000201406F000E0201066F000E0201076F16
:1055D600120002010651800A7F0FD8A007D00201EF
:1055E60028BF0AD0020EA6EC66F006D0020106AF6E
:1055F60003D0020EECEC65F002010751D8B403D0DB
:10560600330E0201406F000E0201066F000E02010A
:10561600076F120002010651800A7F0FD8A007D03B
:10562600020128BF0AD0040EA6EC66F006D00201DD
:1056360006AF03D0040EECEC65F002010751D8B4B6
:1056460003D0340E0201406F000E0201066F000EF9
:105656000201076F120002010651800A7F0FD8A0CF
:1056660007D0020128BF0AD0080EA6EC66F006D0C5
:10567600020106AF03D0080EECEC65F002010751FB
:10568600D8B403D0300E0201406F000E0201066F3F
:10569600000E0201076F120002010651800A7F0FF9
:1056A600D8A002D0500E04D0020106AF03D0300EAF
:1056B6000201406F02010751000E0201066F000E43
:1056C6000201076F120002010651800A7F0FD8A05F
:1056D60002D0600E04D0020106AF03D0400E0201D4
:1056E600406F02010751000E0201066F000E020113
:1056F600076F120002010651800A7F0FD8A002D060
:10570600000E04D0020106AF03D0500E0201406F16
:1057160002010751000E0201066F000E0201076F1B
:105726001200000E0201406F120002014051000AF1
:10573600D8B40ED6100AD8B422D6010AD8B43BD6AD
:10574600030AD8B455D6010AD8B46FD6070AD8B416
:1057560087D6010AD8B49FD6030AD8B4B7D6360A74
:10576600D8B4D1D6100AD8B4F7D6010AD8B410D70F
:10577600030AD8B42ED7010AD8B44CD7070AD8B42E
:105786006AD7740AD8B488D7100AD8B49CD7300A16
:10579600D8B4B0D7C6D7F5D188EC41F00009D8A463
:1057A60012000001FE691200FCEC36F00009D8A4D4
:1057B60012000001FE6912000001FA05D8A403D008
:1057C6000001FE69120053C2EEF054C2EDF0EDC0C6
:1057D6006AF0EEC06BF000016C6B6D6BBCEC4CF0CC
:1057E6000009D8A41200000E0001616F240E606F3C
:1057F600A1EC57F0000E0001606F060E0001616F0C
:10580600330E0001626F470E0001636F00016251A3
:105816006311D8A4000E646F000E0001666F240E9B
:10582600656F8DEC61F0FD0E0001FE6F1200E0C2A7
:1058360060F0E1C261F001D80AD00500FA6E0201FB
:10584600D451FD6ED551FE6EFF6AFA50120060C04B
:1058560099F061C09AF062C09BF063C09CF0E0C210
:1058660060F0E1C261F001D80AD00500FA6E0201CB
:10587600D651FD6ED751FE6EFF6AFA501200000136
:1058860060C095F0000161C096F00001976B986BBF
:1058960026EE00F09CC0DFFF26EE01F09BC0DFFF86
:1058A60026EE02F09AC0DFFF26EE03F099C0DFFF76
:1058B60026EE04F098C0DFFF26EE05F097C0DFFF66
:1058C60026EE06F096C0DFFF26EE07F095C0DFFF56
:1058D600000E0001EE6F080EED6F000E0001616F05
:1058E600080E606FA1EC57F0FD0E0001FE6F12006E
:1058F6000001FA05D8A403D00001FE691200000ECB
:105906000001EE6F120EED6F000E0001616F120EB8
:10591600606FA1EC57F0000E00019D6F110E0001A3
:105926009D6501D017D000019D51010DD30EF324C2
:10593600D96E010EF420DA6E00019D51010D000EA4
:10594600F324E16E060EF420E26EDFCFE7FF0001DE
:105956009D2BE4D7FD0E0001FE6F1200030EE8CF6B
:1059660000F6000EE8CF01F6E0C260F0E1C261F099
:1059760001D80AD00500FA6E0201DC51FD6EDD5138
:10598600FE6EFF6AFA5012000009D8A405D0000E78
:105996000001936F000E04D0000E0001936F800E7D
:1059A600926F26EE02F092C0DFFF000EE8CF03F6FC
:1059B600000E0001EE6F040EED6F000E0001616F28
:1059C600040E606FA1EC57F0FD0E0001FE6F120091
:1059D6000101D551F00B0509D56F200E0101DF6FCE
:1059E600000E0101E06F010E04018C6F000E040130
:1059F600886F000E896F000E8A6F000E8B6F000194
:105A0600FE691200000E00016A6F000E6B6F000E39
:105A16006C6F000E6D6FBCEC4CF00009D8A4120040
:105A26000101D5510F0B060AD8A407D004018C0535
:105A3600D8A403D00001FE6912001DEC5FF0000E31
:105A46000401886F000E896F000E8A6F000E8B6F3F
:105A56000001FE691200000E0401886F000E896FB6
:105A6600000E8A6F000E8B6F0001FE6912000001A6
:105A7600EF510001F011D8B407D0EFC0D9FFF0C044
:105A8600DAFF0001DFBE120002014C5102014B1188
:105A960002014A1105E1400E0201495DD8A00BD072
:105AA600400E0001946F400E0201495F000E4A5BF2
:105AB6004B5B4C5B0BD049C294F0000E0201496F60
:105AC600000E4A6F000E4B6F000E4C6F0001945192
:105AD6000001906F916B000190510001ED5D000196
:105AE60091510001EE59D8A007D000019451000150
:105AF600ED5F000EEE5B22D0000E00019D6F18D008
:105B06000001ED510001EE11D8B405D00001ED07FA
:105B1600D8A0EE070BD000019D51010D000EF32415
:105B2600D96E060EF420DA6E000EDF6E00019D2B94
:105B36000001945100019D5DD8A0E2D7010E00013D
:105B4600606F000E0001616F060E0001626F94C067
:105B560063F0020E22EC4CF060C0EFF061C0F0F092
:105B66000201495102014A1102014B1102014C1175
:105B7600D8A412000001FE6912007F0E88EC4BF0DB
:105B860012000001FE51000AD8B43CD7030AD8B46B
:105B9600AFD6110AD8B410D6080AD8B4DFD6010A8F
:105BA600D8B459D7050AD8B413D73B0AD8B43FD6C8
:105BB6000D0AD8B4F1D5020AD8B4F6D5050AD8B478
:105BC6004AD7D20AD8B453D7030AD7D7F1D160C07F
:105BD600D9FF61C0DAFF000EDE6E000EDD6E000139
:105BE60020EE02F06051D9266151DA220B0EDE6EEC
:105BF600000EDD6E000120EE04F06051D9266151E1
:105C0600DA22040EDF6E000120EE05F06051D9267F
:105C16006151DA22000EDE6E000EDD6E000120EE0E
:105C260007F06051D9266151DA220B0EDE6E000EA6
:105C3600DD6E000120EE09F06051D9266151DA22AD
:105C4600040EDF6E000120EE0AF06051D926615184
:105C5600DA22000EDE6E000EDD6E120060C0D9FF85
:105C660061C0DAFF000EDE6E000EDD6E000120EE72
:105C760002F06051D9266151DA22110EDE6E000E55
:105C8600DD6E000120EE04F06051D9266151DA2262
:105C9600050EDF6E000120EE05F06051D926615138
:105CA600DA22000EDE6E000EDD6E000120EE07F039
:105CB6006051D9266151DA22110EDE6E000EDD6EBC
:105CC600000120EE09F06051D9266151DA22050E55
:105CD600DF6E000120EE0AF06051D9266151DA220A
:105CE600000EDE6E000EDD6E120060C0D9FF61C0D0
:105CF600DAFF000EDE6E000EDD6E000120EE02F011
:105D06006051D9266151DA22DB0EDE6E160EDD6E8B
:105D1600000120EE04F06051D9266151DA220F0EFF
:105D2600DF6E000120EE05F06051D9266151DA22BE
:105D3600000EDE6E000EDD6E000120EE07F06051F3
:105D4600D9266151DA22DB0EDE6E160EDD6E0001FB
:105D560020EE09F06051D9266151DA220F0EDF6E6E
:105D6600000120EE0AF06051D9266151DA22000EB8
:105D7600DE6E000EDD6E120060C0D9FF61C0DAFF74
:105D8600000EDE6E000EDD6E000120EE02F06051A8
:105D9600D9266151DA22DB0EDE6E160EDD6E0001AB
:105DA60020EE04F06051D9266151DA220F0EDF6E23
:105DB600000120EE05F06051D9266151DA22000E6D
:105DC600DE6E000EDD6E000120EE07F06051D92672
:105DD6006151DA22DB0EDE6E160EDD6E000120EE5C
:105DE60009F06051D9266151DA220F0EDF6E0001EB
:105DF60020EE0AF06051D9266151DA22000EDE6EDD
:105E0600000EDD6E120060C0D9FF61C0DAFF370EEA
:105E1600DE6ECA0EDD6E000120EE02F06051D9265C
:105E26006151DA22290EDE6ED30EDD6E000120EE00
:105E360004F06051D9266151DA220D0EDF6E0001A1
:105E460020EE05F06051D9266151DA22370EDE6E5A
:105E5600CA0EDD6E000120EE07F06051D9266151B1
:105E6600DA22290EDE6ED30EDD6E000120EE09F079
:105E76006051D9266151DA220D0EDF6E000120EE47
:105E86000AF06051D9266151DA22000EDE6E000E4C
:105E9600DD6E120060C0D9FF61C0DAFF370EDE6E1C
:105EA600CA0EDD6E000120EE02F06051D926615166
:105EB600DA22290EDE6ED30EDD6E000120EE04F02E
:105EC6006051D9266151DA220D0EDF6E000120EEF7
:105ED60005F06051D9266151DA22370EDE6ECA0E00
:105EE600DD6E000120EE07F06051D9266151DA22FD
:105EF600290EDE6ED30EDD6E000120EE09F0605134
:105F0600D9266151DA220D0EDF6E000120EE0AF06D
:105F16006051D9266151DA22000EDE6E000EDD6E6A
:105F2600120060C0D9FF61C0DAFF370EDE6ECA0EFE
:105F3600DD6E000120EE02F06051D9266151DA22B1
:105F4600290EDE6ED30EDD6E000120EE04F06051E8
:105F5600D9266151DA220D0EDF6E000120EE05F022
:105F66006051D9266151DA22370EDE6ECA0EDD6E19
:105F7600000120EE07F06051D9266151DA22290E80
:105F8600DE6ED30EDD6E000120EE09F06051D926DB
:105F96006151DA220D0EDF6E000120EE0AF060512B
:105FA600D9266151DA22000EDE6E000EDD6E120079
:105FB60000016251000AD8B40AD6010AD8B44ED6F6
:105FC600030AD8B492D6010AD8B4D6D6070AD8B4EA
:105FD6001AD7010AD8B45ED7030AD8A41200A1D7EB
:105FE600200E286001D0120065B212000101F351A3
:105FF6000101F411D8B40CD1F3C1D9FFF4C1DAFF11
:106006000101DFBE120004D10001EB510001EC11C9
:10601600D8B407D0EBC0D9FFECC0DAFF0001DFBE71
:1060260011D1B2EC3CF0010E0001606F540E00017C
:10603600616F030E0001626F400E0001636F010E77
:1060460022EC4CF0E0D00001EB510001EC11D8B489
:1060560007D0EBC0D9FFECC0DAFF0001DFBEF2D0FB
:106066002FEC64F0010E0001606F540E0001616FA9
:10607600030E0001626F400E0001636F010E22ECF9
:106086004CF0C1D00001EB510001EC11D8B407D09F
:10609600EBC0D9FFECC0DAFF0001DFBED3D0FEECC7
:1060A60063F0010E0001606F540E0001616F030E74
:1060B6000001626F400E0001636F010E22EC4CF08E
:1060C600A2D00001EB510001EC11D8B407D0EBC00F
:1060D600D9FFECC0DAFF0001DFBEB4D073EC58F094
:1060E600010E0001606F540E0001616F030E000186
:1060F600626F400E0001636F010E22EC4CF083D0FC
:106106000001EB510001EC11D8B407D0EBC0D9FF68
:10611600ECC0DAFF0001DFBE95D016EC5DF0010E93
:106126000001606F540E0001616F030E0001626F83
:10613600400E0001636F010E22EC4CF064D08C74AB
:1061460081D00001EB510001EC11D8B407D0EBC0AF
:10615600D9FFECC0DAFF0001DFBE74D0810E030167
:10616600546F80A002D0010E01D0000E0301556FBE
:10617600010E0001606F540E0001616F030E0001F5
:10618600626F400E0001636F010E22EC4CF03BD0B3
:106196000001EB510001EC11D8B407D0EBC0D9FFD8
:1061A600ECC0DAFF0001DFBE4DD0370E0301546F9D
:1061B60022EE36F0DECF8CF0DDCF8DF000018D358E
:1061C6008D338C3300018D358D338C3300018D3545
:1061D6008D338C338CC094F08DC095F094C055F3FC
:1061E600000195510301566F010E0001606F540EB8
:1061F6000001616F030E0001626F400E0001636FC4
:10620600010E22EC4CF060C0EBF061C0ECF01AD04D
:1062160003019451100AD8B4F7D6010AD8B413D79B
:10622600030AD8B42FD7010AD8B44BD7070AD8B473
:1062360067D7230AD8B4ACD7B70AD8B480D7010A2F
:10624600D8B47FD7010E97D000019651010D940E58
:10625600F324D96E030EF420DA6EDF5003EC55F00A
:106266000001962BAAD00001965100018C6F8D6B10
:10627600010E00018C27000E8D23940E00018C2543
:10628600D96E030E00018D21DA6EDF500001636FB7
:1062960000019651010D940EF324D96E030EF420DD
:1062A600DA6EDF508DEC54F0020E61D0000196518B
:1062B60000018C6F8D6B010E00018C27000E8D2363
:1062C600940E00018C25D96E030E00018D21DA6E25
:1062D600DF500001636F0001965100018E6F8F6BD6
:1062E600020E00018E27000E8F23940E00018E25CC
:1062F600D96E030E00018F21DA6EDF500001646F44
:10630600000196510001906F916B030E00019027DA
:10631600000E9123940E00019025D96E030E000104
:106326009121DA6EDF500001656F00019651000180
:10633600926F936B040E00019227000E9323940E26
:1063460000019225D96E030E00019321DA6EDF500B
:106356000001666F00019651010D940EF324D96E6B
:10636600030EF420DA6EDF501FEC47F0050E000135
:10637600962723D0410E0001966F1FD0000196513B
:10638600010D940EF324D96E030EF420DA6EDF505D
:10639600F00B00018C6F8D6B00018D51000AD8A4A3
:1063A600E9D700018C51300AD8B44ED7700AD8B458
:1063B6005AD7200AD8B47AD7DDD73D0E00019665A4
:1063C600DDD7000E0001606F940E0001616F030EB1
:1063D6000001626F400E0001636F010E22EC4CF06B
:1063E60060C0F3F161C0F4F11200E00EF66E440EE7
:1063F600F76E000EF86E20EE92F0120E0900F5CF41
:10640600DEFFE806FBE2CD0EF66E440EF76E000EDA
:10641600F86E20EEA5F0120E0900F5CFDEFFE806B5
:10642600FBE2D10EF66E450EF76E000EF86E20EE0C
:10643600B8F00D0E0900F5CFDEFFE806FBE222EE0E
:1064460027F0DECF60F0DDCF61F00001000E61BF06
:10645600FF0E626F636F22EE32F0DECF64F0DDCFA7
:1064660065F00001000E65BFFF0E666F676FDDEC1D
:1064760060F060C0CDF061C0CEF062C0CFF063C006
:10648600D0F022EE12F0DECFC9F0DDCFCAF0000167
:10649600000ECABFFF0ECB6FCC6FC9C060F0CAC07A
:1064A60061F0CBC062F0CCC063F022EE1DF0DECF0F
:1064B60064F0DDCF65F00001000E65BFFF0E666F6C
:1064C600676FDDEC60F060C0C9F061C0CAF062C001
:1064D600CBF063C0CCF0C9C060F0CAC061F0CBC0DD
:1064E60062F0CCC063F0E80E0001646F030E656FC6
:1064F600000E666F000E676FE2EC4DF060C0C9F0EB
:1065060061C0CAF062C0CBF063C0CCF022EE27F0C7
:10651600DECFCDF0DDCFCEF00001000ECEBFFF0EF8
:10652600CF6FD06FCDC060F0CEC061F0CFC062F04B
:10653600D0C063F022EE32F0DECF64F0DDCF65F03E
:106546000001000E65BFFF0E666F676FDDEC60F041
:1065560060C0CDF061C0CEF062C0CFF063C0D0F0B5
:10656600C9C064F0CAC065F0CBC066F0CCC067F0A5
:10657600CDC060F0CEC061F0CFC062F0D0C063F095
:10658600E2EC4DF060C06EF061C06FF062C070F07A
:1065960063C071F0C7EC5CF06EC0C6F06FC0C7F0A8
:1065A60070C0C8F0CDC060F0CEC061F0CFC062F060
:1065B600D0C063F0E80E0001646F030E656F000E35
:1065C600666F000E676FE2EC4DF060C0CDF061C003
:1065D600CEF062C0CFF063C0D0F0000E0001D16FE4
:1065E60016D00001D151010D920EF324D96E000E82
:1065F600F420DA6E0001D151010D7D0EF324E16E17
:10660600020EF420E26EDFCFE7FF0001D12B00017E
:10661600D151010D920EF324D96E000EF420DA6EDC
:10662600DF50D8A4DED7000E0001D16F16D00001CE
:10663600D151010DA50EF324D96E000EF420DA6EA9
:106646000001D151010D910EF324E16E020EF420EA
:10665600E26EDFCFE7FF0001D12B0001D151010D22
:10666600A50EF324D96E000EF420DA6EDF50D8A4FE
:10667600DED7C9C078F0CAC079F0030E00017A6F80
:10668600A50E00017B6F020E00017C6FFDEC39F058
:10669600CDC078F0CEC079F0030E00017A6FAF0E50
:1066A60000017B6F020E00017C6FFDEC39F0000EDD
:1066B6000001D16F16D00001D151010DB80EF3249F
:1066C600D96E000EF420DA6E0001D151010DB90E1B
:1066D600F324E16E020EF420E26EDFCFE7FF000145
:1066E600D12B0001D151010DB80EF324D96E000E45
:1066F600F420DA6EDF50D8A4DED7C6C060F0C7C07B
:1067060061F0C8C062F068EC48F060C078F061C023
:1067160079F0010E00017A6FBC0E00017B6F020E4C
:1067260000017C6FFDEC39F0CDC090F0CEC091F049
:106736000001901F911F904B912B0001C951000140
:1067460090250001786F0001CA51000191210001D6
:10675600796F030E00017A6FC70E00017B6F020E80
:1067660000017C6FFDEC39F01200000E6DEC62F05A
:1067760068EC44F0C0EC67F0DBEC58F09EEC6BF094
:1067860002010951D8A4FAD7020128BF08D0E00EA9
:106796000201275D2E0E02012859D8B003D0100E33
:1067A600ECEC65F0020128AF13D002012729FF0E99
:1067B60002012859D8B00CD0010EECEC65F0020E9F
:1067C600ECEC65F0040EECEC65F0080EECEC65F014
:1067D600C6EC61F019EC52F0000E4DEC5EF00001D3
:1067E6006051020134270001615102013523010E77
:1067F6004DEC5EF000016051020138270001615145
:1068060002013923020E4DEC5EF0000160510201D7
:106816003C270001615102013D2313D1010E000105
:106826006A6F000E00016B6F000E14EC66F03DD12E
:10683600F3EC2FF03AD18FEC64F0020108390F0B1C
:10684600030B0001D56FD66BD8900001D537D6372C
:106856001F0E0001D525D96E020E0001D621DA6E73
:10686600000165C0DEFF000166C0DDFF010E00010C
:106876006A6F000E00016B6F030E14EC66F00DECF0
:1068860050F013D134EC6CF0050AD8A40ED10201F5
:106896004051D9EC5EF009D134EC6CF006D18FECA6
:1068A60064F0020108390F0B030B0001D56FD66B9C
:1068B600D8900001D537D6370A0E0001D525D96EF6
:1068C600020E0001D621DA6E000165C0DEFF00016E
:1068D60066C0DDFF010E00016A6F000E00016B6FDE
:1068E600010E14EC66F090EC50F0DFD0F3EC2FF0D4
:1068F600DCD08FEC64F0020108390F0B030B0001AA
:10690600D56FD66BD8900001D537D637290E000142
:10691600D525D96E020E0001D621DA6E000165C0BA
:10692600DEFF000166C0DDFF010E00016A6F000E8A
:1069360000016B6F020E14EC66F04EEC4AF0B5D017
:10694600F3EC2FF0B2D08FEC64F0020108390F0B94
:10695600030B0001D56FD66BD8900001D537D6371B
:10696600140E0001D525D96E020E0001D621DA6E6D
:10697600000165C0DEFF000166C0DDFFEBEC4AF0FA
:1069860094D0BDEC64F091D034C26CF035C26DF099
:10699600040E00016E6F54EC4DF06CC036F26DC003
:1069A60037F2000E0201356F000E346F38C26CF0FC
:1069B60039C26DF0050E00016E6F54EC4DF06CC0DF
:1069C6003AF26DC03BF2000E0201396F000E386FCD
:1069D6003CC26CF03DC26DF0060E00016E6F54ECC9
:1069E6004DF06CC03EF26DC03FF2000E02013D6FED
:1069F600000E3C6FFAEC6BF0020137BF0AD0B90EFD
:106A06000201365D0B0E02013759D8A002D08C84E4
:106A16000BD0020137BF07D0C40E0201365D090E46
:106A260002013759D8A08C9402014051D9EC5EF08E
:106A36003CD034EC6CF0050AD8A437D094EC5EF068
:106A460034D0020108510F0B0001D56FD66B00013F
:106A5600D651000AD8A429D00001D551000AD8B4CD
:106A6600DDD6010AD8B4E4D6020AD8B4E4D6070AB9
:106A7600D8B408D7010AD8B40FD7030AD8B40FD7A9
:106A86000E0AD8B433D7010AD8B433D7020AD8B419
:106A960057D7070AD8B457D7010AD8B472D7030A0A
:106AA600D8B472D7010AD8B4C4D7010E0201096F4F
:106AB60065D6160EF66E440EF76E000EF86E21EED3
:106AC6000FF0140E0900F5CFDEFFE806FBE2060E16
:106AD600F66E450EF76E000EF86E21EE60F0110EA2
:106AE6000900F5CFDEFFE806FBE2F30EF66E440E74
:106AF600F76E000EF86E21EE4DF0120E0900F5CF7E
:106B0600DEFFE806FBE2850EF66E460EF76E000E19
:106B1600F86E21EE08F0060E0900F5CFDEFFE80656
:106B2600FBE26D0EF66E460EF76E000EF86E21EE67
:106B360000F0070E0900F5CFDEFFE806FBE2210EA6
:106B4600F66E460EF76E000EF86E21EE82F00B0E14
:106B56000900F5CFDEFFE806FBE2710EF66E450E84
:106B6600F76E000EF86E21EE72F00F0E0900F5CFEB
:106B7600DEFFE806FBE2010EF66E440EF76E000E2F
:106B8600F86E21EE24F0140E0900F5CFDEFFE806BC
:106B9600FBE2690EF66E440EF76E000EF86E21EEFD
:106BA60039F0130E0900F5CFDEFFE806FBE2000E12
:106BB60001018E6F16D001018E51010D0F0EF324C7
:106BC600D96E010EF420DA6E01018E51010D7D0E93
:106BD600F324E16E020EF420E26EDFCFE7FF01013F
:106BE6008E2B01018E51010D0F0EF324D96E010E6D
:106BF600F420DA6EDF50D8A4DED7000E01018E6FC6
:106C060016D001018E51010D600EF324D96E010ECE
:106C1600F420DA6E01018E51010D910EF324E16E1E
:106C2600020EF420E26EDFCFE7FF01018E2B010199
:106C36008E51010D600EF324D96E010EF420DA6E2A
:106C4600DF50D8B423D0DDD701018E51010D4D0E92
:106C5600F324D96E010EF420DA6E01018E51010D76
:106C6600910EF324E16E020EF420E26EDFCFE7FF11
:106C760001018E2B01018E51010D4D0EF324D96EAB
:106C8600010EF420DA6EDF50D8A4DED7000E010123
:106C96008E6F8CD001018E51010D820EF324D96EB8
:106CA600010EF420DA6E01018E51010DA50EF324BA
:106CB600E16E020EF420E26EDFCFE7FF01018E2BBC
:106CC60001018E51010D820EF324D96E010EF420BE
:106CD600DA6EDF50D8B478D0DDD701018E51010DC0
:106CE600720EF324D96E010EF420DA6E01018E5174
:106CF600010DA50EF324E16E020EF420E26EDFCF45
:106D0600E7FF01018E2B01018E51010D720EF32456
:106D1600D96E010EF420DA6EDF50D8B455D0DDD727
:106D260001018E51010D240EF324D96E010EF420BB
:106D3600DA6E01018E51010DA50EF324E16E020EED
:106D4600F420E26EDFCFE7FF01018E2B01018E51A9
:106D5600010D240EF324D96E010EF420DA6EDF50F5
:106D6600D8B432D0DDD701018E51010D390EF3248E
:106D7600D96E010EF420DA6E01018E51010DA50EB9
:106D8600F324E16E020EF420E26EDFCFE7FF01018D
:106D96008E2B01018E51010D390EF324D96E010E91
:106DA600F420DA6EDF50D8B40FD0DDD736EC6CF0B5
:106DB600000AD8B485D7010AD8B4A5D7030AD8B42F
:106DC600C5D7010AD8B4E5D72DEC6CF00001906F59
:106DD600000190510001786F796B000E00017A6F07
:106DE600B90E00017B6F020E00017C6FFDEC39F0DD
:106DF600120077D152C20AF053C209F054C208F009
:106E060055C207F057C2EEF058C2EDF00001ED5141
:106E160000018B6F0001EE5100018C6F00018D6B3C
:106E260000018E6B090ED89000018B378C378D3799
:106E36008E37E82EF8D78BC06AF08CC06BF08DC009
:106E46006CF08EC06DF0BCEC4CF00009D8A45BD1A0
:106E5600E0C260F0E1C261F001D80AD00500FA6E26
:106E66000201DC51FD6EDD51FE6EFF6AFA50120022
:106E76000009D8B41AD0010E04018C6F0101D55156
:106E8600F00B0709D56F270E0101DF6F000E010118
:106E9600E06F000E0001606F020E0AEC49F0000E72
:106EA6000001FC6F0001FC511200010E0001FF6F92
:106EB6000001ED510001EE11D8B40FD1030E00010F
:106EC600FC6F000E0101F76F060E0101F86F000E50
:106ED6000401886F020E896F000E8A6F000E8B6F99
:106EE600040188510401891104018A1104018B11DE
:106EF600D8B422D00001F1510001F211D8B407D064
:106F0600F1C0D9FFF2C0DAFF0001DFBEFCD0000EEF
:106F16000001606FF7C161F0F8C162F0400E000138
:106F2600636F020E22EC4CF060C0F1F061C0F2F02B
:106F3600040E0001FC6F23D0E0C260F0E1C261F0F4
:106F460001D80AD00500FA6E0201DC51FD6EDD5152
:106F5600FE6EFF6AFA5012000009D8B40ED0010E78
:106F660004018C6F0101D551F00B0209D56F270E74
:106F76000101DF6F000E0101E06F020EAFD00001CC
:106F8600F1510001F211D8B407D0F1C0D9FFF2C017
:106F9600DAFF0001DFBEB7D0000120EE01F0F151AB
:106FA600D926F251DA22DF5000018B6F8BC08CF0AC
:106FB60000018D6B8E6B8F6B00018C510201495F56
:106FC60000018D5102014A5B00018E5102014B5BAB
:106FD60000018F5102014C5B000120EE01F0F151DE
:106FE600D926F251DA22DF5000018B6F8BC08CF06C
:106FF60000018D6B8E6B8F6B00018C510401885FD5
:1070060000018D510401895B00018E5104018A5BE8
:1070160000018F5104018B5B400E0101F727000E22
:10702600F823030E5BD004018C51D8A441D0E0C2F2
:107036006DF0E1C26EF007C06FF008C070F009C0D5
:1070460071F00AC072F0000E0001736F060E0001A7
:10705600746F0750081009100A10D8A402D0010E48
:1070660001D0000E0001756F01D80AD00500FA6E36
:107076000201DE51FD6EDF51FE6EFF6AFA5012000C
:10708600E806D8B415D0640E0001FB6103D00001F8
:10709600FB2B39D0010E04018C6F0101D551F00B89
:1070A6000309D56F000E0101DF6F000E0101E06FCD
:1070B600010E0726000E082209220A220001ED070A
:1070C600D8A0EE07010E0AD0020E04018C6F000E46
:1070D6000001606F020E0AEC49F0000E0001FC6F21
:1070E60012D00001FC51000AD8B484D6010AD8B4E3
:1070F600DFD6030AD8B497D7010AD8B4F1D6070A5F
:10710600D8B43DD7E1D70001FC51120000017251FD
:10711600000171110001701105E1120E00016F5D91
:10712600D8A002D0000E12006FC076F070C077F0C3
:10713600090ED890000176377737E82EFAD7000E79
:107146000001786F200E796F000E7A6F000176517C
:10715600000178250001846F000177510001792133
:107166000001856F000E00017A210001866F000E76
:1071760000018A6F000E896F36D1000E00017F6F05
:10718600000E0001886F000E876F040E0001885DF7
:10719600D8B039D00001895100017325D96E00019C
:1071A6008A5100017421DA6E00018951000184259B
:1071B6000001776F00018A51000185210001786F77
:1071C600000E000186210001796F77C0F6FF78C0B6
:1071D600F7FF79C0F8FFDE500900F518D8B40CD0D7
:1071E600010E00017F6F000187510001895F0001D8
:1071F600885100018A5B07D00001894B8A2B000168
:10720600874B882BC2D700017F05D8A4ECD000019C
:107216008951000184250001766F00018A51000121
:1072260085210001776F000E000186210001786F2D
:10723600000E000176150001796FFC0E000177152E
:1072460000017A6FFF0E0001781500017B6F0001C7
:1072560079510001806F00017A510001816F0001B0
:107266007B510001826F0001836B000E0001606F8D
:10727600080E0001616F80C062F081C063F082C0B9
:1072860064F0040E0001666F000E656F8DEC61F010
:1072960080C062F081C063F082C064F05FEC6BF086
:1072A60000018951000184250001766F00018A5191
:1072B600000185210001776F000E00018621000183
:1072C600786FFF0E000176150001796F030E00013D
:1072D600771500017A6F000E0001781500017B6FAB
:1072E600000179510001806F00017A510001816F20
:1072F60000017B510001826F0001836B000E0001CB
:1073060080250001606F080E000181210001616F78
:1073160073C062F074C063F0000162516311D8A4B7
:10732600200E646F020E0001666F000E656F8DEC15
:1073360061F0100E00017C6F000E00017D6F080EDB
:1073460000017E6F00018951000184250001766FDE
:1073560000018A51000185210001776F000E0001AE
:1073660086210001786F000E00017615F66EFC0E80
:1073760000017715F76EFF0E00017815F86E2DD017
:10738600000E0001886F000E876F0001885119E119
:10739600400E0001875DD8B014D07DC0D9FF7EC0F5
:1073A600DAFFDF50F56E00017D4B7E2B0D000001EC
:1073B600894B8A2B0001874B882B0001885101E1FC
:1073C600E7D70A00840EA66EB50EDCEC67F0010E58
:1073D600F626000EF722000EF82200017C070001B7
:1073E6007C29D8A4CDD7020E00018A5DD8A0C5D6C7
:1073F600010E1200830E0001706F000E0001716F06
:1074060078C072F079C073F0000E0001756F0A0E35
:10741600746F82EC66F0830E0001606F000E00014F
:10742600616F39EC66F00001605100018D6F00015B
:1074360079AF72D000018D51000800017A25020F44
:1074460000018E6F00018E51800A7F0FD8A0C2D036
:107456007AC08FF000018F29D8B45AD000018F511D
:1074660000018EBF04D0FF0A8E25D8B03AD08EC058
:107476007DF000017E6B7DBF7E0700017D1F7E1FB4
:107486007D4B7E2B00018F5100017F6F806B0001C9
:107496007D5100017F2700017E5100018023010EEE
:1074A60000017F27000E8023830E00017F25D96E01
:1074B600000E00018021DA6E00018F510001816FFC
:1074C600826B010E00018127000E8223830E0001CC
:1074D6008125E16E000E00018221E26EDFCFE7FF1B
:1074E60014D000018F5100017D6F7E6B010E0001EB
:1074F6007D27000E7E23830E00017D25D96E000EAA
:1075060000017E21DA6E300EDF6E00018F07A2D7F2
:1075160000017A51020F5CD000018D510008000174
:107526007A2500017D6F00017D2900018E6F000123
:107536008E51800A7F0FD8A04DD07AC08FF00001FF
:107546008F29D8B443D000018F5100018EBF04D0DB
:10755600FF0A8E25D8B02CD08EC07DF000017E6B40
:107566007DBF7E0700017D1F7E1F7D4B7E2B0001A8
:107576008F5100017F6F806B00017D5100017F27D5
:1075860000017E5100018023830E00017F25D96E04
:10759600000E00018021DA6E00018F51010D830E6D
:1075A600F324E16E000EF420E26EDFCFE7FF0BD08E
:1075B60000018F51010D830EF324D96E000EF420C5
:1075C600DA6E300EDF6E00018F07B9D700017A2917
:1075D60000018D6F00017A51000800018D25000120
:1075E6007D6F00017D0500017A6F000E00018F6F2F
:1075F6002ED000018F51010D830EF324D96E000E9B
:10760600F420DA6E00018F51010DF35000017B2545
:10761600E16EF45000017C21E26EDFCFE7FF00014E
:107626007A5100018F19D8A410D000018F2B0001C8
:107636008F51010DF35000017B25D96EF4500001E6
:107646007C21DA6E2E0EDF6E2AD000018F2B000110
:107656008D5100018F5DD8B022D0CBD700018F515C
:10766600010D830EF324D96E000EF420DA6E0001AC
:107676008F5100017D6F7E6B010E00017D27000E8C
:107686007E2300017D5100017B25E16E00017E51C4
:1076960000017C21E26EDFCFE7FF00018F2B0001A6
:1076A6008D5100018F5DD8B01200D8D7200E281852
:1076B600D8A41200A09842D10001F1510001F211A4
:1076C600D8B407D0F1C0D9FFF2C0DAFF0001DFBE9F
:1076D60044D1000E0001A86F1E0E0001A86501D05E
:1076E60017D00001A851010D400EF324D96E040EE7
:1076F600F420DA6E0001A851010D410EF324E16E6B
:10770600020EF420E26EDFCFE7FF0001A82BE4D7DC
:10771600000120EE01F0F151D926F251DA221F0EB6
:10772600DE18D8A485D0550E020141190CE1530E7E
:10773600020142197DE1420E0201431979E1430E2D
:1077460002014419D8A474D0010E186E02014E51DC
:10775600D8A461D0110E02014F615DD002014F51D4
:10776600D8B459D04DC2A3F03F0E0001A317D8A438
:1077760052D0550E0401806F530E816F420E826FF8
:10778600530E836F45C284F446C285F447C286F41D
:1077960048C287F4000E0401886F000E896F000E40
:1077A6008A6F000E8B6F000E04018C6F0001FE695C
:1077B600000E0001FD6F000E0001FC6F000E0001BF
:1077C600FB6F030E02015019D8B40BD00101D591FD
:1077D600D593D595D597000E0101DF6F000E0101F7
:1077E600E06F02014DAF02D0010E01D0020E000182
:1077F600FF6F0201495102014A1102014B110201B8
:107806004C11D8B402D0000E01D0010E0001FA6F5F
:1078160050C2FEF0A2D0010E0001606F020E0AEC0B
:1078260049F0000E0001606F020E0AEC49F095D097
:10783600010E0001606F020E0AEC49F0000E000115
:10784600606F020E0AEC49F0000E186E86D022EC2C
:1078560045F0FF0AD8A481D016D022EC45F0FF0AE5
:10786600D8A47BD004018C51D8A40DD00401885132
:107876000401891104018A1104018B11D8B403D0C3
:10788600020E04018C6F030E49D0E9C0A4F0EAC0D1
:10789600A5F00001A4510001A511D8B40BD0E9C090
:1078A600A6F0EAC0A7F0A6C0D9FFA7C0DAFF00017C
:1078B600DFBE53D0010E0001606F800E0001616FC4
:1078C600040E0001626F0D0E0001636F020E22ECC2
:1078D6004CF060C0EFF061C0F0F00001F151000122
:1078E600F211D8B407D0F1C0D9FFF2C0DAFF000117
:1078F600DFBE13D0000E0001606F400E0001616F05
:10790600040E0001626F400E0001636F020E22EC4E
:107916004CF060C0F1F061C0F2F0000E0001FF6FA4
:107926001CD0000E0001FF6F020E04018C6F000ECA
:107936000001606F020E0AEC49F00FD00001FF5102
:10794600000AD8B4B9D6010AD8B481D7030AD8B484
:1079560084D7010AD8B499D7E4D7A0881200100EAC
:107966000301546F12C255F3020113510301566FFE
:1079760027C257F3020128510301586F1DC259F35C
:1079860002011E5103015A6F32C25BF302013351E9
:1079960003015C6F36C25DF30201375103015E6F6E
:1079A6003AC25FF302013B510301606F3EC261F3CD
:1079B60002013F510301626F05C263F340C264F3E3
:1079C600A7EC6BF00301656FB9EC6BF00301666F12
:1079D600D4EC6BF00301676FCBEC6BF00301686FBF
:1079E600C2EC6BF00301696FB0EC6BF003016A6FD8
:1079F60036EC6CF003016B6F2DEC6CF003016C6FD1
:107A0600C9EC68F003016D6F2AEC6CF003016E6F30
:107A160034C26FF3020135510301706F38C271F33E
:107A2600020139510301726F3CC273F302013D51E9
:107A36000301746F020108390F0B030B0001616F1C
:107A4600626BD8900001613762370A0E000161252A
:107A5600D96E020E00016221DA6EDF500301756FE6
:107A6600020108390F0B030B0001616F626BD8909E
:107A76000001613762370A0E00016125D96E020ED8
:107A860000016221DA6EDECF63F0DDCF64F064C000
:107A960063F00001646B63BF646900016351030115
:107AA600766F020108390F0B030B0001616F626BE1
:107AB600D8900001613762371F0E00016125D96E2B
:107AC600020E00016221DA6EDF500301776F0201B8
:107AD60008390F0B030B0001616F626BD890000130
:107AE600613762371F0E00016125D96E020E000153
:107AF6006221DA6EDECF63F0DDCF64F064C063F03E
:107B06000001646B63BF6469000163510301786F10
:107B1600020108390F0B030B0001616F626BD890ED
:107B2600000161376237140E00016125D96E020E1D
:107B360000016221DA6EDF500301796F0201083914
:107B46000F0B030B0001616F626BD8900001613768
:107B56006237140E00016125D96E020E0001622102
:107B6600DA6EDECF63F0DDCF64F064C063F000014F
:107B7600646B63BF64690001635103017A6F02019C
:107B860008390F0B030B0001616F626BD89000017F
:107B960061376237290E00016125D96E020E000198
:107BA6006221DA6EDF5003017B6F020108390F0B89
:107BB600030B0001616F626BD89000016137623779
:107BC600290E00016125D96E020E00016221DA6ECE
:107BD600DECF63F0DDCF64F064C063F00001646B58
:107BE60063BF64690001635103017C6F34EC6CF080
:107BF60003017D6F08C27EF3120004013205D8A48A
:107C060011D0040130511F0B0009D8A40BD000017C
:107C1600E28F030E04013119D8A402D0010E01D05F
:107C2600000E256E04013251D8A412000401305111
:107C36001F0B020AD8A41200040134510F0B0009CD
:107C4600D8B41200040134510F0B466E030E466081
:107C56001200200E2818D8A412000001E28F040199
:107C660034BF1BD0040134510F0B466E4650020D33
:107C7600010EF324D96E000EF420DA6EDECF4AF040
:107C8600DDCF4BF0040134510F0B466E4650010D0B
:107C96000B0EF324D96E000E1AD0040134510F0BCB
:107CA600466E4650020DE50EF324D96E000EF42002
:107CB600DA6EDECF4AF0DDCF4BF0040134510F0B04
:107CC600466E4650010D0E0EF324D96E000EF420BA
:107CD600DA6EDF50496E49B006D0FB0E4A144A6E82
:107CE600FF0E4B1404D0040E4A104A6E4B504B6ED6
:107CF600040134BF0BD0040134510F0B466E4650BD
:107D0600020D010EF324D96E000E0AD0040134517F
:107D16000F0B466E4650020DE50EF324D96E000E8B
:107D2600F420DA6E4AC0DEFF4BC0DDFF030E04010D
:107D36003119D8A42ED04AC0D9FF4BC0DAFFDFAE26
:107D46001BD0040134BF0BD0040134510F0B466E17
:107D56004650010D0B0EF324D96E000E0AD0040115
:107D660034510F0B466E4650010D0E0EF324D96E9C
:107D7600000EF420DA6EDF824AC0D9FF4BC0DAFF6C
:107D8600000EDB844AC0D9FF4BC0DAFF000EDB8E43
:107D96001200040E4A184A6E4B504B6E4AC0D9FF69
:107DA6004BC0DAFFDFAE1BD04AC0D9FF4BC0DAFFAB
:107DB6007F0EDF164AC0D9FF4BC0DAFF000EDB8C00
:107DC600000E3F6E050E3E6E4AC040F04BC041F0BD
:107DD600000E436E020E426E60EC5FF006D04AC0A3
:107DE600D9FF4BC0DAFF000EDB8C040E4A184A6E30
:107DF6004B504B6E49B206D04AC0D9FF4BC0DAFF92
:107E0600DFAE30D0040134BF0BD0040134510F0B68
:107E1600466E4650010D0B0EF324D96E000E0AD0A5
:107E2600040134510F0B466E4650010D0E0EF3241D
:107E3600D96E000EF420DA6EDF924AC0D9FF4BC02D
:107E4600DAFF3B0EDF16000E3F6E050E3E6E4AC091
:107E560040F04BC041F0000E436E020E426E60ECE5
:107E66005FF006D04AC0D9FF4BC0DAFF3B0EDF16E3
:107E7600040134510F0B466E4650010D260EF324B5
:107E8600476E0F0EF420486E47C0D9FF48C0DAFF90
:107E9600FE0EDF1612000001A86FDF0EF66E450E0D
:107EA600F76E000EF86E20EE9AF00D0E0900F5CF73
:107EB600DEFFE806FBE2810EF66E450EF76E000E5B
:107EC600F86E20EE8AF00F0E0900F5CFDEFFE80609
:107ED600FBE2400EF66E440EF76E000EF86E20EED4
:107EE60060F0140E0900F5CFDEFFE806FBE22B0E6C
:107EF600F66E440EF76E000EF86E20EE75F0140E58
:107F06000900F5CFDEFFE806FBE2000E0001A96FCF
:107F160016D00001A951010D9A0EF324D96E000E58
:107F2600F420DA6E0001A951010D7D0EF324E16EF5
:107F3600020EF420E26EDFCFE7FF0001A92B00015D
:107F4600A951010D9A0EF324D96E000EF420DA6EB3
:107F5600DF50D8A4DED7020128AF2DD00201272991
:107F6600FF0E02012859D8B026D0000E0001A96FD5
:107F760016D00001A951010D8A0EF324D96E000E08
:107F8600F420DA6E0001A951010D910EF324E16E81
:107F9600020EF420E26EDFCFE7FF0001A92B0001FD
:107FA600A951010D8A0EF324D96E000EF420DA6E63
:107FB600DF50D8A4DED7000E0001A96F16D000014D
:107FC600A951010D600EF324D96E000EF420DA6E6D
:107FD6000001A951010DA50EF324E16E020EF42055
:107FE600E26EDFCFE7FF0001A92B0001A951010DC9
:107FF600600EF324D96E000EF420DA6EDF50D8A49A
:10800600DED7000E0001A96F16D00001A951010D9F
:10801600750EF324D96E000EF420DA6E0001A95114
:10802600010DB90EF324E16E020EF420E26EDFCFED
:10803600E7FF0001A92B0001A951010D750EF324DC
:10804600D96E000EF420DA6EDF50D8A4DED7020116
:1080560005A106D06E0E0201AD6F200E0201AE6FB5
:10806600020105A306D06E0E0201B76F200E0201B3
:10807600B86F020105A506D06E0E0201C16F200E73
:108086000201C26F020105A723D06E0E0201CB6F5B
:10809600200E0201CC6F1CD02D0E0201A56F3E0EE4
:1080A6000201A66F12002D0E0201AF6F3E0E0201F5
:1080B600B06F12002D0E0201B96F3E0E0201BA6FAB
:1080C60012002D0E0201C36F3E0E0201C46F120094
:1080D6000001A851310AD8B4DFD7030AD8B4E3D7D0
:1080E600010AD8B4E7D7070AD8A41200EAD74E0E79
:1080F600F66E450EF76E000EF86E20EE90F0110E3D
:108106000900F5CFDEFFE806FBE23C0EF66E450EF3
:10811600F76E000EF86E20EEA2F0110E0900F5CFF4
:10812600DEFFE806FBE28C0EF66E460EF76E000EDC
:10813600F86E0900F5CFC2F00900F5CFC3F00A00CA
:10814600F5CFC4F0FB0EF66E450EF76E000EF86E18
:1081560020EEB4F00D0E0900F5CFDEFFE806FBE2D7
:10816600000E0001C56F16D00001C551010D900E1D
:10817600F324D96E000EF420DA6E0001C551010D0C
:108186007D0EF324E16E020EF420E26EDFCFE7FFF0
:108196000001C52B0001C551010D900EF324D96EC7
:1081A600000EF420DA6EDF50D8A4DED7000E0001F0
:1081B600C56F16D00001C551010DA20EF324D96E6C
:1081C600000EF420DA6E0001C551010D910EF32464
:1081D600E16E020EF420E26EDFCFE7FF0001C52B51
:1081E6000001C551010DA20EF324D96E000EF42034
:1081F600DA6EDF50D8A4DED7000E0001C56F16D0A8
:108206000001C551010DC20EF324D96E000EF420F3
:10821600DA6E0001C551010DA50EF324E16E020EC2
:10822600F420E26EDFCFE7FF0001C52B0001C55148
:10823600010DC20EF324D96E000EF420DA6EDF5063
:10824600D8A4DED712C278F013C279F0030E00016B
:108256007A6FA80E00017B6F020E00017C6FFDECA9
:1082660039F027C278F028C279F0030E00017A6F40
:10827600B00E00017B6F020E00017C6FFDEC39F041
:10828600000E0001C56F16D00001C551010DB40ED8
:10829600F324D96E000EF420DA6E0001C551010DEB
:1082A600B90EF324E16E020EF420E26EDFCFE7FF93
:1082B6000001C52B0001C551010DB40EF324D96E82
:1082C600000EF420DA6EDF50D8A4DED71DC278F097
:1082D6001EC279F0030E00017A6FBC0E00017B6F9F
:1082E600020E00017C6FFDEC39F032C278F033C229
:1082F60079F0030E00017A6FC40E00017B6F020E47
:1083060000017C6FFDEC39F01200F1D052C20AF088
:1083160053C209F054C208F055C207F057C2EEF036
:1083260058C2EDF00001ED5100017A6F0001EE51E7
:1083360000017B6F00017C6B00017D6B090ED890FC
:1083460000017A377B377C377D37E82EF8D77AC03D
:108356006AF07BC06BF07CC06CF07DC06DF0BCEC4D
:108366004CF00009D8A4D5D0010E0001FD6F000124
:10837600ED510001EE11D8B4B6D00001ED07D8A03A
:10838600EE07020E0001FD6F0001EF510001F01132
:10839600D8B407D0EFC0D9FFF0C0DAFF0001DFBEC6
:1083A600B8D0E0C26DF0E1C26EF007C06FF008C051
:1083B60070F009C071F00AC072F0000E0001736F10
:1083C600060E0001746F01D80AD00500FA6E02018C
:1083D600DA51FD6EDB51FE6EFF6AFA501200E806B6
:1083E600D8B41CD0640E0001FB6103D00001FB2B46
:1083F60090D0020E04018C6F0101D551F00B0309D8
:10840600D56F000E0101DF6F000E0101E06F010E56
:108416000001606F020E0AEC49F065D0010E0726D6
:10842600000E082209220A22000E0401886F020E9D
:10843600896F000E8A6F000E8B6F000E0101F76FB9
:10844600060E0101F86F030E0001FD6F040188514D
:108456000401891104018A1104018B11D8A402D0E8
:10846600010E42D0040E0001FD6F0001EF51000124
:10847600F011D8B407D0EFC0D9FFF0C0DAFF000181
:10848600DFBE47D0010E0001606FF7C161F0F8C191
:1084960062F0400E0001636F020E22EC4CF060C0E9
:1084A600EFF061C0F0F0030E0001FD6F400E020117
:1084B600495F000E4A5B4B5B4C5B400E0401885FD4
:1084C600000E895B8A5B8B5B400E0101F727000E6D
:1084D600F8231FD0020E04018C6F010E0001606F9D
:1084E600020E0AEC49F0000E0001FD6F12D00001E9
:1084F600FD51000AD8B40AD7010AD8B438D7030AFE
:10850600D8B442D7010AD8B4A1D7070AD8B4ADD790
:10851600E1D70001FD511200550EF66E440EF76EBE
:10852600000EF86E20EE90F0130E0900F5CFDEFF78
:10853600E806FBE2450EF66E460EF76E000EF86E86
:1085460020EEBCF00A0E0900F5CFDEFFE806FBE2DE
:10855600150EF66E460EF76E000EF86E20EEA4F0BF
:108566000B0E0900F5CFDEFFE806FBE2090EF66EFC
:10857600460EF76E000EF86E20EEB0F00B0E0900F8
:10858600F5CFDEFFE806FBE2000E0001C76F16D04E
:108596000001C751010D900EF324D96E000EF42090
:1085A600DA6E0001C751010D7D0EF324E16E020E55
:1085B600F420E26EDFCFE7FF0001C72B0001C751B1
:1085C600010D900EF324D96E000EF420DA6EDF5002
:1085D600D8A4DED7000E0001C76F16D00001C75120
:1085E600010DBC0EF324D96E000EF420DA6E0001E4
:1085F600C751010D910EF324E16E020EF420E26ED6
:10860600DFCFE7FF0001C72B0001C751010DBC0EEC
:10861600F324D96E000EF420DA6EDF50D8A4DED72C
:1086260036C278F037C279F0020E00017A6F9D0EDD
:1086360000017B6F020E00017C6FFDEC39F0000E2D
:108646000001C76F16D00001C751010DA40EF32417
:10865600D96E000EF420DA6E0001C751010DA50E89
:10866600F324E16E020EF420E26EDFCFE7FF000195
:10867600C72B0001C751010DA40EF324D96E000EBD
:10868600F420DA6EDF50D8A4DED73AC278F03BC2C7
:1086960079F0020E00017A6FB10E00017B6F020EB7
:1086A60000017C6FFDEC39F0000E0001C76F16D09B
:1086B6000001C751010DB00EF324D96E000EF4204F
:1086C600DA6E0001C751010DB90EF324E16E020EF8
:1086D600F420E26EDFCFE7FF0001C72B0001C75190
:1086E600010DB00EF324D96E000EF420DA6EDF50C1
:1086F600D8A4DED73EC278F03FC279F0020E000160
:108706007A6FC50E00017B6F020E00017C6FFDECD7
:1087160039F012007D0EF66E440EF76E000EF86EFE
:1087260020EE60F0130E0900F5CFDEFFE806FBE24F
:10873600A10EF66E450EF76E000EF86E20EE85F071
:108746000F0E0900F5CFDEFFE806FBE2910EF66E8E
:10875600450EF76E000EF86E20EE95F00F0E09002E
:10876600F5CFDEFFE806FBE2600EF66E450EF76E0D
:10877600000EF86E20EE74F0100E0900F5CFDEFF45
:10878600E806FBE2000E0001A56F16D00001A55118
:10879600010D600EF324D96E000EF420DA6E00018E
:1087A600A551010D7D0EF324E16E020EF420E26E5A
:1087B600DFCFE7FF0001A52B0001A551010D600EDB
:1087C600F324D96E000EF420DA6EDF50D8A4DED77B
:1087D600020128BF08D0E00E0201275D2E0E02011D
:1087E6002859D8B026D0000E0001A56F16D000017A
:1087F600A551010D850EF324D96E000EF420DA6E14
:108806000001A551010DA50EF324E16E020EF42020
:10881600E26EDFCFE7FF0001A52B0001A551010D98
:10882600850EF324D96E000EF420DA6EDF50D8A43C
:10883600DED7000E0001A56F8CB617D039D0000127
:10884600A551010D950EF324D96E000EF420DA6EB3
:108856000001A551010DB90EF324E16E020EF420BC
:10886600E26EDFCFE7FF0001A52B0001A551010D48
:10887600950EF324D96E000EF420DA6EDF50D8B4CC
:108886001200DDD70001A551010D740EF324D96E37
:10889600000EF420DA6E0001A551010DB90EF32485
:1088A600E16E020EF420E26EDFCFE7FF0001A52B9A
:1088B6000001A551010D740EF324D96E000EF420AB
:1088C600DA6EDF50D8B41200DDD7A098000E636EC2
:1088D600000E626E000E0F01266F270E0001606FFC
:1088E6000F0E0001616F000E0001636F000E626FD4
:1088F600000E0001656F020E646F7CEC68F0160EC8
:108906000F01396F9F0E0F01376F7B0E0F01366F08
:10891600000E0001686F0B0E0001686501D010D0D3
:1089260000016851040D000EF324D96E040EF420E4
:10893600DA6EDE6ADE6ADE6ADD6A0001682BEBD774
:10894600658C000E0F01386F6598659C6296000E67
:108956000001E26F000E0001DA6F000E0001DC6F0D
:10896600000EDB6F62B6F2D7010E1F6E010E1E6E91
:10897600000E1D6E000E1C6E000E246E000E000111
:10898600686F020E0001686501D033D0000168519E
:10899600020DE50EF324D96E000EF420DA6E000EF9
:1089A600DE6E000EDD6E00016851020D010EF3242D
:1089B600D96E000EF420DA6E000EDE6E000EDD6E4D
:1089C60000016851010D0E0EF324D96E000EF4203D
:1089D600DA6E000EDF6E00016851010D0B0EF324F6
:1089E600D96E000EF420DA6E000EDF6E0001682BE1
:1089F600C8D7080E0001E56F040E0001E66F160EDB
:108A06000F01266F040E0401036F300E026F080E6D
:108A16000401016F040E0401006F0401008F000EB3
:108A26002E6E000E0101ED6F000EEE6F000EEF6F61
:108A3600000EF06F000E1B6E000E286E1200E0C2D4
:108A460060F0E1C261F001D80AD00500FA6E0201B9
:108A5600D851FD6ED951FE6EFF6AFA501200000918
:108A6600D8B40CD002014E51010D190EF324D96E63
:108A7600000EF420DA6EDE04D8A425D04EC29EF095
:108A8600010E00019F6F000E0001A06F00019E2BDA
:108A960004D0D89000019F37A03700019E2FF9D748
:108AA60000019F1D0001A16F0001A01D0001A26F22
:108AB6000001A1510101F5170001A2510101F617AC
:108AC600A1EC62F066D04EC29EF0010E00019F6FCF
:108AD600000E0001A06F00019E2B04D0D89000016B
:108AE6009F37A03700019E2FF9D70101F5510001EC
:108AF6009F170101F6510001A01700019F510001C7
:108B0600A011D8A444D0E0C260F0E1C261F001D85F
:108B16000AD00500FA6E0201D251FD6ED351FE6EE7
:108B2600FF6AFA5012000001605100016111D8B4C9
:108B36002BD04EC29EF0010E00019F6F000E000169
:108B4600A06F00019E2B04D0D89000019F37A0375C
:108B560000019E2FF9D700019F510101F513000175
:108B6600A0510101F6130101D551F00B0609D56F8D
:108B7600280E0101DF6F000E0101E06F010E0401F6
:108B86008C6FCEEC2BF005D0A1EC62F002D0CEECCF
:108B96002BF00001FE511200A098000E636E000E2D
:108BA600626E000E0F01266F270E2F6E0F0E306EAF
:108BB600000E326E000E316E000E346E020E336EF3
:108BC60066EC69F0160E0F01396F9F0E0F01376FB5
:108BD6007B0E0F01366F000E376E0B0E376401D019
:108BE6000ED03750040D000EF324D96E040EF42077
:108BF600DA6EDE6ADE6ADE6ADD6A372AEED7658CF1
:108C0600000E0F01386F6598659C6296000E000194
:108C1600E26F000E0001DA6F000E0001DC6F000E3D
:108C2600DB6F62B6F2D7010E1F6E010E1E6E000ECE
:108C36001D6E000E1C6E000E246E000E376E020EA8
:108C4600376401D02ED03750020DE50EF324D96ECD
:108C5600000EF420DA6E000EDE6E000EDD6E37506A
:108C6600020D010EF324D96E000EF420DA6E000E0A
:108C7600DE6E000EDD6E3750010D0E0EF324D96E3A
:108C8600000EF420DA6E000EDF6E3750010D0B0E6B
:108C9600F324D96E000EF420DA6E000EDF6E372A4A
:108CA600CED7080E0001E56F040E0001E66F160E22
:108CB6000F01266F040E0401036F300E026F080EBB
:108CC6000401016F040E0401006F0401008F000E01
:108CD6002E6E000E0101ED6F000EEE6F000EEF6FAF
:108CE600000EF06F000E1B6E000E286E1200000EB6
:108CF6000001816F060E0001816501D0120000019E
:108D060081510001796F7A6B0001793B7A3BF00E55
:108D16007A1779510F0B7A13F00E7917000E0001AE
:108D2600792500017F6F010E00017A210001806F15
:108D36007FC071F080C072F07B0E0001736F000E71
:108D46000001746F040E0001756F6BEC63F0770E13
:108D560000017B19D8A42AD0550E00017C19D8A48D
:108D660025D0330E00017D19D8A420D000018151F1
:108D760000017E19D8A41AD0040E00017F27000E28
:108D860080237FC071F080C072F0000181510C0D0C
:108D9600000EF3240001736F030EF4200001746FBC
:108DA6000C0E0001756F6BEC63F043D0000181512E
:108DB6000C0D000EF3240001606F030EF420000179
:108DC600616F81C062F0E9EC2DF01CD0020E60EC00
:108DD60064F02FD0030E60EC64F02BD0040E60EC30
:108DE60064F027D0050E60EC64F023D0060E60EC2C
:108DF60064F01FD0070E60EC64F01BD0080E60EC28
:108E060064F017D000018151000AD8B4DFD7010AF7
:108E1600D8B4E0D7030AD8B4E1D7010AD8B4E2D768
:108E2600070AD8B4E3D7010AD8B4E4D7030AD8B4FA
:108E3600E5D70001812B5ED764C069F000016A6B3B
:108E4600000169516A6F696B000165510001691380
:108E560045D063C067F00001673B0F0E671700013E
:108E660067510C0D050EF326000EF422000EF324B6
:108E7600D96E030EF420DA6E69C0DEFF6AC0DDFF2C
:108E86005DD063C067F00001673B0F0E67170001F6
:108E960067510C0D070EF326000EF422000EF32484
:108EA600D96E030EF420DA6E69C0DEFF6AC0DDFFFC
:108EB60063C067F00001673B0F0E6717000167513B
:108EC6000C0D090EF326000EF422000EF324D96EC3
:108ED600030EF420DA6E66C0DFFF30D00001635166
:108EE6000F0B0001676F686B00016851000AD8A478
:108EF60025D000016751000AD8B4ABD7010AD8B40F
:108F0600C0D71CD0020E60EC64F01200030E60ECB9
:108F160064F01200040E60EC64F01200050E60ECC2
:108F260064F01200060E60EC64F01200070E60ECAE
:108F360064F01200080E60EC64F012000001633960
:108F46000F0B0001676F686B00016851000AD8A417
:108F5600120000016751000AD8B4D4D7010AD8B468
:108F6600D5D7030AD8B4D6D7010AD8B4D7D7070AB3
:108F7600D8B4D8D7010AD8B4D9D7030AD8A41200CE
:108F8600D9D7800E04013019D8A41200C00E0001F2
:108F9600E26F8FD08E0E0001DF6F470E0001E06F8B
:108FA600000E0001E46F120EE36F1200040132514D
:108FB600D8A447D004013251020D8F0EF324F66E69
:108FC600460EF420F76EF86A000EF8220900F5CF77
:108FD600DFF00A00F5CFE0F0020E0001DF252F6E6C
:108FE600000E0001E021306E2FC0F6FF30C0F7FF03
:108FF600F86A0E0EF76403D00800F55005D0F6CFD8
:10900600E9FFF7CFEAFFEF500001E36F030E00011F
:10901600DF252F6E000E0001E021306E2FC0F6FF17
:1090260030C0F7FFF86A0E0EF76403D00800F5505B
:1090360005D0F6CFE9FFF7CFEAFFEF500001E46F66
:109046001200000E0001E26F1200040E04013261EC
:1090560028D004013251020D7D0EF324F66E460E21
:10906600F420F76EF86A000EF8220900F5CFDFF05B
:109076000A00F5CFE0F0DFC0F6FFE0C0F7FFF86AC0
:109086000E0EF76403D00800F55005D0F6CFE9FFC1
:10909600F7CFEAFFEF502F6E2F500001E36FE46B1E
:1090A6001200000E0001E26F1200000E0001E26FD6
:1090B600120004013351010AD8B46CD7030AD8B49C
:1090C60075D7010AD8B4C1D7F0D762C064F00001E1
:1090D600656B666B000161350001643701E36581EC
:1090E6000001645100016E6F00016E51D8A40AD0D0
:1090F600000E0001606F000E616F000E626F000EC1
:10910600636F1200170E0001646F60C065F061C0E6
:1091160066F062C067F0000164290001686F05D03F
:109126000001D8906733663365330001682FF8D79E
:10913600000165510001696F0001618FFF0E00019A
:109146006017FF0E00016117000E00016217000193
:10915600605100016A6F0001615100016B6F0001EF
:10916600625100016C6F00016D6B8E0E00016E5F27
:1091760000016EAF1AD000016E51800A8F0FD8B071
:109186000AD0000E0001606F000E616F000E626F64
:10919600000E636F12000001D8906D336C336B3391
:1091A6006A3300016E3FF7D71BD0170E00016E65BC
:1091B60012D0000E0001606F000E616F000E626F2C
:1091C600000E636F12000001D8906A376B376C3758
:1091D6006D3700016E0700016E510001D8A4F3D768
:1091E600000169510001D8B409D000016D1F6C1F40
:1091F6006B1F6A6D000E6B236C236D236AC060F0D3
:109206006BC061F06CC062F06DC063F012000001CB
:10921600656F000165510001D8A42BD020EE01F046
:109226001150D9261250DA22080EDF6E20EE02F017
:109236001150D9261250DA22300EDE6E040EDD6E83
:1092460011C0D9FF12C0DAFF0C0EDF6E11C0D9FFB4
:1092560012C0DAFF000EDB8EE5C0D9FFE6C0DAFFEA
:10926600040EDF6EE5C0D9FFE6C0DAFF000EDB8E26
:109276001200000160510001616F626BD89000011D
:1092860061376237000165510001636F646B00014D
:10929600D890633764370001D8906337643700018C
:1092A600615100016327000162510001642300013E
:1092B600D890633764370001D89063376437000E5F
:1092C600000163250001666F040E000164210001A0
:1092D600676F66C0D9FF67C0DAFF000EDB8466C021
:1092E600D9FF67C0DAFF000EDB8E00016551040D61
:1092F600F3CF61F0F4CF62F000016051020DF3503C
:1093060000016127F450000162230001D890613703
:1093160062370001D89061376237040E0001612779
:10932600000E6223000E000161250001666F040E27
:10933600000162210001676F66C0D9FF67C0DAFFCE
:10934600000EDB8466C0D9FF67C0DAFF000EDB8E35
:1093560012002804D8B465BA08D0000E626E0F0158
:1093660036810F013689020E286E62A406D00F01DF
:1093760036A503D0629496EC68F065A202D0A19857
:10938600120062A009D00F0136A106D0CFEC45F03D
:10939600A088040E286E629062A804D00F0136B928
:1093A600E1EC68F062AC1BD00F0136AD0ED0000EBA
:1093B6003F6E730E3E6E000E406E000E416E000E46
:1093C600436E010E426E60EC5FF0629CADEC6AF09B
:1093D6002150D8A421062150D8B43DEC59F062AAF8
:1093E60004D00F0136BBC9EC66F062A212D00F01A1
:1093F60036A30FD07F0E3F6E3E68000E406E000E05
:10940600416E000E436E010E426E60EC5FF0000E80
:10941600636E040E286002D0A19812000F0136A7D1
:1094260038D0000E4E6E030E4E6401D032D062A6C6
:1094360030D064CF2DF02D30E832E8320F0B236E9A
:1094460062962DB407D02350010D0B0EF324D96E6E
:10945600000E06D02350010D0E0EF324D96E000E19
:10946600F420DA6EDF702350D8A403D0CDEC5BF085
:109476000ED0000E3F6E720E3E6E2D0E406E000E2A
:10948600416E000E436E000E426E60EC5FF04E2A97
:10949600CAD7A198120002012B5102012925000109
:1094A6006C6F02012C5102012A2100016D6F02012D
:1094B6002D5100016C2702012E5100016D2302017E
:1094C6002F5100016C270201305100016D236CC041
:1094D60070F06DC071F00001000E71BFFF0E726F6B
:1094E600736F2EC36CF02FC36DF0000E00016DBFBD
:1094F600FF0E6E6F6F6F00016C5100017027000147
:109506006D510001712300016E51000172230001AB
:109516006F510001732329C36CF02AC36DF0000E4E
:1095260000016DBFFF0E6E6F6F6F00016C51000181
:10953600702700016D510001712300016E51000179
:10954600722300016F510001732370C060F071C077
:1095560061F072C062F073C063F023EE2BF0DECFD1
:1095660064F0DDCF65F00001000E65BFFF0E666F8B
:10957600676FDDEC60F060C070F061C071F062C0D2
:1095860072F063C073F02DC36CF0FF0E00016C2700
:1095960000016C2900016D6F06D00001733573332D
:1095A60072337133703300016D2FF7D7010E00014E
:1095B6007027000E712372237323000173357333F2
:1095C60072337133703370C032F271C033F21200ED
:1095D600020116510201142500016C6F0201175198
:1095E6000201152100016D6F0201185100016C275F
:1095F6000201195100016D2302011A5100016C2765
